{"contracts/EmiAutoPayEVM.sol":{"EmiAutoPayEVM":{"abi":[{"inputs":[{"internalType":"address","name":"_usdt","type":"address"}],"stateMutability":"nonpayable","type":"constructor"},{"anonymous":false,"inputs":[{"indexed":true,"internalType":"uint256","name":"planId","type":"uint256"}],"name":"EmiCompleted","type":"event"},{"anonymous":false,"inputs":[{"indexed":true,"internalType":"uint256","name":"planId","type":"uint256"},{"indexed":false,"internalType":"uint256","name":"amount","type":"uint256"}],"name":"EmiPaid","type":"event"},{"anonymous":false,"inputs":[{"indexed":true,"internalType":"uint256","name":"planId","type":"uint256"},{"indexed":false,"internalType":"address","name":"sender","type":"address"}],"name":"PlanActivated","type":"event"},{"anonymous":false,"inputs":[{"indexed":true,"internalType":"uint256","name":"planId","type":"uint256"}],"name":"PlanCreated","type":"event"},{"anonymous":false,"inputs":[{"indexed":true,"internalType":"uint256","name":"planId","type":"uint256"},{"indexed":true,"internalType":"address","name":"oldReceiver","type":"address"},{"indexed":true,"internalType":"address","name":"newReceiver","type":"address"}],"name":"ReceiverUpdated","type":"event"},{"inputs":[],"name":"PERMIT2","outputs":[{"internalType":"address","name":"","type":"address"}],"stateMutability":"view","type":"function"},{"inputs":[],"name":"USDT","outputs":[{"internalType":"address","name":"","type":"address"}],"stateMutability":"view","type":"function"},{"inputs":[{"internalType":"uint256","name":"planId","type":"uint256"},{"internalType":"uint160","name":"activationAmount","type":"uint160"},{"components":[{"components":[{"internalType":"address","name":"token","type":"address"},{"internalType":"uint160","name":"amount","type":"uint160"},{"internalType":"uint48","name":"expiration","type":"uint48"},{"internalType":"uint48","name":"nonce","type":"uint48"}],"internalType":"struct PermitDetails","name":"details","type":"tuple"},{"internalType":"address","name":"spender","type":"address"},{"internalType":"uint256","name":"sigDeadline","type":"uint256"}],"internalType":"struct PermitSingle","name":"permit","type":"tuple"},{"internalType":"bytes","name":"signature","type":"bytes"}],"name":"activatePlanWithPermit2AndPay","outputs":[],"stateMutability":"nonpayable","type":"function"},{"inputs":[{"internalType":"bytes","name":"","type":"bytes"}],"name":"checkUpkeep","outputs":[{"internalType":"bool","name":"upkeepNeeded","type":"bool"},{"internalType":"bytes","name":"performData","type":"bytes"}],"stateMutability":"view","type":"function"},{"inputs":[{"internalType":"uint256","name":"emi","type":"uint256"},{"internalType":"uint256","name":"interval","type":"uint256"},{"internalType":"uint256","name":"total","type":"uint256"}],"name":"createPlan","outputs":[],"stateMutability":"nonpayable","type":"function"},{"inputs":[{"internalType":"bytes","name":"data","type":"bytes"}],"name":"performUpkeep","outputs":[],"stateMutability":"nonpayable","type":"function"},{"inputs":[],"name":"planCount","outputs":[{"internalType":"uint256","name":"","type":"uint256"}],"stateMutability":"view","type":"function"},{"inputs":[{"internalType":"uint256","name":"","type":"uint256"}],"name":"plans","outputs":[{"internalType":"address","name":"sender","type":"address"},{"internalType":"address","name":"receiver","type":"address"},{"internalType":"uint256","name":"emi","type":"uint256"},{"internalType":"uint256","name":"interval","type":"uint256"},{"internalType":"uint256","name":"total","type":"uint256"},{"internalType":"uint256","name":"paid","type":"uint256"},{"internalType":"uint256","name":"nextPay","type":"uint256"},{"internalType":"bool","name":"active","type":"bool"}],"stateMutability":"view","type":"function"},{"inputs":[{"internalType":"uint256","name":"planId","type":"uint256"},{"internalType":"address","name":"newReceiver","type":"address"}],"name":"updateReceiver","outputs":[],"stateMutability":"nonpayable","type":"function"}],"evm":{"bytecode":{"linkReferences":{},"object":"60a06040523480156200001157600080fd5b506040516200211e3803806200211e833981810160405281019062000037919062000156565b6001600081905550600073ffffffffffffffffffffffffffffffffffffffff168173ffffffffffffffffffffffffffffffffffffffff1603620000b1576040517f08c379a0000000000000000000000000000000000000000000000000000000008152600401620000a890620001e9565b60405180910390fd5b8073ffffffffffffffffffffffffffffffffffffffff1660808173ffffffffffffffffffffffffffffffffffffffff1681525050506200020b565b600080fd5b600073ffffffffffffffffffffffffffffffffffffffff82169050919050565b60006200011e82620000f1565b9050919050565b620001308162000111565b81146200013c57600080fd5b50565b600081519050620001508162000125565b92915050565b6000602082840312156200016f576200016e620000ec565b5b60006200017f848285016200013f565b91505092915050565b600082825260208201905092915050565b7f496e76616c696420555344540000000000000000000000000000000000000000600082015250565b6000620001d1600c8362000188565b9150620001de8262000199565b602082019050919050565b600060208201905081810360008301526200020481620001c2565b9050919050565b608051611ee26200023c600039600081816103480152818161059f015281816107c40152610fc50152611ee26000f3fe608060405234801561001057600080fd5b50600436106100935760003560e01c80634c6ec871116100665780634c6ec8711461010a5780636afdd850146101265780636e04ff0d14610144578063b162061614610175578063c54e44eb146101ac57610093565b8063382d39bb1461009857806342b132f1146100b65780634585e33b146100d25780634aec7384146100ee575b600080fd5b6100a06101ca565b6040516100ad9190611059565b60405180910390f35b6100d060048036038101906100cb919061117f565b6101d0565b005b6100ec60048036038101906100e79190611209565b6106c5565b005b61010860048036038101906101039190611256565b610914565b005b610124600480360381019061011f91906112e7565b610b8e565b005b61012e610e56565b60405161013b9190611336565b60405180910390f35b61015e60048036038101906101599190611209565b610e69565b60405161016c9291906113fc565b60405180910390f35b61018f600480360381019061018a919061142c565b610f2e565b6040516101a3989796959493929190611459565b60405180910390f35b6101b4610fc3565b6040516101c19190611336565b60405180910390f35b60015481565b6101d8610fe7565b6000600260008781526020019081526020016000209050600073ffffffffffffffffffffffffffffffffffffffff168160010160009054906101000a900473ffffffffffffffffffffffffffffffffffffffff1673ffffffffffffffffffffffffffffffffffffffff1603610282576040517f08c379a000000000000000000000000000000000000000000000000000000000815260040161027990611534565b60405180910390fd5b8060070160009054906101000a900460ff16156102d4576040517f08c379a00000000000000000000000000000000000000000000000000000000081526004016102cb906115a0565b60405180910390fd5b80600401548460000160200160208101906102ef91906115c0565b73ffffffffffffffffffffffffffffffffffffffff161015610346576040517f08c379a000000000000000000000000000000000000000000000000000000000815260040161033d90611639565b60405180910390fd5b7f000000000000000000000000000000000000000000000000000000000000000073ffffffffffffffffffffffffffffffffffffffff168460000160000160208101906103939190611659565b73ffffffffffffffffffffffffffffffffffffffff16146103e9576040517f08c379a00000000000000000000000000000000000000000000000000000000081526004016103e0906116d2565b60405180910390fd5b3073ffffffffffffffffffffffffffffffffffffffff168460800160208101906104139190611659565b73ffffffffffffffffffffffffffffffffffffffff1614610469576040517f08c379a00000000000000000000000000000000000000000000000000000000081526004016104609061173e565b60405180910390fd5b338160000160006101000a81548173ffffffffffffffffffffffffffffffffffffffff021916908373ffffffffffffffffffffffffffffffffffffffff1602179055506e22d473030f116ddee9f6b43ac78ba373ffffffffffffffffffffffffffffffffffffffff16632b67b570338686866040518563ffffffff1660e01b81526004016104fa949392919061194a565b600060405180830381600087803b15801561051457600080fd5b505af1158015610528573d6000803e3d6000fd5b5050505060008573ffffffffffffffffffffffffffffffffffffffff161115610648576e22d473030f116ddee9f6b43ac78ba373ffffffffffffffffffffffffffffffffffffffff166336c78516338360010160009054906101000a900473ffffffffffffffffffffffffffffffffffffffff16887f00000000000000000000000000000000000000000000000000000000000000006040518563ffffffff1660e01b81526004016105dd949392919061199a565b600060405180830381600087803b1580156105f757600080fd5b505af115801561060b573d6000803e3d6000fd5b50505050857f06e59a6ee972bbd5f5b1932131f47641231aa73d1b0d32bd72cea9471babf7428660405161063f9190611a1a565b60405180910390a25b60018160070160006101000a81548160ff0219169083151502179055508060030154426106759190611a64565b8160060181905550857f1f07c729fc76534d72c9e3ad0a792bf34de515a8aabc1a61bd40c2a2bd72ad88336040516106ad9190611336565b60405180910390a2506106be611036565b5050505050565b6106cd610fe7565b600082828101906106de919061142c565b905060006002600083815260200190815260200160002090508060070160009054906101000a900460ff16610748576040517f08c379a000000000000000000000000000000000000000000000000000000000815260040161073f90611ae4565b60405180910390fd5b6e22d473030f116ddee9f6b43ac78ba373ffffffffffffffffffffffffffffffffffffffff166336c785168260000160009054906101000a900473ffffffffffffffffffffffffffffffffffffffff168360010160009054906101000a900473ffffffffffffffffffffffffffffffffffffffff1684600201547f00000000000000000000000000000000000000000000000000000000000000006040518563ffffffff1660e01b8152600401610802949392919061199a565b600060405180830381600087803b15801561081c57600080fd5b505af1158015610830573d6000803e3d6000fd5b50505050806002015481600501600082825461084c9190611a64565b9250508190555080600401548160050154106108b15760008160070160006101000a81548160ff021916908315150217905550817f5417900f2b30001c152939c30dea707712a1b6254728bc12c5bf0137cb36e9a060405160405180910390a2610906565b8060030154426108c19190611a64565b8160060181905550817f06e59a6ee972bbd5f5b1932131f47641231aa73d1b0d32bd72cea9471babf74282600201546040516108fd9190611059565b60405180910390a25b5050610910611036565b5050565b60008311610957576040517f08c379a000000000000000000000000000000000000000000000000000000000815260040161094e90611b50565b60405180910390fd5b603c82101561099b576040517f08c379a000000000000000000000000000000000000000000000000000000000815260040161099290611bbc565b60405180910390fd5b828110156109de576040517f08c379a00000000000000000000000000000000000000000000000000000000081526004016109d590611c28565b60405180910390fd5b600160008154809291906109f190611c48565b9190505550604051806101000160405280600073ffffffffffffffffffffffffffffffffffffffff1681526020013373ffffffffffffffffffffffffffffffffffffffff16815260200184815260200183815260200182815260200160008152602001600081526020016000151581525060026000600154815260200190815260200160002060008201518160000160006101000a81548173ffffffffffffffffffffffffffffffffffffffff021916908373ffffffffffffffffffffffffffffffffffffffff16021790555060208201518160010160006101000a81548173ffffffffffffffffffffffffffffffffffffffff021916908373ffffffffffffffffffffffffffffffffffffffff16021790555060408201518160020155606082015181600301556080820151816004015560a0820151816005015560c0820151816006015560e08201518160070160006101000a81548160ff0219169083151502179055509050506001547f9dfd4372898f1ab4b7aab4735c5b8c07f64b72ef6f72e0da892265459fc1b86160405160405180910390a2505050565b60006002600084815260200190815260200160002090508060070160009054906101000a900460ff16610bf6576040517f08c379a0000000000000000000000000000000000000000000000000000000008152600401610bed90611cdc565b60405180910390fd5b8060010160009054906101000a900473ffffffffffffffffffffffffffffffffffffffff1673ffffffffffffffffffffffffffffffffffffffff163373ffffffffffffffffffffffffffffffffffffffff1614610c88576040517f08c379a0000000000000000000000000000000000000000000000000000000008152600401610c7f90611d48565b60405180910390fd5b600073ffffffffffffffffffffffffffffffffffffffff168273ffffffffffffffffffffffffffffffffffffffff1603610cf7576040517f08c379a0000000000000000000000000000000000000000000000000000000008152600401610cee90611db4565b60405180910390fd5b8060010160009054906101000a900473ffffffffffffffffffffffffffffffffffffffff1673ffffffffffffffffffffffffffffffffffffffff168273ffffffffffffffffffffffffffffffffffffffff1603610d89576040517f08c379a0000000000000000000000000000000000000000000000000000000008152600401610d8090611e20565b60405180910390fd5b60008160010160009054906101000a900473ffffffffffffffffffffffffffffffffffffffff169050828260010160006101000a81548173ffffffffffffffffffffffffffffffffffffffff021916908373ffffffffffffffffffffffffffffffffffffffff1602179055508273ffffffffffffffffffffffffffffffffffffffff168173ffffffffffffffffffffffffffffffffffffffff16857fa61d7b1eae34e89744b59e11899c644c1829b7dbac39f0dd73c510e16c77f3dd60405160405180910390a450505050565b6e22d473030f116ddee9f6b43ac78ba381565b600060606000600190505b6001548111610f0f5760006002600083815260200190815260200160002090508060070160009054906101000a900460ff168015610eb9575080600401548160050154105b8015610ec9575080600601544210155b15610efb57600182604051602001610ee19190611059565b604051602081830303815290604052935093505050610f27565b508080610f0790611c48565b915050610e74565b50600060405180602001604052806000815250915091505b9250929050565b60026020528060005260406000206000915090508060000160009054906101000a900473ffffffffffffffffffffffffffffffffffffffff16908060010160009054906101000a900473ffffffffffffffffffffffffffffffffffffffff16908060020154908060030154908060040154908060050154908060060154908060070160009054906101000a900460ff16905088565b7f000000000000000000000000000000000000000000000000000000000000000081565b60026000540361102c576040517f08c379a000000000000000000000000000000000000000000000000000000000815260040161102390611e8c565b60405180910390fd5b6002600081905550565b6001600081905550565b6000819050919050565b61105381611040565b82525050565b600060208201905061106e600083018461104a565b92915050565b600080fd5b600080fd5b61108781611040565b811461109257600080fd5b50565b6000813590506110a48161107e565b92915050565b600073ffffffffffffffffffffffffffffffffffffffff82169050919050565b6110d3816110aa565b81146110de57600080fd5b50565b6000813590506110f0816110ca565b92915050565b600080fd5b600060c08284031215611111576111106110f6565b5b81905092915050565b600080fd5b600080fd5b600080fd5b60008083601f84011261113f5761113e61111a565b5b8235905067ffffffffffffffff81111561115c5761115b61111f565b5b60208301915083600182028301111561117857611177611124565b5b9250929050565b6000806000806000610120868803121561119c5761119b611074565b5b60006111aa88828901611095565b95505060206111bb888289016110e1565b94505060406111cc888289016110fb565b93505061010086013567ffffffffffffffff8111156111ee576111ed611079565b5b6111fa88828901611129565b92509250509295509295909350565b600080602083850312156112205761121f611074565b5b600083013567ffffffffffffffff81111561123e5761123d611079565b5b61124a85828601611129565b92509250509250929050565b60008060006060848603121561126f5761126e611074565b5b600061127d86828701611095565b935050602061128e86828701611095565b925050604061129f86828701611095565b9150509250925092565b60006112b4826110aa565b9050919050565b6112c4816112a9565b81146112cf57600080fd5b50565b6000813590506112e1816112bb565b92915050565b600080604083850312156112fe576112fd611074565b5b600061130c85828601611095565b925050602061131d858286016112d2565b9150509250929050565b611330816112a9565b82525050565b600060208201905061134b6000830184611327565b92915050565b60008115159050919050565b61136681611351565b82525050565b600081519050919050565b600082825260208201905092915050565b60005b838110156113a657808201518184015260208101905061138b565b60008484015250505050565b6000601f19601f8301169050919050565b60006113ce8261136c565b6113d88185611377565b93506113e8818560208601611388565b6113f1816113b2565b840191505092915050565b6000604082019050611411600083018561135d565b818103602083015261142381846113c3565b90509392505050565b60006020828403121561144257611441611074565b5b600061145084828501611095565b91505092915050565b60006101008201905061146f600083018b611327565b61147c602083018a611327565b611489604083018961104a565b611496606083018861104a565b6114a3608083018761104a565b6114b060a083018661104a565b6114bd60c083018561104a565b6114ca60e083018461135d565b9998505050505050505050565b600082825260208201905092915050565b7f496e76616c696420706c616e0000000000000000000000000000000000000000600082015250565b600061151e600c836114d7565b9150611529826114e8565b602082019050919050565b6000602082019050818103600083015261154d81611511565b9050919050565b7f416c726561647920616374697665000000000000000000000000000000000000600082015250565b600061158a600e836114d7565b915061159582611554565b602082019050919050565b600060208201905081810360008301526115b98161157d565b9050919050565b6000602082840312156115d6576115d5611074565b5b60006115e4848285016110e1565b91505092915050565b7f5065726d697420616d6f756e74203c20746f74616c20454d4900000000000000600082015250565b60006116236019836114d7565b915061162e826115ed565b602082019050919050565b6000602082019050818103600083015261165281611616565b9050919050565b60006020828403121561166f5761166e611074565b5b600061167d848285016112d2565b91505092915050565b7f55534454206f6e6c790000000000000000000000000000000000000000000000600082015250565b60006116bc6009836114d7565b91506116c782611686565b602082019050919050565b600060208201905081810360008301526116eb816116af565b9050919050565b7f426164207370656e646572000000000000000000000000000000000000000000600082015250565b6000611728600b836114d7565b9150611733826116f2565b602082019050919050565b600060208201905081810360008301526117578161171b565b9050919050565b600082905092915050565b600061177860208401846112d2565b905092915050565b611789816112a9565b82525050565b600061179e60208401846110e1565b905092915050565b6117af816110aa565b82525050565b600065ffffffffffff82169050919050565b6117d0816117b5565b81146117db57600080fd5b50565b6000813590506117ed816117c7565b92915050565b600061180260208401846117de565b905092915050565b611813816117b5565b82525050565b6080820161182a6000830183611769565b6118376000850182611780565b50611845602083018361178f565b61185260208501826117a6565b5061186060408301836117f3565b61186d604085018261180a565b5061187b60608301836117f3565b611888606085018261180a565b50505050565b600061189d6020840184611095565b905092915050565b6118ae81611040565b82525050565b60c082016118c5600083018361175e565b6118d26000850182611819565b506118e06080830183611769565b6118ed6080850182611780565b506118fb60a083018361188e565b61190860a08501826118a5565b50505050565b82818337600083830152505050565b60006119298385611377565b935061193683858461190e565b61193f836113b2565b840190509392505050565b6000610100820190506119606000830187611327565b61196d60208301866118b4565b81810360e083015261198081848661191d565b905095945050505050565b611994816110aa565b82525050565b60006080820190506119af6000830187611327565b6119bc6020830186611327565b6119c9604083018561198b565b6119d66060830184611327565b95945050505050565b6000819050919050565b6000611a046119ff6119fa846110aa565b6119df565b611040565b9050919050565b611a14816119e9565b82525050565b6000602082019050611a2f6000830184611a0b565b92915050565b7f4e487b7100000000000000000000000000000000000000000000000000000000600052601160045260246000fd5b6000611a6f82611040565b9150611a7a83611040565b9250828201905080821115611a9257611a91611a35565b5b92915050565b7f496e616374697665000000000000000000000000000000000000000000000000600082015250565b6000611ace6008836114d7565b9150611ad982611a98565b602082019050919050565b60006020820190508181036000830152611afd81611ac1565b9050919050565b7f496e76616c696420454d49000000000000000000000000000000000000000000600082015250565b6000611b3a600b836114d7565b9150611b4582611b04565b602082019050919050565b60006020820190508181036000830152611b6981611b2d565b9050919050565b7f4d696e2036307300000000000000000000000000000000000000000000000000600082015250565b6000611ba66007836114d7565b9150611bb182611b70565b602082019050919050565b60006020820190508181036000830152611bd581611b99565b9050919050565b7f546f74616c203c20454d49000000000000000000000000000000000000000000600082015250565b6000611c12600b836114d7565b9150611c1d82611bdc565b602082019050919050565b60006020820190508181036000830152611c4181611c05565b9050919050565b6000611c5382611040565b91507fffffffffffffffffffffffffffffffffffffffffffffffffffffffffffffffff8203611c8557611c84611a35565b5b600182019050919050565b7f506c616e206e6f74206163746976650000000000000000000000000000000000600082015250565b6000611cc6600f836114d7565b9150611cd182611c90565b602082019050919050565b60006020820190508181036000830152611cf581611cb9565b9050919050565b7f4f6e6c792072656365697665722063616e207570646174650000000000000000600082015250565b6000611d326018836114d7565b9150611d3d82611cfc565b602082019050919050565b60006020820190508181036000830152611d6181611d25565b9050919050565b7f496e76616c696420616464726573730000000000000000000000000000000000600082015250565b6000611d9e600f836114d7565b9150611da982611d68565b602082019050919050565b60006020820190508181036000830152611dcd81611d91565b9050919050565b7f53616d6520726563656976657200000000000000000000000000000000000000600082015250565b6000611e0a600d836114d7565b9150611e1582611dd4565b602082019050919050565b60006020820190508181036000830152611e3981611dfd565b9050919050565b7f5265656e7472616e637947756172643a207265656e7472616e742063616c6c00600082015250565b6000611e76601f836114d7565b9150611e8182611e40565b602082019050919050565b60006020820190508181036000830152611ea581611e69565b905091905056fea264697066735822122003a4187d8258a257e2360418319416cf9d825546d63865224e660ee2dac31a7b64736f6c63430008140033","opcodes":"PUSH1 0xA0 PUSH1 0x40 MSTORE CALLVALUE DUP1 ISZERO PUSH3 0x11 JUMPI PUSH1 0x0 DUP1 REVERT JUMPDEST POP PUSH1 0x40 MLOAD PUSH3 0x211E CODESIZE SUB DUP1 PUSH3 0x211E DUP4 CODECOPY DUP2 DUP2 ADD PUSH1 0x40 MSTORE DUP2 ADD SWAP1 PUSH3 0x37 SWAP2 SWAP1 PUSH3 0x156 JUMP JUMPDEST PUSH1 0x1 PUSH1 0x0 DUP2 SWAP1 SSTORE POP PUSH1 0x0 PUSH20 0xFFFFFFFFFFFFFFFFFFFFFFFFFFFFFFFFFFFFFFFF AND DUP2 PUSH20 0xFFFFFFFFFFFFFFFFFFFFFFFFFFFFFFFFFFFFFFFF AND SUB PUSH3 0xB1 JUMPI PUSH1 0x40 MLOAD PUSH32 0x8C379A000000000000000000000000000000000000000000000000000000000 DUP2 MSTORE PUSH1 0x4 ADD PUSH3 0xA8 SWAP1 PUSH3 0x1E9 JUMP JUMPDEST PUSH1 0x40 MLOAD DUP1 SWAP2 SUB SWAP1 REVERT JUMPDEST DUP1 PUSH20 0xFFFFFFFFFFFFFFFFFFFFFFFFFFFFFFFFFFFFFFFF AND PUSH1 0x80 DUP2 PUSH20 0xFFFFFFFFFFFFFFFFFFFFFFFFFFFFFFFFFFFFFFFF AND DUP2 MSTORE POP POP POP PUSH3 0x20B JUMP JUMPDEST PUSH1 0x0 DUP1 REVERT JUMPDEST PUSH1 0x0 PUSH20 0xFFFFFFFFFFFFFFFFFFFFFFFFFFFFFFFFFFFFFFFF DUP3 AND SWAP1 POP SWAP2 SWAP1 POP JUMP JUMPDEST PUSH1 0x0 PUSH3 0x11E DUP3 PUSH3 0xF1 JUMP JUMPDEST SWAP1 POP SWAP2 SWAP1 POP JUMP JUMPDEST PUSH3 0x130 DUP2 PUSH3 0x111 JUMP JUMPDEST DUP2 EQ PUSH3 0x13C JUMPI PUSH1 0x0 DUP1 REVERT JUMPDEST POP JUMP JUMPDEST PUSH1 0x0 DUP2 MLOAD SWAP1 POP PUSH3 0x150 DUP2 PUSH3 0x125 JUMP JUMPDEST SWAP3 SWAP2 POP POP JUMP JUMPDEST PUSH1 0x0 PUSH1 0x20 DUP3 DUP5 SUB SLT ISZERO PUSH3 0x16F JUMPI PUSH3 0x16E PUSH3 0xEC JUMP JUMPDEST JUMPDEST PUSH1 0x0 PUSH3 0x17F DUP5 DUP3 DUP6 ADD PUSH3 0x13F JUMP JUMPDEST SWAP2 POP POP SWAP3 SWAP2 POP POP JUMP JUMPDEST PUSH1 0x0 DUP3 DUP3 MSTORE PUSH1 0x20 DUP3 ADD SWAP1 POP SWAP3 SWAP2 POP POP JUMP JUMPDEST PUSH32 0x496E76616C696420555344540000000000000000000000000000000000000000 PUSH1 0x0 DUP3 ADD MSTORE POP JUMP JUMPDEST PUSH1 0x0 PUSH3 0x1D1 PUSH1 0xC DUP4 PUSH3 0x188 JUMP JUMPDEST SWAP2 POP PUSH3 0x1DE DUP3 PUSH3 0x199 JUMP JUMPDEST PUSH1 0x20 DUP3 ADD SWAP1 POP SWAP2 SWAP1 POP JUMP JUMPDEST PUSH1 0x0 PUSH1 0x20 DUP3 ADD SWAP1 POP DUP2 DUP2 SUB PUSH1 0x0 DUP4 ADD MSTORE PUSH3 0x204 DUP2 PUSH3 0x1C2 JUMP JUMPDEST SWAP1 POP SWAP2 SWAP1 POP JUMP JUMPDEST PUSH1 0x80 MLOAD PUSH2 0x1EE2 PUSH3 0x23C PUSH1 0x0 CODECOPY PUSH1 0x0 DUP2 DUP2 PUSH2 0x348 ADD MSTORE DUP2 DUP2 PUSH2 0x59F ADD MSTORE DUP2 DUP2 PUSH2 0x7C4 ADD MSTORE PUSH2 0xFC5 ADD MSTORE PUSH2 0x1EE2 PUSH1 0x0 RETURN INVALID PUSH1 0x80 PUSH1 0x40 MSTORE CALLVALUE DUP1 ISZERO PUSH2 0x10 JUMPI PUSH1 0x0 DUP1 REVERT JUMPDEST POP PUSH1 0x4 CALLDATASIZE LT PUSH2 0x93 JUMPI PUSH1 0x0 CALLDATALOAD PUSH1 0xE0 SHR DUP1 PUSH4 0x4C6EC871 GT PUSH2 0x66 JUMPI DUP1 PUSH4 0x4C6EC871 EQ PUSH2 0x10A JUMPI DUP1 PUSH4 0x6AFDD850 EQ PUSH2 0x126 JUMPI DUP1 PUSH4 0x6E04FF0D EQ PUSH2 0x144 JUMPI DUP1 PUSH4 0xB1620616 EQ PUSH2 0x175 JUMPI DUP1 PUSH4 0xC54E44EB EQ PUSH2 0x1AC JUMPI PUSH2 0x93 JUMP JUMPDEST DUP1 PUSH4 0x382D39BB EQ PUSH2 0x98 JUMPI DUP1 PUSH4 0x42B132F1 EQ PUSH2 0xB6 JUMPI DUP1 PUSH4 0x4585E33B EQ PUSH2 0xD2 JUMPI DUP1 PUSH4 0x4AEC7384 EQ PUSH2 0xEE JUMPI JUMPDEST PUSH1 0x0 DUP1 REVERT JUMPDEST PUSH2 0xA0 PUSH2 0x1CA JUMP JUMPDEST PUSH1 0x40 MLOAD PUSH2 0xAD SWAP2 SWAP1 PUSH2 0x1059 JUMP JUMPDEST PUSH1 0x40 MLOAD DUP1 SWAP2 SUB SWAP1 RETURN JUMPDEST PUSH2 0xD0 PUSH1 0x4 DUP1 CALLDATASIZE SUB DUP2 ADD SWAP1 PUSH2 0xCB SWAP2 SWAP1 PUSH2 0x117F JUMP JUMPDEST PUSH2 0x1D0 JUMP JUMPDEST STOP JUMPDEST PUSH2 0xEC PUSH1 0x4 DUP1 CALLDATASIZE SUB DUP2 ADD SWAP1 PUSH2 0xE7 SWAP2 SWAP1 PUSH2 0x1209 JUMP JUMPDEST PUSH2 0x6C5 JUMP JUMPDEST STOP JUMPDEST PUSH2 0x108 PUSH1 0x4 DUP1 CALLDATASIZE SUB DUP2 ADD SWAP1 PUSH2 0x103 SWAP2 SWAP1 PUSH2 0x1256 JUMP JUMPDEST PUSH2 0x914 JUMP JUMPDEST STOP JUMPDEST PUSH2 0x124 PUSH1 0x4 DUP1 CALLDATASIZE SUB DUP2 ADD SWAP1 PUSH2 0x11F SWAP2 SWAP1 PUSH2 0x12E7 JUMP JUMPDEST PUSH2 0xB8E JUMP JUMPDEST STOP JUMPDEST PUSH2 0x12E PUSH2 0xE56 JUMP JUMPDEST PUSH1 0x40 MLOAD PUSH2 0x13B SWAP2 SWAP1 PUSH2 0x1336 JUMP JUMPDEST PUSH1 0x40 MLOAD DUP1 SWAP2 SUB SWAP1 RETURN JUMPDEST PUSH2 0x15E PUSH1 0x4 DUP1 CALLDATASIZE SUB DUP2 ADD SWAP1 PUSH2 0x159 SWAP2 SWAP1 PUSH2 0x1209 JUMP JUMPDEST PUSH2 0xE69 JUMP JUMPDEST PUSH1 0x40 MLOAD PUSH2 0x16C SWAP3 SWAP2 SWAP1 PUSH2 0x13FC JUMP JUMPDEST PUSH1 0x40 MLOAD DUP1 SWAP2 SUB SWAP1 RETURN JUMPDEST PUSH2 0x18F PUSH1 0x4 DUP1 CALLDATASIZE SUB DUP2 ADD SWAP1 PUSH2 0x18A SWAP2 SWAP1 PUSH2 0x142C JUMP JUMPDEST PUSH2 0xF2E JUMP JUMPDEST PUSH1 0x40 MLOAD PUSH2 0x1A3 SWAP9 SWAP8 SWAP7 SWAP6 SWAP5 SWAP4 SWAP3 SWAP2 SWAP1 PUSH2 0x1459 JUMP JUMPDEST PUSH1 0x40 MLOAD DUP1 SWAP2 SUB SWAP1 RETURN JUMPDEST PUSH2 0x1B4 PUSH2 0xFC3 JUMP JUMPDEST PUSH1 0x40 MLOAD PUSH2 0x1C1 SWAP2 SWAP1 PUSH2 0x1336 JUMP JUMPDEST PUSH1 0x40 MLOAD DUP1 SWAP2 SUB SWAP1 RETURN JUMPDEST PUSH1 0x1 SLOAD DUP2 JUMP JUMPDEST PUSH2 0x1D8 PUSH2 0xFE7 JUMP JUMPDEST PUSH1 0x0 PUSH1 0x2 PUSH1 0x0 DUP8 DUP2 MSTORE PUSH1 0x20 ADD SWAP1 DUP2 MSTORE PUSH1 0x20 ADD PUSH1 0x0 KECCAK256 SWAP1 POP PUSH1 0x0 PUSH20 0xFFFFFFFFFFFFFFFFFFFFFFFFFFFFFFFFFFFFFFFF AND DUP2 PUSH1 0x1 ADD PUSH1 0x0 SWAP1 SLOAD SWAP1 PUSH2 0x100 EXP SWAP1 DIV PUSH20 0xFFFFFFFFFFFFFFFFFFFFFFFFFFFFFFFFFFFFFFFF AND PUSH20 0xFFFFFFFFFFFFFFFFFFFFFFFFFFFFFFFFFFFFFFFF AND SUB PUSH2 0x282 JUMPI PUSH1 0x40 MLOAD PUSH32 0x8C379A000000000000000000000000000000000000000000000000000000000 DUP2 MSTORE PUSH1 0x4 ADD PUSH2 0x279 SWAP1 PUSH2 0x1534 JUMP JUMPDEST PUSH1 0x40 MLOAD DUP1 SWAP2 SUB SWAP1 REVERT JUMPDEST DUP1 PUSH1 0x7 ADD PUSH1 0x0 SWAP1 SLOAD SWAP1 PUSH2 0x100 EXP SWAP1 DIV PUSH1 0xFF AND ISZERO PUSH2 0x2D4 JUMPI PUSH1 0x40 MLOAD PUSH32 0x8C379A000000000000000000000000000000000000000000000000000000000 DUP2 MSTORE PUSH1 0x4 ADD PUSH2 0x2CB SWAP1 PUSH2 0x15A0 JUMP JUMPDEST PUSH1 0x40 MLOAD DUP1 SWAP2 SUB SWAP1 REVERT JUMPDEST DUP1 PUSH1 0x4 ADD SLOAD DUP5 PUSH1 0x0 ADD PUSH1 0x20 ADD PUSH1 0x20 DUP2 ADD SWAP1 PUSH2 0x2EF SWAP2 SWAP1 PUSH2 0x15C0 JUMP JUMPDEST PUSH20 0xFFFFFFFFFFFFFFFFFFFFFFFFFFFFFFFFFFFFFFFF AND LT ISZERO PUSH2 0x346 JUMPI PUSH1 0x40 MLOAD PUSH32 0x8C379A000000000000000000000000000000000000000000000000000000000 DUP2 MSTORE PUSH1 0x4 ADD PUSH2 0x33D SWAP1 PUSH2 0x1639 JUMP JUMPDEST PUSH1 0x40 MLOAD DUP1 SWAP2 SUB SWAP1 REVERT JUMPDEST PUSH32 0x0 PUSH20 0xFFFFFFFFFFFFFFFFFFFFFFFFFFFFFFFFFFFFFFFF AND DUP5 PUSH1 0x0 ADD PUSH1 0x0 ADD PUSH1 0x20 DUP2 ADD SWAP1 PUSH2 0x393 SWAP2 SWAP1 PUSH2 0x1659 JUMP JUMPDEST PUSH20 0xFFFFFFFFFFFFFFFFFFFFFFFFFFFFFFFFFFFFFFFF AND EQ PUSH2 0x3E9 JUMPI PUSH1 0x40 MLOAD PUSH32 0x8C379A000000000000000000000000000000000000000000000000000000000 DUP2 MSTORE PUSH1 0x4 ADD PUSH2 0x3E0 SWAP1 PUSH2 0x16D2 JUMP JUMPDEST PUSH1 0x40 MLOAD DUP1 SWAP2 SUB SWAP1 REVERT JUMPDEST ADDRESS PUSH20 0xFFFFFFFFFFFFFFFFFFFFFFFFFFFFFFFFFFFFFFFF AND DUP5 PUSH1 0x80 ADD PUSH1 0x20 DUP2 ADD SWAP1 PUSH2 0x413 SWAP2 SWAP1 PUSH2 0x1659 JUMP JUMPDEST PUSH20 0xFFFFFFFFFFFFFFFFFFFFFFFFFFFFFFFFFFFFFFFF AND EQ PUSH2 0x469 JUMPI PUSH1 0x40 MLOAD PUSH32 0x8C379A000000000000000000000000000000000000000000000000000000000 DUP2 MSTORE PUSH1 0x4 ADD PUSH2 0x460 SWAP1 PUSH2 0x173E JUMP JUMPDEST PUSH1 0x40 MLOAD DUP1 SWAP2 SUB SWAP1 REVERT JUMPDEST CALLER DUP2 PUSH1 0x0 ADD PUSH1 0x0 PUSH2 0x100 EXP DUP2 SLOAD DUP2 PUSH20 0xFFFFFFFFFFFFFFFFFFFFFFFFFFFFFFFFFFFFFFFF MUL NOT AND SWAP1 DUP4 PUSH20 0xFFFFFFFFFFFFFFFFFFFFFFFFFFFFFFFFFFFFFFFF AND MUL OR SWAP1 SSTORE POP PUSH15 0x22D473030F116DDEE9F6B43AC78BA3 PUSH20 0xFFFFFFFFFFFFFFFFFFFFFFFFFFFFFFFFFFFFFFFF AND PUSH4 0x2B67B570 CALLER DUP7 DUP7 DUP7 PUSH1 0x40 MLOAD DUP6 PUSH4 0xFFFFFFFF AND PUSH1 0xE0 SHL DUP2 MSTORE PUSH1 0x4 ADD PUSH2 0x4FA SWAP5 SWAP4 SWAP3 SWAP2 SWAP1 PUSH2 0x194A JUMP JUMPDEST PUSH1 0x0 PUSH1 0x40 MLOAD DUP1 DUP4 SUB DUP2 PUSH1 0x0 DUP8 DUP1 EXTCODESIZE ISZERO DUP1 ISZERO PUSH2 0x514 JUMPI PUSH1 0x0 DUP1 REVERT JUMPDEST POP GAS CALL ISZERO DUP1 ISZERO PUSH2 0x528 JUMPI RETURNDATASIZE PUSH1 0x0 DUP1 RETURNDATACOPY RETURNDATASIZE PUSH1 0x0 REVERT JUMPDEST POP POP POP POP PUSH1 0x0 DUP6 PUSH20 0xFFFFFFFFFFFFFFFFFFFFFFFFFFFFFFFFFFFFFFFF AND GT ISZERO PUSH2 0x648 JUMPI PUSH15 0x22D473030F116DDEE9F6B43AC78BA3 PUSH20 0xFFFFFFFFFFFFFFFFFFFFFFFFFFFFFFFFFFFFFFFF AND PUSH4 0x36C78516 CALLER DUP4 PUSH1 0x1 ADD PUSH1 0x0 SWAP1 SLOAD SWAP1 PUSH2 0x100 EXP SWAP1 DIV PUSH20 0xFFFFFFFFFFFFFFFFFFFFFFFFFFFFFFFFFFFFFFFF AND DUP9 PUSH32 0x0 PUSH1 0x40 MLOAD DUP6 PUSH4 0xFFFFFFFF AND PUSH1 0xE0 SHL DUP2 MSTORE PUSH1 0x4 ADD PUSH2 0x5DD SWAP5 SWAP4 SWAP3 SWAP2 SWAP1 PUSH2 0x199A JUMP JUMPDEST PUSH1 0x0 PUSH1 0x40 MLOAD DUP1 DUP4 SUB DUP2 PUSH1 0x0 DUP8 DUP1 EXTCODESIZE ISZERO DUP1 ISZERO PUSH2 0x5F7 JUMPI PUSH1 0x0 DUP1 REVERT JUMPDEST POP GAS CALL ISZERO DUP1 ISZERO PUSH2 0x60B JUMPI RETURNDATASIZE PUSH1 0x0 DUP1 RETURNDATACOPY RETURNDATASIZE PUSH1 0x0 REVERT JUMPDEST POP POP POP POP DUP6 PUSH32 0x6E59A6EE972BBD5F5B1932131F47641231AA73D1B0D32BD72CEA9471BABF742 DUP7 PUSH1 0x40 MLOAD PUSH2 0x63F SWAP2 SWAP1 PUSH2 0x1A1A JUMP JUMPDEST PUSH1 0x40 MLOAD DUP1 SWAP2 SUB SWAP1 LOG2 JUMPDEST PUSH1 0x1 DUP2 PUSH1 0x7 ADD PUSH1 0x0 PUSH2 0x100 EXP DUP2 SLOAD DUP2 PUSH1 0xFF MUL NOT AND SWAP1 DUP4 ISZERO ISZERO MUL OR SWAP1 SSTORE POP DUP1 PUSH1 0x3 ADD SLOAD TIMESTAMP PUSH2 0x675 SWAP2 SWAP1 PUSH2 0x1A64 JUMP JUMPDEST DUP2 PUSH1 0x6 ADD DUP2 SWAP1 SSTORE POP DUP6 PUSH32 0x1F07C729FC76534D72C9E3AD0A792BF34DE515A8AABC1A61BD40C2A2BD72AD88 CALLER PUSH1 0x40 MLOAD PUSH2 0x6AD SWAP2 SWAP1 PUSH2 0x1336 JUMP JUMPDEST PUSH1 0x40 MLOAD DUP1 SWAP2 SUB SWAP1 LOG2 POP PUSH2 0x6BE PUSH2 0x1036 JUMP JUMPDEST POP POP POP POP POP JUMP JUMPDEST PUSH2 0x6CD PUSH2 0xFE7 JUMP JUMPDEST PUSH1 0x0 DUP3 DUP3 DUP2 ADD SWAP1 PUSH2 0x6DE SWAP2 SWAP1 PUSH2 0x142C JUMP JUMPDEST SWAP1 POP PUSH1 0x0 PUSH1 0x2 PUSH1 0x0 DUP4 DUP2 MSTORE PUSH1 0x20 ADD SWAP1 DUP2 MSTORE PUSH1 0x20 ADD PUSH1 0x0 KECCAK256 SWAP1 POP DUP1 PUSH1 0x7 ADD PUSH1 0x0 SWAP1 SLOAD SWAP1 PUSH2 0x100 EXP SWAP1 DIV PUSH1 0xFF AND PUSH2 0x748 JUMPI PUSH1 0x40 MLOAD PUSH32 0x8C379A000000000000000000000000000000000000000000000000000000000 DUP2 MSTORE PUSH1 0x4 ADD PUSH2 0x73F SWAP1 PUSH2 0x1AE4 JUMP JUMPDEST PUSH1 0x40 MLOAD DUP1 SWAP2 SUB SWAP1 REVERT JUMPDEST PUSH15 0x22D473030F116DDEE9F6B43AC78BA3 PUSH20 0xFFFFFFFFFFFFFFFFFFFFFFFFFFFFFFFFFFFFFFFF AND PUSH4 0x36C78516 DUP3 PUSH1 0x0 ADD PUSH1 0x0 SWAP1 SLOAD SWAP1 PUSH2 0x100 EXP SWAP1 DIV PUSH20 0xFFFFFFFFFFFFFFFFFFFFFFFFFFFFFFFFFFFFFFFF AND DUP4 PUSH1 0x1 ADD PUSH1 0x0 SWAP1 SLOAD SWAP1 PUSH2 0x100 EXP SWAP1 DIV PUSH20 0xFFFFFFFFFFFFFFFFFFFFFFFFFFFFFFFFFFFFFFFF AND DUP5 PUSH1 0x2 ADD SLOAD PUSH32 0x0 PUSH1 0x40 MLOAD DUP6 PUSH4 0xFFFFFFFF AND PUSH1 0xE0 SHL DUP2 MSTORE PUSH1 0x4 ADD PUSH2 0x802 SWAP5 SWAP4 SWAP3 SWAP2 SWAP1 PUSH2 0x199A JUMP JUMPDEST PUSH1 0x0 PUSH1 0x40 MLOAD DUP1 DUP4 SUB DUP2 PUSH1 0x0 DUP8 DUP1 EXTCODESIZE ISZERO DUP1 ISZERO PUSH2 0x81C JUMPI PUSH1 0x0 DUP1 REVERT JUMPDEST POP GAS CALL ISZERO DUP1 ISZERO PUSH2 0x830 JUMPI RETURNDATASIZE PUSH1 0x0 DUP1 RETURNDATACOPY RETURNDATASIZE PUSH1 0x0 REVERT JUMPDEST POP POP POP POP DUP1 PUSH1 0x2 ADD SLOAD DUP2 PUSH1 0x5 ADD PUSH1 0x0 DUP3 DUP3 SLOAD PUSH2 0x84C SWAP2 SWAP1 PUSH2 0x1A64 JUMP JUMPDEST SWAP3 POP POP DUP2 SWAP1 SSTORE POP DUP1 PUSH1 0x4 ADD SLOAD DUP2 PUSH1 0x5 ADD SLOAD LT PUSH2 0x8B1 JUMPI PUSH1 0x0 DUP2 PUSH1 0x7 ADD PUSH1 0x0 PUSH2 0x100 EXP DUP2 SLOAD DUP2 PUSH1 0xFF MUL NOT AND SWAP1 DUP4 ISZERO ISZERO MUL OR SWAP1 SSTORE POP DUP2 PUSH32 0x5417900F2B30001C152939C30DEA707712A1B6254728BC12C5BF0137CB36E9A0 PUSH1 0x40 MLOAD PUSH1 0x40 MLOAD DUP1 SWAP2 SUB SWAP1 LOG2 PUSH2 0x906 JUMP JUMPDEST DUP1 PUSH1 0x3 ADD SLOAD TIMESTAMP PUSH2 0x8C1 SWAP2 SWAP1 PUSH2 0x1A64 JUMP JUMPDEST DUP2 PUSH1 0x6 ADD DUP2 SWAP1 SSTORE POP DUP2 PUSH32 0x6E59A6EE972BBD5F5B1932131F47641231AA73D1B0D32BD72CEA9471BABF742 DUP3 PUSH1 0x2 ADD SLOAD PUSH1 0x40 MLOAD PUSH2 0x8FD SWAP2 SWAP1 PUSH2 0x1059 JUMP JUMPDEST PUSH1 0x40 MLOAD DUP1 SWAP2 SUB SWAP1 LOG2 JUMPDEST POP POP PUSH2 0x910 PUSH2 0x1036 JUMP JUMPDEST POP POP JUMP JUMPDEST PUSH1 0x0 DUP4 GT PUSH2 0x957 JUMPI PUSH1 0x40 MLOAD PUSH32 0x8C379A000000000000000000000000000000000000000000000000000000000 DUP2 MSTORE PUSH1 0x4 ADD PUSH2 0x94E SWAP1 PUSH2 0x1B50 JUMP JUMPDEST PUSH1 0x40 MLOAD DUP1 SWAP2 SUB SWAP1 REVERT JUMPDEST PUSH1 0x3C DUP3 LT ISZERO PUSH2 0x99B JUMPI PUSH1 0x40 MLOAD PUSH32 0x8C379A000000000000000000000000000000000000000000000000000000000 DUP2 MSTORE PUSH1 0x4 ADD PUSH2 0x992 SWAP1 PUSH2 0x1BBC JUMP JUMPDEST PUSH1 0x40 MLOAD DUP1 SWAP2 SUB SWAP1 REVERT JUMPDEST DUP3 DUP2 LT ISZERO PUSH2 0x9DE JUMPI PUSH1 0x40 MLOAD PUSH32 0x8C379A000000000000000000000000000000000000000000000000000000000 DUP2 MSTORE PUSH1 0x4 ADD PUSH2 0x9D5 SWAP1 PUSH2 0x1C28 JUMP JUMPDEST PUSH1 0x40 MLOAD DUP1 SWAP2 SUB SWAP1 REVERT JUMPDEST PUSH1 0x1 PUSH1 0x0 DUP2 SLOAD DUP1 SWAP3 SWAP2 SWAP1 PUSH2 0x9F1 SWAP1 PUSH2 0x1C48 JUMP JUMPDEST SWAP2 SWAP1 POP SSTORE POP PUSH1 0x40 MLOAD DUP1 PUSH2 0x100 ADD PUSH1 0x40 MSTORE DUP1 PUSH1 0x0 PUSH20 0xFFFFFFFFFFFFFFFFFFFFFFFFFFFFFFFFFFFFFFFF AND DUP2 MSTORE PUSH1 0x20 ADD CALLER PUSH20 0xFFFFFFFFFFFFFFFFFFFFFFFFFFFFFFFFFFFFFFFF AND DUP2 MSTORE PUSH1 0x20 ADD DUP5 DUP2 MSTORE PUSH1 0x20 ADD DUP4 DUP2 MSTORE PUSH1 0x20 ADD DUP3 DUP2 MSTORE PUSH1 0x20 ADD PUSH1 0x0 DUP2 MSTORE PUSH1 0x20 ADD PUSH1 0x0 DUP2 MSTORE PUSH1 0x20 ADD PUSH1 0x0 ISZERO ISZERO DUP2 MSTORE POP PUSH1 0x2 PUSH1 0x0 PUSH1 0x1 SLOAD DUP2 MSTORE PUSH1 0x20 ADD SWAP1 DUP2 MSTORE PUSH1 0x20 ADD PUSH1 0x0 KECCAK256 PUSH1 0x0 DUP3 ADD MLOAD DUP2 PUSH1 0x0 ADD PUSH1 0x0 PUSH2 0x100 EXP DUP2 SLOAD DUP2 PUSH20 0xFFFFFFFFFFFFFFFFFFFFFFFFFFFFFFFFFFFFFFFF MUL NOT AND SWAP1 DUP4 PUSH20 0xFFFFFFFFFFFFFFFFFFFFFFFFFFFFFFFFFFFFFFFF AND MUL OR SWAP1 SSTORE POP PUSH1 0x20 DUP3 ADD MLOAD DUP2 PUSH1 0x1 ADD PUSH1 0x0 PUSH2 0x100 EXP DUP2 SLOAD DUP2 PUSH20 0xFFFFFFFFFFFFFFFFFFFFFFFFFFFFFFFFFFFFFFFF MUL NOT AND SWAP1 DUP4 PUSH20 0xFFFFFFFFFFFFFFFFFFFFFFFFFFFFFFFFFFFFFFFF AND MUL OR SWAP1 SSTORE POP PUSH1 0x40 DUP3 ADD MLOAD DUP2 PUSH1 0x2 ADD SSTORE PUSH1 0x60 DUP3 ADD MLOAD DUP2 PUSH1 0x3 ADD SSTORE PUSH1 0x80 DUP3 ADD MLOAD DUP2 PUSH1 0x4 ADD SSTORE PUSH1 0xA0 DUP3 ADD MLOAD DUP2 PUSH1 0x5 ADD SSTORE PUSH1 0xC0 DUP3 ADD MLOAD DUP2 PUSH1 0x6 ADD SSTORE PUSH1 0xE0 DUP3 ADD MLOAD DUP2 PUSH1 0x7 ADD PUSH1 0x0 PUSH2 0x100 EXP DUP2 SLOAD DUP2 PUSH1 0xFF MUL NOT AND SWAP1 DUP4 ISZERO ISZERO MUL OR SWAP1 SSTORE POP SWAP1 POP POP PUSH1 0x1 SLOAD PUSH32 0x9DFD4372898F1AB4B7AAB4735C5B8C07F64B72EF6F72E0DA892265459FC1B861 PUSH1 0x40 MLOAD PUSH1 0x40 MLOAD DUP1 SWAP2 SUB SWAP1 LOG2 POP POP POP JUMP JUMPDEST PUSH1 0x0 PUSH1 0x2 PUSH1 0x0 DUP5 DUP2 MSTORE PUSH1 0x20 ADD SWAP1 DUP2 MSTORE PUSH1 0x20 ADD PUSH1 0x0 KECCAK256 SWAP1 POP DUP1 PUSH1 0x7 ADD PUSH1 0x0 SWAP1 SLOAD SWAP1 PUSH2 0x100 EXP SWAP1 DIV PUSH1 0xFF AND PUSH2 0xBF6 JUMPI PUSH1 0x40 MLOAD PUSH32 0x8C379A000000000000000000000000000000000000000000000000000000000 DUP2 MSTORE PUSH1 0x4 ADD PUSH2 0xBED SWAP1 PUSH2 0x1CDC JUMP JUMPDEST PUSH1 0x40 MLOAD DUP1 SWAP2 SUB SWAP1 REVERT JUMPDEST DUP1 PUSH1 0x1 ADD PUSH1 0x0 SWAP1 SLOAD SWAP1 PUSH2 0x100 EXP SWAP1 DIV PUSH20 0xFFFFFFFFFFFFFFFFFFFFFFFFFFFFFFFFFFFFFFFF AND PUSH20 0xFFFFFFFFFFFFFFFFFFFFFFFFFFFFFFFFFFFFFFFF AND CALLER PUSH20 0xFFFFFFFFFFFFFFFFFFFFFFFFFFFFFFFFFFFFFFFF AND EQ PUSH2 0xC88 JUMPI PUSH1 0x40 MLOAD PUSH32 0x8C379A000000000000000000000000000000000000000000000000000000000 DUP2 MSTORE PUSH1 0x4 ADD PUSH2 0xC7F SWAP1 PUSH2 0x1D48 JUMP JUMPDEST PUSH1 0x40 MLOAD DUP1 SWAP2 SUB SWAP1 REVERT JUMPDEST PUSH1 0x0 PUSH20 0xFFFFFFFFFFFFFFFFFFFFFFFFFFFFFFFFFFFFFFFF AND DUP3 PUSH20 0xFFFFFFFFFFFFFFFFFFFFFFFFFFFFFFFFFFFFFFFF AND SUB PUSH2 0xCF7 JUMPI PUSH1 0x40 MLOAD PUSH32 0x8C379A000000000000000000000000000000000000000000000000000000000 DUP2 MSTORE PUSH1 0x4 ADD PUSH2 0xCEE SWAP1 PUSH2 0x1DB4 JUMP JUMPDEST PUSH1 0x40 MLOAD DUP1 SWAP2 SUB SWAP1 REVERT JUMPDEST DUP1 PUSH1 0x1 ADD PUSH1 0x0 SWAP1 SLOAD SWAP1 PUSH2 0x100 EXP SWAP1 DIV PUSH20 0xFFFFFFFFFFFFFFFFFFFFFFFFFFFFFFFFFFFFFFFF AND PUSH20 0xFFFFFFFFFFFFFFFFFFFFFFFFFFFFFFFFFFFFFFFF AND DUP3 PUSH20 0xFFFFFFFFFFFFFFFFFFFFFFFFFFFFFFFFFFFFFFFF AND SUB PUSH2 0xD89 JUMPI PUSH1 0x40 MLOAD PUSH32 0x8C379A000000000000000000000000000000000000000000000000000000000 DUP2 MSTORE PUSH1 0x4 ADD PUSH2 0xD80 SWAP1 PUSH2 0x1E20 JUMP JUMPDEST PUSH1 0x40 MLOAD DUP1 SWAP2 SUB SWAP1 REVERT JUMPDEST PUSH1 0x0 DUP2 PUSH1 0x1 ADD PUSH1 0x0 SWAP1 SLOAD SWAP1 PUSH2 0x100 EXP SWAP1 DIV PUSH20 0xFFFFFFFFFFFFFFFFFFFFFFFFFFFFFFFFFFFFFFFF AND SWAP1 POP DUP3 DUP3 PUSH1 0x1 ADD PUSH1 0x0 PUSH2 0x100 EXP DUP2 SLOAD DUP2 PUSH20 0xFFFFFFFFFFFFFFFFFFFFFFFFFFFFFFFFFFFFFFFF MUL NOT AND SWAP1 DUP4 PUSH20 0xFFFFFFFFFFFFFFFFFFFFFFFFFFFFFFFFFFFFFFFF AND MUL OR SWAP1 SSTORE POP DUP3 PUSH20 0xFFFFFFFFFFFFFFFFFFFFFFFFFFFFFFFFFFFFFFFF AND DUP2 PUSH20 0xFFFFFFFFFFFFFFFFFFFFFFFFFFFFFFFFFFFFFFFF AND DUP6 PUSH32 0xA61D7B1EAE34E89744B59E11899C644C1829B7DBAC39F0DD73C510E16C77F3DD PUSH1 0x40 MLOAD PUSH1 0x40 MLOAD DUP1 SWAP2 SUB SWAP1 LOG4 POP POP POP POP JUMP JUMPDEST PUSH15 0x22D473030F116DDEE9F6B43AC78BA3 DUP2 JUMP JUMPDEST PUSH1 0x0 PUSH1 0x60 PUSH1 0x0 PUSH1 0x1 SWAP1 POP JUMPDEST PUSH1 0x1 SLOAD DUP2 GT PUSH2 0xF0F JUMPI PUSH1 0x0 PUSH1 0x2 PUSH1 0x0 DUP4 DUP2 MSTORE PUSH1 0x20 ADD SWAP1 DUP2 MSTORE PUSH1 0x20 ADD PUSH1 0x0 KECCAK256 SWAP1 POP DUP1 PUSH1 0x7 ADD PUSH1 0x0 SWAP1 SLOAD SWAP1 PUSH2 0x100 EXP SWAP1 DIV PUSH1 0xFF AND DUP1 ISZERO PUSH2 0xEB9 JUMPI POP DUP1 PUSH1 0x4 ADD SLOAD DUP2 PUSH1 0x5 ADD SLOAD LT JUMPDEST DUP1 ISZERO PUSH2 0xEC9 JUMPI POP DUP1 PUSH1 0x6 ADD SLOAD TIMESTAMP LT ISZERO JUMPDEST ISZERO PUSH2 0xEFB JUMPI PUSH1 0x1 DUP3 PUSH1 0x40 MLOAD PUSH1 0x20 ADD PUSH2 0xEE1 SWAP2 SWAP1 PUSH2 0x1059 JUMP JUMPDEST PUSH1 0x40 MLOAD PUSH1 0x20 DUP2 DUP4 SUB SUB DUP2 MSTORE SWAP1 PUSH1 0x40 MSTORE SWAP4 POP SWAP4 POP POP POP PUSH2 0xF27 JUMP JUMPDEST POP DUP1 DUP1 PUSH2 0xF07 SWAP1 PUSH2 0x1C48 JUMP JUMPDEST SWAP2 POP POP PUSH2 0xE74 JUMP JUMPDEST POP PUSH1 0x0 PUSH1 0x40 MLOAD DUP1 PUSH1 0x20 ADD PUSH1 0x40 MSTORE DUP1 PUSH1 0x0 DUP2 MSTORE POP SWAP2 POP SWAP2 POP JUMPDEST SWAP3 POP SWAP3 SWAP1 POP JUMP JUMPDEST PUSH1 0x2 PUSH1 0x20 MSTORE DUP1 PUSH1 0x0 MSTORE PUSH1 0x40 PUSH1 0x0 KECCAK256 PUSH1 0x0 SWAP2 POP SWAP1 POP DUP1 PUSH1 0x0 ADD PUSH1 0x0 SWAP1 SLOAD SWAP1 PUSH2 0x100 EXP SWAP1 DIV PUSH20 0xFFFFFFFFFFFFFFFFFFFFFFFFFFFFFFFFFFFFFFFF AND SWAP1 DUP1 PUSH1 0x1 ADD PUSH1 0x0 SWAP1 SLOAD SWAP1 PUSH2 0x100 EXP SWAP1 DIV PUSH20 0xFFFFFFFFFFFFFFFFFFFFFFFFFFFFFFFFFFFFFFFF AND SWAP1 DUP1 PUSH1 0x2 ADD SLOAD SWAP1 DUP1 PUSH1 0x3 ADD SLOAD SWAP1 DUP1 PUSH1 0x4 ADD SLOAD SWAP1 DUP1 PUSH1 0x5 ADD SLOAD SWAP1 DUP1 PUSH1 0x6 ADD SLOAD SWAP1 DUP1 PUSH1 0x7 ADD PUSH1 0x0 SWAP1 SLOAD SWAP1 PUSH2 0x100 EXP SWAP1 DIV PUSH1 0xFF AND SWAP1 POP DUP9 JUMP JUMPDEST PUSH32 0x0 DUP2 JUMP JUMPDEST PUSH1 0x2 PUSH1 0x0 SLOAD SUB PUSH2 0x102C JUMPI PUSH1 0x40 MLOAD PUSH32 0x8C379A000000000000000000000000000000000000000000000000000000000 DUP2 MSTORE PUSH1 0x4 ADD PUSH2 0x1023 SWAP1 PUSH2 0x1E8C JUMP JUMPDEST PUSH1 0x40 MLOAD DUP1 SWAP2 SUB SWAP1 REVERT JUMPDEST PUSH1 0x2 PUSH1 0x0 DUP2 SWAP1 SSTORE POP JUMP JUMPDEST PUSH1 0x1 PUSH1 0x0 DUP2 SWAP1 SSTORE POP JUMP JUMPDEST PUSH1 0x0 DUP2 SWAP1 POP SWAP2 SWAP1 POP JUMP JUMPDEST PUSH2 0x1053 DUP2 PUSH2 0x1040 JUMP JUMPDEST DUP3 MSTORE POP POP JUMP JUMPDEST PUSH1 0x0 PUSH1 0x20 DUP3 ADD SWAP1 POP PUSH2 0x106E PUSH1 0x0 DUP4 ADD DUP5 PUSH2 0x104A JUMP JUMPDEST SWAP3 SWAP2 POP POP JUMP JUMPDEST PUSH1 0x0 DUP1 REVERT JUMPDEST PUSH1 0x0 DUP1 REVERT JUMPDEST PUSH2 0x1087 DUP2 PUSH2 0x1040 JUMP JUMPDEST DUP2 EQ PUSH2 0x1092 JUMPI PUSH1 0x0 DUP1 REVERT JUMPDEST POP JUMP JUMPDEST PUSH1 0x0 DUP2 CALLDATALOAD SWAP1 POP PUSH2 0x10A4 DUP2 PUSH2 0x107E JUMP JUMPDEST SWAP3 SWAP2 POP POP JUMP JUMPDEST PUSH1 0x0 PUSH20 0xFFFFFFFFFFFFFFFFFFFFFFFFFFFFFFFFFFFFFFFF DUP3 AND SWAP1 POP SWAP2 SWAP1 POP JUMP JUMPDEST PUSH2 0x10D3 DUP2 PUSH2 0x10AA JUMP JUMPDEST DUP2 EQ PUSH2 0x10DE JUMPI PUSH1 0x0 DUP1 REVERT JUMPDEST POP JUMP JUMPDEST PUSH1 0x0 DUP2 CALLDATALOAD SWAP1 POP PUSH2 0x10F0 DUP2 PUSH2 0x10CA JUMP JUMPDEST SWAP3 SWAP2 POP POP JUMP JUMPDEST PUSH1 0x0 DUP1 REVERT JUMPDEST PUSH1 0x0 PUSH1 0xC0 DUP3 DUP5 SUB SLT ISZERO PUSH2 0x1111 JUMPI PUSH2 0x1110 PUSH2 0x10F6 JUMP JUMPDEST JUMPDEST DUP2 SWAP1 POP SWAP3 SWAP2 POP POP JUMP JUMPDEST PUSH1 0x0 DUP1 REVERT JUMPDEST PUSH1 0x0 DUP1 REVERT JUMPDEST PUSH1 0x0 DUP1 REVERT JUMPDEST PUSH1 0x0 DUP1 DUP4 PUSH1 0x1F DUP5 ADD SLT PUSH2 0x113F JUMPI PUSH2 0x113E PUSH2 0x111A JUMP JUMPDEST JUMPDEST DUP3 CALLDATALOAD SWAP1 POP PUSH8 0xFFFFFFFFFFFFFFFF DUP2 GT ISZERO PUSH2 0x115C JUMPI PUSH2 0x115B PUSH2 0x111F JUMP JUMPDEST JUMPDEST PUSH1 0x20 DUP4 ADD SWAP2 POP DUP4 PUSH1 0x1 DUP3 MUL DUP4 ADD GT ISZERO PUSH2 0x1178 JUMPI PUSH2 0x1177 PUSH2 0x1124 JUMP JUMPDEST JUMPDEST SWAP3 POP SWAP3 SWAP1 POP JUMP JUMPDEST PUSH1 0x0 DUP1 PUSH1 0x0 DUP1 PUSH1 0x0 PUSH2 0x120 DUP7 DUP9 SUB SLT ISZERO PUSH2 0x119C JUMPI PUSH2 0x119B PUSH2 0x1074 JUMP JUMPDEST JUMPDEST PUSH1 0x0 PUSH2 0x11AA DUP9 DUP3 DUP10 ADD PUSH2 0x1095 JUMP JUMPDEST SWAP6 POP POP PUSH1 0x20 PUSH2 0x11BB DUP9 DUP3 DUP10 ADD PUSH2 0x10E1 JUMP JUMPDEST SWAP5 POP POP PUSH1 0x40 PUSH2 0x11CC DUP9 DUP3 DUP10 ADD PUSH2 0x10FB JUMP JUMPDEST SWAP4 POP POP PUSH2 0x100 DUP7 ADD CALLDATALOAD PUSH8 0xFFFFFFFFFFFFFFFF DUP2 GT ISZERO PUSH2 0x11EE JUMPI PUSH2 0x11ED PUSH2 0x1079 JUMP JUMPDEST JUMPDEST PUSH2 0x11FA DUP9 DUP3 DUP10 ADD PUSH2 0x1129 JUMP JUMPDEST SWAP3 POP SWAP3 POP POP SWAP3 SWAP6 POP SWAP3 SWAP6 SWAP1 SWAP4 POP JUMP JUMPDEST PUSH1 0x0 DUP1 PUSH1 0x20 DUP4 DUP6 SUB SLT ISZERO PUSH2 0x1220 JUMPI PUSH2 0x121F PUSH2 0x1074 JUMP JUMPDEST JUMPDEST PUSH1 0x0 DUP4 ADD CALLDATALOAD PUSH8 0xFFFFFFFFFFFFFFFF DUP2 GT ISZERO PUSH2 0x123E JUMPI PUSH2 0x123D PUSH2 0x1079 JUMP JUMPDEST JUMPDEST PUSH2 0x124A DUP6 DUP3 DUP7 ADD PUSH2 0x1129 JUMP JUMPDEST SWAP3 POP SWAP3 POP POP SWAP3 POP SWAP3 SWAP1 POP JUMP JUMPDEST PUSH1 0x0 DUP1 PUSH1 0x0 PUSH1 0x60 DUP5 DUP7 SUB SLT ISZERO PUSH2 0x126F JUMPI PUSH2 0x126E PUSH2 0x1074 JUMP JUMPDEST JUMPDEST PUSH1 0x0 PUSH2 0x127D DUP7 DUP3 DUP8 ADD PUSH2 0x1095 JUMP JUMPDEST SWAP4 POP POP PUSH1 0x20 PUSH2 0x128E DUP7 DUP3 DUP8 ADD PUSH2 0x1095 JUMP JUMPDEST SWAP3 POP POP PUSH1 0x40 PUSH2 0x129F DUP7 DUP3 DUP8 ADD PUSH2 0x1095 JUMP JUMPDEST SWAP2 POP POP SWAP3 POP SWAP3 POP SWAP3 JUMP JUMPDEST PUSH1 0x0 PUSH2 0x12B4 DUP3 PUSH2 0x10AA JUMP JUMPDEST SWAP1 POP SWAP2 SWAP1 POP JUMP JUMPDEST PUSH2 0x12C4 DUP2 PUSH2 0x12A9 JUMP JUMPDEST DUP2 EQ PUSH2 0x12CF JUMPI PUSH1 0x0 DUP1 REVERT JUMPDEST POP JUMP JUMPDEST PUSH1 0x0 DUP2 CALLDATALOAD SWAP1 POP PUSH2 0x12E1 DUP2 PUSH2 0x12BB JUMP JUMPDEST SWAP3 SWAP2 POP POP JUMP JUMPDEST PUSH1 0x0 DUP1 PUSH1 0x40 DUP4 DUP6 SUB SLT ISZERO PUSH2 0x12FE JUMPI PUSH2 0x12FD PUSH2 0x1074 JUMP JUMPDEST JUMPDEST PUSH1 0x0 PUSH2 0x130C DUP6 DUP3 DUP7 ADD PUSH2 0x1095 JUMP JUMPDEST SWAP3 POP POP PUSH1 0x20 PUSH2 0x131D DUP6 DUP3 DUP7 ADD PUSH2 0x12D2 JUMP JUMPDEST SWAP2 POP POP SWAP3 POP SWAP3 SWAP1 POP JUMP JUMPDEST PUSH2 0x1330 DUP2 PUSH2 0x12A9 JUMP JUMPDEST DUP3 MSTORE POP POP JUMP JUMPDEST PUSH1 0x0 PUSH1 0x20 DUP3 ADD SWAP1 POP PUSH2 0x134B PUSH1 0x0 DUP4 ADD DUP5 PUSH2 0x1327 JUMP JUMPDEST SWAP3 SWAP2 POP POP JUMP JUMPDEST PUSH1 0x0 DUP2 ISZERO ISZERO SWAP1 POP SWAP2 SWAP1 POP JUMP JUMPDEST PUSH2 0x1366 DUP2 PUSH2 0x1351 JUMP JUMPDEST DUP3 MSTORE POP POP JUMP JUMPDEST PUSH1 0x0 DUP2 MLOAD SWAP1 POP SWAP2 SWAP1 POP JUMP JUMPDEST PUSH1 0x0 DUP3 DUP3 MSTORE PUSH1 0x20 DUP3 ADD SWAP1 POP SWAP3 SWAP2 POP POP JUMP JUMPDEST PUSH1 0x0 JUMPDEST DUP4 DUP2 LT ISZERO PUSH2 0x13A6 JUMPI DUP1 DUP3 ADD MLOAD DUP2 DUP5 ADD MSTORE PUSH1 0x20 DUP2 ADD SWAP1 POP PUSH2 0x138B JUMP JUMPDEST PUSH1 0x0 DUP5 DUP5 ADD MSTORE POP POP POP POP JUMP JUMPDEST PUSH1 0x0 PUSH1 0x1F NOT PUSH1 0x1F DUP4 ADD AND SWAP1 POP SWAP2 SWAP1 POP JUMP JUMPDEST PUSH1 0x0 PUSH2 0x13CE DUP3 PUSH2 0x136C JUMP JUMPDEST PUSH2 0x13D8 DUP2 DUP6 PUSH2 0x1377 JUMP JUMPDEST SWAP4 POP PUSH2 0x13E8 DUP2 DUP6 PUSH1 0x20 DUP7 ADD PUSH2 0x1388 JUMP JUMPDEST PUSH2 0x13F1 DUP2 PUSH2 0x13B2 JUMP JUMPDEST DUP5 ADD SWAP2 POP POP SWAP3 SWAP2 POP POP JUMP JUMPDEST PUSH1 0x0 PUSH1 0x40 DUP3 ADD SWAP1 POP PUSH2 0x1411 PUSH1 0x0 DUP4 ADD DUP6 PUSH2 0x135D JUMP JUMPDEST DUP2 DUP2 SUB PUSH1 0x20 DUP4 ADD MSTORE PUSH2 0x1423 DUP2 DUP5 PUSH2 0x13C3 JUMP JUMPDEST SWAP1 POP SWAP4 SWAP3 POP POP POP JUMP JUMPDEST PUSH1 0x0 PUSH1 0x20 DUP3 DUP5 SUB SLT ISZERO PUSH2 0x1442 JUMPI PUSH2 0x1441 PUSH2 0x1074 JUMP JUMPDEST JUMPDEST PUSH1 0x0 PUSH2 0x1450 DUP5 DUP3 DUP6 ADD PUSH2 0x1095 JUMP JUMPDEST SWAP2 POP POP SWAP3 SWAP2 POP POP JUMP JUMPDEST PUSH1 0x0 PUSH2 0x100 DUP3 ADD SWAP1 POP PUSH2 0x146F PUSH1 0x0 DUP4 ADD DUP12 PUSH2 0x1327 JUMP JUMPDEST PUSH2 0x147C PUSH1 0x20 DUP4 ADD DUP11 PUSH2 0x1327 JUMP JUMPDEST PUSH2 0x1489 PUSH1 0x40 DUP4 ADD DUP10 PUSH2 0x104A JUMP JUMPDEST PUSH2 0x1496 PUSH1 0x60 DUP4 ADD DUP9 PUSH2 0x104A JUMP JUMPDEST PUSH2 0x14A3 PUSH1 0x80 DUP4 ADD DUP8 PUSH2 0x104A JUMP JUMPDEST PUSH2 0x14B0 PUSH1 0xA0 DUP4 ADD DUP7 PUSH2 0x104A JUMP JUMPDEST PUSH2 0x14BD PUSH1 0xC0 DUP4 ADD DUP6 PUSH2 0x104A JUMP JUMPDEST PUSH2 0x14CA PUSH1 0xE0 DUP4 ADD DUP5 PUSH2 0x135D JUMP JUMPDEST SWAP10 SWAP9 POP POP POP POP POP POP POP POP POP JUMP JUMPDEST PUSH1 0x0 DUP3 DUP3 MSTORE PUSH1 0x20 DUP3 ADD SWAP1 POP SWAP3 SWAP2 POP POP JUMP JUMPDEST PUSH32 0x496E76616C696420706C616E0000000000000000000000000000000000000000 PUSH1 0x0 DUP3 ADD MSTORE POP JUMP JUMPDEST PUSH1 0x0 PUSH2 0x151E PUSH1 0xC DUP4 PUSH2 0x14D7 JUMP JUMPDEST SWAP2 POP PUSH2 0x1529 DUP3 PUSH2 0x14E8 JUMP JUMPDEST PUSH1 0x20 DUP3 ADD SWAP1 POP SWAP2 SWAP1 POP JUMP JUMPDEST PUSH1 0x0 PUSH1 0x20 DUP3 ADD SWAP1 POP DUP2 DUP2 SUB PUSH1 0x0 DUP4 ADD MSTORE PUSH2 0x154D DUP2 PUSH2 0x1511 JUMP JUMPDEST SWAP1 POP SWAP2 SWAP1 POP JUMP JUMPDEST PUSH32 0x416C726561647920616374697665000000000000000000000000000000000000 PUSH1 0x0 DUP3 ADD MSTORE POP JUMP JUMPDEST PUSH1 0x0 PUSH2 0x158A PUSH1 0xE DUP4 PUSH2 0x14D7 JUMP JUMPDEST SWAP2 POP PUSH2 0x1595 DUP3 PUSH2 0x1554 JUMP JUMPDEST PUSH1 0x20 DUP3 ADD SWAP1 POP SWAP2 SWAP1 POP JUMP JUMPDEST PUSH1 0x0 PUSH1 0x20 DUP3 ADD SWAP1 POP DUP2 DUP2 SUB PUSH1 0x0 DUP4 ADD MSTORE PUSH2 0x15B9 DUP2 PUSH2 0x157D JUMP JUMPDEST SWAP1 POP SWAP2 SWAP1 POP JUMP JUMPDEST PUSH1 0x0 PUSH1 0x20 DUP3 DUP5 SUB SLT ISZERO PUSH2 0x15D6 JUMPI PUSH2 0x15D5 PUSH2 0x1074 JUMP JUMPDEST JUMPDEST PUSH1 0x0 PUSH2 0x15E4 DUP5 DUP3 DUP6 ADD PUSH2 0x10E1 JUMP JUMPDEST SWAP2 POP POP SWAP3 SWAP2 POP POP JUMP JUMPDEST PUSH32 0x5065726D697420616D6F756E74203C20746F74616C20454D4900000000000000 PUSH1 0x0 DUP3 ADD MSTORE POP JUMP JUMPDEST PUSH1 0x0 PUSH2 0x1623 PUSH1 0x19 DUP4 PUSH2 0x14D7 JUMP JUMPDEST SWAP2 POP PUSH2 0x162E DUP3 PUSH2 0x15ED JUMP JUMPDEST PUSH1 0x20 DUP3 ADD SWAP1 POP SWAP2 SWAP1 POP JUMP JUMPDEST PUSH1 0x0 PUSH1 0x20 DUP3 ADD SWAP1 POP DUP2 DUP2 SUB PUSH1 0x0 DUP4 ADD MSTORE PUSH2 0x1652 DUP2 PUSH2 0x1616 JUMP JUMPDEST SWAP1 POP SWAP2 SWAP1 POP JUMP JUMPDEST PUSH1 0x0 PUSH1 0x20 DUP3 DUP5 SUB SLT ISZERO PUSH2 0x166F JUMPI PUSH2 0x166E PUSH2 0x1074 JUMP JUMPDEST JUMPDEST PUSH1 0x0 PUSH2 0x167D DUP5 DUP3 DUP6 ADD PUSH2 0x12D2 JUMP JUMPDEST SWAP2 POP POP SWAP3 SWAP2 POP POP JUMP JUMPDEST PUSH32 0x55534454206F6E6C790000000000000000000000000000000000000000000000 PUSH1 0x0 DUP3 ADD MSTORE POP JUMP JUMPDEST PUSH1 0x0 PUSH2 0x16BC PUSH1 0x9 DUP4 PUSH2 0x14D7 JUMP JUMPDEST SWAP2 POP PUSH2 0x16C7 DUP3 PUSH2 0x1686 JUMP JUMPDEST PUSH1 0x20 DUP3 ADD SWAP1 POP SWAP2 SWAP1 POP JUMP JUMPDEST PUSH1 0x0 PUSH1 0x20 DUP3 ADD SWAP1 POP DUP2 DUP2 SUB PUSH1 0x0 DUP4 ADD MSTORE PUSH2 0x16EB DUP2 PUSH2 0x16AF JUMP JUMPDEST SWAP1 POP SWAP2 SWAP1 POP JUMP JUMPDEST PUSH32 0x426164207370656E646572000000000000000000000000000000000000000000 PUSH1 0x0 DUP3 ADD MSTORE POP JUMP JUMPDEST PUSH1 0x0 PUSH2 0x1728 PUSH1 0xB DUP4 PUSH2 0x14D7 JUMP JUMPDEST SWAP2 POP PUSH2 0x1733 DUP3 PUSH2 0x16F2 JUMP JUMPDEST PUSH1 0x20 DUP3 ADD SWAP1 POP SWAP2 SWAP1 POP JUMP JUMPDEST PUSH1 0x0 PUSH1 0x20 DUP3 ADD SWAP1 POP DUP2 DUP2 SUB PUSH1 0x0 DUP4 ADD MSTORE PUSH2 0x1757 DUP2 PUSH2 0x171B JUMP JUMPDEST SWAP1 POP SWAP2 SWAP1 POP JUMP JUMPDEST PUSH1 0x0 DUP3 SWAP1 POP SWAP3 SWAP2 POP POP JUMP JUMPDEST PUSH1 0x0 PUSH2 0x1778 PUSH1 0x20 DUP5 ADD DUP5 PUSH2 0x12D2 JUMP JUMPDEST SWAP1 POP SWAP3 SWAP2 POP POP JUMP JUMPDEST PUSH2 0x1789 DUP2 PUSH2 0x12A9 JUMP JUMPDEST DUP3 MSTORE POP POP JUMP JUMPDEST PUSH1 0x0 PUSH2 0x179E PUSH1 0x20 DUP5 ADD DUP5 PUSH2 0x10E1 JUMP JUMPDEST SWAP1 POP SWAP3 SWAP2 POP POP JUMP JUMPDEST PUSH2 0x17AF DUP2 PUSH2 0x10AA JUMP JUMPDEST DUP3 MSTORE POP POP JUMP JUMPDEST PUSH1 0x0 PUSH6 0xFFFFFFFFFFFF DUP3 AND SWAP1 POP SWAP2 SWAP1 POP JUMP JUMPDEST PUSH2 0x17D0 DUP2 PUSH2 0x17B5 JUMP JUMPDEST DUP2 EQ PUSH2 0x17DB JUMPI PUSH1 0x0 DUP1 REVERT JUMPDEST POP JUMP JUMPDEST PUSH1 0x0 DUP2 CALLDATALOAD SWAP1 POP PUSH2 0x17ED DUP2 PUSH2 0x17C7 JUMP JUMPDEST SWAP3 SWAP2 POP POP JUMP JUMPDEST PUSH1 0x0 PUSH2 0x1802 PUSH1 0x20 DUP5 ADD DUP5 PUSH2 0x17DE JUMP JUMPDEST SWAP1 POP SWAP3 SWAP2 POP POP JUMP JUMPDEST PUSH2 0x1813 DUP2 PUSH2 0x17B5 JUMP JUMPDEST DUP3 MSTORE POP POP JUMP JUMPDEST PUSH1 0x80 DUP3 ADD PUSH2 0x182A PUSH1 0x0 DUP4 ADD DUP4 PUSH2 0x1769 JUMP JUMPDEST PUSH2 0x1837 PUSH1 0x0 DUP6 ADD DUP3 PUSH2 0x1780 JUMP JUMPDEST POP PUSH2 0x1845 PUSH1 0x20 DUP4 ADD DUP4 PUSH2 0x178F JUMP JUMPDEST PUSH2 0x1852 PUSH1 0x20 DUP6 ADD DUP3 PUSH2 0x17A6 JUMP JUMPDEST POP PUSH2 0x1860 PUSH1 0x40 DUP4 ADD DUP4 PUSH2 0x17F3 JUMP JUMPDEST PUSH2 0x186D PUSH1 0x40 DUP6 ADD DUP3 PUSH2 0x180A JUMP JUMPDEST POP PUSH2 0x187B PUSH1 0x60 DUP4 ADD DUP4 PUSH2 0x17F3 JUMP JUMPDEST PUSH2 0x1888 PUSH1 0x60 DUP6 ADD DUP3 PUSH2 0x180A JUMP JUMPDEST POP POP POP POP JUMP JUMPDEST PUSH1 0x0 PUSH2 0x189D PUSH1 0x20 DUP5 ADD DUP5 PUSH2 0x1095 JUMP JUMPDEST SWAP1 POP SWAP3 SWAP2 POP POP JUMP JUMPDEST PUSH2 0x18AE DUP2 PUSH2 0x1040 JUMP JUMPDEST DUP3 MSTORE POP POP JUMP JUMPDEST PUSH1 0xC0 DUP3 ADD PUSH2 0x18C5 PUSH1 0x0 DUP4 ADD DUP4 PUSH2 0x175E JUMP JUMPDEST PUSH2 0x18D2 PUSH1 0x0 DUP6 ADD DUP3 PUSH2 0x1819 JUMP JUMPDEST POP PUSH2 0x18E0 PUSH1 0x80 DUP4 ADD DUP4 PUSH2 0x1769 JUMP JUMPDEST PUSH2 0x18ED PUSH1 0x80 DUP6 ADD DUP3 PUSH2 0x1780 JUMP JUMPDEST POP PUSH2 0x18FB PUSH1 0xA0 DUP4 ADD DUP4 PUSH2 0x188E JUMP JUMPDEST PUSH2 0x1908 PUSH1 0xA0 DUP6 ADD DUP3 PUSH2 0x18A5 JUMP JUMPDEST POP POP POP POP JUMP JUMPDEST DUP3 DUP2 DUP4 CALLDATACOPY PUSH1 0x0 DUP4 DUP4 ADD MSTORE POP POP POP JUMP JUMPDEST PUSH1 0x0 PUSH2 0x1929 DUP4 DUP6 PUSH2 0x1377 JUMP JUMPDEST SWAP4 POP PUSH2 0x1936 DUP4 DUP6 DUP5 PUSH2 0x190E JUMP JUMPDEST PUSH2 0x193F DUP4 PUSH2 0x13B2 JUMP JUMPDEST DUP5 ADD SWAP1 POP SWAP4 SWAP3 POP POP POP JUMP JUMPDEST PUSH1 0x0 PUSH2 0x100 DUP3 ADD SWAP1 POP PUSH2 0x1960 PUSH1 0x0 DUP4 ADD DUP8 PUSH2 0x1327 JUMP JUMPDEST PUSH2 0x196D PUSH1 0x20 DUP4 ADD DUP7 PUSH2 0x18B4 JUMP JUMPDEST DUP2 DUP2 SUB PUSH1 0xE0 DUP4 ADD MSTORE PUSH2 0x1980 DUP2 DUP5 DUP7 PUSH2 0x191D JUMP JUMPDEST SWAP1 POP SWAP6 SWAP5 POP POP POP POP POP JUMP JUMPDEST PUSH2 0x1994 DUP2 PUSH2 0x10AA JUMP JUMPDEST DUP3 MSTORE POP POP JUMP JUMPDEST PUSH1 0x0 PUSH1 0x80 DUP3 ADD SWAP1 POP PUSH2 0x19AF PUSH1 0x0 DUP4 ADD DUP8 PUSH2 0x1327 JUMP JUMPDEST PUSH2 0x19BC PUSH1 0x20 DUP4 ADD DUP7 PUSH2 0x1327 JUMP JUMPDEST PUSH2 0x19C9 PUSH1 0x40 DUP4 ADD DUP6 PUSH2 0x198B JUMP JUMPDEST PUSH2 0x19D6 PUSH1 0x60 DUP4 ADD DUP5 PUSH2 0x1327 JUMP JUMPDEST SWAP6 SWAP5 POP POP POP POP POP JUMP JUMPDEST PUSH1 0x0 DUP2 SWAP1 POP SWAP2 SWAP1 POP JUMP JUMPDEST PUSH1 0x0 PUSH2 0x1A04 PUSH2 0x19FF PUSH2 0x19FA DUP5 PUSH2 0x10AA JUMP JUMPDEST PUSH2 0x19DF JUMP JUMPDEST PUSH2 0x1040 JUMP JUMPDEST SWAP1 POP SWAP2 SWAP1 POP JUMP JUMPDEST PUSH2 0x1A14 DUP2 PUSH2 0x19E9 JUMP JUMPDEST DUP3 MSTORE POP POP JUMP JUMPDEST PUSH1 0x0 PUSH1 0x20 DUP3 ADD SWAP1 POP PUSH2 0x1A2F PUSH1 0x0 DUP4 ADD DUP5 PUSH2 0x1A0B JUMP JUMPDEST SWAP3 SWAP2 POP POP JUMP JUMPDEST PUSH32 0x4E487B7100000000000000000000000000000000000000000000000000000000 PUSH1 0x0 MSTORE PUSH1 0x11 PUSH1 0x4 MSTORE PUSH1 0x24 PUSH1 0x0 REVERT JUMPDEST PUSH1 0x0 PUSH2 0x1A6F DUP3 PUSH2 0x1040 JUMP JUMPDEST SWAP2 POP PUSH2 0x1A7A DUP4 PUSH2 0x1040 JUMP JUMPDEST SWAP3 POP DUP3 DUP3 ADD SWAP1 POP DUP1 DUP3 GT ISZERO PUSH2 0x1A92 JUMPI PUSH2 0x1A91 PUSH2 0x1A35 JUMP JUMPDEST JUMPDEST SWAP3 SWAP2 POP POP JUMP JUMPDEST PUSH32 0x496E616374697665000000000000000000000000000000000000000000000000 PUSH1 0x0 DUP3 ADD MSTORE POP JUMP JUMPDEST PUSH1 0x0 PUSH2 0x1ACE PUSH1 0x8 DUP4 PUSH2 0x14D7 JUMP JUMPDEST SWAP2 POP PUSH2 0x1AD9 DUP3 PUSH2 0x1A98 JUMP JUMPDEST PUSH1 0x20 DUP3 ADD SWAP1 POP SWAP2 SWAP1 POP JUMP JUMPDEST PUSH1 0x0 PUSH1 0x20 DUP3 ADD SWAP1 POP DUP2 DUP2 SUB PUSH1 0x0 DUP4 ADD MSTORE PUSH2 0x1AFD DUP2 PUSH2 0x1AC1 JUMP JUMPDEST SWAP1 POP SWAP2 SWAP1 POP JUMP JUMPDEST PUSH32 0x496E76616C696420454D49000000000000000000000000000000000000000000 PUSH1 0x0 DUP3 ADD MSTORE POP JUMP JUMPDEST PUSH1 0x0 PUSH2 0x1B3A PUSH1 0xB DUP4 PUSH2 0x14D7 JUMP JUMPDEST SWAP2 POP PUSH2 0x1B45 DUP3 PUSH2 0x1B04 JUMP JUMPDEST PUSH1 0x20 DUP3 ADD SWAP1 POP SWAP2 SWAP1 POP JUMP JUMPDEST PUSH1 0x0 PUSH1 0x20 DUP3 ADD SWAP1 POP DUP2 DUP2 SUB PUSH1 0x0 DUP4 ADD MSTORE PUSH2 0x1B69 DUP2 PUSH2 0x1B2D JUMP JUMPDEST SWAP1 POP SWAP2 SWAP1 POP JUMP JUMPDEST PUSH32 0x4D696E2036307300000000000000000000000000000000000000000000000000 PUSH1 0x0 DUP3 ADD MSTORE POP JUMP JUMPDEST PUSH1 0x0 PUSH2 0x1BA6 PUSH1 0x7 DUP4 PUSH2 0x14D7 JUMP JUMPDEST SWAP2 POP PUSH2 0x1BB1 DUP3 PUSH2 0x1B70 JUMP JUMPDEST PUSH1 0x20 DUP3 ADD SWAP1 POP SWAP2 SWAP1 POP JUMP JUMPDEST PUSH1 0x0 PUSH1 0x20 DUP3 ADD SWAP1 POP DUP2 DUP2 SUB PUSH1 0x0 DUP4 ADD MSTORE PUSH2 0x1BD5 DUP2 PUSH2 0x1B99 JUMP JUMPDEST SWAP1 POP SWAP2 SWAP1 POP JUMP JUMPDEST PUSH32 0x546F74616C203C20454D49000000000000000000000000000000000000000000 PUSH1 0x0 DUP3 ADD MSTORE POP JUMP JUMPDEST PUSH1 0x0 PUSH2 0x1C12 PUSH1 0xB DUP4 PUSH2 0x14D7 JUMP JUMPDEST SWAP2 POP PUSH2 0x1C1D DUP3 PUSH2 0x1BDC JUMP JUMPDEST PUSH1 0x20 DUP3 ADD SWAP1 POP SWAP2 SWAP1 POP JUMP JUMPDEST PUSH1 0x0 PUSH1 0x20 DUP3 ADD SWAP1 POP DUP2 DUP2 SUB PUSH1 0x0 DUP4 ADD MSTORE PUSH2 0x1C41 DUP2 PUSH2 0x1C05 JUMP JUMPDEST SWAP1 POP SWAP2 SWAP1 POP JUMP JUMPDEST PUSH1 0x0 PUSH2 0x1C53 DUP3 PUSH2 0x1040 JUMP JUMPDEST SWAP2 POP PUSH32 0xFFFFFFFFFFFFFFFFFFFFFFFFFFFFFFFFFFFFFFFFFFFFFFFFFFFFFFFFFFFFFFFF DUP3 SUB PUSH2 0x1C85 JUMPI PUSH2 0x1C84 PUSH2 0x1A35 JUMP JUMPDEST JUMPDEST PUSH1 0x1 DUP3 ADD SWAP1 POP SWAP2 SWAP1 POP JUMP JUMPDEST PUSH32 0x506C616E206E6F74206163746976650000000000000000000000000000000000 PUSH1 0x0 DUP3 ADD MSTORE POP JUMP JUMPDEST PUSH1 0x0 PUSH2 0x1CC6 PUSH1 0xF DUP4 PUSH2 0x14D7 JUMP JUMPDEST SWAP2 POP PUSH2 0x1CD1 DUP3 PUSH2 0x1C90 JUMP JUMPDEST PUSH1 0x20 DUP3 ADD SWAP1 POP SWAP2 SWAP1 POP JUMP JUMPDEST PUSH1 0x0 PUSH1 0x20 DUP3 ADD SWAP1 POP DUP2 DUP2 SUB PUSH1 0x0 DUP4 ADD MSTORE PUSH2 0x1CF5 DUP2 PUSH2 0x1CB9 JUMP JUMPDEST SWAP1 POP SWAP2 SWAP1 POP JUMP JUMPDEST PUSH32 0x4F6E6C792072656365697665722063616E207570646174650000000000000000 PUSH1 0x0 DUP3 ADD MSTORE POP JUMP JUMPDEST PUSH1 0x0 PUSH2 0x1D32 PUSH1 0x18 DUP4 PUSH2 0x14D7 JUMP JUMPDEST SWAP2 POP PUSH2 0x1D3D DUP3 PUSH2 0x1CFC JUMP JUMPDEST PUSH1 0x20 DUP3 ADD SWAP1 POP SWAP2 SWAP1 POP JUMP JUMPDEST PUSH1 0x0 PUSH1 0x20 DUP3 ADD SWAP1 POP DUP2 DUP2 SUB PUSH1 0x0 DUP4 ADD MSTORE PUSH2 0x1D61 DUP2 PUSH2 0x1D25 JUMP JUMPDEST SWAP1 POP SWAP2 SWAP1 POP JUMP JUMPDEST PUSH32 0x496E76616C696420616464726573730000000000000000000000000000000000 PUSH1 0x0 DUP3 ADD MSTORE POP JUMP JUMPDEST PUSH1 0x0 PUSH2 0x1D9E PUSH1 0xF DUP4 PUSH2 0x14D7 JUMP JUMPDEST SWAP2 POP PUSH2 0x1DA9 DUP3 PUSH2 0x1D68 JUMP JUMPDEST PUSH1 0x20 DUP3 ADD SWAP1 POP SWAP2 SWAP1 POP JUMP JUMPDEST PUSH1 0x0 PUSH1 0x20 DUP3 ADD SWAP1 POP DUP2 DUP2 SUB PUSH1 0x0 DUP4 ADD MSTORE PUSH2 0x1DCD DUP2 PUSH2 0x1D91 JUMP JUMPDEST SWAP1 POP SWAP2 SWAP1 POP JUMP JUMPDEST PUSH32 0x53616D6520726563656976657200000000000000000000000000000000000000 PUSH1 0x0 DUP3 ADD MSTORE POP JUMP JUMPDEST PUSH1 0x0 PUSH2 0x1E0A PUSH1 0xD DUP4 PUSH2 0x14D7 JUMP JUMPDEST SWAP2 POP PUSH2 0x1E15 DUP3 PUSH2 0x1DD4 JUMP JUMPDEST PUSH1 0x20 DUP3 ADD SWAP1 POP SWAP2 SWAP1 POP JUMP JUMPDEST PUSH1 0x0 PUSH1 0x20 DUP3 ADD SWAP1 POP DUP2 DUP2 SUB PUSH1 0x0 DUP4 ADD MSTORE PUSH2 0x1E39 DUP2 PUSH2 0x1DFD JUMP JUMPDEST SWAP1 POP SWAP2 SWAP1 POP JUMP JUMPDEST PUSH32 0x5265656E7472616E637947756172643A207265656E7472616E742063616C6C00 PUSH1 0x0 DUP3 ADD MSTORE POP JUMP JUMPDEST PUSH1 0x0 PUSH2 0x1E76 PUSH1 0x1F DUP4 PUSH2 0x14D7 JUMP JUMPDEST SWAP2 POP PUSH2 0x1E81 DUP3 PUSH2 0x1E40 JUMP JUMPDEST PUSH1 0x20 DUP3 ADD SWAP1 POP SWAP2 SWAP1 POP JUMP JUMPDEST PUSH1 0x0 PUSH1 0x20 DUP3 ADD SWAP1 POP DUP2 DUP2 SUB PUSH1 0x0 DUP4 ADD MSTORE PUSH2 0x1EA5 DUP2 PUSH2 0x1E69 JUMP JUMPDEST SWAP1 POP SWAP2 SWAP1 POP JUMP INVALID LOG2 PUSH5 0x6970667358 0x22 SLT KECCAK256 SUB LOG4 XOR PUSH30 0x8258A257E2360418319416CF9D825546D63865224E660EE2DAC31A7B6473 PUSH16 0x6C634300081400330000000000000000 "},"methodIdentifiers":{"PERMIT2()":"6afdd850","USDT()":"c54e44eb","activatePlanWithPermit2AndPay(uint256,uint160,((address,uint160,uint48,uint48),address,uint256),bytes)":"42b132f1","checkUpkeep(bytes)":"6e04ff0d","createPlan(uint256,uint256,uint256)":"4aec7384","performUpkeep(bytes)":"4585e33b","planCount()":"382d39bb","plans(uint256)":"b1620616","updateReceiver(uint256,address)":"4c6ec871"}}}}}