{"contracts/EmiAutoPayEVM.sol":{"EmiAutoPayEVM":{"abi":[{"anonymous":false,"inputs":[{"indexed":false,"internalType":"uint256","name":"planId","type":"uint256"},{"indexed":false,"internalType":"uint256","name":"amount","type":"uint256"}],"name":"EmiPaid","type":"event"},{"anonymous":false,"inputs":[{"indexed":false,"internalType":"uint256","name":"planId","type":"uint256"},{"indexed":false,"internalType":"address","name":"sender","type":"address"}],"name":"FirstPaymentDetected","type":"event"},{"anonymous":false,"inputs":[{"indexed":false,"internalType":"uint256","name":"planId","type":"uint256"}],"name":"PlanCreated","type":"event"},{"inputs":[{"internalType":"bytes","name":"","type":"bytes"}],"name":"checkUpkeep","outputs":[{"internalType":"bool","name":"","type":"bool"},{"internalType":"bytes","name":"","type":"bytes"}],"stateMutability":"view","type":"function"},{"inputs":[{"internalType":"uint256","name":"planId","type":"uint256"},{"internalType":"address","name":"sender","type":"address"}],"name":"confirmFirstPayment","outputs":[],"stateMutability":"nonpayable","type":"function"},{"inputs":[{"internalType":"address","name":"token","type":"address"},{"internalType":"uint256","name":"emi","type":"uint256"},{"internalType":"uint256","name":"interval","type":"uint256"},{"internalType":"uint256","name":"total","type":"uint256"}],"name":"createPlan","outputs":[],"stateMutability":"nonpayable","type":"function"},{"inputs":[{"internalType":"bytes","name":"data","type":"bytes"}],"name":"performUpkeep","outputs":[],"stateMutability":"nonpayable","type":"function"},{"inputs":[],"name":"planCount","outputs":[{"internalType":"uint256","name":"","type":"uint256"}],"stateMutability":"view","type":"function"},{"inputs":[{"internalType":"uint256","name":"","type":"uint256"}],"name":"plans","outputs":[{"internalType":"address","name":"sender","type":"address"},{"internalType":"address","name":"receiver","type":"address"},{"internalType":"address","name":"token","type":"address"},{"internalType":"uint256","name":"emi","type":"uint256"},{"internalType":"uint256","name":"interval","type":"uint256"},{"internalType":"uint256","name":"total","type":"uint256"},{"internalType":"uint256","name":"paid","type":"uint256"},{"internalType":"uint256","name":"nextPay","type":"uint256"},{"internalType":"bool","name":"active","type":"bool"}],"stateMutability":"view","type":"function"}],"evm":{"bytecode":{"linkReferences":{},"object":"608060405234801561001057600080fd5b50610e93806100206000396000f3fe608060405234801561001057600080fd5b50600436106100625760003560e01c80630339e9fa14610067578063382d39bb146100835780634585e33b146100a15780636e04ff0d146100bd578063b1620616146100ee578063be9d5e6214610126575b600080fd5b610081600480360381019061007c919061093e565b610142565b005b61008b61036d565b60405161009891906109b4565b60405180910390f35b6100bb60048036038101906100b69190610a34565b610373565b005b6100d760048036038101906100d29190610a34565b610508565b6040516100e5929190610b2c565b60405180910390f35b61010860048036038101906101039190610b5c565b6106a0565b60405161011d99989796959493929190610b98565b60405180910390f35b610140600480360381019061013b9190610c25565b61075b565b005b603c82101561015057600080fd5b60008081548092919061016290610c94565b9190505550604051806101200160405280600073ffffffffffffffffffffffffffffffffffffffff1681526020013373ffffffffffffffffffffffffffffffffffffffff1681526020018573ffffffffffffffffffffffffffffffffffffffff168152602001848152602001838152602001828152602001600081526020016000815260200160001515815250600160008054815260200190815260200160002060008201518160000160006101000a81548173ffffffffffffffffffffffffffffffffffffffff021916908373ffffffffffffffffffffffffffffffffffffffff16021790555060208201518160010160006101000a81548173ffffffffffffffffffffffffffffffffffffffff021916908373ffffffffffffffffffffffffffffffffffffffff16021790555060408201518160020160006101000a81548173ffffffffffffffffffffffffffffffffffffffff021916908373ffffffffffffffffffffffffffffffffffffffff160217905550606082015181600301556080820151816004015560a0820151816005015560c0820151816006015560e082015181600701556101008201518160080160006101000a81548160ff0219169083151502179055509050507f9dfd4372898f1ab4b7aab4735c5b8c07f64b72ef6f72e0da892265459fc1b86160005460405161035f91906109b4565b60405180910390a150505050565b60005481565b600082828101906103849190610b5c565b905060006001600083815260200190815260200160002090508060020160009054906101000a900473ffffffffffffffffffffffffffffffffffffffff1673ffffffffffffffffffffffffffffffffffffffff166323b872dd8260000160009054906101000a900473ffffffffffffffffffffffffffffffffffffffff168360010160009054906101000a900473ffffffffffffffffffffffffffffffffffffffff1684600301546040518463ffffffff1660e01b815260040161044a93929190610cdc565b6020604051808303816000875af1158015610469573d6000803e3d6000fd5b505050506040513d601f19601f8201168201806040525081019061048d9190610d3f565b5080600301548160060160008282546104a69190610d6c565b925050819055508060040154426104bd9190610d6c565b81600701819055507f06e59a6ee972bbd5f5b1932131f47641231aa73d1b0d32bd72cea9471babf7428282600301546040516104fa929190610da0565b60405180910390a150505050565b600060606000600190505b60005481116106815760006001600083815260200190815260200160002090508060080160009054906101000a900460ff168015610555575080600701544210155b8015610568575080600501548160060154105b801561063b575080600301548160020160009054906101000a900473ffffffffffffffffffffffffffffffffffffffff1673ffffffffffffffffffffffffffffffffffffffff1663dd62ed3e8360000160009054906101000a900473ffffffffffffffffffffffffffffffffffffffff16306040518363ffffffff1660e01b81526004016105f7929190610dc9565b602060405180830381865afa158015610614573d6000803e3d6000fd5b505050506040513d601f19601f820116820180604052508101906106389190610e07565b10155b1561066d5760018260405160200161065391906109b4565b604051602081830303815290604052935093505050610699565b50808061067990610c94565b915050610513565b50600060405180602001604052806000815250915091505b9250929050565b60016020528060005260406000206000915090508060000160009054906101000a900473ffffffffffffffffffffffffffffffffffffffff16908060010160009054906101000a900473ffffffffffffffffffffffffffffffffffffffff16908060020160009054906101000a900473ffffffffffffffffffffffffffffffffffffffff16908060030154908060040154908060050154908060060154908060070154908060080160009054906101000a900460ff16905089565b60006001600084815260200190815260200160002090508060010160009054906101000a900473ffffffffffffffffffffffffffffffffffffffff1673ffffffffffffffffffffffffffffffffffffffff163373ffffffffffffffffffffffffffffffffffffffff16146107ce57600080fd5b8060080160009054906101000a900460ff16156107ea57600080fd5b818160000160006101000a81548173ffffffffffffffffffffffffffffffffffffffff021916908373ffffffffffffffffffffffffffffffffffffffff16021790555060018160080160006101000a81548160ff02191690831515021790555080600401544261085a9190610d6c565b81600701819055507fc1feb8dc891dc96467534c73d44e95e94e55ddc27d9f52fe0e633f6437b3d53c8383604051610893929190610e34565b60405180910390a1505050565b600080fd5b600080fd5b600073ffffffffffffffffffffffffffffffffffffffff82169050919050565b60006108d5826108aa565b9050919050565b6108e5816108ca565b81146108f057600080fd5b50565b600081359050610902816108dc565b92915050565b6000819050919050565b61091b81610908565b811461092657600080fd5b50565b60008135905061093881610912565b92915050565b60008060008060808587031215610958576109576108a0565b5b6000610966878288016108f3565b945050602061097787828801610929565b935050604061098887828801610929565b925050606061099987828801610929565b91505092959194509250565b6109ae81610908565b82525050565b60006020820190506109c960008301846109a5565b92915050565b600080fd5b600080fd5b600080fd5b60008083601f8401126109f4576109f36109cf565b5b8235905067ffffffffffffffff811115610a1157610a106109d4565b5b602083019150836001820283011115610a2d57610a2c6109d9565b5b9250929050565b60008060208385031215610a4b57610a4a6108a0565b5b600083013567ffffffffffffffff811115610a6957610a686108a5565b5b610a75858286016109de565b92509250509250929050565b60008115159050919050565b610a9681610a81565b82525050565b600081519050919050565b600082825260208201905092915050565b60005b83811015610ad6578082015181840152602081019050610abb565b60008484015250505050565b6000601f19601f8301169050919050565b6000610afe82610a9c565b610b088185610aa7565b9350610b18818560208601610ab8565b610b2181610ae2565b840191505092915050565b6000604082019050610b416000830185610a8d565b8181036020830152610b538184610af3565b90509392505050565b600060208284031215610b7257610b716108a0565b5b6000610b8084828501610929565b91505092915050565b610b92816108ca565b82525050565b600061012082019050610bae600083018c610b89565b610bbb602083018b610b89565b610bc8604083018a610b89565b610bd560608301896109a5565b610be260808301886109a5565b610bef60a08301876109a5565b610bfc60c08301866109a5565b610c0960e08301856109a5565b610c17610100830184610a8d565b9a9950505050505050505050565b60008060408385031215610c3c57610c3b6108a0565b5b6000610c4a85828601610929565b9250506020610c5b858286016108f3565b9150509250929050565b7f4e487b7100000000000000000000000000000000000000000000000000000000600052601160045260246000fd5b6000610c9f82610908565b91507fffffffffffffffffffffffffffffffffffffffffffffffffffffffffffffffff8203610cd157610cd0610c65565b5b600182019050919050565b6000606082019050610cf16000830186610b89565b610cfe6020830185610b89565b610d0b60408301846109a5565b949350505050565b610d1c81610a81565b8114610d2757600080fd5b50565b600081519050610d3981610d13565b92915050565b600060208284031215610d5557610d546108a0565b5b6000610d6384828501610d2a565b91505092915050565b6000610d7782610908565b9150610d8283610908565b9250828201905080821115610d9a57610d99610c65565b5b92915050565b6000604082019050610db560008301856109a5565b610dc260208301846109a5565b9392505050565b6000604082019050610dde6000830185610b89565b610deb6020830184610b89565b9392505050565b600081519050610e0181610912565b92915050565b600060208284031215610e1d57610e1c6108a0565b5b6000610e2b84828501610df2565b91505092915050565b6000604082019050610e4960008301856109a5565b610e566020830184610b89565b939250505056fea2646970667358221220e7142bae2eaf765fda6f82fc52d618a1568026d2cc7e2df42908d7c1063ac19464736f6c63430008140033","opcodes":"PUSH1 0x80 PUSH1 0x40 MSTORE CALLVALUE DUP1 ISZERO PUSH2 0x10 JUMPI PUSH1 0x0 DUP1 REVERT JUMPDEST POP PUSH2 0xE93 DUP1 PUSH2 0x20 PUSH1 0x0 CODECOPY PUSH1 0x0 RETURN INVALID PUSH1 0x80 PUSH1 0x40 MSTORE CALLVALUE DUP1 ISZERO PUSH2 0x10 JUMPI PUSH1 0x0 DUP1 REVERT JUMPDEST POP PUSH1 0x4 CALLDATASIZE LT PUSH2 0x62 JUMPI PUSH1 0x0 CALLDATALOAD PUSH1 0xE0 SHR DUP1 PUSH4 0x339E9FA EQ PUSH2 0x67 JUMPI DUP1 PUSH4 0x382D39BB EQ PUSH2 0x83 JUMPI DUP1 PUSH4 0x4585E33B EQ PUSH2 0xA1 JUMPI DUP1 PUSH4 0x6E04FF0D EQ PUSH2 0xBD JUMPI DUP1 PUSH4 0xB1620616 EQ PUSH2 0xEE JUMPI DUP1 PUSH4 0xBE9D5E62 EQ PUSH2 0x126 JUMPI JUMPDEST PUSH1 0x0 DUP1 REVERT JUMPDEST PUSH2 0x81 PUSH1 0x4 DUP1 CALLDATASIZE SUB DUP2 ADD SWAP1 PUSH2 0x7C SWAP2 SWAP1 PUSH2 0x93E JUMP JUMPDEST PUSH2 0x142 JUMP JUMPDEST STOP JUMPDEST PUSH2 0x8B PUSH2 0x36D JUMP JUMPDEST PUSH1 0x40 MLOAD PUSH2 0x98 SWAP2 SWAP1 PUSH2 0x9B4 JUMP JUMPDEST PUSH1 0x40 MLOAD DUP1 SWAP2 SUB SWAP1 RETURN JUMPDEST PUSH2 0xBB PUSH1 0x4 DUP1 CALLDATASIZE SUB DUP2 ADD SWAP1 PUSH2 0xB6 SWAP2 SWAP1 PUSH2 0xA34 JUMP JUMPDEST PUSH2 0x373 JUMP JUMPDEST STOP JUMPDEST PUSH2 0xD7 PUSH1 0x4 DUP1 CALLDATASIZE SUB DUP2 ADD SWAP1 PUSH2 0xD2 SWAP2 SWAP1 PUSH2 0xA34 JUMP JUMPDEST PUSH2 0x508 JUMP JUMPDEST PUSH1 0x40 MLOAD PUSH2 0xE5 SWAP3 SWAP2 SWAP1 PUSH2 0xB2C JUMP JUMPDEST PUSH1 0x40 MLOAD DUP1 SWAP2 SUB SWAP1 RETURN JUMPDEST PUSH2 0x108 PUSH1 0x4 DUP1 CALLDATASIZE SUB DUP2 ADD SWAP1 PUSH2 0x103 SWAP2 SWAP1 PUSH2 0xB5C JUMP JUMPDEST PUSH2 0x6A0 JUMP JUMPDEST PUSH1 0x40 MLOAD PUSH2 0x11D SWAP10 SWAP9 SWAP8 SWAP7 SWAP6 SWAP5 SWAP4 SWAP3 SWAP2 SWAP1 PUSH2 0xB98 JUMP JUMPDEST PUSH1 0x40 MLOAD DUP1 SWAP2 SUB SWAP1 RETURN JUMPDEST PUSH2 0x140 PUSH1 0x4 DUP1 CALLDATASIZE SUB DUP2 ADD SWAP1 PUSH2 0x13B SWAP2 SWAP1 PUSH2 0xC25 JUMP JUMPDEST PUSH2 0x75B JUMP JUMPDEST STOP JUMPDEST PUSH1 0x3C DUP3 LT ISZERO PUSH2 0x150 JUMPI PUSH1 0x0 DUP1 REVERT JUMPDEST PUSH1 0x0 DUP1 DUP2 SLOAD DUP1 SWAP3 SWAP2 SWAP1 PUSH2 0x162 SWAP1 PUSH2 0xC94 JUMP JUMPDEST SWAP2 SWAP1 POP SSTORE POP PUSH1 0x40 MLOAD DUP1 PUSH2 0x120 ADD PUSH1 0x40 MSTORE DUP1 PUSH1 0x0 PUSH20 0xFFFFFFFFFFFFFFFFFFFFFFFFFFFFFFFFFFFFFFFF AND DUP2 MSTORE PUSH1 0x20 ADD CALLER PUSH20 0xFFFFFFFFFFFFFFFFFFFFFFFFFFFFFFFFFFFFFFFF AND DUP2 MSTORE PUSH1 0x20 ADD DUP6 PUSH20 0xFFFFFFFFFFFFFFFFFFFFFFFFFFFFFFFFFFFFFFFF AND DUP2 MSTORE PUSH1 0x20 ADD DUP5 DUP2 MSTORE PUSH1 0x20 ADD DUP4 DUP2 MSTORE PUSH1 0x20 ADD DUP3 DUP2 MSTORE PUSH1 0x20 ADD PUSH1 0x0 DUP2 MSTORE PUSH1 0x20 ADD PUSH1 0x0 DUP2 MSTORE PUSH1 0x20 ADD PUSH1 0x0 ISZERO ISZERO DUP2 MSTORE POP PUSH1 0x1 PUSH1 0x0 DUP1 SLOAD DUP2 MSTORE PUSH1 0x20 ADD SWAP1 DUP2 MSTORE PUSH1 0x20 ADD PUSH1 0x0 KECCAK256 PUSH1 0x0 DUP3 ADD MLOAD DUP2 PUSH1 0x0 ADD PUSH1 0x0 PUSH2 0x100 EXP DUP2 SLOAD DUP2 PUSH20 0xFFFFFFFFFFFFFFFFFFFFFFFFFFFFFFFFFFFFFFFF MUL NOT AND SWAP1 DUP4 PUSH20 0xFFFFFFFFFFFFFFFFFFFFFFFFFFFFFFFFFFFFFFFF AND MUL OR SWAP1 SSTORE POP PUSH1 0x20 DUP3 ADD MLOAD DUP2 PUSH1 0x1 ADD PUSH1 0x0 PUSH2 0x100 EXP DUP2 SLOAD DUP2 PUSH20 0xFFFFFFFFFFFFFFFFFFFFFFFFFFFFFFFFFFFFFFFF MUL NOT AND SWAP1 DUP4 PUSH20 0xFFFFFFFFFFFFFFFFFFFFFFFFFFFFFFFFFFFFFFFF AND MUL OR SWAP1 SSTORE POP PUSH1 0x40 DUP3 ADD MLOAD DUP2 PUSH1 0x2 ADD PUSH1 0x0 PUSH2 0x100 EXP DUP2 SLOAD DUP2 PUSH20 0xFFFFFFFFFFFFFFFFFFFFFFFFFFFFFFFFFFFFFFFF MUL NOT AND SWAP1 DUP4 PUSH20 0xFFFFFFFFFFFFFFFFFFFFFFFFFFFFFFFFFFFFFFFF AND MUL OR SWAP1 SSTORE POP PUSH1 0x60 DUP3 ADD MLOAD DUP2 PUSH1 0x3 ADD SSTORE PUSH1 0x80 DUP3 ADD MLOAD DUP2 PUSH1 0x4 ADD SSTORE PUSH1 0xA0 DUP3 ADD MLOAD DUP2 PUSH1 0x5 ADD SSTORE PUSH1 0xC0 DUP3 ADD MLOAD DUP2 PUSH1 0x6 ADD SSTORE PUSH1 0xE0 DUP3 ADD MLOAD DUP2 PUSH1 0x7 ADD SSTORE PUSH2 0x100 DUP3 ADD MLOAD DUP2 PUSH1 0x8 ADD PUSH1 0x0 PUSH2 0x100 EXP DUP2 SLOAD DUP2 PUSH1 0xFF MUL NOT AND SWAP1 DUP4 ISZERO ISZERO MUL OR SWAP1 SSTORE POP SWAP1 POP POP PUSH32 0x9DFD4372898F1AB4B7AAB4735C5B8C07F64B72EF6F72E0DA892265459FC1B861 PUSH1 0x0 SLOAD PUSH1 0x40 MLOAD PUSH2 0x35F SWAP2 SWAP1 PUSH2 0x9B4 JUMP JUMPDEST PUSH1 0x40 MLOAD DUP1 SWAP2 SUB SWAP1 LOG1 POP POP POP POP JUMP JUMPDEST PUSH1 0x0 SLOAD DUP2 JUMP JUMPDEST PUSH1 0x0 DUP3 DUP3 DUP2 ADD SWAP1 PUSH2 0x384 SWAP2 SWAP1 PUSH2 0xB5C JUMP JUMPDEST SWAP1 POP PUSH1 0x0 PUSH1 0x1 PUSH1 0x0 DUP4 DUP2 MSTORE PUSH1 0x20 ADD SWAP1 DUP2 MSTORE PUSH1 0x20 ADD PUSH1 0x0 KECCAK256 SWAP1 POP DUP1 PUSH1 0x2 ADD PUSH1 0x0 SWAP1 SLOAD SWAP1 PUSH2 0x100 EXP SWAP1 DIV PUSH20 0xFFFFFFFFFFFFFFFFFFFFFFFFFFFFFFFFFFFFFFFF AND PUSH20 0xFFFFFFFFFFFFFFFFFFFFFFFFFFFFFFFFFFFFFFFF AND PUSH4 0x23B872DD DUP3 PUSH1 0x0 ADD PUSH1 0x0 SWAP1 SLOAD SWAP1 PUSH2 0x100 EXP SWAP1 DIV PUSH20 0xFFFFFFFFFFFFFFFFFFFFFFFFFFFFFFFFFFFFFFFF AND DUP4 PUSH1 0x1 ADD PUSH1 0x0 SWAP1 SLOAD SWAP1 PUSH2 0x100 EXP SWAP1 DIV PUSH20 0xFFFFFFFFFFFFFFFFFFFFFFFFFFFFFFFFFFFFFFFF AND DUP5 PUSH1 0x3 ADD SLOAD PUSH1 0x40 MLOAD DUP5 PUSH4 0xFFFFFFFF AND PUSH1 0xE0 SHL DUP2 MSTORE PUSH1 0x4 ADD PUSH2 0x44A SWAP4 SWAP3 SWAP2 SWAP1 PUSH2 0xCDC JUMP JUMPDEST PUSH1 0x20 PUSH1 0x40 MLOAD DUP1 DUP4 SUB DUP2 PUSH1 0x0 DUP8 GAS CALL ISZERO DUP1 ISZERO PUSH2 0x469 JUMPI RETURNDATASIZE PUSH1 0x0 DUP1 RETURNDATACOPY RETURNDATASIZE PUSH1 0x0 REVERT JUMPDEST POP POP POP POP PUSH1 0x40 MLOAD RETURNDATASIZE PUSH1 0x1F NOT PUSH1 0x1F DUP3 ADD AND DUP3 ADD DUP1 PUSH1 0x40 MSTORE POP DUP2 ADD SWAP1 PUSH2 0x48D SWAP2 SWAP1 PUSH2 0xD3F JUMP JUMPDEST POP DUP1 PUSH1 0x3 ADD SLOAD DUP2 PUSH1 0x6 ADD PUSH1 0x0 DUP3 DUP3 SLOAD PUSH2 0x4A6 SWAP2 SWAP1 PUSH2 0xD6C JUMP JUMPDEST SWAP3 POP POP DUP2 SWAP1 SSTORE POP DUP1 PUSH1 0x4 ADD SLOAD TIMESTAMP PUSH2 0x4BD SWAP2 SWAP1 PUSH2 0xD6C JUMP JUMPDEST DUP2 PUSH1 0x7 ADD DUP2 SWAP1 SSTORE POP PUSH32 0x6E59A6EE972BBD5F5B1932131F47641231AA73D1B0D32BD72CEA9471BABF742 DUP3 DUP3 PUSH1 0x3 ADD SLOAD PUSH1 0x40 MLOAD PUSH2 0x4FA SWAP3 SWAP2 SWAP1 PUSH2 0xDA0 JUMP JUMPDEST PUSH1 0x40 MLOAD DUP1 SWAP2 SUB SWAP1 LOG1 POP POP POP POP JUMP JUMPDEST PUSH1 0x0 PUSH1 0x60 PUSH1 0x0 PUSH1 0x1 SWAP1 POP JUMPDEST PUSH1 0x0 SLOAD DUP2 GT PUSH2 0x681 JUMPI PUSH1 0x0 PUSH1 0x1 PUSH1 0x0 DUP4 DUP2 MSTORE PUSH1 0x20 ADD SWAP1 DUP2 MSTORE PUSH1 0x20 ADD PUSH1 0x0 KECCAK256 SWAP1 POP DUP1 PUSH1 0x8 ADD PUSH1 0x0 SWAP1 SLOAD SWAP1 PUSH2 0x100 EXP SWAP1 DIV PUSH1 0xFF AND DUP1 ISZERO PUSH2 0x555 JUMPI POP DUP1 PUSH1 0x7 ADD SLOAD TIMESTAMP LT ISZERO JUMPDEST DUP1 ISZERO PUSH2 0x568 JUMPI POP DUP1 PUSH1 0x5 ADD SLOAD DUP2 PUSH1 0x6 ADD SLOAD LT JUMPDEST DUP1 ISZERO PUSH2 0x63B JUMPI POP DUP1 PUSH1 0x3 ADD SLOAD DUP2 PUSH1 0x2 ADD PUSH1 0x0 SWAP1 SLOAD SWAP1 PUSH2 0x100 EXP SWAP1 DIV PUSH20 0xFFFFFFFFFFFFFFFFFFFFFFFFFFFFFFFFFFFFFFFF AND PUSH20 0xFFFFFFFFFFFFFFFFFFFFFFFFFFFFFFFFFFFFFFFF AND PUSH4 0xDD62ED3E DUP4 PUSH1 0x0 ADD PUSH1 0x0 SWAP1 SLOAD SWAP1 PUSH2 0x100 EXP SWAP1 DIV PUSH20 0xFFFFFFFFFFFFFFFFFFFFFFFFFFFFFFFFFFFFFFFF AND ADDRESS PUSH1 0x40 MLOAD DUP4 PUSH4 0xFFFFFFFF AND PUSH1 0xE0 SHL DUP2 MSTORE PUSH1 0x4 ADD PUSH2 0x5F7 SWAP3 SWAP2 SWAP1 PUSH2 0xDC9 JUMP JUMPDEST PUSH1 0x20 PUSH1 0x40 MLOAD DUP1 DUP4 SUB DUP2 DUP7 GAS STATICCALL ISZERO DUP1 ISZERO PUSH2 0x614 JUMPI RETURNDATASIZE PUSH1 0x0 DUP1 RETURNDATACOPY RETURNDATASIZE PUSH1 0x0 REVERT JUMPDEST POP POP POP POP PUSH1 0x40 MLOAD RETURNDATASIZE PUSH1 0x1F NOT PUSH1 0x1F DUP3 ADD AND DUP3 ADD DUP1 PUSH1 0x40 MSTORE POP DUP2 ADD SWAP1 PUSH2 0x638 SWAP2 SWAP1 PUSH2 0xE07 JUMP JUMPDEST LT ISZERO JUMPDEST ISZERO PUSH2 0x66D JUMPI PUSH1 0x1 DUP3 PUSH1 0x40 MLOAD PUSH1 0x20 ADD PUSH2 0x653 SWAP2 SWAP1 PUSH2 0x9B4 JUMP JUMPDEST PUSH1 0x40 MLOAD PUSH1 0x20 DUP2 DUP4 SUB SUB DUP2 MSTORE SWAP1 PUSH1 0x40 MSTORE SWAP4 POP SWAP4 POP POP POP PUSH2 0x699 JUMP JUMPDEST POP DUP1 DUP1 PUSH2 0x679 SWAP1 PUSH2 0xC94 JUMP JUMPDEST SWAP2 POP POP PUSH2 0x513 JUMP JUMPDEST POP PUSH1 0x0 PUSH1 0x40 MLOAD DUP1 PUSH1 0x20 ADD PUSH1 0x40 MSTORE DUP1 PUSH1 0x0 DUP2 MSTORE POP SWAP2 POP SWAP2 POP JUMPDEST SWAP3 POP SWAP3 SWAP1 POP JUMP JUMPDEST PUSH1 0x1 PUSH1 0x20 MSTORE DUP1 PUSH1 0x0 MSTORE PUSH1 0x40 PUSH1 0x0 KECCAK256 PUSH1 0x0 SWAP2 POP SWAP1 POP DUP1 PUSH1 0x0 ADD PUSH1 0x0 SWAP1 SLOAD SWAP1 PUSH2 0x100 EXP SWAP1 DIV PUSH20 0xFFFFFFFFFFFFFFFFFFFFFFFFFFFFFFFFFFFFFFFF AND SWAP1 DUP1 PUSH1 0x1 ADD PUSH1 0x0 SWAP1 SLOAD SWAP1 PUSH2 0x100 EXP SWAP1 DIV PUSH20 0xFFFFFFFFFFFFFFFFFFFFFFFFFFFFFFFFFFFFFFFF AND SWAP1 DUP1 PUSH1 0x2 ADD PUSH1 0x0 SWAP1 SLOAD SWAP1 PUSH2 0x100 EXP SWAP1 DIV PUSH20 0xFFFFFFFFFFFFFFFFFFFFFFFFFFFFFFFFFFFFFFFF AND SWAP1 DUP1 PUSH1 0x3 ADD SLOAD SWAP1 DUP1 PUSH1 0x4 ADD SLOAD SWAP1 DUP1 PUSH1 0x5 ADD SLOAD SWAP1 DUP1 PUSH1 0x6 ADD SLOAD SWAP1 DUP1 PUSH1 0x7 ADD SLOAD SWAP1 DUP1 PUSH1 0x8 ADD PUSH1 0x0 SWAP1 SLOAD SWAP1 PUSH2 0x100 EXP SWAP1 DIV PUSH1 0xFF AND SWAP1 POP DUP10 JUMP JUMPDEST PUSH1 0x0 PUSH1 0x1 PUSH1 0x0 DUP5 DUP2 MSTORE PUSH1 0x20 ADD SWAP1 DUP2 MSTORE PUSH1 0x20 ADD PUSH1 0x0 KECCAK256 SWAP1 POP DUP1 PUSH1 0x1 ADD PUSH1 0x0 SWAP1 SLOAD SWAP1 PUSH2 0x100 EXP SWAP1 DIV PUSH20 0xFFFFFFFFFFFFFFFFFFFFFFFFFFFFFFFFFFFFFFFF AND PUSH20 0xFFFFFFFFFFFFFFFFFFFFFFFFFFFFFFFFFFFFFFFF AND CALLER PUSH20 0xFFFFFFFFFFFFFFFFFFFFFFFFFFFFFFFFFFFFFFFF AND EQ PUSH2 0x7CE JUMPI PUSH1 0x0 DUP1 REVERT JUMPDEST DUP1 PUSH1 0x8 ADD PUSH1 0x0 SWAP1 SLOAD SWAP1 PUSH2 0x100 EXP SWAP1 DIV PUSH1 0xFF AND ISZERO PUSH2 0x7EA JUMPI PUSH1 0x0 DUP1 REVERT JUMPDEST DUP2 DUP2 PUSH1 0x0 ADD PUSH1 0x0 PUSH2 0x100 EXP DUP2 SLOAD DUP2 PUSH20 0xFFFFFFFFFFFFFFFFFFFFFFFFFFFFFFFFFFFFFFFF MUL NOT AND SWAP1 DUP4 PUSH20 0xFFFFFFFFFFFFFFFFFFFFFFFFFFFFFFFFFFFFFFFF AND MUL OR SWAP1 SSTORE POP PUSH1 0x1 DUP2 PUSH1 0x8 ADD PUSH1 0x0 PUSH2 0x100 EXP DUP2 SLOAD DUP2 PUSH1 0xFF MUL NOT AND SWAP1 DUP4 ISZERO ISZERO MUL OR SWAP1 SSTORE POP DUP1 PUSH1 0x4 ADD SLOAD TIMESTAMP PUSH2 0x85A SWAP2 SWAP1 PUSH2 0xD6C JUMP JUMPDEST DUP2 PUSH1 0x7 ADD DUP2 SWAP1 SSTORE POP PUSH32 0xC1FEB8DC891DC96467534C73D44E95E94E55DDC27D9F52FE0E633F6437B3D53C DUP4 DUP4 PUSH1 0x40 MLOAD PUSH2 0x893 SWAP3 SWAP2 SWAP1 PUSH2 0xE34 JUMP JUMPDEST PUSH1 0x40 MLOAD DUP1 SWAP2 SUB SWAP1 LOG1 POP POP POP JUMP JUMPDEST PUSH1 0x0 DUP1 REVERT JUMPDEST PUSH1 0x0 DUP1 REVERT JUMPDEST PUSH1 0x0 PUSH20 0xFFFFFFFFFFFFFFFFFFFFFFFFFFFFFFFFFFFFFFFF DUP3 AND SWAP1 POP SWAP2 SWAP1 POP JUMP JUMPDEST PUSH1 0x0 PUSH2 0x8D5 DUP3 PUSH2 0x8AA JUMP JUMPDEST SWAP1 POP SWAP2 SWAP1 POP JUMP JUMPDEST PUSH2 0x8E5 DUP2 PUSH2 0x8CA JUMP JUMPDEST DUP2 EQ PUSH2 0x8F0 JUMPI PUSH1 0x0 DUP1 REVERT JUMPDEST POP JUMP JUMPDEST PUSH1 0x0 DUP2 CALLDATALOAD SWAP1 POP PUSH2 0x902 DUP2 PUSH2 0x8DC JUMP JUMPDEST SWAP3 SWAP2 POP POP JUMP JUMPDEST PUSH1 0x0 DUP2 SWAP1 POP SWAP2 SWAP1 POP JUMP JUMPDEST PUSH2 0x91B DUP2 PUSH2 0x908 JUMP JUMPDEST DUP2 EQ PUSH2 0x926 JUMPI PUSH1 0x0 DUP1 REVERT JUMPDEST POP JUMP JUMPDEST PUSH1 0x0 DUP2 CALLDATALOAD SWAP1 POP PUSH2 0x938 DUP2 PUSH2 0x912 JUMP JUMPDEST SWAP3 SWAP2 POP POP JUMP JUMPDEST PUSH1 0x0 DUP1 PUSH1 0x0 DUP1 PUSH1 0x80 DUP6 DUP8 SUB SLT ISZERO PUSH2 0x958 JUMPI PUSH2 0x957 PUSH2 0x8A0 JUMP JUMPDEST JUMPDEST PUSH1 0x0 PUSH2 0x966 DUP8 DUP3 DUP9 ADD PUSH2 0x8F3 JUMP JUMPDEST SWAP5 POP POP PUSH1 0x20 PUSH2 0x977 DUP8 DUP3 DUP9 ADD PUSH2 0x929 JUMP JUMPDEST SWAP4 POP POP PUSH1 0x40 PUSH2 0x988 DUP8 DUP3 DUP9 ADD PUSH2 0x929 JUMP JUMPDEST SWAP3 POP POP PUSH1 0x60 PUSH2 0x999 DUP8 DUP3 DUP9 ADD PUSH2 0x929 JUMP JUMPDEST SWAP2 POP POP SWAP3 SWAP6 SWAP2 SWAP5 POP SWAP3 POP JUMP JUMPDEST PUSH2 0x9AE DUP2 PUSH2 0x908 JUMP JUMPDEST DUP3 MSTORE POP POP JUMP JUMPDEST PUSH1 0x0 PUSH1 0x20 DUP3 ADD SWAP1 POP PUSH2 0x9C9 PUSH1 0x0 DUP4 ADD DUP5 PUSH2 0x9A5 JUMP JUMPDEST SWAP3 SWAP2 POP POP JUMP JUMPDEST PUSH1 0x0 DUP1 REVERT JUMPDEST PUSH1 0x0 DUP1 REVERT JUMPDEST PUSH1 0x0 DUP1 REVERT JUMPDEST PUSH1 0x0 DUP1 DUP4 PUSH1 0x1F DUP5 ADD SLT PUSH2 0x9F4 JUMPI PUSH2 0x9F3 PUSH2 0x9CF JUMP JUMPDEST JUMPDEST DUP3 CALLDATALOAD SWAP1 POP PUSH8 0xFFFFFFFFFFFFFFFF DUP2 GT ISZERO PUSH2 0xA11 JUMPI PUSH2 0xA10 PUSH2 0x9D4 JUMP JUMPDEST JUMPDEST PUSH1 0x20 DUP4 ADD SWAP2 POP DUP4 PUSH1 0x1 DUP3 MUL DUP4 ADD GT ISZERO PUSH2 0xA2D JUMPI PUSH2 0xA2C PUSH2 0x9D9 JUMP JUMPDEST JUMPDEST SWAP3 POP SWAP3 SWAP1 POP JUMP JUMPDEST PUSH1 0x0 DUP1 PUSH1 0x20 DUP4 DUP6 SUB SLT ISZERO PUSH2 0xA4B JUMPI PUSH2 0xA4A PUSH2 0x8A0 JUMP JUMPDEST JUMPDEST PUSH1 0x0 DUP4 ADD CALLDATALOAD PUSH8 0xFFFFFFFFFFFFFFFF DUP2 GT ISZERO PUSH2 0xA69 JUMPI PUSH2 0xA68 PUSH2 0x8A5 JUMP JUMPDEST JUMPDEST PUSH2 0xA75 DUP6 DUP3 DUP7 ADD PUSH2 0x9DE JUMP JUMPDEST SWAP3 POP SWAP3 POP POP SWAP3 POP SWAP3 SWAP1 POP JUMP JUMPDEST PUSH1 0x0 DUP2 ISZERO ISZERO SWAP1 POP SWAP2 SWAP1 POP JUMP JUMPDEST PUSH2 0xA96 DUP2 PUSH2 0xA81 JUMP JUMPDEST DUP3 MSTORE POP POP JUMP JUMPDEST PUSH1 0x0 DUP2 MLOAD SWAP1 POP SWAP2 SWAP1 POP JUMP JUMPDEST PUSH1 0x0 DUP3 DUP3 MSTORE PUSH1 0x20 DUP3 ADD SWAP1 POP SWAP3 SWAP2 POP POP JUMP JUMPDEST PUSH1 0x0 JUMPDEST DUP4 DUP2 LT ISZERO PUSH2 0xAD6 JUMPI DUP1 DUP3 ADD MLOAD DUP2 DUP5 ADD MSTORE PUSH1 0x20 DUP2 ADD SWAP1 POP PUSH2 0xABB JUMP JUMPDEST PUSH1 0x0 DUP5 DUP5 ADD MSTORE POP POP POP POP JUMP JUMPDEST PUSH1 0x0 PUSH1 0x1F NOT PUSH1 0x1F DUP4 ADD AND SWAP1 POP SWAP2 SWAP1 POP JUMP JUMPDEST PUSH1 0x0 PUSH2 0xAFE DUP3 PUSH2 0xA9C JUMP JUMPDEST PUSH2 0xB08 DUP2 DUP6 PUSH2 0xAA7 JUMP JUMPDEST SWAP4 POP PUSH2 0xB18 DUP2 DUP6 PUSH1 0x20 DUP7 ADD PUSH2 0xAB8 JUMP JUMPDEST PUSH2 0xB21 DUP2 PUSH2 0xAE2 JUMP JUMPDEST DUP5 ADD SWAP2 POP POP SWAP3 SWAP2 POP POP JUMP JUMPDEST PUSH1 0x0 PUSH1 0x40 DUP3 ADD SWAP1 POP PUSH2 0xB41 PUSH1 0x0 DUP4 ADD DUP6 PUSH2 0xA8D JUMP JUMPDEST DUP2 DUP2 SUB PUSH1 0x20 DUP4 ADD MSTORE PUSH2 0xB53 DUP2 DUP5 PUSH2 0xAF3 JUMP JUMPDEST SWAP1 POP SWAP4 SWAP3 POP POP POP JUMP JUMPDEST PUSH1 0x0 PUSH1 0x20 DUP3 DUP5 SUB SLT ISZERO PUSH2 0xB72 JUMPI PUSH2 0xB71 PUSH2 0x8A0 JUMP JUMPDEST JUMPDEST PUSH1 0x0 PUSH2 0xB80 DUP5 DUP3 DUP6 ADD PUSH2 0x929 JUMP JUMPDEST SWAP2 POP POP SWAP3 SWAP2 POP POP JUMP JUMPDEST PUSH2 0xB92 DUP2 PUSH2 0x8CA JUMP JUMPDEST DUP3 MSTORE POP POP JUMP JUMPDEST PUSH1 0x0 PUSH2 0x120 DUP3 ADD SWAP1 POP PUSH2 0xBAE PUSH1 0x0 DUP4 ADD DUP13 PUSH2 0xB89 JUMP JUMPDEST PUSH2 0xBBB PUSH1 0x20 DUP4 ADD DUP12 PUSH2 0xB89 JUMP JUMPDEST PUSH2 0xBC8 PUSH1 0x40 DUP4 ADD DUP11 PUSH2 0xB89 JUMP JUMPDEST PUSH2 0xBD5 PUSH1 0x60 DUP4 ADD DUP10 PUSH2 0x9A5 JUMP JUMPDEST PUSH2 0xBE2 PUSH1 0x80 DUP4 ADD DUP9 PUSH2 0x9A5 JUMP JUMPDEST PUSH2 0xBEF PUSH1 0xA0 DUP4 ADD DUP8 PUSH2 0x9A5 JUMP JUMPDEST PUSH2 0xBFC PUSH1 0xC0 DUP4 ADD DUP7 PUSH2 0x9A5 JUMP JUMPDEST PUSH2 0xC09 PUSH1 0xE0 DUP4 ADD DUP6 PUSH2 0x9A5 JUMP JUMPDEST PUSH2 0xC17 PUSH2 0x100 DUP4 ADD DUP5 PUSH2 0xA8D JUMP JUMPDEST SWAP11 SWAP10 POP POP POP POP POP POP POP POP POP POP JUMP JUMPDEST PUSH1 0x0 DUP1 PUSH1 0x40 DUP4 DUP6 SUB SLT ISZERO PUSH2 0xC3C JUMPI PUSH2 0xC3B PUSH2 0x8A0 JUMP JUMPDEST JUMPDEST PUSH1 0x0 PUSH2 0xC4A DUP6 DUP3 DUP7 ADD PUSH2 0x929 JUMP JUMPDEST SWAP3 POP POP PUSH1 0x20 PUSH2 0xC5B DUP6 DUP3 DUP7 ADD PUSH2 0x8F3 JUMP JUMPDEST SWAP2 POP POP SWAP3 POP SWAP3 SWAP1 POP JUMP JUMPDEST PUSH32 0x4E487B7100000000000000000000000000000000000000000000000000000000 PUSH1 0x0 MSTORE PUSH1 0x11 PUSH1 0x4 MSTORE PUSH1 0x24 PUSH1 0x0 REVERT JUMPDEST PUSH1 0x0 PUSH2 0xC9F DUP3 PUSH2 0x908 JUMP JUMPDEST SWAP2 POP PUSH32 0xFFFFFFFFFFFFFFFFFFFFFFFFFFFFFFFFFFFFFFFFFFFFFFFFFFFFFFFFFFFFFFFF DUP3 SUB PUSH2 0xCD1 JUMPI PUSH2 0xCD0 PUSH2 0xC65 JUMP JUMPDEST JUMPDEST PUSH1 0x1 DUP3 ADD SWAP1 POP SWAP2 SWAP1 POP JUMP JUMPDEST PUSH1 0x0 PUSH1 0x60 DUP3 ADD SWAP1 POP PUSH2 0xCF1 PUSH1 0x0 DUP4 ADD DUP7 PUSH2 0xB89 JUMP JUMPDEST PUSH2 0xCFE PUSH1 0x20 DUP4 ADD DUP6 PUSH2 0xB89 JUMP JUMPDEST PUSH2 0xD0B PUSH1 0x40 DUP4 ADD DUP5 PUSH2 0x9A5 JUMP JUMPDEST SWAP5 SWAP4 POP POP POP POP JUMP JUMPDEST PUSH2 0xD1C DUP2 PUSH2 0xA81 JUMP JUMPDEST DUP2 EQ PUSH2 0xD27 JUMPI PUSH1 0x0 DUP1 REVERT JUMPDEST POP JUMP JUMPDEST PUSH1 0x0 DUP2 MLOAD SWAP1 POP PUSH2 0xD39 DUP2 PUSH2 0xD13 JUMP JUMPDEST SWAP3 SWAP2 POP POP JUMP JUMPDEST PUSH1 0x0 PUSH1 0x20 DUP3 DUP5 SUB SLT ISZERO PUSH2 0xD55 JUMPI PUSH2 0xD54 PUSH2 0x8A0 JUMP JUMPDEST JUMPDEST PUSH1 0x0 PUSH2 0xD63 DUP5 DUP3 DUP6 ADD PUSH2 0xD2A JUMP JUMPDEST SWAP2 POP POP SWAP3 SWAP2 POP POP JUMP JUMPDEST PUSH1 0x0 PUSH2 0xD77 DUP3 PUSH2 0x908 JUMP JUMPDEST SWAP2 POP PUSH2 0xD82 DUP4 PUSH2 0x908 JUMP JUMPDEST SWAP3 POP DUP3 DUP3 ADD SWAP1 POP DUP1 DUP3 GT ISZERO PUSH2 0xD9A JUMPI PUSH2 0xD99 PUSH2 0xC65 JUMP JUMPDEST JUMPDEST SWAP3 SWAP2 POP POP JUMP JUMPDEST PUSH1 0x0 PUSH1 0x40 DUP3 ADD SWAP1 POP PUSH2 0xDB5 PUSH1 0x0 DUP4 ADD DUP6 PUSH2 0x9A5 JUMP JUMPDEST PUSH2 0xDC2 PUSH1 0x20 DUP4 ADD DUP5 PUSH2 0x9A5 JUMP JUMPDEST SWAP4 SWAP3 POP POP POP JUMP JUMPDEST PUSH1 0x0 PUSH1 0x40 DUP3 ADD SWAP1 POP PUSH2 0xDDE PUSH1 0x0 DUP4 ADD DUP6 PUSH2 0xB89 JUMP JUMPDEST PUSH2 0xDEB PUSH1 0x20 DUP4 ADD DUP5 PUSH2 0xB89 JUMP JUMPDEST SWAP4 SWAP3 POP POP POP JUMP JUMPDEST PUSH1 0x0 DUP2 MLOAD SWAP1 POP PUSH2 0xE01 DUP2 PUSH2 0x912 JUMP JUMPDEST SWAP3 SWAP2 POP POP JUMP JUMPDEST PUSH1 0x0 PUSH1 0x20 DUP3 DUP5 SUB SLT ISZERO PUSH2 0xE1D JUMPI PUSH2 0xE1C PUSH2 0x8A0 JUMP JUMPDEST JUMPDEST PUSH1 0x0 PUSH2 0xE2B DUP5 DUP3 DUP6 ADD PUSH2 0xDF2 JUMP JUMPDEST SWAP2 POP POP SWAP3 SWAP2 POP POP JUMP JUMPDEST PUSH1 0x0 PUSH1 0x40 DUP3 ADD SWAP1 POP PUSH2 0xE49 PUSH1 0x0 DUP4 ADD DUP6 PUSH2 0x9A5 JUMP JUMPDEST PUSH2 0xE56 PUSH1 0x20 DUP4 ADD DUP5 PUSH2 0xB89 JUMP JUMPDEST SWAP4 SWAP3 POP POP POP JUMP INVALID LOG2 PUSH5 0x6970667358 0x22 SLT KECCAK256 0xE7 EQ 0x2B 0xAE 0x2E 0xAF PUSH23 0x5FDA6F82FC52D618A1568026D2CC7E2DF42908D7C1063A 0xC1 SWAP5 PUSH5 0x736F6C6343 STOP ADDMOD EQ STOP CALLER "},"methodIdentifiers":{"checkUpkeep(bytes)":"6e04ff0d","confirmFirstPayment(uint256,address)":"be9d5e62","createPlan(address,uint256,uint256,uint256)":"0339e9fa","performUpkeep(bytes)":"4585e33b","planCount()":"382d39bb","plans(uint256)":"b1620616"}}}}}