{"contracts/EmiAutoPayEVM.sol":{"EmiAutoPayEVM":{"abi":[{"anonymous":false,"inputs":[{"indexed":true,"internalType":"uint256","name":"planId","type":"uint256"}],"name":"EmiCompleted","type":"event"},{"anonymous":false,"inputs":[{"indexed":true,"internalType":"uint256","name":"planId","type":"uint256"},{"indexed":false,"internalType":"uint256","name":"amount","type":"uint256"}],"name":"EmiPaid","type":"event"},{"anonymous":false,"inputs":[{"indexed":true,"internalType":"uint256","name":"planId","type":"uint256"},{"indexed":true,"internalType":"address","name":"sender","type":"address"}],"name":"PlanActivated","type":"event"},{"anonymous":false,"inputs":[{"indexed":true,"internalType":"uint256","name":"planId","type":"uint256"}],"name":"PlanCreated","type":"event"},{"anonymous":false,"inputs":[{"indexed":true,"internalType":"uint256","name":"planId","type":"uint256"},{"indexed":true,"internalType":"address","name":"receiver","type":"address"}],"name":"PlanLinked","type":"event"},{"inputs":[{"internalType":"uint256","name":"planId","type":"uint256"}],"name":"activatePlan","outputs":[],"stateMutability":"payable","type":"function"},{"inputs":[{"internalType":"bytes","name":"","type":"bytes"}],"name":"checkUpkeep","outputs":[{"internalType":"bool","name":"upkeepNeeded","type":"bool"},{"internalType":"bytes","name":"performData","type":"bytes"}],"stateMutability":"view","type":"function"},{"inputs":[{"internalType":"uint256","name":"emi","type":"uint256"},{"internalType":"uint256","name":"interval","type":"uint256"},{"internalType":"uint256","name":"total","type":"uint256"}],"name":"createPlan","outputs":[],"stateMutability":"nonpayable","type":"function"},{"inputs":[{"internalType":"uint256","name":"planId","type":"uint256"}],"name":"linkPlanToDirectPayment","outputs":[],"stateMutability":"nonpayable","type":"function"},{"inputs":[{"internalType":"address","name":"","type":"address"}],"name":"linkedReceivers","outputs":[{"internalType":"bool","name":"","type":"bool"}],"stateMutability":"view","type":"function"},{"inputs":[{"internalType":"address","name":"","type":"address"}],"name":"pendingPlanId","outputs":[{"internalType":"uint256","name":"","type":"uint256"}],"stateMutability":"view","type":"function"},{"inputs":[{"internalType":"bytes","name":"data","type":"bytes"}],"name":"performUpkeep","outputs":[],"stateMutability":"nonpayable","type":"function"},{"inputs":[],"name":"planCount","outputs":[{"internalType":"uint256","name":"","type":"uint256"}],"stateMutability":"view","type":"function"},{"inputs":[{"internalType":"uint256","name":"","type":"uint256"}],"name":"plans","outputs":[{"internalType":"address payable","name":"sender","type":"address"},{"internalType":"address payable","name":"receiver","type":"address"},{"internalType":"uint256","name":"emi","type":"uint256"},{"internalType":"uint256","name":"interval","type":"uint256"},{"internalType":"uint256","name":"total","type":"uint256"},{"internalType":"uint256","name":"paid","type":"uint256"},{"internalType":"uint256","name":"nextPay","type":"uint256"},{"internalType":"bool","name":"active","type":"bool"}],"stateMutability":"view","type":"function"},{"inputs":[],"name":"unlinkPlan","outputs":[],"stateMutability":"nonpayable","type":"function"},{"stateMutability":"payable","type":"receive"}],"evm":{"bytecode":{"linkReferences":{},"object":"608060405234801561001057600080fd5b506001600081905550611bd9806100286000396000f3fe6080604052600436106100955760003560e01c80637404c769116100595780637404c76914610485578063b1620616146104c2578063bd6e7efb14610506578063d4ea9e621461052f578063ea74cb131461054b57610388565b8063382d39bb1461038d57806342b0a672146103b85780634585e33b146103f55780634aec73841461041e5780636e04ff0d1461044757610388565b36610388576100a2610562565b66038d7ea4c68000341061037d576000600190505b600154811161037b5760006002600083815260200190815260200160002090508060070160009054906101000a900460ff16158015610158575081600360008360010160009054906101000a900473ffffffffffffffffffffffffffffffffffffffff1673ffffffffffffffffffffffffffffffffffffffff1673ffffffffffffffffffffffffffffffffffffffff16815260200190815260200160002054145b80156101d15750600460008260010160009054906101000a900473ffffffffffffffffffffffffffffffffffffffff1673ffffffffffffffffffffffffffffffffffffffff1673ffffffffffffffffffffffffffffffffffffffff16815260200190815260200160002060009054906101000a900460ff165b80156101e1575080600201543410155b1561036757338160000160006101000a81548173ffffffffffffffffffffffffffffffffffffffff021916908373ffffffffffffffffffffffffffffffffffffffff1602179055503481600501600082825461023d919061120e565b925050819055508060010160009054906101000a900473ffffffffffffffffffffffffffffffffffffffff1673ffffffffffffffffffffffffffffffffffffffff166108fc349081150290604051600060405180830381858888f193505050501580156102ae573d6000803e3d6000fd5b5060018160070160006101000a81548160ff0219169083151502179055508060030154426102dc919061120e565b81600601819055503373ffffffffffffffffffffffffffffffffffffffff16827f1f07c729fc76534d72c9e3ad0a792bf34de515a8aabc1a61bd40c2a2bd72ad8860405160405180910390a3817f06e59a6ee972bbd5f5b1932131f47641231aa73d1b0d32bd72cea9471babf742346040516103589190611251565b60405180910390a2505061037e565b5080806103739061126c565b9150506100b7565b505b5b6103866105b1565b005b600080fd5b34801561039957600080fd5b506103a26105bb565b6040516103af9190611251565b60405180910390f35b3480156103c457600080fd5b506103df60048036038101906103da919061131c565b6105c1565b6040516103ec9190611251565b60405180910390f35b34801561040157600080fd5b5061041c600480360381019061041791906113ae565b6105d9565b005b34801561042a57600080fd5b5061044560048036038101906104409190611427565b61081e565b005b34801561045357600080fd5b5061046e600480360381019061046991906113ae565b610a98565b60405161047c929190611525565b60405180910390f35b34801561049157600080fd5b506104ac60048036038101906104a7919061131c565b610b82565b6040516104b99190611555565b60405180910390f35b3480156104ce57600080fd5b506104e960048036038101906104e49190611570565b610ba2565b6040516104fd9897969594939291906115be565b60405180910390f35b34801561051257600080fd5b5061052d60048036038101906105289190611570565b610c37565b005b61054960048036038101906105449190611570565b610e67565b005b34801561055757600080fd5b50610560611138565b005b6002600054036105a7576040517f08c379a000000000000000000000000000000000000000000000000000000000815260040161059e90611699565b60405180910390fd5b6002600081905550565b6001600081905550565b60015481565b60036020528060005260406000206000915090505481565b6105e1610562565b600082829050031561081257600082828101906105fe9190611570565b905060006002600083815260200190815260200160002090508060070160009054906101000a900460ff16610668576040517f08c379a000000000000000000000000000000000000000000000000000000000815260040161065f90611705565b60405180910390fd5b60008160000160009054906101000a900473ffffffffffffffffffffffffffffffffffffffff1673ffffffffffffffffffffffffffffffffffffffff1682600201546040516106b690611756565b60006040518083038185875af1925050503d80600081146106f3576040519150601f19603f3d011682016040523d82523d6000602084013e6106f8565b606091505b505090508061073c576040517f08c379a0000000000000000000000000000000000000000000000000000000008152600401610733906117b7565b60405180910390fd5b8160020154826005016000828254610754919061120e565b9250508190555081600401548260050154106107b95760008260070160006101000a81548160ff021916908315150217905550827f5417900f2b30001c152939c30dea707712a1b6254728bc12c5bf0137cb36e9a060405160405180910390a261080e565b8160030154426107c9919061120e565b8260060181905550827f06e59a6ee972bbd5f5b1932131f47641231aa73d1b0d32bd72cea9471babf74283600201546040516108059190611251565b60405180910390a25b5050505b61081a6105b1565b5050565b60008311610861576040517f08c379a000000000000000000000000000000000000000000000000000000000815260040161085890611823565b60405180910390fd5b603c8210156108a5576040517f08c379a000000000000000000000000000000000000000000000000000000000815260040161089c9061188f565b60405180910390fd5b828110156108e8576040517f08c379a00000000000000000000000000000000000000000000000000000000081526004016108df906118fb565b60405180910390fd5b600160008154809291906108fb9061126c565b9190505550604051806101000160405280600073ffffffffffffffffffffffffffffffffffffffff1681526020013373ffffffffffffffffffffffffffffffffffffffff16815260200184815260200183815260200182815260200160008152602001600081526020016000151581525060026000600154815260200190815260200160002060008201518160000160006101000a81548173ffffffffffffffffffffffffffffffffffffffff021916908373ffffffffffffffffffffffffffffffffffffffff16021790555060208201518160010160006101000a81548173ffffffffffffffffffffffffffffffffffffffff021916908373ffffffffffffffffffffffffffffffffffffffff16021790555060408201518160020155606082015181600301556080820151816004015560a0820151816005015560c0820151816006015560e08201518160070160006101000a81548160ff0219169083151502179055509050506001547f9dfd4372898f1ab4b7aab4735c5b8c07f64b72ef6f72e0da892265459fc1b86160405160405180910390a2505050565b60006060600060015403610ac15760006040518060200160405280600081525091509150610b7b565b6000600190505b6001548111610b635760006002600083815260200190815260200160002090508060070160009054906101000a900460ff168015610b0d575080600401548160050154105b8015610b1d575080600601544210155b15610b4f57600182604051602001610b359190611251565b604051602081830303815290604052935093505050610b7b565b508080610b5b9061126c565b915050610ac8565b50600060405180602001604052806000815250915091505b9250929050565b60046020528060005260406000206000915054906101000a900460ff1681565b60026020528060005260406000206000915090508060000160009054906101000a900473ffffffffffffffffffffffffffffffffffffffff16908060010160009054906101000a900473ffffffffffffffffffffffffffffffffffffffff16908060020154908060030154908060040154908060050154908060060154908060070160009054906101000a900460ff16905088565b600081118015610c4957506001548111155b610c88576040517f08c379a0000000000000000000000000000000000000000000000000000000008152600401610c7f90611967565b60405180910390fd5b60006002600083815260200190815260200160002090503373ffffffffffffffffffffffffffffffffffffffff168160010160009054906101000a900473ffffffffffffffffffffffffffffffffffffffff1673ffffffffffffffffffffffffffffffffffffffff1614610d31576040517f08c379a0000000000000000000000000000000000000000000000000000000008152600401610d28906119d3565b60405180910390fd5b8060070160009054906101000a900460ff1615610d83576040517f08c379a0000000000000000000000000000000000000000000000000000000008152600401610d7a90611a3f565b60405180910390fd5b81600360003373ffffffffffffffffffffffffffffffffffffffff1673ffffffffffffffffffffffffffffffffffffffff168152602001908152602001600020819055506001600460003373ffffffffffffffffffffffffffffffffffffffff1673ffffffffffffffffffffffffffffffffffffffff16815260200190815260200160002060006101000a81548160ff0219169083151502179055503373ffffffffffffffffffffffffffffffffffffffff16827fa71688517b80a169255911c539e70f1889f59db8a23c03d4ffc131fea52c0ffa60405160405180910390a35050565b610e6f610562565b6000600260008381526020019081526020016000209050600073ffffffffffffffffffffffffffffffffffffffff168160010160009054906101000a900473ffffffffffffffffffffffffffffffffffffffff1673ffffffffffffffffffffffffffffffffffffffff1603610f19576040517f08c379a0000000000000000000000000000000000000000000000000000000008152600401610f1090611aab565b60405180910390fd5b8060070160009054906101000a900460ff1615610f6b576040517f08c379a0000000000000000000000000000000000000000000000000000000008152600401610f6290611b17565b60405180910390fd5b8060020154341015610fb2576040517f08c379a0000000000000000000000000000000000000000000000000000000008152600401610fa990611b83565b60405180910390fd5b338160000160006101000a81548173ffffffffffffffffffffffffffffffffffffffff021916908373ffffffffffffffffffffffffffffffffffffffff16021790555034816005016000828254611009919061120e565b925050819055508060010160009054906101000a900473ffffffffffffffffffffffffffffffffffffffff1673ffffffffffffffffffffffffffffffffffffffff166108fc349081150290604051600060405180830381858888f1935050505015801561107a573d6000803e3d6000fd5b50817f06e59a6ee972bbd5f5b1932131f47641231aa73d1b0d32bd72cea9471babf742346040516110ab9190611251565b60405180910390a260018160070160006101000a81548160ff0219169083151502179055508060030154426110e0919061120e565b81600601819055503373ffffffffffffffffffffffffffffffffffffffff16827f1f07c729fc76534d72c9e3ad0a792bf34de515a8aabc1a61bd40c2a2bd72ad8860405160405180910390a3506111356105b1565b50565b600360003373ffffffffffffffffffffffffffffffffffffffff1673ffffffffffffffffffffffffffffffffffffffff168152602001908152602001600020600090556000600460003373ffffffffffffffffffffffffffffffffffffffff1673ffffffffffffffffffffffffffffffffffffffff16815260200190815260200160002060006101000a81548160ff021916908315150217905550565b6000819050919050565b7f4e487b7100000000000000000000000000000000000000000000000000000000600052601160045260246000fd5b6000611219826111d5565b9150611224836111d5565b925082820190508082111561123c5761123b6111df565b5b92915050565b61124b816111d5565b82525050565b60006020820190506112666000830184611242565b92915050565b6000611277826111d5565b91507fffffffffffffffffffffffffffffffffffffffffffffffffffffffffffffffff82036112a9576112a86111df565b5b600182019050919050565b600080fd5b600080fd5b600073ffffffffffffffffffffffffffffffffffffffff82169050919050565b60006112e9826112be565b9050919050565b6112f9816112de565b811461130457600080fd5b50565b600081359050611316816112f0565b92915050565b600060208284031215611332576113316112b4565b5b600061134084828501611307565b91505092915050565b600080fd5b600080fd5b600080fd5b60008083601f84011261136e5761136d611349565b5b8235905067ffffffffffffffff81111561138b5761138a61134e565b5b6020830191508360018202830111156113a7576113a6611353565b5b9250929050565b600080602083850312156113c5576113c46112b4565b5b600083013567ffffffffffffffff8111156113e3576113e26112b9565b5b6113ef85828601611358565b92509250509250929050565b611404816111d5565b811461140f57600080fd5b50565b600081359050611421816113fb565b92915050565b6000806000606084860312156114405761143f6112b4565b5b600061144e86828701611412565b935050602061145f86828701611412565b925050604061147086828701611412565b9150509250925092565b60008115159050919050565b61148f8161147a565b82525050565b600081519050919050565b600082825260208201905092915050565b60005b838110156114cf5780820151818401526020810190506114b4565b60008484015250505050565b6000601f19601f8301169050919050565b60006114f782611495565b61150181856114a0565b93506115118185602086016114b1565b61151a816114db565b840191505092915050565b600060408201905061153a6000830185611486565b818103602083015261154c81846114ec565b90509392505050565b600060208201905061156a6000830184611486565b92915050565b600060208284031215611586576115856112b4565b5b600061159484828501611412565b91505092915050565b60006115a8826112be565b9050919050565b6115b88161159d565b82525050565b6000610100820190506115d4600083018b6115af565b6115e1602083018a6115af565b6115ee6040830189611242565b6115fb6060830188611242565b6116086080830187611242565b61161560a0830186611242565b61162260c0830185611242565b61162f60e0830184611486565b9998505050505050505050565b600082825260208201905092915050565b7f5265656e7472616e637947756172643a207265656e7472616e742063616c6c00600082015250565b6000611683601f8361163c565b915061168e8261164d565b602082019050919050565b600060208201905081810360008301526116b281611676565b9050919050565b7f496e616374697665000000000000000000000000000000000000000000000000600082015250565b60006116ef60088361163c565b91506116fa826116b9565b602082019050919050565b6000602082019050818103600083015261171e816116e2565b9050919050565b600081905092915050565b50565b6000611740600083611725565b915061174b82611730565b600082019050919050565b600061176182611733565b9150819050919050565b7f455448207472616e73666572206661696c656400000000000000000000000000600082015250565b60006117a160138361163c565b91506117ac8261176b565b602082019050919050565b600060208201905081810360008301526117d081611794565b9050919050565b7f496e76616c696420454d49000000000000000000000000000000000000000000600082015250565b600061180d600b8361163c565b9150611818826117d7565b602082019050919050565b6000602082019050818103600083015261183c81611800565b9050919050565b7f4d696e2036307300000000000000000000000000000000000000000000000000600082015250565b600061187960078361163c565b915061188482611843565b602082019050919050565b600060208201905081810360008301526118a88161186c565b9050919050565b7f546f74616c203c20454d49000000000000000000000000000000000000000000600082015250565b60006118e5600b8361163c565b91506118f0826118af565b602082019050919050565b60006020820190508181036000830152611914816118d8565b9050919050565b7f496e76616c696420706c616e2049440000000000000000000000000000000000600082015250565b6000611951600f8361163c565b915061195c8261191b565b602082019050919050565b6000602082019050818103600083015261198081611944565b9050919050565b7f4e6f7420796f757220706c616e00000000000000000000000000000000000000600082015250565b60006119bd600d8361163c565b91506119c882611987565b602082019050919050565b600060208201905081810360008301526119ec816119b0565b9050919050565b7f506c616e20616c72656164792061637469766500000000000000000000000000600082015250565b6000611a2960138361163c565b9150611a34826119f3565b602082019050919050565b60006020820190508181036000830152611a5881611a1c565b9050919050565b7f496e76616c696420706c616e0000000000000000000000000000000000000000600082015250565b6000611a95600c8361163c565b9150611aa082611a5f565b602082019050919050565b60006020820190508181036000830152611ac481611a88565b9050919050565b7f416c726561647920616374697665000000000000000000000000000000000000600082015250565b6000611b01600e8361163c565b9150611b0c82611acb565b602082019050919050565b60006020820190508181036000830152611b3081611af4565b9050919050565b7f53656e64206174206c65617374203120454d4900000000000000000000000000600082015250565b6000611b6d60138361163c565b9150611b7882611b37565b602082019050919050565b60006020820190508181036000830152611b9c81611b60565b905091905056fea2646970667358221220314fb3a150e95c1b1637e6b752b7b922e1500ce8ef6765a454216cb4719ae97464736f6c63430008140033","opcodes":"PUSH1 0x80 PUSH1 0x40 MSTORE CALLVALUE DUP1 ISZERO PUSH2 0x10 JUMPI PUSH1 0x0 DUP1 REVERT JUMPDEST POP PUSH1 0x1 PUSH1 0x0 DUP2 SWAP1 SSTORE POP PUSH2 0x1BD9 DUP1 PUSH2 0x28 PUSH1 0x0 CODECOPY PUSH1 0x0 RETURN INVALID PUSH1 0x80 PUSH1 0x40 MSTORE PUSH1 0x4 CALLDATASIZE LT PUSH2 0x95 JUMPI PUSH1 0x0 CALLDATALOAD PUSH1 0xE0 SHR DUP1 PUSH4 0x7404C769 GT PUSH2 0x59 JUMPI DUP1 PUSH4 0x7404C769 EQ PUSH2 0x485 JUMPI DUP1 PUSH4 0xB1620616 EQ PUSH2 0x4C2 JUMPI DUP1 PUSH4 0xBD6E7EFB EQ PUSH2 0x506 JUMPI DUP1 PUSH4 0xD4EA9E62 EQ PUSH2 0x52F JUMPI DUP1 PUSH4 0xEA74CB13 EQ PUSH2 0x54B JUMPI PUSH2 0x388 JUMP JUMPDEST DUP1 PUSH4 0x382D39BB EQ PUSH2 0x38D JUMPI DUP1 PUSH4 0x42B0A672 EQ PUSH2 0x3B8 JUMPI DUP1 PUSH4 0x4585E33B EQ PUSH2 0x3F5 JUMPI DUP1 PUSH4 0x4AEC7384 EQ PUSH2 0x41E JUMPI DUP1 PUSH4 0x6E04FF0D EQ PUSH2 0x447 JUMPI PUSH2 0x388 JUMP JUMPDEST CALLDATASIZE PUSH2 0x388 JUMPI PUSH2 0xA2 PUSH2 0x562 JUMP JUMPDEST PUSH7 0x38D7EA4C68000 CALLVALUE LT PUSH2 0x37D JUMPI PUSH1 0x0 PUSH1 0x1 SWAP1 POP JUMPDEST PUSH1 0x1 SLOAD DUP2 GT PUSH2 0x37B JUMPI PUSH1 0x0 PUSH1 0x2 PUSH1 0x0 DUP4 DUP2 MSTORE PUSH1 0x20 ADD SWAP1 DUP2 MSTORE PUSH1 0x20 ADD PUSH1 0x0 KECCAK256 SWAP1 POP DUP1 PUSH1 0x7 ADD PUSH1 0x0 SWAP1 SLOAD SWAP1 PUSH2 0x100 EXP SWAP1 DIV PUSH1 0xFF AND ISZERO DUP1 ISZERO PUSH2 0x158 JUMPI POP DUP2 PUSH1 0x3 PUSH1 0x0 DUP4 PUSH1 0x1 ADD PUSH1 0x0 SWAP1 SLOAD SWAP1 PUSH2 0x100 EXP SWAP1 DIV PUSH20 0xFFFFFFFFFFFFFFFFFFFFFFFFFFFFFFFFFFFFFFFF AND PUSH20 0xFFFFFFFFFFFFFFFFFFFFFFFFFFFFFFFFFFFFFFFF AND PUSH20 0xFFFFFFFFFFFFFFFFFFFFFFFFFFFFFFFFFFFFFFFF AND DUP2 MSTORE PUSH1 0x20 ADD SWAP1 DUP2 MSTORE PUSH1 0x20 ADD PUSH1 0x0 KECCAK256 SLOAD EQ JUMPDEST DUP1 ISZERO PUSH2 0x1D1 JUMPI POP PUSH1 0x4 PUSH1 0x0 DUP3 PUSH1 0x1 ADD PUSH1 0x0 SWAP1 SLOAD SWAP1 PUSH2 0x100 EXP SWAP1 DIV PUSH20 0xFFFFFFFFFFFFFFFFFFFFFFFFFFFFFFFFFFFFFFFF AND PUSH20 0xFFFFFFFFFFFFFFFFFFFFFFFFFFFFFFFFFFFFFFFF AND PUSH20 0xFFFFFFFFFFFFFFFFFFFFFFFFFFFFFFFFFFFFFFFF AND DUP2 MSTORE PUSH1 0x20 ADD SWAP1 DUP2 MSTORE PUSH1 0x20 ADD PUSH1 0x0 KECCAK256 PUSH1 0x0 SWAP1 SLOAD SWAP1 PUSH2 0x100 EXP SWAP1 DIV PUSH1 0xFF AND JUMPDEST DUP1 ISZERO PUSH2 0x1E1 JUMPI POP DUP1 PUSH1 0x2 ADD SLOAD CALLVALUE LT ISZERO JUMPDEST ISZERO PUSH2 0x367 JUMPI CALLER DUP2 PUSH1 0x0 ADD PUSH1 0x0 PUSH2 0x100 EXP DUP2 SLOAD DUP2 PUSH20 0xFFFFFFFFFFFFFFFFFFFFFFFFFFFFFFFFFFFFFFFF MUL NOT AND SWAP1 DUP4 PUSH20 0xFFFFFFFFFFFFFFFFFFFFFFFFFFFFFFFFFFFFFFFF AND MUL OR SWAP1 SSTORE POP CALLVALUE DUP2 PUSH1 0x5 ADD PUSH1 0x0 DUP3 DUP3 SLOAD PUSH2 0x23D SWAP2 SWAP1 PUSH2 0x120E JUMP JUMPDEST SWAP3 POP POP DUP2 SWAP1 SSTORE POP DUP1 PUSH1 0x1 ADD PUSH1 0x0 SWAP1 SLOAD SWAP1 PUSH2 0x100 EXP SWAP1 DIV PUSH20 0xFFFFFFFFFFFFFFFFFFFFFFFFFFFFFFFFFFFFFFFF AND PUSH20 0xFFFFFFFFFFFFFFFFFFFFFFFFFFFFFFFFFFFFFFFF AND PUSH2 0x8FC CALLVALUE SWAP1 DUP2 ISZERO MUL SWAP1 PUSH1 0x40 MLOAD PUSH1 0x0 PUSH1 0x40 MLOAD DUP1 DUP4 SUB DUP2 DUP6 DUP9 DUP9 CALL SWAP4 POP POP POP POP ISZERO DUP1 ISZERO PUSH2 0x2AE JUMPI RETURNDATASIZE PUSH1 0x0 DUP1 RETURNDATACOPY RETURNDATASIZE PUSH1 0x0 REVERT JUMPDEST POP PUSH1 0x1 DUP2 PUSH1 0x7 ADD PUSH1 0x0 PUSH2 0x100 EXP DUP2 SLOAD DUP2 PUSH1 0xFF MUL NOT AND SWAP1 DUP4 ISZERO ISZERO MUL OR SWAP1 SSTORE POP DUP1 PUSH1 0x3 ADD SLOAD TIMESTAMP PUSH2 0x2DC SWAP2 SWAP1 PUSH2 0x120E JUMP JUMPDEST DUP2 PUSH1 0x6 ADD DUP2 SWAP1 SSTORE POP CALLER PUSH20 0xFFFFFFFFFFFFFFFFFFFFFFFFFFFFFFFFFFFFFFFF AND DUP3 PUSH32 0x1F07C729FC76534D72C9E3AD0A792BF34DE515A8AABC1A61BD40C2A2BD72AD88 PUSH1 0x40 MLOAD PUSH1 0x40 MLOAD DUP1 SWAP2 SUB SWAP1 LOG3 DUP2 PUSH32 0x6E59A6EE972BBD5F5B1932131F47641231AA73D1B0D32BD72CEA9471BABF742 CALLVALUE PUSH1 0x40 MLOAD PUSH2 0x358 SWAP2 SWAP1 PUSH2 0x1251 JUMP JUMPDEST PUSH1 0x40 MLOAD DUP1 SWAP2 SUB SWAP1 LOG2 POP POP PUSH2 0x37E JUMP JUMPDEST POP DUP1 DUP1 PUSH2 0x373 SWAP1 PUSH2 0x126C JUMP JUMPDEST SWAP2 POP POP PUSH2 0xB7 JUMP JUMPDEST POP JUMPDEST JUMPDEST PUSH2 0x386 PUSH2 0x5B1 JUMP JUMPDEST STOP JUMPDEST PUSH1 0x0 DUP1 REVERT JUMPDEST CALLVALUE DUP1 ISZERO PUSH2 0x399 JUMPI PUSH1 0x0 DUP1 REVERT JUMPDEST POP PUSH2 0x3A2 PUSH2 0x5BB JUMP JUMPDEST PUSH1 0x40 MLOAD PUSH2 0x3AF SWAP2 SWAP1 PUSH2 0x1251 JUMP JUMPDEST PUSH1 0x40 MLOAD DUP1 SWAP2 SUB SWAP1 RETURN JUMPDEST CALLVALUE DUP1 ISZERO PUSH2 0x3C4 JUMPI PUSH1 0x0 DUP1 REVERT JUMPDEST POP PUSH2 0x3DF PUSH1 0x4 DUP1 CALLDATASIZE SUB DUP2 ADD SWAP1 PUSH2 0x3DA SWAP2 SWAP1 PUSH2 0x131C JUMP JUMPDEST PUSH2 0x5C1 JUMP JUMPDEST PUSH1 0x40 MLOAD PUSH2 0x3EC SWAP2 SWAP1 PUSH2 0x1251 JUMP JUMPDEST PUSH1 0x40 MLOAD DUP1 SWAP2 SUB SWAP1 RETURN JUMPDEST CALLVALUE DUP1 ISZERO PUSH2 0x401 JUMPI PUSH1 0x0 DUP1 REVERT JUMPDEST POP PUSH2 0x41C PUSH1 0x4 DUP1 CALLDATASIZE SUB DUP2 ADD SWAP1 PUSH2 0x417 SWAP2 SWAP1 PUSH2 0x13AE JUMP JUMPDEST PUSH2 0x5D9 JUMP JUMPDEST STOP JUMPDEST CALLVALUE DUP1 ISZERO PUSH2 0x42A JUMPI PUSH1 0x0 DUP1 REVERT JUMPDEST POP PUSH2 0x445 PUSH1 0x4 DUP1 CALLDATASIZE SUB DUP2 ADD SWAP1 PUSH2 0x440 SWAP2 SWAP1 PUSH2 0x1427 JUMP JUMPDEST PUSH2 0x81E JUMP JUMPDEST STOP JUMPDEST CALLVALUE DUP1 ISZERO PUSH2 0x453 JUMPI PUSH1 0x0 DUP1 REVERT JUMPDEST POP PUSH2 0x46E PUSH1 0x4 DUP1 CALLDATASIZE SUB DUP2 ADD SWAP1 PUSH2 0x469 SWAP2 SWAP1 PUSH2 0x13AE JUMP JUMPDEST PUSH2 0xA98 JUMP JUMPDEST PUSH1 0x40 MLOAD PUSH2 0x47C SWAP3 SWAP2 SWAP1 PUSH2 0x1525 JUMP JUMPDEST PUSH1 0x40 MLOAD DUP1 SWAP2 SUB SWAP1 RETURN JUMPDEST CALLVALUE DUP1 ISZERO PUSH2 0x491 JUMPI PUSH1 0x0 DUP1 REVERT JUMPDEST POP PUSH2 0x4AC PUSH1 0x4 DUP1 CALLDATASIZE SUB DUP2 ADD SWAP1 PUSH2 0x4A7 SWAP2 SWAP1 PUSH2 0x131C JUMP JUMPDEST PUSH2 0xB82 JUMP JUMPDEST PUSH1 0x40 MLOAD PUSH2 0x4B9 SWAP2 SWAP1 PUSH2 0x1555 JUMP JUMPDEST PUSH1 0x40 MLOAD DUP1 SWAP2 SUB SWAP1 RETURN JUMPDEST CALLVALUE DUP1 ISZERO PUSH2 0x4CE JUMPI PUSH1 0x0 DUP1 REVERT JUMPDEST POP PUSH2 0x4E9 PUSH1 0x4 DUP1 CALLDATASIZE SUB DUP2 ADD SWAP1 PUSH2 0x4E4 SWAP2 SWAP1 PUSH2 0x1570 JUMP JUMPDEST PUSH2 0xBA2 JUMP JUMPDEST PUSH1 0x40 MLOAD PUSH2 0x4FD SWAP9 SWAP8 SWAP7 SWAP6 SWAP5 SWAP4 SWAP3 SWAP2 SWAP1 PUSH2 0x15BE JUMP JUMPDEST PUSH1 0x40 MLOAD DUP1 SWAP2 SUB SWAP1 RETURN JUMPDEST CALLVALUE DUP1 ISZERO PUSH2 0x512 JUMPI PUSH1 0x0 DUP1 REVERT JUMPDEST POP PUSH2 0x52D PUSH1 0x4 DUP1 CALLDATASIZE SUB DUP2 ADD SWAP1 PUSH2 0x528 SWAP2 SWAP1 PUSH2 0x1570 JUMP JUMPDEST PUSH2 0xC37 JUMP JUMPDEST STOP JUMPDEST PUSH2 0x549 PUSH1 0x4 DUP1 CALLDATASIZE SUB DUP2 ADD SWAP1 PUSH2 0x544 SWAP2 SWAP1 PUSH2 0x1570 JUMP JUMPDEST PUSH2 0xE67 JUMP JUMPDEST STOP JUMPDEST CALLVALUE DUP1 ISZERO PUSH2 0x557 JUMPI PUSH1 0x0 DUP1 REVERT JUMPDEST POP PUSH2 0x560 PUSH2 0x1138 JUMP JUMPDEST STOP JUMPDEST PUSH1 0x2 PUSH1 0x0 SLOAD SUB PUSH2 0x5A7 JUMPI PUSH1 0x40 MLOAD PUSH32 0x8C379A000000000000000000000000000000000000000000000000000000000 DUP2 MSTORE PUSH1 0x4 ADD PUSH2 0x59E SWAP1 PUSH2 0x1699 JUMP JUMPDEST PUSH1 0x40 MLOAD DUP1 SWAP2 SUB SWAP1 REVERT JUMPDEST PUSH1 0x2 PUSH1 0x0 DUP2 SWAP1 SSTORE POP JUMP JUMPDEST PUSH1 0x1 PUSH1 0x0 DUP2 SWAP1 SSTORE POP JUMP JUMPDEST PUSH1 0x1 SLOAD DUP2 JUMP JUMPDEST PUSH1 0x3 PUSH1 0x20 MSTORE DUP1 PUSH1 0x0 MSTORE PUSH1 0x40 PUSH1 0x0 KECCAK256 PUSH1 0x0 SWAP2 POP SWAP1 POP SLOAD DUP2 JUMP JUMPDEST PUSH2 0x5E1 PUSH2 0x562 JUMP JUMPDEST PUSH1 0x0 DUP3 DUP3 SWAP1 POP SUB ISZERO PUSH2 0x812 JUMPI PUSH1 0x0 DUP3 DUP3 DUP2 ADD SWAP1 PUSH2 0x5FE SWAP2 SWAP1 PUSH2 0x1570 JUMP JUMPDEST SWAP1 POP PUSH1 0x0 PUSH1 0x2 PUSH1 0x0 DUP4 DUP2 MSTORE PUSH1 0x20 ADD SWAP1 DUP2 MSTORE PUSH1 0x20 ADD PUSH1 0x0 KECCAK256 SWAP1 POP DUP1 PUSH1 0x7 ADD PUSH1 0x0 SWAP1 SLOAD SWAP1 PUSH2 0x100 EXP SWAP1 DIV PUSH1 0xFF AND PUSH2 0x668 JUMPI PUSH1 0x40 MLOAD PUSH32 0x8C379A000000000000000000000000000000000000000000000000000000000 DUP2 MSTORE PUSH1 0x4 ADD PUSH2 0x65F SWAP1 PUSH2 0x1705 JUMP JUMPDEST PUSH1 0x40 MLOAD DUP1 SWAP2 SUB SWAP1 REVERT JUMPDEST PUSH1 0x0 DUP2 PUSH1 0x0 ADD PUSH1 0x0 SWAP1 SLOAD SWAP1 PUSH2 0x100 EXP SWAP1 DIV PUSH20 0xFFFFFFFFFFFFFFFFFFFFFFFFFFFFFFFFFFFFFFFF AND PUSH20 0xFFFFFFFFFFFFFFFFFFFFFFFFFFFFFFFFFFFFFFFF AND DUP3 PUSH1 0x2 ADD SLOAD PUSH1 0x40 MLOAD PUSH2 0x6B6 SWAP1 PUSH2 0x1756 JUMP JUMPDEST PUSH1 0x0 PUSH1 0x40 MLOAD DUP1 DUP4 SUB DUP2 DUP6 DUP8 GAS CALL SWAP3 POP POP POP RETURNDATASIZE DUP1 PUSH1 0x0 DUP2 EQ PUSH2 0x6F3 JUMPI PUSH1 0x40 MLOAD SWAP2 POP PUSH1 0x1F NOT PUSH1 0x3F RETURNDATASIZE ADD AND DUP3 ADD PUSH1 0x40 MSTORE RETURNDATASIZE DUP3 MSTORE RETURNDATASIZE PUSH1 0x0 PUSH1 0x20 DUP5 ADD RETURNDATACOPY PUSH2 0x6F8 JUMP JUMPDEST PUSH1 0x60 SWAP2 POP JUMPDEST POP POP SWAP1 POP DUP1 PUSH2 0x73C JUMPI PUSH1 0x40 MLOAD PUSH32 0x8C379A000000000000000000000000000000000000000000000000000000000 DUP2 MSTORE PUSH1 0x4 ADD PUSH2 0x733 SWAP1 PUSH2 0x17B7 JUMP JUMPDEST PUSH1 0x40 MLOAD DUP1 SWAP2 SUB SWAP1 REVERT JUMPDEST DUP2 PUSH1 0x2 ADD SLOAD DUP3 PUSH1 0x5 ADD PUSH1 0x0 DUP3 DUP3 SLOAD PUSH2 0x754 SWAP2 SWAP1 PUSH2 0x120E JUMP JUMPDEST SWAP3 POP POP DUP2 SWAP1 SSTORE POP DUP2 PUSH1 0x4 ADD SLOAD DUP3 PUSH1 0x5 ADD SLOAD LT PUSH2 0x7B9 JUMPI PUSH1 0x0 DUP3 PUSH1 0x7 ADD PUSH1 0x0 PUSH2 0x100 EXP DUP2 SLOAD DUP2 PUSH1 0xFF MUL NOT AND SWAP1 DUP4 ISZERO ISZERO MUL OR SWAP1 SSTORE POP DUP3 PUSH32 0x5417900F2B30001C152939C30DEA707712A1B6254728BC12C5BF0137CB36E9A0 PUSH1 0x40 MLOAD PUSH1 0x40 MLOAD DUP1 SWAP2 SUB SWAP1 LOG2 PUSH2 0x80E JUMP JUMPDEST DUP2 PUSH1 0x3 ADD SLOAD TIMESTAMP PUSH2 0x7C9 SWAP2 SWAP1 PUSH2 0x120E JUMP JUMPDEST DUP3 PUSH1 0x6 ADD DUP2 SWAP1 SSTORE POP DUP3 PUSH32 0x6E59A6EE972BBD5F5B1932131F47641231AA73D1B0D32BD72CEA9471BABF742 DUP4 PUSH1 0x2 ADD SLOAD PUSH1 0x40 MLOAD PUSH2 0x805 SWAP2 SWAP1 PUSH2 0x1251 JUMP JUMPDEST PUSH1 0x40 MLOAD DUP1 SWAP2 SUB SWAP1 LOG2 JUMPDEST POP POP POP JUMPDEST PUSH2 0x81A PUSH2 0x5B1 JUMP JUMPDEST POP POP JUMP JUMPDEST PUSH1 0x0 DUP4 GT PUSH2 0x861 JUMPI PUSH1 0x40 MLOAD PUSH32 0x8C379A000000000000000000000000000000000000000000000000000000000 DUP2 MSTORE PUSH1 0x4 ADD PUSH2 0x858 SWAP1 PUSH2 0x1823 JUMP JUMPDEST PUSH1 0x40 MLOAD DUP1 SWAP2 SUB SWAP1 REVERT JUMPDEST PUSH1 0x3C DUP3 LT ISZERO PUSH2 0x8A5 JUMPI PUSH1 0x40 MLOAD PUSH32 0x8C379A000000000000000000000000000000000000000000000000000000000 DUP2 MSTORE PUSH1 0x4 ADD PUSH2 0x89C SWAP1 PUSH2 0x188F JUMP JUMPDEST PUSH1 0x40 MLOAD DUP1 SWAP2 SUB SWAP1 REVERT JUMPDEST DUP3 DUP2 LT ISZERO PUSH2 0x8E8 JUMPI PUSH1 0x40 MLOAD PUSH32 0x8C379A000000000000000000000000000000000000000000000000000000000 DUP2 MSTORE PUSH1 0x4 ADD PUSH2 0x8DF SWAP1 PUSH2 0x18FB JUMP JUMPDEST PUSH1 0x40 MLOAD DUP1 SWAP2 SUB SWAP1 REVERT JUMPDEST PUSH1 0x1 PUSH1 0x0 DUP2 SLOAD DUP1 SWAP3 SWAP2 SWAP1 PUSH2 0x8FB SWAP1 PUSH2 0x126C JUMP JUMPDEST SWAP2 SWAP1 POP SSTORE POP PUSH1 0x40 MLOAD DUP1 PUSH2 0x100 ADD PUSH1 0x40 MSTORE DUP1 PUSH1 0x0 PUSH20 0xFFFFFFFFFFFFFFFFFFFFFFFFFFFFFFFFFFFFFFFF AND DUP2 MSTORE PUSH1 0x20 ADD CALLER PUSH20 0xFFFFFFFFFFFFFFFFFFFFFFFFFFFFFFFFFFFFFFFF AND DUP2 MSTORE PUSH1 0x20 ADD DUP5 DUP2 MSTORE PUSH1 0x20 ADD DUP4 DUP2 MSTORE PUSH1 0x20 ADD DUP3 DUP2 MSTORE PUSH1 0x20 ADD PUSH1 0x0 DUP2 MSTORE PUSH1 0x20 ADD PUSH1 0x0 DUP2 MSTORE PUSH1 0x20 ADD PUSH1 0x0 ISZERO ISZERO DUP2 MSTORE POP PUSH1 0x2 PUSH1 0x0 PUSH1 0x1 SLOAD DUP2 MSTORE PUSH1 0x20 ADD SWAP1 DUP2 MSTORE PUSH1 0x20 ADD PUSH1 0x0 KECCAK256 PUSH1 0x0 DUP3 ADD MLOAD DUP2 PUSH1 0x0 ADD PUSH1 0x0 PUSH2 0x100 EXP DUP2 SLOAD DUP2 PUSH20 0xFFFFFFFFFFFFFFFFFFFFFFFFFFFFFFFFFFFFFFFF MUL NOT AND SWAP1 DUP4 PUSH20 0xFFFFFFFFFFFFFFFFFFFFFFFFFFFFFFFFFFFFFFFF AND MUL OR SWAP1 SSTORE POP PUSH1 0x20 DUP3 ADD MLOAD DUP2 PUSH1 0x1 ADD PUSH1 0x0 PUSH2 0x100 EXP DUP2 SLOAD DUP2 PUSH20 0xFFFFFFFFFFFFFFFFFFFFFFFFFFFFFFFFFFFFFFFF MUL NOT AND SWAP1 DUP4 PUSH20 0xFFFFFFFFFFFFFFFFFFFFFFFFFFFFFFFFFFFFFFFF AND MUL OR SWAP1 SSTORE POP PUSH1 0x40 DUP3 ADD MLOAD DUP2 PUSH1 0x2 ADD SSTORE PUSH1 0x60 DUP3 ADD MLOAD DUP2 PUSH1 0x3 ADD SSTORE PUSH1 0x80 DUP3 ADD MLOAD DUP2 PUSH1 0x4 ADD SSTORE PUSH1 0xA0 DUP3 ADD MLOAD DUP2 PUSH1 0x5 ADD SSTORE PUSH1 0xC0 DUP3 ADD MLOAD DUP2 PUSH1 0x6 ADD SSTORE PUSH1 0xE0 DUP3 ADD MLOAD DUP2 PUSH1 0x7 ADD PUSH1 0x0 PUSH2 0x100 EXP DUP2 SLOAD DUP2 PUSH1 0xFF MUL NOT AND SWAP1 DUP4 ISZERO ISZERO MUL OR SWAP1 SSTORE POP SWAP1 POP POP PUSH1 0x1 SLOAD PUSH32 0x9DFD4372898F1AB4B7AAB4735C5B8C07F64B72EF6F72E0DA892265459FC1B861 PUSH1 0x40 MLOAD PUSH1 0x40 MLOAD DUP1 SWAP2 SUB SWAP1 LOG2 POP POP POP JUMP JUMPDEST PUSH1 0x0 PUSH1 0x60 PUSH1 0x0 PUSH1 0x1 SLOAD SUB PUSH2 0xAC1 JUMPI PUSH1 0x0 PUSH1 0x40 MLOAD DUP1 PUSH1 0x20 ADD PUSH1 0x40 MSTORE DUP1 PUSH1 0x0 DUP2 MSTORE POP SWAP2 POP SWAP2 POP PUSH2 0xB7B JUMP JUMPDEST PUSH1 0x0 PUSH1 0x1 SWAP1 POP JUMPDEST PUSH1 0x1 SLOAD DUP2 GT PUSH2 0xB63 JUMPI PUSH1 0x0 PUSH1 0x2 PUSH1 0x0 DUP4 DUP2 MSTORE PUSH1 0x20 ADD SWAP1 DUP2 MSTORE PUSH1 0x20 ADD PUSH1 0x0 KECCAK256 SWAP1 POP DUP1 PUSH1 0x7 ADD PUSH1 0x0 SWAP1 SLOAD SWAP1 PUSH2 0x100 EXP SWAP1 DIV PUSH1 0xFF AND DUP1 ISZERO PUSH2 0xB0D JUMPI POP DUP1 PUSH1 0x4 ADD SLOAD DUP2 PUSH1 0x5 ADD SLOAD LT JUMPDEST DUP1 ISZERO PUSH2 0xB1D JUMPI POP DUP1 PUSH1 0x6 ADD SLOAD TIMESTAMP LT ISZERO JUMPDEST ISZERO PUSH2 0xB4F JUMPI PUSH1 0x1 DUP3 PUSH1 0x40 MLOAD PUSH1 0x20 ADD PUSH2 0xB35 SWAP2 SWAP1 PUSH2 0x1251 JUMP JUMPDEST PUSH1 0x40 MLOAD PUSH1 0x20 DUP2 DUP4 SUB SUB DUP2 MSTORE SWAP1 PUSH1 0x40 MSTORE SWAP4 POP SWAP4 POP POP POP PUSH2 0xB7B JUMP JUMPDEST POP DUP1 DUP1 PUSH2 0xB5B SWAP1 PUSH2 0x126C JUMP JUMPDEST SWAP2 POP POP PUSH2 0xAC8 JUMP JUMPDEST POP PUSH1 0x0 PUSH1 0x40 MLOAD DUP1 PUSH1 0x20 ADD PUSH1 0x40 MSTORE DUP1 PUSH1 0x0 DUP2 MSTORE POP SWAP2 POP SWAP2 POP JUMPDEST SWAP3 POP SWAP3 SWAP1 POP JUMP JUMPDEST PUSH1 0x4 PUSH1 0x20 MSTORE DUP1 PUSH1 0x0 MSTORE PUSH1 0x40 PUSH1 0x0 KECCAK256 PUSH1 0x0 SWAP2 POP SLOAD SWAP1 PUSH2 0x100 EXP SWAP1 DIV PUSH1 0xFF AND DUP2 JUMP JUMPDEST PUSH1 0x2 PUSH1 0x20 MSTORE DUP1 PUSH1 0x0 MSTORE PUSH1 0x40 PUSH1 0x0 KECCAK256 PUSH1 0x0 SWAP2 POP SWAP1 POP DUP1 PUSH1 0x0 ADD PUSH1 0x0 SWAP1 SLOAD SWAP1 PUSH2 0x100 EXP SWAP1 DIV PUSH20 0xFFFFFFFFFFFFFFFFFFFFFFFFFFFFFFFFFFFFFFFF AND SWAP1 DUP1 PUSH1 0x1 ADD PUSH1 0x0 SWAP1 SLOAD SWAP1 PUSH2 0x100 EXP SWAP1 DIV PUSH20 0xFFFFFFFFFFFFFFFFFFFFFFFFFFFFFFFFFFFFFFFF AND SWAP1 DUP1 PUSH1 0x2 ADD SLOAD SWAP1 DUP1 PUSH1 0x3 ADD SLOAD SWAP1 DUP1 PUSH1 0x4 ADD SLOAD SWAP1 DUP1 PUSH1 0x5 ADD SLOAD SWAP1 DUP1 PUSH1 0x6 ADD SLOAD SWAP1 DUP1 PUSH1 0x7 ADD PUSH1 0x0 SWAP1 SLOAD SWAP1 PUSH2 0x100 EXP SWAP1 DIV PUSH1 0xFF AND SWAP1 POP DUP9 JUMP JUMPDEST PUSH1 0x0 DUP2 GT DUP1 ISZERO PUSH2 0xC49 JUMPI POP PUSH1 0x1 SLOAD DUP2 GT ISZERO JUMPDEST PUSH2 0xC88 JUMPI PUSH1 0x40 MLOAD PUSH32 0x8C379A000000000000000000000000000000000000000000000000000000000 DUP2 MSTORE PUSH1 0x4 ADD PUSH2 0xC7F SWAP1 PUSH2 0x1967 JUMP JUMPDEST PUSH1 0x40 MLOAD DUP1 SWAP2 SUB SWAP1 REVERT JUMPDEST PUSH1 0x0 PUSH1 0x2 PUSH1 0x0 DUP4 DUP2 MSTORE PUSH1 0x20 ADD SWAP1 DUP2 MSTORE PUSH1 0x20 ADD PUSH1 0x0 KECCAK256 SWAP1 POP CALLER PUSH20 0xFFFFFFFFFFFFFFFFFFFFFFFFFFFFFFFFFFFFFFFF AND DUP2 PUSH1 0x1 ADD PUSH1 0x0 SWAP1 SLOAD SWAP1 PUSH2 0x100 EXP SWAP1 DIV PUSH20 0xFFFFFFFFFFFFFFFFFFFFFFFFFFFFFFFFFFFFFFFF AND PUSH20 0xFFFFFFFFFFFFFFFFFFFFFFFFFFFFFFFFFFFFFFFF AND EQ PUSH2 0xD31 JUMPI PUSH1 0x40 MLOAD PUSH32 0x8C379A000000000000000000000000000000000000000000000000000000000 DUP2 MSTORE PUSH1 0x4 ADD PUSH2 0xD28 SWAP1 PUSH2 0x19D3 JUMP JUMPDEST PUSH1 0x40 MLOAD DUP1 SWAP2 SUB SWAP1 REVERT JUMPDEST DUP1 PUSH1 0x7 ADD PUSH1 0x0 SWAP1 SLOAD SWAP1 PUSH2 0x100 EXP SWAP1 DIV PUSH1 0xFF AND ISZERO PUSH2 0xD83 JUMPI PUSH1 0x40 MLOAD PUSH32 0x8C379A000000000000000000000000000000000000000000000000000000000 DUP2 MSTORE PUSH1 0x4 ADD PUSH2 0xD7A SWAP1 PUSH2 0x1A3F JUMP JUMPDEST PUSH1 0x40 MLOAD DUP1 SWAP2 SUB SWAP1 REVERT JUMPDEST DUP2 PUSH1 0x3 PUSH1 0x0 CALLER PUSH20 0xFFFFFFFFFFFFFFFFFFFFFFFFFFFFFFFFFFFFFFFF AND PUSH20 0xFFFFFFFFFFFFFFFFFFFFFFFFFFFFFFFFFFFFFFFF AND DUP2 MSTORE PUSH1 0x20 ADD SWAP1 DUP2 MSTORE PUSH1 0x20 ADD PUSH1 0x0 KECCAK256 DUP2 SWAP1 SSTORE POP PUSH1 0x1 PUSH1 0x4 PUSH1 0x0 CALLER PUSH20 0xFFFFFFFFFFFFFFFFFFFFFFFFFFFFFFFFFFFFFFFF AND PUSH20 0xFFFFFFFFFFFFFFFFFFFFFFFFFFFFFFFFFFFFFFFF AND DUP2 MSTORE PUSH1 0x20 ADD SWAP1 DUP2 MSTORE PUSH1 0x20 ADD PUSH1 0x0 KECCAK256 PUSH1 0x0 PUSH2 0x100 EXP DUP2 SLOAD DUP2 PUSH1 0xFF MUL NOT AND SWAP1 DUP4 ISZERO ISZERO MUL OR SWAP1 SSTORE POP CALLER PUSH20 0xFFFFFFFFFFFFFFFFFFFFFFFFFFFFFFFFFFFFFFFF AND DUP3 PUSH32 0xA71688517B80A169255911C539E70F1889F59DB8A23C03D4FFC131FEA52C0FFA PUSH1 0x40 MLOAD PUSH1 0x40 MLOAD DUP1 SWAP2 SUB SWAP1 LOG3 POP POP JUMP JUMPDEST PUSH2 0xE6F PUSH2 0x562 JUMP JUMPDEST PUSH1 0x0 PUSH1 0x2 PUSH1 0x0 DUP4 DUP2 MSTORE PUSH1 0x20 ADD SWAP1 DUP2 MSTORE PUSH1 0x20 ADD PUSH1 0x0 KECCAK256 SWAP1 POP PUSH1 0x0 PUSH20 0xFFFFFFFFFFFFFFFFFFFFFFFFFFFFFFFFFFFFFFFF AND DUP2 PUSH1 0x1 ADD PUSH1 0x0 SWAP1 SLOAD SWAP1 PUSH2 0x100 EXP SWAP1 DIV PUSH20 0xFFFFFFFFFFFFFFFFFFFFFFFFFFFFFFFFFFFFFFFF AND PUSH20 0xFFFFFFFFFFFFFFFFFFFFFFFFFFFFFFFFFFFFFFFF AND SUB PUSH2 0xF19 JUMPI PUSH1 0x40 MLOAD PUSH32 0x8C379A000000000000000000000000000000000000000000000000000000000 DUP2 MSTORE PUSH1 0x4 ADD PUSH2 0xF10 SWAP1 PUSH2 0x1AAB JUMP JUMPDEST PUSH1 0x40 MLOAD DUP1 SWAP2 SUB SWAP1 REVERT JUMPDEST DUP1 PUSH1 0x7 ADD PUSH1 0x0 SWAP1 SLOAD SWAP1 PUSH2 0x100 EXP SWAP1 DIV PUSH1 0xFF AND ISZERO PUSH2 0xF6B JUMPI PUSH1 0x40 MLOAD PUSH32 0x8C379A000000000000000000000000000000000000000000000000000000000 DUP2 MSTORE PUSH1 0x4 ADD PUSH2 0xF62 SWAP1 PUSH2 0x1B17 JUMP JUMPDEST PUSH1 0x40 MLOAD DUP1 SWAP2 SUB SWAP1 REVERT JUMPDEST DUP1 PUSH1 0x2 ADD SLOAD CALLVALUE LT ISZERO PUSH2 0xFB2 JUMPI PUSH1 0x40 MLOAD PUSH32 0x8C379A000000000000000000000000000000000000000000000000000000000 DUP2 MSTORE PUSH1 0x4 ADD PUSH2 0xFA9 SWAP1 PUSH2 0x1B83 JUMP JUMPDEST PUSH1 0x40 MLOAD DUP1 SWAP2 SUB SWAP1 REVERT JUMPDEST CALLER DUP2 PUSH1 0x0 ADD PUSH1 0x0 PUSH2 0x100 EXP DUP2 SLOAD DUP2 PUSH20 0xFFFFFFFFFFFFFFFFFFFFFFFFFFFFFFFFFFFFFFFF MUL NOT AND SWAP1 DUP4 PUSH20 0xFFFFFFFFFFFFFFFFFFFFFFFFFFFFFFFFFFFFFFFF AND MUL OR SWAP1 SSTORE POP CALLVALUE DUP2 PUSH1 0x5 ADD PUSH1 0x0 DUP3 DUP3 SLOAD PUSH2 0x1009 SWAP2 SWAP1 PUSH2 0x120E JUMP JUMPDEST SWAP3 POP POP DUP2 SWAP1 SSTORE POP DUP1 PUSH1 0x1 ADD PUSH1 0x0 SWAP1 SLOAD SWAP1 PUSH2 0x100 EXP SWAP1 DIV PUSH20 0xFFFFFFFFFFFFFFFFFFFFFFFFFFFFFFFFFFFFFFFF AND PUSH20 0xFFFFFFFFFFFFFFFFFFFFFFFFFFFFFFFFFFFFFFFF AND PUSH2 0x8FC CALLVALUE SWAP1 DUP2 ISZERO MUL SWAP1 PUSH1 0x40 MLOAD PUSH1 0x0 PUSH1 0x40 MLOAD DUP1 DUP4 SUB DUP2 DUP6 DUP9 DUP9 CALL SWAP4 POP POP POP POP ISZERO DUP1 ISZERO PUSH2 0x107A JUMPI RETURNDATASIZE PUSH1 0x0 DUP1 RETURNDATACOPY RETURNDATASIZE PUSH1 0x0 REVERT JUMPDEST POP DUP2 PUSH32 0x6E59A6EE972BBD5F5B1932131F47641231AA73D1B0D32BD72CEA9471BABF742 CALLVALUE PUSH1 0x40 MLOAD PUSH2 0x10AB SWAP2 SWAP1 PUSH2 0x1251 JUMP JUMPDEST PUSH1 0x40 MLOAD DUP1 SWAP2 SUB SWAP1 LOG2 PUSH1 0x1 DUP2 PUSH1 0x7 ADD PUSH1 0x0 PUSH2 0x100 EXP DUP2 SLOAD DUP2 PUSH1 0xFF MUL NOT AND SWAP1 DUP4 ISZERO ISZERO MUL OR SWAP1 SSTORE POP DUP1 PUSH1 0x3 ADD SLOAD TIMESTAMP PUSH2 0x10E0 SWAP2 SWAP1 PUSH2 0x120E JUMP JUMPDEST DUP2 PUSH1 0x6 ADD DUP2 SWAP1 SSTORE POP CALLER PUSH20 0xFFFFFFFFFFFFFFFFFFFFFFFFFFFFFFFFFFFFFFFF AND DUP3 PUSH32 0x1F07C729FC76534D72C9E3AD0A792BF34DE515A8AABC1A61BD40C2A2BD72AD88 PUSH1 0x40 MLOAD PUSH1 0x40 MLOAD DUP1 SWAP2 SUB SWAP1 LOG3 POP PUSH2 0x1135 PUSH2 0x5B1 JUMP JUMPDEST POP JUMP JUMPDEST PUSH1 0x3 PUSH1 0x0 CALLER PUSH20 0xFFFFFFFFFFFFFFFFFFFFFFFFFFFFFFFFFFFFFFFF AND PUSH20 0xFFFFFFFFFFFFFFFFFFFFFFFFFFFFFFFFFFFFFFFF AND DUP2 MSTORE PUSH1 0x20 ADD SWAP1 DUP2 MSTORE PUSH1 0x20 ADD PUSH1 0x0 KECCAK256 PUSH1 0x0 SWAP1 SSTORE PUSH1 0x0 PUSH1 0x4 PUSH1 0x0 CALLER PUSH20 0xFFFFFFFFFFFFFFFFFFFFFFFFFFFFFFFFFFFFFFFF AND PUSH20 0xFFFFFFFFFFFFFFFFFFFFFFFFFFFFFFFFFFFFFFFF AND DUP2 MSTORE PUSH1 0x20 ADD SWAP1 DUP2 MSTORE PUSH1 0x20 ADD PUSH1 0x0 KECCAK256 PUSH1 0x0 PUSH2 0x100 EXP DUP2 SLOAD DUP2 PUSH1 0xFF MUL NOT AND SWAP1 DUP4 ISZERO ISZERO MUL OR SWAP1 SSTORE POP JUMP JUMPDEST PUSH1 0x0 DUP2 SWAP1 POP SWAP2 SWAP1 POP JUMP JUMPDEST PUSH32 0x4E487B7100000000000000000000000000000000000000000000000000000000 PUSH1 0x0 MSTORE PUSH1 0x11 PUSH1 0x4 MSTORE PUSH1 0x24 PUSH1 0x0 REVERT JUMPDEST PUSH1 0x0 PUSH2 0x1219 DUP3 PUSH2 0x11D5 JUMP JUMPDEST SWAP2 POP PUSH2 0x1224 DUP4 PUSH2 0x11D5 JUMP JUMPDEST SWAP3 POP DUP3 DUP3 ADD SWAP1 POP DUP1 DUP3 GT ISZERO PUSH2 0x123C JUMPI PUSH2 0x123B PUSH2 0x11DF JUMP JUMPDEST JUMPDEST SWAP3 SWAP2 POP POP JUMP JUMPDEST PUSH2 0x124B DUP2 PUSH2 0x11D5 JUMP JUMPDEST DUP3 MSTORE POP POP JUMP JUMPDEST PUSH1 0x0 PUSH1 0x20 DUP3 ADD SWAP1 POP PUSH2 0x1266 PUSH1 0x0 DUP4 ADD DUP5 PUSH2 0x1242 JUMP JUMPDEST SWAP3 SWAP2 POP POP JUMP JUMPDEST PUSH1 0x0 PUSH2 0x1277 DUP3 PUSH2 0x11D5 JUMP JUMPDEST SWAP2 POP PUSH32 0xFFFFFFFFFFFFFFFFFFFFFFFFFFFFFFFFFFFFFFFFFFFFFFFFFFFFFFFFFFFFFFFF DUP3 SUB PUSH2 0x12A9 JUMPI PUSH2 0x12A8 PUSH2 0x11DF JUMP JUMPDEST JUMPDEST PUSH1 0x1 DUP3 ADD SWAP1 POP SWAP2 SWAP1 POP JUMP JUMPDEST PUSH1 0x0 DUP1 REVERT JUMPDEST PUSH1 0x0 DUP1 REVERT JUMPDEST PUSH1 0x0 PUSH20 0xFFFFFFFFFFFFFFFFFFFFFFFFFFFFFFFFFFFFFFFF DUP3 AND SWAP1 POP SWAP2 SWAP1 POP JUMP JUMPDEST PUSH1 0x0 PUSH2 0x12E9 DUP3 PUSH2 0x12BE JUMP JUMPDEST SWAP1 POP SWAP2 SWAP1 POP JUMP JUMPDEST PUSH2 0x12F9 DUP2 PUSH2 0x12DE JUMP JUMPDEST DUP2 EQ PUSH2 0x1304 JUMPI PUSH1 0x0 DUP1 REVERT JUMPDEST POP JUMP JUMPDEST PUSH1 0x0 DUP2 CALLDATALOAD SWAP1 POP PUSH2 0x1316 DUP2 PUSH2 0x12F0 JUMP JUMPDEST SWAP3 SWAP2 POP POP JUMP JUMPDEST PUSH1 0x0 PUSH1 0x20 DUP3 DUP5 SUB SLT ISZERO PUSH2 0x1332 JUMPI PUSH2 0x1331 PUSH2 0x12B4 JUMP JUMPDEST JUMPDEST PUSH1 0x0 PUSH2 0x1340 DUP5 DUP3 DUP6 ADD PUSH2 0x1307 JUMP JUMPDEST SWAP2 POP POP SWAP3 SWAP2 POP POP JUMP JUMPDEST PUSH1 0x0 DUP1 REVERT JUMPDEST PUSH1 0x0 DUP1 REVERT JUMPDEST PUSH1 0x0 DUP1 REVERT JUMPDEST PUSH1 0x0 DUP1 DUP4 PUSH1 0x1F DUP5 ADD SLT PUSH2 0x136E JUMPI PUSH2 0x136D PUSH2 0x1349 JUMP JUMPDEST JUMPDEST DUP3 CALLDATALOAD SWAP1 POP PUSH8 0xFFFFFFFFFFFFFFFF DUP2 GT ISZERO PUSH2 0x138B JUMPI PUSH2 0x138A PUSH2 0x134E JUMP JUMPDEST JUMPDEST PUSH1 0x20 DUP4 ADD SWAP2 POP DUP4 PUSH1 0x1 DUP3 MUL DUP4 ADD GT ISZERO PUSH2 0x13A7 JUMPI PUSH2 0x13A6 PUSH2 0x1353 JUMP JUMPDEST JUMPDEST SWAP3 POP SWAP3 SWAP1 POP JUMP JUMPDEST PUSH1 0x0 DUP1 PUSH1 0x20 DUP4 DUP6 SUB SLT ISZERO PUSH2 0x13C5 JUMPI PUSH2 0x13C4 PUSH2 0x12B4 JUMP JUMPDEST JUMPDEST PUSH1 0x0 DUP4 ADD CALLDATALOAD PUSH8 0xFFFFFFFFFFFFFFFF DUP2 GT ISZERO PUSH2 0x13E3 JUMPI PUSH2 0x13E2 PUSH2 0x12B9 JUMP JUMPDEST JUMPDEST PUSH2 0x13EF DUP6 DUP3 DUP7 ADD PUSH2 0x1358 JUMP JUMPDEST SWAP3 POP SWAP3 POP POP SWAP3 POP SWAP3 SWAP1 POP JUMP JUMPDEST PUSH2 0x1404 DUP2 PUSH2 0x11D5 JUMP JUMPDEST DUP2 EQ PUSH2 0x140F JUMPI PUSH1 0x0 DUP1 REVERT JUMPDEST POP JUMP JUMPDEST PUSH1 0x0 DUP2 CALLDATALOAD SWAP1 POP PUSH2 0x1421 DUP2 PUSH2 0x13FB JUMP JUMPDEST SWAP3 SWAP2 POP POP JUMP JUMPDEST PUSH1 0x0 DUP1 PUSH1 0x0 PUSH1 0x60 DUP5 DUP7 SUB SLT ISZERO PUSH2 0x1440 JUMPI PUSH2 0x143F PUSH2 0x12B4 JUMP JUMPDEST JUMPDEST PUSH1 0x0 PUSH2 0x144E DUP7 DUP3 DUP8 ADD PUSH2 0x1412 JUMP JUMPDEST SWAP4 POP POP PUSH1 0x20 PUSH2 0x145F DUP7 DUP3 DUP8 ADD PUSH2 0x1412 JUMP JUMPDEST SWAP3 POP POP PUSH1 0x40 PUSH2 0x1470 DUP7 DUP3 DUP8 ADD PUSH2 0x1412 JUMP JUMPDEST SWAP2 POP POP SWAP3 POP SWAP3 POP SWAP3 JUMP JUMPDEST PUSH1 0x0 DUP2 ISZERO ISZERO SWAP1 POP SWAP2 SWAP1 POP JUMP JUMPDEST PUSH2 0x148F DUP2 PUSH2 0x147A JUMP JUMPDEST DUP3 MSTORE POP POP JUMP JUMPDEST PUSH1 0x0 DUP2 MLOAD SWAP1 POP SWAP2 SWAP1 POP JUMP JUMPDEST PUSH1 0x0 DUP3 DUP3 MSTORE PUSH1 0x20 DUP3 ADD SWAP1 POP SWAP3 SWAP2 POP POP JUMP JUMPDEST PUSH1 0x0 JUMPDEST DUP4 DUP2 LT ISZERO PUSH2 0x14CF JUMPI DUP1 DUP3 ADD MLOAD DUP2 DUP5 ADD MSTORE PUSH1 0x20 DUP2 ADD SWAP1 POP PUSH2 0x14B4 JUMP JUMPDEST PUSH1 0x0 DUP5 DUP5 ADD MSTORE POP POP POP POP JUMP JUMPDEST PUSH1 0x0 PUSH1 0x1F NOT PUSH1 0x1F DUP4 ADD AND SWAP1 POP SWAP2 SWAP1 POP JUMP JUMPDEST PUSH1 0x0 PUSH2 0x14F7 DUP3 PUSH2 0x1495 JUMP JUMPDEST PUSH2 0x1501 DUP2 DUP6 PUSH2 0x14A0 JUMP JUMPDEST SWAP4 POP PUSH2 0x1511 DUP2 DUP6 PUSH1 0x20 DUP7 ADD PUSH2 0x14B1 JUMP JUMPDEST PUSH2 0x151A DUP2 PUSH2 0x14DB JUMP JUMPDEST DUP5 ADD SWAP2 POP POP SWAP3 SWAP2 POP POP JUMP JUMPDEST PUSH1 0x0 PUSH1 0x40 DUP3 ADD SWAP1 POP PUSH2 0x153A PUSH1 0x0 DUP4 ADD DUP6 PUSH2 0x1486 JUMP JUMPDEST DUP2 DUP2 SUB PUSH1 0x20 DUP4 ADD MSTORE PUSH2 0x154C DUP2 DUP5 PUSH2 0x14EC JUMP JUMPDEST SWAP1 POP SWAP4 SWAP3 POP POP POP JUMP JUMPDEST PUSH1 0x0 PUSH1 0x20 DUP3 ADD SWAP1 POP PUSH2 0x156A PUSH1 0x0 DUP4 ADD DUP5 PUSH2 0x1486 JUMP JUMPDEST SWAP3 SWAP2 POP POP JUMP JUMPDEST PUSH1 0x0 PUSH1 0x20 DUP3 DUP5 SUB SLT ISZERO PUSH2 0x1586 JUMPI PUSH2 0x1585 PUSH2 0x12B4 JUMP JUMPDEST JUMPDEST PUSH1 0x0 PUSH2 0x1594 DUP5 DUP3 DUP6 ADD PUSH2 0x1412 JUMP JUMPDEST SWAP2 POP POP SWAP3 SWAP2 POP POP JUMP JUMPDEST PUSH1 0x0 PUSH2 0x15A8 DUP3 PUSH2 0x12BE JUMP JUMPDEST SWAP1 POP SWAP2 SWAP1 POP JUMP JUMPDEST PUSH2 0x15B8 DUP2 PUSH2 0x159D JUMP JUMPDEST DUP3 MSTORE POP POP JUMP JUMPDEST PUSH1 0x0 PUSH2 0x100 DUP3 ADD SWAP1 POP PUSH2 0x15D4 PUSH1 0x0 DUP4 ADD DUP12 PUSH2 0x15AF JUMP JUMPDEST PUSH2 0x15E1 PUSH1 0x20 DUP4 ADD DUP11 PUSH2 0x15AF JUMP JUMPDEST PUSH2 0x15EE PUSH1 0x40 DUP4 ADD DUP10 PUSH2 0x1242 JUMP JUMPDEST PUSH2 0x15FB PUSH1 0x60 DUP4 ADD DUP9 PUSH2 0x1242 JUMP JUMPDEST PUSH2 0x1608 PUSH1 0x80 DUP4 ADD DUP8 PUSH2 0x1242 JUMP JUMPDEST PUSH2 0x1615 PUSH1 0xA0 DUP4 ADD DUP7 PUSH2 0x1242 JUMP JUMPDEST PUSH2 0x1622 PUSH1 0xC0 DUP4 ADD DUP6 PUSH2 0x1242 JUMP JUMPDEST PUSH2 0x162F PUSH1 0xE0 DUP4 ADD DUP5 PUSH2 0x1486 JUMP JUMPDEST SWAP10 SWAP9 POP POP POP POP POP POP POP POP POP JUMP JUMPDEST PUSH1 0x0 DUP3 DUP3 MSTORE PUSH1 0x20 DUP3 ADD SWAP1 POP SWAP3 SWAP2 POP POP JUMP JUMPDEST PUSH32 0x5265656E7472616E637947756172643A207265656E7472616E742063616C6C00 PUSH1 0x0 DUP3 ADD MSTORE POP JUMP JUMPDEST PUSH1 0x0 PUSH2 0x1683 PUSH1 0x1F DUP4 PUSH2 0x163C JUMP JUMPDEST SWAP2 POP PUSH2 0x168E DUP3 PUSH2 0x164D JUMP JUMPDEST PUSH1 0x20 DUP3 ADD SWAP1 POP SWAP2 SWAP1 POP JUMP JUMPDEST PUSH1 0x0 PUSH1 0x20 DUP3 ADD SWAP1 POP DUP2 DUP2 SUB PUSH1 0x0 DUP4 ADD MSTORE PUSH2 0x16B2 DUP2 PUSH2 0x1676 JUMP JUMPDEST SWAP1 POP SWAP2 SWAP1 POP JUMP JUMPDEST PUSH32 0x496E616374697665000000000000000000000000000000000000000000000000 PUSH1 0x0 DUP3 ADD MSTORE POP JUMP JUMPDEST PUSH1 0x0 PUSH2 0x16EF PUSH1 0x8 DUP4 PUSH2 0x163C JUMP JUMPDEST SWAP2 POP PUSH2 0x16FA DUP3 PUSH2 0x16B9 JUMP JUMPDEST PUSH1 0x20 DUP3 ADD SWAP1 POP SWAP2 SWAP1 POP JUMP JUMPDEST PUSH1 0x0 PUSH1 0x20 DUP3 ADD SWAP1 POP DUP2 DUP2 SUB PUSH1 0x0 DUP4 ADD MSTORE PUSH2 0x171E DUP2 PUSH2 0x16E2 JUMP JUMPDEST SWAP1 POP SWAP2 SWAP1 POP JUMP JUMPDEST PUSH1 0x0 DUP2 SWAP1 POP SWAP3 SWAP2 POP POP JUMP JUMPDEST POP JUMP JUMPDEST PUSH1 0x0 PUSH2 0x1740 PUSH1 0x0 DUP4 PUSH2 0x1725 JUMP JUMPDEST SWAP2 POP PUSH2 0x174B DUP3 PUSH2 0x1730 JUMP JUMPDEST PUSH1 0x0 DUP3 ADD SWAP1 POP SWAP2 SWAP1 POP JUMP JUMPDEST PUSH1 0x0 PUSH2 0x1761 DUP3 PUSH2 0x1733 JUMP JUMPDEST SWAP2 POP DUP2 SWAP1 POP SWAP2 SWAP1 POP JUMP JUMPDEST PUSH32 0x455448207472616E73666572206661696C656400000000000000000000000000 PUSH1 0x0 DUP3 ADD MSTORE POP JUMP JUMPDEST PUSH1 0x0 PUSH2 0x17A1 PUSH1 0x13 DUP4 PUSH2 0x163C JUMP JUMPDEST SWAP2 POP PUSH2 0x17AC DUP3 PUSH2 0x176B JUMP JUMPDEST PUSH1 0x20 DUP3 ADD SWAP1 POP SWAP2 SWAP1 POP JUMP JUMPDEST PUSH1 0x0 PUSH1 0x20 DUP3 ADD SWAP1 POP DUP2 DUP2 SUB PUSH1 0x0 DUP4 ADD MSTORE PUSH2 0x17D0 DUP2 PUSH2 0x1794 JUMP JUMPDEST SWAP1 POP SWAP2 SWAP1 POP JUMP JUMPDEST PUSH32 0x496E76616C696420454D49000000000000000000000000000000000000000000 PUSH1 0x0 DUP3 ADD MSTORE POP JUMP JUMPDEST PUSH1 0x0 PUSH2 0x180D PUSH1 0xB DUP4 PUSH2 0x163C JUMP JUMPDEST SWAP2 POP PUSH2 0x1818 DUP3 PUSH2 0x17D7 JUMP JUMPDEST PUSH1 0x20 DUP3 ADD SWAP1 POP SWAP2 SWAP1 POP JUMP JUMPDEST PUSH1 0x0 PUSH1 0x20 DUP3 ADD SWAP1 POP DUP2 DUP2 SUB PUSH1 0x0 DUP4 ADD MSTORE PUSH2 0x183C DUP2 PUSH2 0x1800 JUMP JUMPDEST SWAP1 POP SWAP2 SWAP1 POP JUMP JUMPDEST PUSH32 0x4D696E2036307300000000000000000000000000000000000000000000000000 PUSH1 0x0 DUP3 ADD MSTORE POP JUMP JUMPDEST PUSH1 0x0 PUSH2 0x1879 PUSH1 0x7 DUP4 PUSH2 0x163C JUMP JUMPDEST SWAP2 POP PUSH2 0x1884 DUP3 PUSH2 0x1843 JUMP JUMPDEST PUSH1 0x20 DUP3 ADD SWAP1 POP SWAP2 SWAP1 POP JUMP JUMPDEST PUSH1 0x0 PUSH1 0x20 DUP3 ADD SWAP1 POP DUP2 DUP2 SUB PUSH1 0x0 DUP4 ADD MSTORE PUSH2 0x18A8 DUP2 PUSH2 0x186C JUMP JUMPDEST SWAP1 POP SWAP2 SWAP1 POP JUMP JUMPDEST PUSH32 0x546F74616C203C20454D49000000000000000000000000000000000000000000 PUSH1 0x0 DUP3 ADD MSTORE POP JUMP JUMPDEST PUSH1 0x0 PUSH2 0x18E5 PUSH1 0xB DUP4 PUSH2 0x163C JUMP JUMPDEST SWAP2 POP PUSH2 0x18F0 DUP3 PUSH2 0x18AF JUMP JUMPDEST PUSH1 0x20 DUP3 ADD SWAP1 POP SWAP2 SWAP1 POP JUMP JUMPDEST PUSH1 0x0 PUSH1 0x20 DUP3 ADD SWAP1 POP DUP2 DUP2 SUB PUSH1 0x0 DUP4 ADD MSTORE PUSH2 0x1914 DUP2 PUSH2 0x18D8 JUMP JUMPDEST SWAP1 POP SWAP2 SWAP1 POP JUMP JUMPDEST PUSH32 0x496E76616C696420706C616E2049440000000000000000000000000000000000 PUSH1 0x0 DUP3 ADD MSTORE POP JUMP JUMPDEST PUSH1 0x0 PUSH2 0x1951 PUSH1 0xF DUP4 PUSH2 0x163C JUMP JUMPDEST SWAP2 POP PUSH2 0x195C DUP3 PUSH2 0x191B JUMP JUMPDEST PUSH1 0x20 DUP3 ADD SWAP1 POP SWAP2 SWAP1 POP JUMP JUMPDEST PUSH1 0x0 PUSH1 0x20 DUP3 ADD SWAP1 POP DUP2 DUP2 SUB PUSH1 0x0 DUP4 ADD MSTORE PUSH2 0x1980 DUP2 PUSH2 0x1944 JUMP JUMPDEST SWAP1 POP SWAP2 SWAP1 POP JUMP JUMPDEST PUSH32 0x4E6F7420796F757220706C616E00000000000000000000000000000000000000 PUSH1 0x0 DUP3 ADD MSTORE POP JUMP JUMPDEST PUSH1 0x0 PUSH2 0x19BD PUSH1 0xD DUP4 PUSH2 0x163C JUMP JUMPDEST SWAP2 POP PUSH2 0x19C8 DUP3 PUSH2 0x1987 JUMP JUMPDEST PUSH1 0x20 DUP3 ADD SWAP1 POP SWAP2 SWAP1 POP JUMP JUMPDEST PUSH1 0x0 PUSH1 0x20 DUP3 ADD SWAP1 POP DUP2 DUP2 SUB PUSH1 0x0 DUP4 ADD MSTORE PUSH2 0x19EC DUP2 PUSH2 0x19B0 JUMP JUMPDEST SWAP1 POP SWAP2 SWAP1 POP JUMP JUMPDEST PUSH32 0x506C616E20616C72656164792061637469766500000000000000000000000000 PUSH1 0x0 DUP3 ADD MSTORE POP JUMP JUMPDEST PUSH1 0x0 PUSH2 0x1A29 PUSH1 0x13 DUP4 PUSH2 0x163C JUMP JUMPDEST SWAP2 POP PUSH2 0x1A34 DUP3 PUSH2 0x19F3 JUMP JUMPDEST PUSH1 0x20 DUP3 ADD SWAP1 POP SWAP2 SWAP1 POP JUMP JUMPDEST PUSH1 0x0 PUSH1 0x20 DUP3 ADD SWAP1 POP DUP2 DUP2 SUB PUSH1 0x0 DUP4 ADD MSTORE PUSH2 0x1A58 DUP2 PUSH2 0x1A1C JUMP JUMPDEST SWAP1 POP SWAP2 SWAP1 POP JUMP JUMPDEST PUSH32 0x496E76616C696420706C616E0000000000000000000000000000000000000000 PUSH1 0x0 DUP3 ADD MSTORE POP JUMP JUMPDEST PUSH1 0x0 PUSH2 0x1A95 PUSH1 0xC DUP4 PUSH2 0x163C JUMP JUMPDEST SWAP2 POP PUSH2 0x1AA0 DUP3 PUSH2 0x1A5F JUMP JUMPDEST PUSH1 0x20 DUP3 ADD SWAP1 POP SWAP2 SWAP1 POP JUMP JUMPDEST PUSH1 0x0 PUSH1 0x20 DUP3 ADD SWAP1 POP DUP2 DUP2 SUB PUSH1 0x0 DUP4 ADD MSTORE PUSH2 0x1AC4 DUP2 PUSH2 0x1A88 JUMP JUMPDEST SWAP1 POP SWAP2 SWAP1 POP JUMP JUMPDEST PUSH32 0x416C726561647920616374697665000000000000000000000000000000000000 PUSH1 0x0 DUP3 ADD MSTORE POP JUMP JUMPDEST PUSH1 0x0 PUSH2 0x1B01 PUSH1 0xE DUP4 PUSH2 0x163C JUMP JUMPDEST SWAP2 POP PUSH2 0x1B0C DUP3 PUSH2 0x1ACB JUMP JUMPDEST PUSH1 0x20 DUP3 ADD SWAP1 POP SWAP2 SWAP1 POP JUMP JUMPDEST PUSH1 0x0 PUSH1 0x20 DUP3 ADD SWAP1 POP DUP2 DUP2 SUB PUSH1 0x0 DUP4 ADD MSTORE PUSH2 0x1B30 DUP2 PUSH2 0x1AF4 JUMP JUMPDEST SWAP1 POP SWAP2 SWAP1 POP JUMP JUMPDEST PUSH32 0x53656E64206174206C65617374203120454D4900000000000000000000000000 PUSH1 0x0 DUP3 ADD MSTORE POP JUMP JUMPDEST PUSH1 0x0 PUSH2 0x1B6D PUSH1 0x13 DUP4 PUSH2 0x163C JUMP JUMPDEST SWAP2 POP PUSH2 0x1B78 DUP3 PUSH2 0x1B37 JUMP JUMPDEST PUSH1 0x20 DUP3 ADD SWAP1 POP SWAP2 SWAP1 POP JUMP JUMPDEST PUSH1 0x0 PUSH1 0x20 DUP3 ADD SWAP1 POP DUP2 DUP2 SUB PUSH1 0x0 DUP4 ADD MSTORE PUSH2 0x1B9C DUP2 PUSH2 0x1B60 JUMP JUMPDEST SWAP1 POP SWAP2 SWAP1 POP JUMP INVALID LOG2 PUSH5 0x6970667358 0x22 SLT KECCAK256 BALANCE 0x4F 0xB3 LOG1 POP 0xE9 0x5C SHL AND CALLDATACOPY 0xE6 0xB7 MSTORE 0xB7 0xB9 0x22 0xE1 POP 0xC 0xE8 0xEF PUSH8 0x65A454216CB4719A 0xE9 PUSH21 0x64736F6C6343000814003300000000000000000000 "},"methodIdentifiers":{"activatePlan(uint256)":"d4ea9e62","checkUpkeep(bytes)":"6e04ff0d","createPlan(uint256,uint256,uint256)":"4aec7384","linkPlanToDirectPayment(uint256)":"bd6e7efb","linkedReceivers(address)":"7404c769","pendingPlanId(address)":"42b0a672","performUpkeep(bytes)":"4585e33b","planCount()":"382d39bb","plans(uint256)":"b1620616","unlinkPlan()":"ea74cb13"}}}}}