{"contracts/EmiAutoPayEVM.sol":{"EmiAutoPayEVM":{"abi":[{"inputs":[],"stateMutability":"nonpayable","type":"constructor"},{"anonymous":false,"inputs":[{"indexed":true,"internalType":"uint256","name":"planId","type":"uint256"},{"indexed":true,"internalType":"address","name":"receiver","type":"address"},{"indexed":true,"internalType":"address","name":"sender","type":"address"},{"indexed":false,"internalType":"uint256","name":"amount","type":"uint256"},{"indexed":false,"internalType":"uint256","name":"timestamp","type":"uint256"}],"name":"DirectPaymentReceived","type":"event"},{"anonymous":false,"inputs":[{"indexed":true,"internalType":"uint256","name":"planId","type":"uint256"}],"name":"EmiCompleted","type":"event"},{"anonymous":false,"inputs":[{"indexed":true,"internalType":"uint256","name":"planId","type":"uint256"},{"indexed":false,"internalType":"uint256","name":"amount","type":"uint256"}],"name":"EmiPaid","type":"event"},{"anonymous":false,"inputs":[{"indexed":true,"internalType":"uint256","name":"planId","type":"uint256"},{"indexed":true,"internalType":"address","name":"sender","type":"address"},{"indexed":false,"internalType":"uint256","name":"amount","type":"uint256"}],"name":"PaymentReceived","type":"event"},{"anonymous":false,"inputs":[{"indexed":true,"internalType":"uint256","name":"planId","type":"uint256"},{"indexed":true,"internalType":"address","name":"sender","type":"address"}],"name":"PlanActivated","type":"event"},{"anonymous":false,"inputs":[{"indexed":true,"internalType":"uint256","name":"planId","type":"uint256"}],"name":"PlanCreated","type":"event"},{"anonymous":false,"inputs":[{"indexed":true,"internalType":"uint256","name":"planId","type":"uint256"},{"indexed":true,"internalType":"address","name":"receiver","type":"address"}],"name":"PlanLinked","type":"event"},{"inputs":[{"internalType":"uint256","name":"planId","type":"uint256"}],"name":"activatePlan","outputs":[],"stateMutability":"payable","type":"function"},{"inputs":[{"internalType":"uint256","name":"planId","type":"uint256"},{"internalType":"address","name":"sender","type":"address"}],"name":"activatePlanRaw","outputs":[],"stateMutability":"nonpayable","type":"function"},{"inputs":[],"name":"admin","outputs":[{"internalType":"address","name":"","type":"address"}],"stateMutability":"view","type":"function"},{"inputs":[{"internalType":"bytes","name":"","type":"bytes"}],"name":"checkUpkeep","outputs":[{"internalType":"bool","name":"upkeepNeeded","type":"bool"},{"internalType":"bytes","name":"performData","type":"bytes"}],"stateMutability":"view","type":"function"},{"inputs":[{"internalType":"uint256","name":"emi","type":"uint256"},{"internalType":"uint256","name":"interval","type":"uint256"},{"internalType":"uint256","name":"total","type":"uint256"}],"name":"createPlan","outputs":[],"stateMutability":"nonpayable","type":"function"},{"inputs":[{"internalType":"uint256","name":"planId","type":"uint256"}],"name":"linkPlanToDirectPayment","outputs":[],"stateMutability":"nonpayable","type":"function"},{"inputs":[{"internalType":"address","name":"","type":"address"}],"name":"pendingPlanId","outputs":[{"internalType":"uint256","name":"","type":"uint256"}],"stateMutability":"view","type":"function"},{"inputs":[{"internalType":"bytes","name":"data","type":"bytes"}],"name":"performUpkeep","outputs":[],"stateMutability":"nonpayable","type":"function"},{"inputs":[],"name":"planCount","outputs":[{"internalType":"uint256","name":"","type":"uint256"}],"stateMutability":"view","type":"function"},{"inputs":[{"internalType":"uint256","name":"","type":"uint256"}],"name":"plans","outputs":[{"internalType":"address payable","name":"sender","type":"address"},{"internalType":"address payable","name":"receiver","type":"address"},{"internalType":"uint256","name":"emi","type":"uint256"},{"internalType":"uint256","name":"interval","type":"uint256"},{"internalType":"uint256","name":"total","type":"uint256"},{"internalType":"uint256","name":"paid","type":"uint256"},{"internalType":"uint256","name":"nextPay","type":"uint256"},{"internalType":"bool","name":"active","type":"bool"},{"internalType":"bool","name":"paymentReceived","type":"bool"}],"stateMutability":"view","type":"function"},{"inputs":[{"internalType":"address","name":"newAdmin","type":"address"}],"name":"setAdmin","outputs":[],"stateMutability":"nonpayable","type":"function"}],"evm":{"bytecode":{"linkReferences":{},"object":"608060405234801561001057600080fd5b50600160008190555033600460006101000a81548173ffffffffffffffffffffffffffffffffffffffff021916908373ffffffffffffffffffffffffffffffffffffffff160217905550611e5e806100696000396000f3fe60806040526004361061009c5760003560e01c8063704b6c0211610064578063704b6c0214610199578063b1620616146101c2578063bd6e7efb14610207578063d4ea9e6214610230578063d8496dfc1461024c578063f851a440146102755761009c565b8063382d39bb146100a157806342b0a672146100cc5780634585e33b146101095780634aec7384146101325780636e04ff0d1461015b575b600080fd5b3480156100ad57600080fd5b506100b66102a0565b6040516100c391906112a8565b60405180910390f35b3480156100d857600080fd5b506100f360048036038101906100ee919061132b565b6102a6565b60405161010091906112a8565b60405180910390f35b34801561011557600080fd5b50610130600480360381019061012b91906113bd565b6102be565b005b34801561013e57600080fd5b5061015960048036038101906101549190611436565b610503565b005b34801561016757600080fd5b50610182600480360381019061017d91906113bd565b6107a7565b604051610190929190611534565b60405180910390f35b3480156101a557600080fd5b506101c060048036038101906101bb919061132b565b610891565b005b3480156101ce57600080fd5b506101e960048036038101906101e49190611564565b610965565b6040516101fe999897969594939291906115b2565b60405180910390f35b34801561021357600080fd5b5061022e60048036038101906102299190611564565b610a0d565b005b61024a60048036038101906102459190611564565b610be5565b005b34801561025857600080fd5b50610273600480360381019061026e919061163f565b610f42565b005b34801561028157600080fd5b5061028a611210565b604051610297919061168e565b60405180910390f35b60015481565b60036020528060005260406000206000915090505481565b6102c6611236565b60008282905003156104f757600082828101906102e39190611564565b905060006002600083815260200190815260200160002090508060070160009054906101000a900460ff1661034d576040517f08c379a000000000000000000000000000000000000000000000000000000000815260040161034490611706565b60405180910390fd5b60008160000160009054906101000a900473ffffffffffffffffffffffffffffffffffffffff1673ffffffffffffffffffffffffffffffffffffffff16826002015460405161039b90611757565b60006040518083038185875af1925050503d80600081146103d8576040519150601f19603f3d011682016040523d82523d6000602084013e6103dd565b606091505b5050905080610421576040517f08c379a0000000000000000000000000000000000000000000000000000000008152600401610418906117b8565b60405180910390fd5b81600201548260050160008282546104399190611807565b92505081905550816004015482600501541061049e5760008260070160006101000a81548160ff021916908315150217905550827f5417900f2b30001c152939c30dea707712a1b6254728bc12c5bf0137cb36e9a060405160405180910390a26104f3565b8160030154426104ae9190611807565b8260060181905550827f06e59a6ee972bbd5f5b1932131f47641231aa73d1b0d32bd72cea9471babf74283600201546040516104ea91906112a8565b60405180910390a25b5050505b6104ff611285565b5050565b60008311610546576040517f08c379a000000000000000000000000000000000000000000000000000000000815260040161053d90611887565b60405180910390fd5b603c82101561058a576040517f08c379a0000000000000000000000000000000000000000000000000000000008152600401610581906118f3565b60405180910390fd5b828110156105cd576040517f08c379a00000000000000000000000000000000000000000000000000000000081526004016105c49061195f565b60405180910390fd5b600160008154809291906105e09061197f565b9190505550604051806101200160405280600073ffffffffffffffffffffffffffffffffffffffff1681526020013373ffffffffffffffffffffffffffffffffffffffff16815260200184815260200183815260200182815260200160008152602001600081526020016000151581526020016000151581525060026000600154815260200190815260200160002060008201518160000160006101000a81548173ffffffffffffffffffffffffffffffffffffffff021916908373ffffffffffffffffffffffffffffffffffffffff16021790555060208201518160010160006101000a81548173ffffffffffffffffffffffffffffffffffffffff021916908373ffffffffffffffffffffffffffffffffffffffff16021790555060408201518160020155606082015181600301556080820151816004015560a0820151816005015560c0820151816006015560e08201518160070160006101000a81548160ff0219169083151502179055506101008201518160070160016101000a81548160ff0219169083151502179055509050506001547f9dfd4372898f1ab4b7aab4735c5b8c07f64b72ef6f72e0da892265459fc1b86160405160405180910390a2505050565b600060606000600154036107d0576000604051806020016040528060008152509150915061088a565b6000600190505b60015481116108725760006002600083815260200190815260200160002090508060070160009054906101000a900460ff16801561081c575080600401548160050154105b801561082c575080600601544210155b1561085e5760018260405160200161084491906112a8565b60405160208183030381529060405293509350505061088a565b50808061086a9061197f565b9150506107d7565b50600060405180602001604052806000815250915091505b9250929050565b600460009054906101000a900473ffffffffffffffffffffffffffffffffffffffff1673ffffffffffffffffffffffffffffffffffffffff163373ffffffffffffffffffffffffffffffffffffffff1614610921576040517f08c379a000000000000000000000000000000000000000000000000000000000815260040161091890611a13565b60405180910390fd5b80600460006101000a81548173ffffffffffffffffffffffffffffffffffffffff021916908373ffffffffffffffffffffffffffffffffffffffff16021790555050565b60026020528060005260406000206000915090508060000160009054906101000a900473ffffffffffffffffffffffffffffffffffffffff16908060010160009054906101000a900473ffffffffffffffffffffffffffffffffffffffff16908060020154908060030154908060040154908060050154908060060154908060070160009054906101000a900460ff16908060070160019054906101000a900460ff16905089565b600081118015610a1f57506001548111155b610a5e576040517f08c379a0000000000000000000000000000000000000000000000000000000008152600401610a5590611a7f565b60405180910390fd5b60006002600083815260200190815260200160002090503373ffffffffffffffffffffffffffffffffffffffff168160010160009054906101000a900473ffffffffffffffffffffffffffffffffffffffff1673ffffffffffffffffffffffffffffffffffffffff1614610b07576040517f08c379a0000000000000000000000000000000000000000000000000000000008152600401610afe90611aeb565b60405180910390fd5b8060070160009054906101000a900460ff1615610b59576040517f08c379a0000000000000000000000000000000000000000000000000000000008152600401610b5090611b57565b60405180910390fd5b81600360003373ffffffffffffffffffffffffffffffffffffffff1673ffffffffffffffffffffffffffffffffffffffff168152602001908152602001600020819055503373ffffffffffffffffffffffffffffffffffffffff16827fa71688517b80a169255911c539e70f1889f59db8a23c03d4ffc131fea52c0ffa60405160405180910390a35050565b610bed611236565b6000600260008381526020019081526020016000209050600073ffffffffffffffffffffffffffffffffffffffff168160010160009054906101000a900473ffffffffffffffffffffffffffffffffffffffff1673ffffffffffffffffffffffffffffffffffffffff1603610c97576040517f08c379a0000000000000000000000000000000000000000000000000000000008152600401610c8e90611bc3565b60405180910390fd5b8060070160009054906101000a900460ff1615610ce9576040517f08c379a0000000000000000000000000000000000000000000000000000000008152600401610ce090611c2f565b60405180910390fd5b8060020154341015610d30576040517f08c379a0000000000000000000000000000000000000000000000000000000008152600401610d2790611c9b565b60405180910390fd5b338160000160006101000a81548173ffffffffffffffffffffffffffffffffffffffff021916908373ffffffffffffffffffffffffffffffffffffffff16021790555034816005016000828254610d879190611807565b925050819055508060010160009054906101000a900473ffffffffffffffffffffffffffffffffffffffff1673ffffffffffffffffffffffffffffffffffffffff166108fc349081150290604051600060405180830381858888f19350505050158015610df8573d6000803e3d6000fd5b50817f06e59a6ee972bbd5f5b1932131f47641231aa73d1b0d32bd72cea9471babf74234604051610e2991906112a8565b60405180910390a23373ffffffffffffffffffffffffffffffffffffffff168160010160009054906101000a900473ffffffffffffffffffffffffffffffffffffffff1673ffffffffffffffffffffffffffffffffffffffff16837f2fbdbbf9b90aaa1fb6d3e1a7d5019d062ce9f89bc527a0c839b1806d0445e85f3442604051610eb5929190611cbb565b60405180910390a460018160070160006101000a81548160ff021916908315150217905550806003015442610eea9190611807565b81600601819055503373ffffffffffffffffffffffffffffffffffffffff16827f1f07c729fc76534d72c9e3ad0a792bf34de515a8aabc1a61bd40c2a2bd72ad8860405160405180910390a350610f3f611285565b50565b600460009054906101000a900473ffffffffffffffffffffffffffffffffffffffff1673ffffffffffffffffffffffffffffffffffffffff163373ffffffffffffffffffffffffffffffffffffffff1614610fd2576040517f08c379a0000000000000000000000000000000000000000000000000000000008152600401610fc990611a13565b60405180910390fd5b600060026000848152602001908152602001600020905082600360008360010160009054906101000a900473ffffffffffffffffffffffffffffffffffffffff1673ffffffffffffffffffffffffffffffffffffffff1673ffffffffffffffffffffffffffffffffffffffff168152602001908152602001600020541461108e576040517f08c379a000000000000000000000000000000000000000000000000000000000815260040161108590611d30565b60405180910390fd5b8060070160009054906101000a900460ff16156110e0576040517f08c379a00000000000000000000000000000000000000000000000000000000081526004016110d790611c2f565b60405180910390fd5b8060070160019054906101000a900460ff1615611132576040517f08c379a000000000000000000000000000000000000000000000000000000000815260040161112990611d9c565b60405180910390fd5b818160000160006101000a81548173ffffffffffffffffffffffffffffffffffffffff021916908373ffffffffffffffffffffffffffffffffffffffff16021790555060018160070160016101000a81548160ff02191690831515021790555060018160070160006101000a81548160ff0219169083151502179055508060030154426111bf9190611807565b81600601819055508173ffffffffffffffffffffffffffffffffffffffff16837f1f07c729fc76534d72c9e3ad0a792bf34de515a8aabc1a61bd40c2a2bd72ad8860405160405180910390a3505050565b600460009054906101000a900473ffffffffffffffffffffffffffffffffffffffff1681565b60026000540361127b576040517f08c379a000000000000000000000000000000000000000000000000000000000815260040161127290611e08565b60405180910390fd5b6002600081905550565b6001600081905550565b6000819050919050565b6112a28161128f565b82525050565b60006020820190506112bd6000830184611299565b92915050565b600080fd5b600080fd5b600073ffffffffffffffffffffffffffffffffffffffff82169050919050565b60006112f8826112cd565b9050919050565b611308816112ed565b811461131357600080fd5b50565b600081359050611325816112ff565b92915050565b600060208284031215611341576113406112c3565b5b600061134f84828501611316565b91505092915050565b600080fd5b600080fd5b600080fd5b60008083601f84011261137d5761137c611358565b5b8235905067ffffffffffffffff81111561139a5761139961135d565b5b6020830191508360018202830111156113b6576113b5611362565b5b9250929050565b600080602083850312156113d4576113d36112c3565b5b600083013567ffffffffffffffff8111156113f2576113f16112c8565b5b6113fe85828601611367565b92509250509250929050565b6114138161128f565b811461141e57600080fd5b50565b6000813590506114308161140a565b92915050565b60008060006060848603121561144f5761144e6112c3565b5b600061145d86828701611421565b935050602061146e86828701611421565b925050604061147f86828701611421565b9150509250925092565b60008115159050919050565b61149e81611489565b82525050565b600081519050919050565b600082825260208201905092915050565b60005b838110156114de5780820151818401526020810190506114c3565b60008484015250505050565b6000601f19601f8301169050919050565b6000611506826114a4565b61151081856114af565b93506115208185602086016114c0565b611529816114ea565b840191505092915050565b60006040820190506115496000830185611495565b818103602083015261155b81846114fb565b90509392505050565b60006020828403121561157a576115796112c3565b5b600061158884828501611421565b91505092915050565b600061159c826112cd565b9050919050565b6115ac81611591565b82525050565b6000610120820190506115c8600083018c6115a3565b6115d5602083018b6115a3565b6115e2604083018a611299565b6115ef6060830189611299565b6115fc6080830188611299565b61160960a0830187611299565b61161660c0830186611299565b61162360e0830185611495565b611631610100830184611495565b9a9950505050505050505050565b60008060408385031215611656576116556112c3565b5b600061166485828601611421565b925050602061167585828601611316565b9150509250929050565b611688816112ed565b82525050565b60006020820190506116a3600083018461167f565b92915050565b600082825260208201905092915050565b7f496e616374697665000000000000000000000000000000000000000000000000600082015250565b60006116f06008836116a9565b91506116fb826116ba565b602082019050919050565b6000602082019050818103600083015261171f816116e3565b9050919050565b600081905092915050565b50565b6000611741600083611726565b915061174c82611731565b600082019050919050565b600061176282611734565b9150819050919050565b7f455448207472616e73666572206661696c656400000000000000000000000000600082015250565b60006117a26013836116a9565b91506117ad8261176c565b602082019050919050565b600060208201905081810360008301526117d181611795565b9050919050565b7f4e487b7100000000000000000000000000000000000000000000000000000000600052601160045260246000fd5b60006118128261128f565b915061181d8361128f565b9250828201905080821115611835576118346117d8565b5b92915050565b7f496e76616c696420454d49000000000000000000000000000000000000000000600082015250565b6000611871600b836116a9565b915061187c8261183b565b602082019050919050565b600060208201905081810360008301526118a081611864565b9050919050565b7f4d696e2036307300000000000000000000000000000000000000000000000000600082015250565b60006118dd6007836116a9565b91506118e8826118a7565b602082019050919050565b6000602082019050818103600083015261190c816118d0565b9050919050565b7f546f74616c203c20454d49000000000000000000000000000000000000000000600082015250565b6000611949600b836116a9565b915061195482611913565b602082019050919050565b600060208201905081810360008301526119788161193c565b9050919050565b600061198a8261128f565b91507fffffffffffffffffffffffffffffffffffffffffffffffffffffffffffffffff82036119bc576119bb6117d8565b5b600182019050919050565b7f4f6e6c792061646d696e00000000000000000000000000000000000000000000600082015250565b60006119fd600a836116a9565b9150611a08826119c7565b602082019050919050565b60006020820190508181036000830152611a2c816119f0565b9050919050565b7f496e76616c696420706c616e2049440000000000000000000000000000000000600082015250565b6000611a69600f836116a9565b9150611a7482611a33565b602082019050919050565b60006020820190508181036000830152611a9881611a5c565b9050919050565b7f4e6f7420796f757220706c616e00000000000000000000000000000000000000600082015250565b6000611ad5600d836116a9565b9150611ae082611a9f565b602082019050919050565b60006020820190508181036000830152611b0481611ac8565b9050919050565b7f506c616e20616c72656164792061637469766500000000000000000000000000600082015250565b6000611b416013836116a9565b9150611b4c82611b0b565b602082019050919050565b60006020820190508181036000830152611b7081611b34565b9050919050565b7f496e76616c696420706c616e0000000000000000000000000000000000000000600082015250565b6000611bad600c836116a9565b9150611bb882611b77565b602082019050919050565b60006020820190508181036000830152611bdc81611ba0565b9050919050565b7f416c726561647920616374697665000000000000000000000000000000000000600082015250565b6000611c19600e836116a9565b9150611c2482611be3565b602082019050919050565b60006020820190508181036000830152611c4881611c0c565b9050919050565b7f53656e64206174206c65617374203120454d4900000000000000000000000000600082015250565b6000611c856013836116a9565b9150611c9082611c4f565b602082019050919050565b60006020820190508181036000830152611cb481611c78565b9050919050565b6000604082019050611cd06000830185611299565b611cdd6020830184611299565b9392505050565b7f506c616e206e6f74206c696e6b65640000000000000000000000000000000000600082015250565b6000611d1a600f836116a9565b9150611d2582611ce4565b602082019050919050565b60006020820190508181036000830152611d4981611d0d565b9050919050565b7f5061796d656e7420616c72656164792072656365697665640000000000000000600082015250565b6000611d866018836116a9565b9150611d9182611d50565b602082019050919050565b60006020820190508181036000830152611db581611d79565b9050919050565b7f5265656e7472616e637947756172643a207265656e7472616e742063616c6c00600082015250565b6000611df2601f836116a9565b9150611dfd82611dbc565b602082019050919050565b60006020820190508181036000830152611e2181611de5565b905091905056fea2646970667358221220835b8b73ffc110c5375d173cc88ef7c6319e7d84b10eaa8e880cf2a9d6ee808a64736f6c63430008140033","opcodes":"PUSH1 0x80 PUSH1 0x40 MSTORE CALLVALUE DUP1 ISZERO PUSH2 0x10 JUMPI PUSH1 0x0 DUP1 REVERT JUMPDEST POP PUSH1 0x1 PUSH1 0x0 DUP2 SWAP1 SSTORE POP CALLER PUSH1 0x4 PUSH1 0x0 PUSH2 0x100 EXP DUP2 SLOAD DUP2 PUSH20 0xFFFFFFFFFFFFFFFFFFFFFFFFFFFFFFFFFFFFFFFF MUL NOT AND SWAP1 DUP4 PUSH20 0xFFFFFFFFFFFFFFFFFFFFFFFFFFFFFFFFFFFFFFFF AND MUL OR SWAP1 SSTORE POP PUSH2 0x1E5E DUP1 PUSH2 0x69 PUSH1 0x0 CODECOPY PUSH1 0x0 RETURN INVALID PUSH1 0x80 PUSH1 0x40 MSTORE PUSH1 0x4 CALLDATASIZE LT PUSH2 0x9C JUMPI PUSH1 0x0 CALLDATALOAD PUSH1 0xE0 SHR DUP1 PUSH4 0x704B6C02 GT PUSH2 0x64 JUMPI DUP1 PUSH4 0x704B6C02 EQ PUSH2 0x199 JUMPI DUP1 PUSH4 0xB1620616 EQ PUSH2 0x1C2 JUMPI DUP1 PUSH4 0xBD6E7EFB EQ PUSH2 0x207 JUMPI DUP1 PUSH4 0xD4EA9E62 EQ PUSH2 0x230 JUMPI DUP1 PUSH4 0xD8496DFC EQ PUSH2 0x24C JUMPI DUP1 PUSH4 0xF851A440 EQ PUSH2 0x275 JUMPI PUSH2 0x9C JUMP JUMPDEST DUP1 PUSH4 0x382D39BB EQ PUSH2 0xA1 JUMPI DUP1 PUSH4 0x42B0A672 EQ PUSH2 0xCC JUMPI DUP1 PUSH4 0x4585E33B EQ PUSH2 0x109 JUMPI DUP1 PUSH4 0x4AEC7384 EQ PUSH2 0x132 JUMPI DUP1 PUSH4 0x6E04FF0D EQ PUSH2 0x15B JUMPI JUMPDEST PUSH1 0x0 DUP1 REVERT JUMPDEST CALLVALUE DUP1 ISZERO PUSH2 0xAD JUMPI PUSH1 0x0 DUP1 REVERT JUMPDEST POP PUSH2 0xB6 PUSH2 0x2A0 JUMP JUMPDEST PUSH1 0x40 MLOAD PUSH2 0xC3 SWAP2 SWAP1 PUSH2 0x12A8 JUMP JUMPDEST PUSH1 0x40 MLOAD DUP1 SWAP2 SUB SWAP1 RETURN JUMPDEST CALLVALUE DUP1 ISZERO PUSH2 0xD8 JUMPI PUSH1 0x0 DUP1 REVERT JUMPDEST POP PUSH2 0xF3 PUSH1 0x4 DUP1 CALLDATASIZE SUB DUP2 ADD SWAP1 PUSH2 0xEE SWAP2 SWAP1 PUSH2 0x132B JUMP JUMPDEST PUSH2 0x2A6 JUMP JUMPDEST PUSH1 0x40 MLOAD PUSH2 0x100 SWAP2 SWAP1 PUSH2 0x12A8 JUMP JUMPDEST PUSH1 0x40 MLOAD DUP1 SWAP2 SUB SWAP1 RETURN JUMPDEST CALLVALUE DUP1 ISZERO PUSH2 0x115 JUMPI PUSH1 0x0 DUP1 REVERT JUMPDEST POP PUSH2 0x130 PUSH1 0x4 DUP1 CALLDATASIZE SUB DUP2 ADD SWAP1 PUSH2 0x12B SWAP2 SWAP1 PUSH2 0x13BD JUMP JUMPDEST PUSH2 0x2BE JUMP JUMPDEST STOP JUMPDEST CALLVALUE DUP1 ISZERO PUSH2 0x13E JUMPI PUSH1 0x0 DUP1 REVERT JUMPDEST POP PUSH2 0x159 PUSH1 0x4 DUP1 CALLDATASIZE SUB DUP2 ADD SWAP1 PUSH2 0x154 SWAP2 SWAP1 PUSH2 0x1436 JUMP JUMPDEST PUSH2 0x503 JUMP JUMPDEST STOP JUMPDEST CALLVALUE DUP1 ISZERO PUSH2 0x167 JUMPI PUSH1 0x0 DUP1 REVERT JUMPDEST POP PUSH2 0x182 PUSH1 0x4 DUP1 CALLDATASIZE SUB DUP2 ADD SWAP1 PUSH2 0x17D SWAP2 SWAP1 PUSH2 0x13BD JUMP JUMPDEST PUSH2 0x7A7 JUMP JUMPDEST PUSH1 0x40 MLOAD PUSH2 0x190 SWAP3 SWAP2 SWAP1 PUSH2 0x1534 JUMP JUMPDEST PUSH1 0x40 MLOAD DUP1 SWAP2 SUB SWAP1 RETURN JUMPDEST CALLVALUE DUP1 ISZERO PUSH2 0x1A5 JUMPI PUSH1 0x0 DUP1 REVERT JUMPDEST POP PUSH2 0x1C0 PUSH1 0x4 DUP1 CALLDATASIZE SUB DUP2 ADD SWAP1 PUSH2 0x1BB SWAP2 SWAP1 PUSH2 0x132B JUMP JUMPDEST PUSH2 0x891 JUMP JUMPDEST STOP JUMPDEST CALLVALUE DUP1 ISZERO PUSH2 0x1CE JUMPI PUSH1 0x0 DUP1 REVERT JUMPDEST POP PUSH2 0x1E9 PUSH1 0x4 DUP1 CALLDATASIZE SUB DUP2 ADD SWAP1 PUSH2 0x1E4 SWAP2 SWAP1 PUSH2 0x1564 JUMP JUMPDEST PUSH2 0x965 JUMP JUMPDEST PUSH1 0x40 MLOAD PUSH2 0x1FE SWAP10 SWAP9 SWAP8 SWAP7 SWAP6 SWAP5 SWAP4 SWAP3 SWAP2 SWAP1 PUSH2 0x15B2 JUMP JUMPDEST PUSH1 0x40 MLOAD DUP1 SWAP2 SUB SWAP1 RETURN JUMPDEST CALLVALUE DUP1 ISZERO PUSH2 0x213 JUMPI PUSH1 0x0 DUP1 REVERT JUMPDEST POP PUSH2 0x22E PUSH1 0x4 DUP1 CALLDATASIZE SUB DUP2 ADD SWAP1 PUSH2 0x229 SWAP2 SWAP1 PUSH2 0x1564 JUMP JUMPDEST PUSH2 0xA0D JUMP JUMPDEST STOP JUMPDEST PUSH2 0x24A PUSH1 0x4 DUP1 CALLDATASIZE SUB DUP2 ADD SWAP1 PUSH2 0x245 SWAP2 SWAP1 PUSH2 0x1564 JUMP JUMPDEST PUSH2 0xBE5 JUMP JUMPDEST STOP JUMPDEST CALLVALUE DUP1 ISZERO PUSH2 0x258 JUMPI PUSH1 0x0 DUP1 REVERT JUMPDEST POP PUSH2 0x273 PUSH1 0x4 DUP1 CALLDATASIZE SUB DUP2 ADD SWAP1 PUSH2 0x26E SWAP2 SWAP1 PUSH2 0x163F JUMP JUMPDEST PUSH2 0xF42 JUMP JUMPDEST STOP JUMPDEST CALLVALUE DUP1 ISZERO PUSH2 0x281 JUMPI PUSH1 0x0 DUP1 REVERT JUMPDEST POP PUSH2 0x28A PUSH2 0x1210 JUMP JUMPDEST PUSH1 0x40 MLOAD PUSH2 0x297 SWAP2 SWAP1 PUSH2 0x168E JUMP JUMPDEST PUSH1 0x40 MLOAD DUP1 SWAP2 SUB SWAP1 RETURN JUMPDEST PUSH1 0x1 SLOAD DUP2 JUMP JUMPDEST PUSH1 0x3 PUSH1 0x20 MSTORE DUP1 PUSH1 0x0 MSTORE PUSH1 0x40 PUSH1 0x0 KECCAK256 PUSH1 0x0 SWAP2 POP SWAP1 POP SLOAD DUP2 JUMP JUMPDEST PUSH2 0x2C6 PUSH2 0x1236 JUMP JUMPDEST PUSH1 0x0 DUP3 DUP3 SWAP1 POP SUB ISZERO PUSH2 0x4F7 JUMPI PUSH1 0x0 DUP3 DUP3 DUP2 ADD SWAP1 PUSH2 0x2E3 SWAP2 SWAP1 PUSH2 0x1564 JUMP JUMPDEST SWAP1 POP PUSH1 0x0 PUSH1 0x2 PUSH1 0x0 DUP4 DUP2 MSTORE PUSH1 0x20 ADD SWAP1 DUP2 MSTORE PUSH1 0x20 ADD PUSH1 0x0 KECCAK256 SWAP1 POP DUP1 PUSH1 0x7 ADD PUSH1 0x0 SWAP1 SLOAD SWAP1 PUSH2 0x100 EXP SWAP1 DIV PUSH1 0xFF AND PUSH2 0x34D JUMPI PUSH1 0x40 MLOAD PUSH32 0x8C379A000000000000000000000000000000000000000000000000000000000 DUP2 MSTORE PUSH1 0x4 ADD PUSH2 0x344 SWAP1 PUSH2 0x1706 JUMP JUMPDEST PUSH1 0x40 MLOAD DUP1 SWAP2 SUB SWAP1 REVERT JUMPDEST PUSH1 0x0 DUP2 PUSH1 0x0 ADD PUSH1 0x0 SWAP1 SLOAD SWAP1 PUSH2 0x100 EXP SWAP1 DIV PUSH20 0xFFFFFFFFFFFFFFFFFFFFFFFFFFFFFFFFFFFFFFFF AND PUSH20 0xFFFFFFFFFFFFFFFFFFFFFFFFFFFFFFFFFFFFFFFF AND DUP3 PUSH1 0x2 ADD SLOAD PUSH1 0x40 MLOAD PUSH2 0x39B SWAP1 PUSH2 0x1757 JUMP JUMPDEST PUSH1 0x0 PUSH1 0x40 MLOAD DUP1 DUP4 SUB DUP2 DUP6 DUP8 GAS CALL SWAP3 POP POP POP RETURNDATASIZE DUP1 PUSH1 0x0 DUP2 EQ PUSH2 0x3D8 JUMPI PUSH1 0x40 MLOAD SWAP2 POP PUSH1 0x1F NOT PUSH1 0x3F RETURNDATASIZE ADD AND DUP3 ADD PUSH1 0x40 MSTORE RETURNDATASIZE DUP3 MSTORE RETURNDATASIZE PUSH1 0x0 PUSH1 0x20 DUP5 ADD RETURNDATACOPY PUSH2 0x3DD JUMP JUMPDEST PUSH1 0x60 SWAP2 POP JUMPDEST POP POP SWAP1 POP DUP1 PUSH2 0x421 JUMPI PUSH1 0x40 MLOAD PUSH32 0x8C379A000000000000000000000000000000000000000000000000000000000 DUP2 MSTORE PUSH1 0x4 ADD PUSH2 0x418 SWAP1 PUSH2 0x17B8 JUMP JUMPDEST PUSH1 0x40 MLOAD DUP1 SWAP2 SUB SWAP1 REVERT JUMPDEST DUP2 PUSH1 0x2 ADD SLOAD DUP3 PUSH1 0x5 ADD PUSH1 0x0 DUP3 DUP3 SLOAD PUSH2 0x439 SWAP2 SWAP1 PUSH2 0x1807 JUMP JUMPDEST SWAP3 POP POP DUP2 SWAP1 SSTORE POP DUP2 PUSH1 0x4 ADD SLOAD DUP3 PUSH1 0x5 ADD SLOAD LT PUSH2 0x49E JUMPI PUSH1 0x0 DUP3 PUSH1 0x7 ADD PUSH1 0x0 PUSH2 0x100 EXP DUP2 SLOAD DUP2 PUSH1 0xFF MUL NOT AND SWAP1 DUP4 ISZERO ISZERO MUL OR SWAP1 SSTORE POP DUP3 PUSH32 0x5417900F2B30001C152939C30DEA707712A1B6254728BC12C5BF0137CB36E9A0 PUSH1 0x40 MLOAD PUSH1 0x40 MLOAD DUP1 SWAP2 SUB SWAP1 LOG2 PUSH2 0x4F3 JUMP JUMPDEST DUP2 PUSH1 0x3 ADD SLOAD TIMESTAMP PUSH2 0x4AE SWAP2 SWAP1 PUSH2 0x1807 JUMP JUMPDEST DUP3 PUSH1 0x6 ADD DUP2 SWAP1 SSTORE POP DUP3 PUSH32 0x6E59A6EE972BBD5F5B1932131F47641231AA73D1B0D32BD72CEA9471BABF742 DUP4 PUSH1 0x2 ADD SLOAD PUSH1 0x40 MLOAD PUSH2 0x4EA SWAP2 SWAP1 PUSH2 0x12A8 JUMP JUMPDEST PUSH1 0x40 MLOAD DUP1 SWAP2 SUB SWAP1 LOG2 JUMPDEST POP POP POP JUMPDEST PUSH2 0x4FF PUSH2 0x1285 JUMP JUMPDEST POP POP JUMP JUMPDEST PUSH1 0x0 DUP4 GT PUSH2 0x546 JUMPI PUSH1 0x40 MLOAD PUSH32 0x8C379A000000000000000000000000000000000000000000000000000000000 DUP2 MSTORE PUSH1 0x4 ADD PUSH2 0x53D SWAP1 PUSH2 0x1887 JUMP JUMPDEST PUSH1 0x40 MLOAD DUP1 SWAP2 SUB SWAP1 REVERT JUMPDEST PUSH1 0x3C DUP3 LT ISZERO PUSH2 0x58A JUMPI PUSH1 0x40 MLOAD PUSH32 0x8C379A000000000000000000000000000000000000000000000000000000000 DUP2 MSTORE PUSH1 0x4 ADD PUSH2 0x581 SWAP1 PUSH2 0x18F3 JUMP JUMPDEST PUSH1 0x40 MLOAD DUP1 SWAP2 SUB SWAP1 REVERT JUMPDEST DUP3 DUP2 LT ISZERO PUSH2 0x5CD JUMPI PUSH1 0x40 MLOAD PUSH32 0x8C379A000000000000000000000000000000000000000000000000000000000 DUP2 MSTORE PUSH1 0x4 ADD PUSH2 0x5C4 SWAP1 PUSH2 0x195F JUMP JUMPDEST PUSH1 0x40 MLOAD DUP1 SWAP2 SUB SWAP1 REVERT JUMPDEST PUSH1 0x1 PUSH1 0x0 DUP2 SLOAD DUP1 SWAP3 SWAP2 SWAP1 PUSH2 0x5E0 SWAP1 PUSH2 0x197F JUMP JUMPDEST SWAP2 SWAP1 POP SSTORE POP PUSH1 0x40 MLOAD DUP1 PUSH2 0x120 ADD PUSH1 0x40 MSTORE DUP1 PUSH1 0x0 PUSH20 0xFFFFFFFFFFFFFFFFFFFFFFFFFFFFFFFFFFFFFFFF AND DUP2 MSTORE PUSH1 0x20 ADD CALLER PUSH20 0xFFFFFFFFFFFFFFFFFFFFFFFFFFFFFFFFFFFFFFFF AND DUP2 MSTORE PUSH1 0x20 ADD DUP5 DUP2 MSTORE PUSH1 0x20 ADD DUP4 DUP2 MSTORE PUSH1 0x20 ADD DUP3 DUP2 MSTORE PUSH1 0x20 ADD PUSH1 0x0 DUP2 MSTORE PUSH1 0x20 ADD PUSH1 0x0 DUP2 MSTORE PUSH1 0x20 ADD PUSH1 0x0 ISZERO ISZERO DUP2 MSTORE PUSH1 0x20 ADD PUSH1 0x0 ISZERO ISZERO DUP2 MSTORE POP PUSH1 0x2 PUSH1 0x0 PUSH1 0x1 SLOAD DUP2 MSTORE PUSH1 0x20 ADD SWAP1 DUP2 MSTORE PUSH1 0x20 ADD PUSH1 0x0 KECCAK256 PUSH1 0x0 DUP3 ADD MLOAD DUP2 PUSH1 0x0 ADD PUSH1 0x0 PUSH2 0x100 EXP DUP2 SLOAD DUP2 PUSH20 0xFFFFFFFFFFFFFFFFFFFFFFFFFFFFFFFFFFFFFFFF MUL NOT AND SWAP1 DUP4 PUSH20 0xFFFFFFFFFFFFFFFFFFFFFFFFFFFFFFFFFFFFFFFF AND MUL OR SWAP1 SSTORE POP PUSH1 0x20 DUP3 ADD MLOAD DUP2 PUSH1 0x1 ADD PUSH1 0x0 PUSH2 0x100 EXP DUP2 SLOAD DUP2 PUSH20 0xFFFFFFFFFFFFFFFFFFFFFFFFFFFFFFFFFFFFFFFF MUL NOT AND SWAP1 DUP4 PUSH20 0xFFFFFFFFFFFFFFFFFFFFFFFFFFFFFFFFFFFFFFFF AND MUL OR SWAP1 SSTORE POP PUSH1 0x40 DUP3 ADD MLOAD DUP2 PUSH1 0x2 ADD SSTORE PUSH1 0x60 DUP3 ADD MLOAD DUP2 PUSH1 0x3 ADD SSTORE PUSH1 0x80 DUP3 ADD MLOAD DUP2 PUSH1 0x4 ADD SSTORE PUSH1 0xA0 DUP3 ADD MLOAD DUP2 PUSH1 0x5 ADD SSTORE PUSH1 0xC0 DUP3 ADD MLOAD DUP2 PUSH1 0x6 ADD SSTORE PUSH1 0xE0 DUP3 ADD MLOAD DUP2 PUSH1 0x7 ADD PUSH1 0x0 PUSH2 0x100 EXP DUP2 SLOAD DUP2 PUSH1 0xFF MUL NOT AND SWAP1 DUP4 ISZERO ISZERO MUL OR SWAP1 SSTORE POP PUSH2 0x100 DUP3 ADD MLOAD DUP2 PUSH1 0x7 ADD PUSH1 0x1 PUSH2 0x100 EXP DUP2 SLOAD DUP2 PUSH1 0xFF MUL NOT AND SWAP1 DUP4 ISZERO ISZERO MUL OR SWAP1 SSTORE POP SWAP1 POP POP PUSH1 0x1 SLOAD PUSH32 0x9DFD4372898F1AB4B7AAB4735C5B8C07F64B72EF6F72E0DA892265459FC1B861 PUSH1 0x40 MLOAD PUSH1 0x40 MLOAD DUP1 SWAP2 SUB SWAP1 LOG2 POP POP POP JUMP JUMPDEST PUSH1 0x0 PUSH1 0x60 PUSH1 0x0 PUSH1 0x1 SLOAD SUB PUSH2 0x7D0 JUMPI PUSH1 0x0 PUSH1 0x40 MLOAD DUP1 PUSH1 0x20 ADD PUSH1 0x40 MSTORE DUP1 PUSH1 0x0 DUP2 MSTORE POP SWAP2 POP SWAP2 POP PUSH2 0x88A JUMP JUMPDEST PUSH1 0x0 PUSH1 0x1 SWAP1 POP JUMPDEST PUSH1 0x1 SLOAD DUP2 GT PUSH2 0x872 JUMPI PUSH1 0x0 PUSH1 0x2 PUSH1 0x0 DUP4 DUP2 MSTORE PUSH1 0x20 ADD SWAP1 DUP2 MSTORE PUSH1 0x20 ADD PUSH1 0x0 KECCAK256 SWAP1 POP DUP1 PUSH1 0x7 ADD PUSH1 0x0 SWAP1 SLOAD SWAP1 PUSH2 0x100 EXP SWAP1 DIV PUSH1 0xFF AND DUP1 ISZERO PUSH2 0x81C JUMPI POP DUP1 PUSH1 0x4 ADD SLOAD DUP2 PUSH1 0x5 ADD SLOAD LT JUMPDEST DUP1 ISZERO PUSH2 0x82C JUMPI POP DUP1 PUSH1 0x6 ADD SLOAD TIMESTAMP LT ISZERO JUMPDEST ISZERO PUSH2 0x85E JUMPI PUSH1 0x1 DUP3 PUSH1 0x40 MLOAD PUSH1 0x20 ADD PUSH2 0x844 SWAP2 SWAP1 PUSH2 0x12A8 JUMP JUMPDEST PUSH1 0x40 MLOAD PUSH1 0x20 DUP2 DUP4 SUB SUB DUP2 MSTORE SWAP1 PUSH1 0x40 MSTORE SWAP4 POP SWAP4 POP POP POP PUSH2 0x88A JUMP JUMPDEST POP DUP1 DUP1 PUSH2 0x86A SWAP1 PUSH2 0x197F JUMP JUMPDEST SWAP2 POP POP PUSH2 0x7D7 JUMP JUMPDEST POP PUSH1 0x0 PUSH1 0x40 MLOAD DUP1 PUSH1 0x20 ADD PUSH1 0x40 MSTORE DUP1 PUSH1 0x0 DUP2 MSTORE POP SWAP2 POP SWAP2 POP JUMPDEST SWAP3 POP SWAP3 SWAP1 POP JUMP JUMPDEST PUSH1 0x4 PUSH1 0x0 SWAP1 SLOAD SWAP1 PUSH2 0x100 EXP SWAP1 DIV PUSH20 0xFFFFFFFFFFFFFFFFFFFFFFFFFFFFFFFFFFFFFFFF AND PUSH20 0xFFFFFFFFFFFFFFFFFFFFFFFFFFFFFFFFFFFFFFFF AND CALLER PUSH20 0xFFFFFFFFFFFFFFFFFFFFFFFFFFFFFFFFFFFFFFFF AND EQ PUSH2 0x921 JUMPI PUSH1 0x40 MLOAD PUSH32 0x8C379A000000000000000000000000000000000000000000000000000000000 DUP2 MSTORE PUSH1 0x4 ADD PUSH2 0x918 SWAP1 PUSH2 0x1A13 JUMP JUMPDEST PUSH1 0x40 MLOAD DUP1 SWAP2 SUB SWAP1 REVERT JUMPDEST DUP1 PUSH1 0x4 PUSH1 0x0 PUSH2 0x100 EXP DUP2 SLOAD DUP2 PUSH20 0xFFFFFFFFFFFFFFFFFFFFFFFFFFFFFFFFFFFFFFFF MUL NOT AND SWAP1 DUP4 PUSH20 0xFFFFFFFFFFFFFFFFFFFFFFFFFFFFFFFFFFFFFFFF AND MUL OR SWAP1 SSTORE POP POP JUMP JUMPDEST PUSH1 0x2 PUSH1 0x20 MSTORE DUP1 PUSH1 0x0 MSTORE PUSH1 0x40 PUSH1 0x0 KECCAK256 PUSH1 0x0 SWAP2 POP SWAP1 POP DUP1 PUSH1 0x0 ADD PUSH1 0x0 SWAP1 SLOAD SWAP1 PUSH2 0x100 EXP SWAP1 DIV PUSH20 0xFFFFFFFFFFFFFFFFFFFFFFFFFFFFFFFFFFFFFFFF AND SWAP1 DUP1 PUSH1 0x1 ADD PUSH1 0x0 SWAP1 SLOAD SWAP1 PUSH2 0x100 EXP SWAP1 DIV PUSH20 0xFFFFFFFFFFFFFFFFFFFFFFFFFFFFFFFFFFFFFFFF AND SWAP1 DUP1 PUSH1 0x2 ADD SLOAD SWAP1 DUP1 PUSH1 0x3 ADD SLOAD SWAP1 DUP1 PUSH1 0x4 ADD SLOAD SWAP1 DUP1 PUSH1 0x5 ADD SLOAD SWAP1 DUP1 PUSH1 0x6 ADD SLOAD SWAP1 DUP1 PUSH1 0x7 ADD PUSH1 0x0 SWAP1 SLOAD SWAP1 PUSH2 0x100 EXP SWAP1 DIV PUSH1 0xFF AND SWAP1 DUP1 PUSH1 0x7 ADD PUSH1 0x1 SWAP1 SLOAD SWAP1 PUSH2 0x100 EXP SWAP1 DIV PUSH1 0xFF AND SWAP1 POP DUP10 JUMP JUMPDEST PUSH1 0x0 DUP2 GT DUP1 ISZERO PUSH2 0xA1F JUMPI POP PUSH1 0x1 SLOAD DUP2 GT ISZERO JUMPDEST PUSH2 0xA5E JUMPI PUSH1 0x40 MLOAD PUSH32 0x8C379A000000000000000000000000000000000000000000000000000000000 DUP2 MSTORE PUSH1 0x4 ADD PUSH2 0xA55 SWAP1 PUSH2 0x1A7F JUMP JUMPDEST PUSH1 0x40 MLOAD DUP1 SWAP2 SUB SWAP1 REVERT JUMPDEST PUSH1 0x0 PUSH1 0x2 PUSH1 0x0 DUP4 DUP2 MSTORE PUSH1 0x20 ADD SWAP1 DUP2 MSTORE PUSH1 0x20 ADD PUSH1 0x0 KECCAK256 SWAP1 POP CALLER PUSH20 0xFFFFFFFFFFFFFFFFFFFFFFFFFFFFFFFFFFFFFFFF AND DUP2 PUSH1 0x1 ADD PUSH1 0x0 SWAP1 SLOAD SWAP1 PUSH2 0x100 EXP SWAP1 DIV PUSH20 0xFFFFFFFFFFFFFFFFFFFFFFFFFFFFFFFFFFFFFFFF AND PUSH20 0xFFFFFFFFFFFFFFFFFFFFFFFFFFFFFFFFFFFFFFFF AND EQ PUSH2 0xB07 JUMPI PUSH1 0x40 MLOAD PUSH32 0x8C379A000000000000000000000000000000000000000000000000000000000 DUP2 MSTORE PUSH1 0x4 ADD PUSH2 0xAFE SWAP1 PUSH2 0x1AEB JUMP JUMPDEST PUSH1 0x40 MLOAD DUP1 SWAP2 SUB SWAP1 REVERT JUMPDEST DUP1 PUSH1 0x7 ADD PUSH1 0x0 SWAP1 SLOAD SWAP1 PUSH2 0x100 EXP SWAP1 DIV PUSH1 0xFF AND ISZERO PUSH2 0xB59 JUMPI PUSH1 0x40 MLOAD PUSH32 0x8C379A000000000000000000000000000000000000000000000000000000000 DUP2 MSTORE PUSH1 0x4 ADD PUSH2 0xB50 SWAP1 PUSH2 0x1B57 JUMP JUMPDEST PUSH1 0x40 MLOAD DUP1 SWAP2 SUB SWAP1 REVERT JUMPDEST DUP2 PUSH1 0x3 PUSH1 0x0 CALLER PUSH20 0xFFFFFFFFFFFFFFFFFFFFFFFFFFFFFFFFFFFFFFFF AND PUSH20 0xFFFFFFFFFFFFFFFFFFFFFFFFFFFFFFFFFFFFFFFF AND DUP2 MSTORE PUSH1 0x20 ADD SWAP1 DUP2 MSTORE PUSH1 0x20 ADD PUSH1 0x0 KECCAK256 DUP2 SWAP1 SSTORE POP CALLER PUSH20 0xFFFFFFFFFFFFFFFFFFFFFFFFFFFFFFFFFFFFFFFF AND DUP3 PUSH32 0xA71688517B80A169255911C539E70F1889F59DB8A23C03D4FFC131FEA52C0FFA PUSH1 0x40 MLOAD PUSH1 0x40 MLOAD DUP1 SWAP2 SUB SWAP1 LOG3 POP POP JUMP JUMPDEST PUSH2 0xBED PUSH2 0x1236 JUMP JUMPDEST PUSH1 0x0 PUSH1 0x2 PUSH1 0x0 DUP4 DUP2 MSTORE PUSH1 0x20 ADD SWAP1 DUP2 MSTORE PUSH1 0x20 ADD PUSH1 0x0 KECCAK256 SWAP1 POP PUSH1 0x0 PUSH20 0xFFFFFFFFFFFFFFFFFFFFFFFFFFFFFFFFFFFFFFFF AND DUP2 PUSH1 0x1 ADD PUSH1 0x0 SWAP1 SLOAD SWAP1 PUSH2 0x100 EXP SWAP1 DIV PUSH20 0xFFFFFFFFFFFFFFFFFFFFFFFFFFFFFFFFFFFFFFFF AND PUSH20 0xFFFFFFFFFFFFFFFFFFFFFFFFFFFFFFFFFFFFFFFF AND SUB PUSH2 0xC97 JUMPI PUSH1 0x40 MLOAD PUSH32 0x8C379A000000000000000000000000000000000000000000000000000000000 DUP2 MSTORE PUSH1 0x4 ADD PUSH2 0xC8E SWAP1 PUSH2 0x1BC3 JUMP JUMPDEST PUSH1 0x40 MLOAD DUP1 SWAP2 SUB SWAP1 REVERT JUMPDEST DUP1 PUSH1 0x7 ADD PUSH1 0x0 SWAP1 SLOAD SWAP1 PUSH2 0x100 EXP SWAP1 DIV PUSH1 0xFF AND ISZERO PUSH2 0xCE9 JUMPI PUSH1 0x40 MLOAD PUSH32 0x8C379A000000000000000000000000000000000000000000000000000000000 DUP2 MSTORE PUSH1 0x4 ADD PUSH2 0xCE0 SWAP1 PUSH2 0x1C2F JUMP JUMPDEST PUSH1 0x40 MLOAD DUP1 SWAP2 SUB SWAP1 REVERT JUMPDEST DUP1 PUSH1 0x2 ADD SLOAD CALLVALUE LT ISZERO PUSH2 0xD30 JUMPI PUSH1 0x40 MLOAD PUSH32 0x8C379A000000000000000000000000000000000000000000000000000000000 DUP2 MSTORE PUSH1 0x4 ADD PUSH2 0xD27 SWAP1 PUSH2 0x1C9B JUMP JUMPDEST PUSH1 0x40 MLOAD DUP1 SWAP2 SUB SWAP1 REVERT JUMPDEST CALLER DUP2 PUSH1 0x0 ADD PUSH1 0x0 PUSH2 0x100 EXP DUP2 SLOAD DUP2 PUSH20 0xFFFFFFFFFFFFFFFFFFFFFFFFFFFFFFFFFFFFFFFF MUL NOT AND SWAP1 DUP4 PUSH20 0xFFFFFFFFFFFFFFFFFFFFFFFFFFFFFFFFFFFFFFFF AND MUL OR SWAP1 SSTORE POP CALLVALUE DUP2 PUSH1 0x5 ADD PUSH1 0x0 DUP3 DUP3 SLOAD PUSH2 0xD87 SWAP2 SWAP1 PUSH2 0x1807 JUMP JUMPDEST SWAP3 POP POP DUP2 SWAP1 SSTORE POP DUP1 PUSH1 0x1 ADD PUSH1 0x0 SWAP1 SLOAD SWAP1 PUSH2 0x100 EXP SWAP1 DIV PUSH20 0xFFFFFFFFFFFFFFFFFFFFFFFFFFFFFFFFFFFFFFFF AND PUSH20 0xFFFFFFFFFFFFFFFFFFFFFFFFFFFFFFFFFFFFFFFF AND PUSH2 0x8FC CALLVALUE SWAP1 DUP2 ISZERO MUL SWAP1 PUSH1 0x40 MLOAD PUSH1 0x0 PUSH1 0x40 MLOAD DUP1 DUP4 SUB DUP2 DUP6 DUP9 DUP9 CALL SWAP4 POP POP POP POP ISZERO DUP1 ISZERO PUSH2 0xDF8 JUMPI RETURNDATASIZE PUSH1 0x0 DUP1 RETURNDATACOPY RETURNDATASIZE PUSH1 0x0 REVERT JUMPDEST POP DUP2 PUSH32 0x6E59A6EE972BBD5F5B1932131F47641231AA73D1B0D32BD72CEA9471BABF742 CALLVALUE PUSH1 0x40 MLOAD PUSH2 0xE29 SWAP2 SWAP1 PUSH2 0x12A8 JUMP JUMPDEST PUSH1 0x40 MLOAD DUP1 SWAP2 SUB SWAP1 LOG2 CALLER PUSH20 0xFFFFFFFFFFFFFFFFFFFFFFFFFFFFFFFFFFFFFFFF AND DUP2 PUSH1 0x1 ADD PUSH1 0x0 SWAP1 SLOAD SWAP1 PUSH2 0x100 EXP SWAP1 DIV PUSH20 0xFFFFFFFFFFFFFFFFFFFFFFFFFFFFFFFFFFFFFFFF AND PUSH20 0xFFFFFFFFFFFFFFFFFFFFFFFFFFFFFFFFFFFFFFFF AND DUP4 PUSH32 0x2FBDBBF9B90AAA1FB6D3E1A7D5019D062CE9F89BC527A0C839B1806D0445E85F CALLVALUE TIMESTAMP PUSH1 0x40 MLOAD PUSH2 0xEB5 SWAP3 SWAP2 SWAP1 PUSH2 0x1CBB JUMP JUMPDEST PUSH1 0x40 MLOAD DUP1 SWAP2 SUB SWAP1 LOG4 PUSH1 0x1 DUP2 PUSH1 0x7 ADD PUSH1 0x0 PUSH2 0x100 EXP DUP2 SLOAD DUP2 PUSH1 0xFF MUL NOT AND SWAP1 DUP4 ISZERO ISZERO MUL OR SWAP1 SSTORE POP DUP1 PUSH1 0x3 ADD SLOAD TIMESTAMP PUSH2 0xEEA SWAP2 SWAP1 PUSH2 0x1807 JUMP JUMPDEST DUP2 PUSH1 0x6 ADD DUP2 SWAP1 SSTORE POP CALLER PUSH20 0xFFFFFFFFFFFFFFFFFFFFFFFFFFFFFFFFFFFFFFFF AND DUP3 PUSH32 0x1F07C729FC76534D72C9E3AD0A792BF34DE515A8AABC1A61BD40C2A2BD72AD88 PUSH1 0x40 MLOAD PUSH1 0x40 MLOAD DUP1 SWAP2 SUB SWAP1 LOG3 POP PUSH2 0xF3F PUSH2 0x1285 JUMP JUMPDEST POP JUMP JUMPDEST PUSH1 0x4 PUSH1 0x0 SWAP1 SLOAD SWAP1 PUSH2 0x100 EXP SWAP1 DIV PUSH20 0xFFFFFFFFFFFFFFFFFFFFFFFFFFFFFFFFFFFFFFFF AND PUSH20 0xFFFFFFFFFFFFFFFFFFFFFFFFFFFFFFFFFFFFFFFF AND CALLER PUSH20 0xFFFFFFFFFFFFFFFFFFFFFFFFFFFFFFFFFFFFFFFF AND EQ PUSH2 0xFD2 JUMPI PUSH1 0x40 MLOAD PUSH32 0x8C379A000000000000000000000000000000000000000000000000000000000 DUP2 MSTORE PUSH1 0x4 ADD PUSH2 0xFC9 SWAP1 PUSH2 0x1A13 JUMP JUMPDEST PUSH1 0x40 MLOAD DUP1 SWAP2 SUB SWAP1 REVERT JUMPDEST PUSH1 0x0 PUSH1 0x2 PUSH1 0x0 DUP5 DUP2 MSTORE PUSH1 0x20 ADD SWAP1 DUP2 MSTORE PUSH1 0x20 ADD PUSH1 0x0 KECCAK256 SWAP1 POP DUP3 PUSH1 0x3 PUSH1 0x0 DUP4 PUSH1 0x1 ADD PUSH1 0x0 SWAP1 SLOAD SWAP1 PUSH2 0x100 EXP SWAP1 DIV PUSH20 0xFFFFFFFFFFFFFFFFFFFFFFFFFFFFFFFFFFFFFFFF AND PUSH20 0xFFFFFFFFFFFFFFFFFFFFFFFFFFFFFFFFFFFFFFFF AND PUSH20 0xFFFFFFFFFFFFFFFFFFFFFFFFFFFFFFFFFFFFFFFF AND DUP2 MSTORE PUSH1 0x20 ADD SWAP1 DUP2 MSTORE PUSH1 0x20 ADD PUSH1 0x0 KECCAK256 SLOAD EQ PUSH2 0x108E JUMPI PUSH1 0x40 MLOAD PUSH32 0x8C379A000000000000000000000000000000000000000000000000000000000 DUP2 MSTORE PUSH1 0x4 ADD PUSH2 0x1085 SWAP1 PUSH2 0x1D30 JUMP JUMPDEST PUSH1 0x40 MLOAD DUP1 SWAP2 SUB SWAP1 REVERT JUMPDEST DUP1 PUSH1 0x7 ADD PUSH1 0x0 SWAP1 SLOAD SWAP1 PUSH2 0x100 EXP SWAP1 DIV PUSH1 0xFF AND ISZERO PUSH2 0x10E0 JUMPI PUSH1 0x40 MLOAD PUSH32 0x8C379A000000000000000000000000000000000000000000000000000000000 DUP2 MSTORE PUSH1 0x4 ADD PUSH2 0x10D7 SWAP1 PUSH2 0x1C2F JUMP JUMPDEST PUSH1 0x40 MLOAD DUP1 SWAP2 SUB SWAP1 REVERT JUMPDEST DUP1 PUSH1 0x7 ADD PUSH1 0x1 SWAP1 SLOAD SWAP1 PUSH2 0x100 EXP SWAP1 DIV PUSH1 0xFF AND ISZERO PUSH2 0x1132 JUMPI PUSH1 0x40 MLOAD PUSH32 0x8C379A000000000000000000000000000000000000000000000000000000000 DUP2 MSTORE PUSH1 0x4 ADD PUSH2 0x1129 SWAP1 PUSH2 0x1D9C JUMP JUMPDEST PUSH1 0x40 MLOAD DUP1 SWAP2 SUB SWAP1 REVERT JUMPDEST DUP2 DUP2 PUSH1 0x0 ADD PUSH1 0x0 PUSH2 0x100 EXP DUP2 SLOAD DUP2 PUSH20 0xFFFFFFFFFFFFFFFFFFFFFFFFFFFFFFFFFFFFFFFF MUL NOT AND SWAP1 DUP4 PUSH20 0xFFFFFFFFFFFFFFFFFFFFFFFFFFFFFFFFFFFFFFFF AND MUL OR SWAP1 SSTORE POP PUSH1 0x1 DUP2 PUSH1 0x7 ADD PUSH1 0x1 PUSH2 0x100 EXP DUP2 SLOAD DUP2 PUSH1 0xFF MUL NOT AND SWAP1 DUP4 ISZERO ISZERO MUL OR SWAP1 SSTORE POP PUSH1 0x1 DUP2 PUSH1 0x7 ADD PUSH1 0x0 PUSH2 0x100 EXP DUP2 SLOAD DUP2 PUSH1 0xFF MUL NOT AND SWAP1 DUP4 ISZERO ISZERO MUL OR SWAP1 SSTORE POP DUP1 PUSH1 0x3 ADD SLOAD TIMESTAMP PUSH2 0x11BF SWAP2 SWAP1 PUSH2 0x1807 JUMP JUMPDEST DUP2 PUSH1 0x6 ADD DUP2 SWAP1 SSTORE POP DUP2 PUSH20 0xFFFFFFFFFFFFFFFFFFFFFFFFFFFFFFFFFFFFFFFF AND DUP4 PUSH32 0x1F07C729FC76534D72C9E3AD0A792BF34DE515A8AABC1A61BD40C2A2BD72AD88 PUSH1 0x40 MLOAD PUSH1 0x40 MLOAD DUP1 SWAP2 SUB SWAP1 LOG3 POP POP POP JUMP JUMPDEST PUSH1 0x4 PUSH1 0x0 SWAP1 SLOAD SWAP1 PUSH2 0x100 EXP SWAP1 DIV PUSH20 0xFFFFFFFFFFFFFFFFFFFFFFFFFFFFFFFFFFFFFFFF AND DUP2 JUMP JUMPDEST PUSH1 0x2 PUSH1 0x0 SLOAD SUB PUSH2 0x127B JUMPI PUSH1 0x40 MLOAD PUSH32 0x8C379A000000000000000000000000000000000000000000000000000000000 DUP2 MSTORE PUSH1 0x4 ADD PUSH2 0x1272 SWAP1 PUSH2 0x1E08 JUMP JUMPDEST PUSH1 0x40 MLOAD DUP1 SWAP2 SUB SWAP1 REVERT JUMPDEST PUSH1 0x2 PUSH1 0x0 DUP2 SWAP1 SSTORE POP JUMP JUMPDEST PUSH1 0x1 PUSH1 0x0 DUP2 SWAP1 SSTORE POP JUMP JUMPDEST PUSH1 0x0 DUP2 SWAP1 POP SWAP2 SWAP1 POP JUMP JUMPDEST PUSH2 0x12A2 DUP2 PUSH2 0x128F JUMP JUMPDEST DUP3 MSTORE POP POP JUMP JUMPDEST PUSH1 0x0 PUSH1 0x20 DUP3 ADD SWAP1 POP PUSH2 0x12BD PUSH1 0x0 DUP4 ADD DUP5 PUSH2 0x1299 JUMP JUMPDEST SWAP3 SWAP2 POP POP JUMP JUMPDEST PUSH1 0x0 DUP1 REVERT JUMPDEST PUSH1 0x0 DUP1 REVERT JUMPDEST PUSH1 0x0 PUSH20 0xFFFFFFFFFFFFFFFFFFFFFFFFFFFFFFFFFFFFFFFF DUP3 AND SWAP1 POP SWAP2 SWAP1 POP JUMP JUMPDEST PUSH1 0x0 PUSH2 0x12F8 DUP3 PUSH2 0x12CD JUMP JUMPDEST SWAP1 POP SWAP2 SWAP1 POP JUMP JUMPDEST PUSH2 0x1308 DUP2 PUSH2 0x12ED JUMP JUMPDEST DUP2 EQ PUSH2 0x1313 JUMPI PUSH1 0x0 DUP1 REVERT JUMPDEST POP JUMP JUMPDEST PUSH1 0x0 DUP2 CALLDATALOAD SWAP1 POP PUSH2 0x1325 DUP2 PUSH2 0x12FF JUMP JUMPDEST SWAP3 SWAP2 POP POP JUMP JUMPDEST PUSH1 0x0 PUSH1 0x20 DUP3 DUP5 SUB SLT ISZERO PUSH2 0x1341 JUMPI PUSH2 0x1340 PUSH2 0x12C3 JUMP JUMPDEST JUMPDEST PUSH1 0x0 PUSH2 0x134F DUP5 DUP3 DUP6 ADD PUSH2 0x1316 JUMP JUMPDEST SWAP2 POP POP SWAP3 SWAP2 POP POP JUMP JUMPDEST PUSH1 0x0 DUP1 REVERT JUMPDEST PUSH1 0x0 DUP1 REVERT JUMPDEST PUSH1 0x0 DUP1 REVERT JUMPDEST PUSH1 0x0 DUP1 DUP4 PUSH1 0x1F DUP5 ADD SLT PUSH2 0x137D JUMPI PUSH2 0x137C PUSH2 0x1358 JUMP JUMPDEST JUMPDEST DUP3 CALLDATALOAD SWAP1 POP PUSH8 0xFFFFFFFFFFFFFFFF DUP2 GT ISZERO PUSH2 0x139A JUMPI PUSH2 0x1399 PUSH2 0x135D JUMP JUMPDEST JUMPDEST PUSH1 0x20 DUP4 ADD SWAP2 POP DUP4 PUSH1 0x1 DUP3 MUL DUP4 ADD GT ISZERO PUSH2 0x13B6 JUMPI PUSH2 0x13B5 PUSH2 0x1362 JUMP JUMPDEST JUMPDEST SWAP3 POP SWAP3 SWAP1 POP JUMP JUMPDEST PUSH1 0x0 DUP1 PUSH1 0x20 DUP4 DUP6 SUB SLT ISZERO PUSH2 0x13D4 JUMPI PUSH2 0x13D3 PUSH2 0x12C3 JUMP JUMPDEST JUMPDEST PUSH1 0x0 DUP4 ADD CALLDATALOAD PUSH8 0xFFFFFFFFFFFFFFFF DUP2 GT ISZERO PUSH2 0x13F2 JUMPI PUSH2 0x13F1 PUSH2 0x12C8 JUMP JUMPDEST JUMPDEST PUSH2 0x13FE DUP6 DUP3 DUP7 ADD PUSH2 0x1367 JUMP JUMPDEST SWAP3 POP SWAP3 POP POP SWAP3 POP SWAP3 SWAP1 POP JUMP JUMPDEST PUSH2 0x1413 DUP2 PUSH2 0x128F JUMP JUMPDEST DUP2 EQ PUSH2 0x141E JUMPI PUSH1 0x0 DUP1 REVERT JUMPDEST POP JUMP JUMPDEST PUSH1 0x0 DUP2 CALLDATALOAD SWAP1 POP PUSH2 0x1430 DUP2 PUSH2 0x140A JUMP JUMPDEST SWAP3 SWAP2 POP POP JUMP JUMPDEST PUSH1 0x0 DUP1 PUSH1 0x0 PUSH1 0x60 DUP5 DUP7 SUB SLT ISZERO PUSH2 0x144F JUMPI PUSH2 0x144E PUSH2 0x12C3 JUMP JUMPDEST JUMPDEST PUSH1 0x0 PUSH2 0x145D DUP7 DUP3 DUP8 ADD PUSH2 0x1421 JUMP JUMPDEST SWAP4 POP POP PUSH1 0x20 PUSH2 0x146E DUP7 DUP3 DUP8 ADD PUSH2 0x1421 JUMP JUMPDEST SWAP3 POP POP PUSH1 0x40 PUSH2 0x147F DUP7 DUP3 DUP8 ADD PUSH2 0x1421 JUMP JUMPDEST SWAP2 POP POP SWAP3 POP SWAP3 POP SWAP3 JUMP JUMPDEST PUSH1 0x0 DUP2 ISZERO ISZERO SWAP1 POP SWAP2 SWAP1 POP JUMP JUMPDEST PUSH2 0x149E DUP2 PUSH2 0x1489 JUMP JUMPDEST DUP3 MSTORE POP POP JUMP JUMPDEST PUSH1 0x0 DUP2 MLOAD SWAP1 POP SWAP2 SWAP1 POP JUMP JUMPDEST PUSH1 0x0 DUP3 DUP3 MSTORE PUSH1 0x20 DUP3 ADD SWAP1 POP SWAP3 SWAP2 POP POP JUMP JUMPDEST PUSH1 0x0 JUMPDEST DUP4 DUP2 LT ISZERO PUSH2 0x14DE JUMPI DUP1 DUP3 ADD MLOAD DUP2 DUP5 ADD MSTORE PUSH1 0x20 DUP2 ADD SWAP1 POP PUSH2 0x14C3 JUMP JUMPDEST PUSH1 0x0 DUP5 DUP5 ADD MSTORE POP POP POP POP JUMP JUMPDEST PUSH1 0x0 PUSH1 0x1F NOT PUSH1 0x1F DUP4 ADD AND SWAP1 POP SWAP2 SWAP1 POP JUMP JUMPDEST PUSH1 0x0 PUSH2 0x1506 DUP3 PUSH2 0x14A4 JUMP JUMPDEST PUSH2 0x1510 DUP2 DUP6 PUSH2 0x14AF JUMP JUMPDEST SWAP4 POP PUSH2 0x1520 DUP2 DUP6 PUSH1 0x20 DUP7 ADD PUSH2 0x14C0 JUMP JUMPDEST PUSH2 0x1529 DUP2 PUSH2 0x14EA JUMP JUMPDEST DUP5 ADD SWAP2 POP POP SWAP3 SWAP2 POP POP JUMP JUMPDEST PUSH1 0x0 PUSH1 0x40 DUP3 ADD SWAP1 POP PUSH2 0x1549 PUSH1 0x0 DUP4 ADD DUP6 PUSH2 0x1495 JUMP JUMPDEST DUP2 DUP2 SUB PUSH1 0x20 DUP4 ADD MSTORE PUSH2 0x155B DUP2 DUP5 PUSH2 0x14FB JUMP JUMPDEST SWAP1 POP SWAP4 SWAP3 POP POP POP JUMP JUMPDEST PUSH1 0x0 PUSH1 0x20 DUP3 DUP5 SUB SLT ISZERO PUSH2 0x157A JUMPI PUSH2 0x1579 PUSH2 0x12C3 JUMP JUMPDEST JUMPDEST PUSH1 0x0 PUSH2 0x1588 DUP5 DUP3 DUP6 ADD PUSH2 0x1421 JUMP JUMPDEST SWAP2 POP POP SWAP3 SWAP2 POP POP JUMP JUMPDEST PUSH1 0x0 PUSH2 0x159C DUP3 PUSH2 0x12CD JUMP JUMPDEST SWAP1 POP SWAP2 SWAP1 POP JUMP JUMPDEST PUSH2 0x15AC DUP2 PUSH2 0x1591 JUMP JUMPDEST DUP3 MSTORE POP POP JUMP JUMPDEST PUSH1 0x0 PUSH2 0x120 DUP3 ADD SWAP1 POP PUSH2 0x15C8 PUSH1 0x0 DUP4 ADD DUP13 PUSH2 0x15A3 JUMP JUMPDEST PUSH2 0x15D5 PUSH1 0x20 DUP4 ADD DUP12 PUSH2 0x15A3 JUMP JUMPDEST PUSH2 0x15E2 PUSH1 0x40 DUP4 ADD DUP11 PUSH2 0x1299 JUMP JUMPDEST PUSH2 0x15EF PUSH1 0x60 DUP4 ADD DUP10 PUSH2 0x1299 JUMP JUMPDEST PUSH2 0x15FC PUSH1 0x80 DUP4 ADD DUP9 PUSH2 0x1299 JUMP JUMPDEST PUSH2 0x1609 PUSH1 0xA0 DUP4 ADD DUP8 PUSH2 0x1299 JUMP JUMPDEST PUSH2 0x1616 PUSH1 0xC0 DUP4 ADD DUP7 PUSH2 0x1299 JUMP JUMPDEST PUSH2 0x1623 PUSH1 0xE0 DUP4 ADD DUP6 PUSH2 0x1495 JUMP JUMPDEST PUSH2 0x1631 PUSH2 0x100 DUP4 ADD DUP5 PUSH2 0x1495 JUMP JUMPDEST SWAP11 SWAP10 POP POP POP POP POP POP POP POP POP POP JUMP JUMPDEST PUSH1 0x0 DUP1 PUSH1 0x40 DUP4 DUP6 SUB SLT ISZERO PUSH2 0x1656 JUMPI PUSH2 0x1655 PUSH2 0x12C3 JUMP JUMPDEST JUMPDEST PUSH1 0x0 PUSH2 0x1664 DUP6 DUP3 DUP7 ADD PUSH2 0x1421 JUMP JUMPDEST SWAP3 POP POP PUSH1 0x20 PUSH2 0x1675 DUP6 DUP3 DUP7 ADD PUSH2 0x1316 JUMP JUMPDEST SWAP2 POP POP SWAP3 POP SWAP3 SWAP1 POP JUMP JUMPDEST PUSH2 0x1688 DUP2 PUSH2 0x12ED JUMP JUMPDEST DUP3 MSTORE POP POP JUMP JUMPDEST PUSH1 0x0 PUSH1 0x20 DUP3 ADD SWAP1 POP PUSH2 0x16A3 PUSH1 0x0 DUP4 ADD DUP5 PUSH2 0x167F JUMP JUMPDEST SWAP3 SWAP2 POP POP JUMP JUMPDEST PUSH1 0x0 DUP3 DUP3 MSTORE PUSH1 0x20 DUP3 ADD SWAP1 POP SWAP3 SWAP2 POP POP JUMP JUMPDEST PUSH32 0x496E616374697665000000000000000000000000000000000000000000000000 PUSH1 0x0 DUP3 ADD MSTORE POP JUMP JUMPDEST PUSH1 0x0 PUSH2 0x16F0 PUSH1 0x8 DUP4 PUSH2 0x16A9 JUMP JUMPDEST SWAP2 POP PUSH2 0x16FB DUP3 PUSH2 0x16BA JUMP JUMPDEST PUSH1 0x20 DUP3 ADD SWAP1 POP SWAP2 SWAP1 POP JUMP JUMPDEST PUSH1 0x0 PUSH1 0x20 DUP3 ADD SWAP1 POP DUP2 DUP2 SUB PUSH1 0x0 DUP4 ADD MSTORE PUSH2 0x171F DUP2 PUSH2 0x16E3 JUMP JUMPDEST SWAP1 POP SWAP2 SWAP1 POP JUMP JUMPDEST PUSH1 0x0 DUP2 SWAP1 POP SWAP3 SWAP2 POP POP JUMP JUMPDEST POP JUMP JUMPDEST PUSH1 0x0 PUSH2 0x1741 PUSH1 0x0 DUP4 PUSH2 0x1726 JUMP JUMPDEST SWAP2 POP PUSH2 0x174C DUP3 PUSH2 0x1731 JUMP JUMPDEST PUSH1 0x0 DUP3 ADD SWAP1 POP SWAP2 SWAP1 POP JUMP JUMPDEST PUSH1 0x0 PUSH2 0x1762 DUP3 PUSH2 0x1734 JUMP JUMPDEST SWAP2 POP DUP2 SWAP1 POP SWAP2 SWAP1 POP JUMP JUMPDEST PUSH32 0x455448207472616E73666572206661696C656400000000000000000000000000 PUSH1 0x0 DUP3 ADD MSTORE POP JUMP JUMPDEST PUSH1 0x0 PUSH2 0x17A2 PUSH1 0x13 DUP4 PUSH2 0x16A9 JUMP JUMPDEST SWAP2 POP PUSH2 0x17AD DUP3 PUSH2 0x176C JUMP JUMPDEST PUSH1 0x20 DUP3 ADD SWAP1 POP SWAP2 SWAP1 POP JUMP JUMPDEST PUSH1 0x0 PUSH1 0x20 DUP3 ADD SWAP1 POP DUP2 DUP2 SUB PUSH1 0x0 DUP4 ADD MSTORE PUSH2 0x17D1 DUP2 PUSH2 0x1795 JUMP JUMPDEST SWAP1 POP SWAP2 SWAP1 POP JUMP JUMPDEST PUSH32 0x4E487B7100000000000000000000000000000000000000000000000000000000 PUSH1 0x0 MSTORE PUSH1 0x11 PUSH1 0x4 MSTORE PUSH1 0x24 PUSH1 0x0 REVERT JUMPDEST PUSH1 0x0 PUSH2 0x1812 DUP3 PUSH2 0x128F JUMP JUMPDEST SWAP2 POP PUSH2 0x181D DUP4 PUSH2 0x128F JUMP JUMPDEST SWAP3 POP DUP3 DUP3 ADD SWAP1 POP DUP1 DUP3 GT ISZERO PUSH2 0x1835 JUMPI PUSH2 0x1834 PUSH2 0x17D8 JUMP JUMPDEST JUMPDEST SWAP3 SWAP2 POP POP JUMP JUMPDEST PUSH32 0x496E76616C696420454D49000000000000000000000000000000000000000000 PUSH1 0x0 DUP3 ADD MSTORE POP JUMP JUMPDEST PUSH1 0x0 PUSH2 0x1871 PUSH1 0xB DUP4 PUSH2 0x16A9 JUMP JUMPDEST SWAP2 POP PUSH2 0x187C DUP3 PUSH2 0x183B JUMP JUMPDEST PUSH1 0x20 DUP3 ADD SWAP1 POP SWAP2 SWAP1 POP JUMP JUMPDEST PUSH1 0x0 PUSH1 0x20 DUP3 ADD SWAP1 POP DUP2 DUP2 SUB PUSH1 0x0 DUP4 ADD MSTORE PUSH2 0x18A0 DUP2 PUSH2 0x1864 JUMP JUMPDEST SWAP1 POP SWAP2 SWAP1 POP JUMP JUMPDEST PUSH32 0x4D696E2036307300000000000000000000000000000000000000000000000000 PUSH1 0x0 DUP3 ADD MSTORE POP JUMP JUMPDEST PUSH1 0x0 PUSH2 0x18DD PUSH1 0x7 DUP4 PUSH2 0x16A9 JUMP JUMPDEST SWAP2 POP PUSH2 0x18E8 DUP3 PUSH2 0x18A7 JUMP JUMPDEST PUSH1 0x20 DUP3 ADD SWAP1 POP SWAP2 SWAP1 POP JUMP JUMPDEST PUSH1 0x0 PUSH1 0x20 DUP3 ADD SWAP1 POP DUP2 DUP2 SUB PUSH1 0x0 DUP4 ADD MSTORE PUSH2 0x190C DUP2 PUSH2 0x18D0 JUMP JUMPDEST SWAP1 POP SWAP2 SWAP1 POP JUMP JUMPDEST PUSH32 0x546F74616C203C20454D49000000000000000000000000000000000000000000 PUSH1 0x0 DUP3 ADD MSTORE POP JUMP JUMPDEST PUSH1 0x0 PUSH2 0x1949 PUSH1 0xB DUP4 PUSH2 0x16A9 JUMP JUMPDEST SWAP2 POP PUSH2 0x1954 DUP3 PUSH2 0x1913 JUMP JUMPDEST PUSH1 0x20 DUP3 ADD SWAP1 POP SWAP2 SWAP1 POP JUMP JUMPDEST PUSH1 0x0 PUSH1 0x20 DUP3 ADD SWAP1 POP DUP2 DUP2 SUB PUSH1 0x0 DUP4 ADD MSTORE PUSH2 0x1978 DUP2 PUSH2 0x193C JUMP JUMPDEST SWAP1 POP SWAP2 SWAP1 POP JUMP JUMPDEST PUSH1 0x0 PUSH2 0x198A DUP3 PUSH2 0x128F JUMP JUMPDEST SWAP2 POP PUSH32 0xFFFFFFFFFFFFFFFFFFFFFFFFFFFFFFFFFFFFFFFFFFFFFFFFFFFFFFFFFFFFFFFF DUP3 SUB PUSH2 0x19BC JUMPI PUSH2 0x19BB PUSH2 0x17D8 JUMP JUMPDEST JUMPDEST PUSH1 0x1 DUP3 ADD SWAP1 POP SWAP2 SWAP1 POP JUMP JUMPDEST PUSH32 0x4F6E6C792061646D696E00000000000000000000000000000000000000000000 PUSH1 0x0 DUP3 ADD MSTORE POP JUMP JUMPDEST PUSH1 0x0 PUSH2 0x19FD PUSH1 0xA DUP4 PUSH2 0x16A9 JUMP JUMPDEST SWAP2 POP PUSH2 0x1A08 DUP3 PUSH2 0x19C7 JUMP JUMPDEST PUSH1 0x20 DUP3 ADD SWAP1 POP SWAP2 SWAP1 POP JUMP JUMPDEST PUSH1 0x0 PUSH1 0x20 DUP3 ADD SWAP1 POP DUP2 DUP2 SUB PUSH1 0x0 DUP4 ADD MSTORE PUSH2 0x1A2C DUP2 PUSH2 0x19F0 JUMP JUMPDEST SWAP1 POP SWAP2 SWAP1 POP JUMP JUMPDEST PUSH32 0x496E76616C696420706C616E2049440000000000000000000000000000000000 PUSH1 0x0 DUP3 ADD MSTORE POP JUMP JUMPDEST PUSH1 0x0 PUSH2 0x1A69 PUSH1 0xF DUP4 PUSH2 0x16A9 JUMP JUMPDEST SWAP2 POP PUSH2 0x1A74 DUP3 PUSH2 0x1A33 JUMP JUMPDEST PUSH1 0x20 DUP3 ADD SWAP1 POP SWAP2 SWAP1 POP JUMP JUMPDEST PUSH1 0x0 PUSH1 0x20 DUP3 ADD SWAP1 POP DUP2 DUP2 SUB PUSH1 0x0 DUP4 ADD MSTORE PUSH2 0x1A98 DUP2 PUSH2 0x1A5C JUMP JUMPDEST SWAP1 POP SWAP2 SWAP1 POP JUMP JUMPDEST PUSH32 0x4E6F7420796F757220706C616E00000000000000000000000000000000000000 PUSH1 0x0 DUP3 ADD MSTORE POP JUMP JUMPDEST PUSH1 0x0 PUSH2 0x1AD5 PUSH1 0xD DUP4 PUSH2 0x16A9 JUMP JUMPDEST SWAP2 POP PUSH2 0x1AE0 DUP3 PUSH2 0x1A9F JUMP JUMPDEST PUSH1 0x20 DUP3 ADD SWAP1 POP SWAP2 SWAP1 POP JUMP JUMPDEST PUSH1 0x0 PUSH1 0x20 DUP3 ADD SWAP1 POP DUP2 DUP2 SUB PUSH1 0x0 DUP4 ADD MSTORE PUSH2 0x1B04 DUP2 PUSH2 0x1AC8 JUMP JUMPDEST SWAP1 POP SWAP2 SWAP1 POP JUMP JUMPDEST PUSH32 0x506C616E20616C72656164792061637469766500000000000000000000000000 PUSH1 0x0 DUP3 ADD MSTORE POP JUMP JUMPDEST PUSH1 0x0 PUSH2 0x1B41 PUSH1 0x13 DUP4 PUSH2 0x16A9 JUMP JUMPDEST SWAP2 POP PUSH2 0x1B4C DUP3 PUSH2 0x1B0B JUMP JUMPDEST PUSH1 0x20 DUP3 ADD SWAP1 POP SWAP2 SWAP1 POP JUMP JUMPDEST PUSH1 0x0 PUSH1 0x20 DUP3 ADD SWAP1 POP DUP2 DUP2 SUB PUSH1 0x0 DUP4 ADD MSTORE PUSH2 0x1B70 DUP2 PUSH2 0x1B34 JUMP JUMPDEST SWAP1 POP SWAP2 SWAP1 POP JUMP JUMPDEST PUSH32 0x496E76616C696420706C616E0000000000000000000000000000000000000000 PUSH1 0x0 DUP3 ADD MSTORE POP JUMP JUMPDEST PUSH1 0x0 PUSH2 0x1BAD PUSH1 0xC DUP4 PUSH2 0x16A9 JUMP JUMPDEST SWAP2 POP PUSH2 0x1BB8 DUP3 PUSH2 0x1B77 JUMP JUMPDEST PUSH1 0x20 DUP3 ADD SWAP1 POP SWAP2 SWAP1 POP JUMP JUMPDEST PUSH1 0x0 PUSH1 0x20 DUP3 ADD SWAP1 POP DUP2 DUP2 SUB PUSH1 0x0 DUP4 ADD MSTORE PUSH2 0x1BDC DUP2 PUSH2 0x1BA0 JUMP JUMPDEST SWAP1 POP SWAP2 SWAP1 POP JUMP JUMPDEST PUSH32 0x416C726561647920616374697665000000000000000000000000000000000000 PUSH1 0x0 DUP3 ADD MSTORE POP JUMP JUMPDEST PUSH1 0x0 PUSH2 0x1C19 PUSH1 0xE DUP4 PUSH2 0x16A9 JUMP JUMPDEST SWAP2 POP PUSH2 0x1C24 DUP3 PUSH2 0x1BE3 JUMP JUMPDEST PUSH1 0x20 DUP3 ADD SWAP1 POP SWAP2 SWAP1 POP JUMP JUMPDEST PUSH1 0x0 PUSH1 0x20 DUP3 ADD SWAP1 POP DUP2 DUP2 SUB PUSH1 0x0 DUP4 ADD MSTORE PUSH2 0x1C48 DUP2 PUSH2 0x1C0C JUMP JUMPDEST SWAP1 POP SWAP2 SWAP1 POP JUMP JUMPDEST PUSH32 0x53656E64206174206C65617374203120454D4900000000000000000000000000 PUSH1 0x0 DUP3 ADD MSTORE POP JUMP JUMPDEST PUSH1 0x0 PUSH2 0x1C85 PUSH1 0x13 DUP4 PUSH2 0x16A9 JUMP JUMPDEST SWAP2 POP PUSH2 0x1C90 DUP3 PUSH2 0x1C4F JUMP JUMPDEST PUSH1 0x20 DUP3 ADD SWAP1 POP SWAP2 SWAP1 POP JUMP JUMPDEST PUSH1 0x0 PUSH1 0x20 DUP3 ADD SWAP1 POP DUP2 DUP2 SUB PUSH1 0x0 DUP4 ADD MSTORE PUSH2 0x1CB4 DUP2 PUSH2 0x1C78 JUMP JUMPDEST SWAP1 POP SWAP2 SWAP1 POP JUMP JUMPDEST PUSH1 0x0 PUSH1 0x40 DUP3 ADD SWAP1 POP PUSH2 0x1CD0 PUSH1 0x0 DUP4 ADD DUP6 PUSH2 0x1299 JUMP JUMPDEST PUSH2 0x1CDD PUSH1 0x20 DUP4 ADD DUP5 PUSH2 0x1299 JUMP JUMPDEST SWAP4 SWAP3 POP POP POP JUMP JUMPDEST PUSH32 0x506C616E206E6F74206C696E6B65640000000000000000000000000000000000 PUSH1 0x0 DUP3 ADD MSTORE POP JUMP JUMPDEST PUSH1 0x0 PUSH2 0x1D1A PUSH1 0xF DUP4 PUSH2 0x16A9 JUMP JUMPDEST SWAP2 POP PUSH2 0x1D25 DUP3 PUSH2 0x1CE4 JUMP JUMPDEST PUSH1 0x20 DUP3 ADD SWAP1 POP SWAP2 SWAP1 POP JUMP JUMPDEST PUSH1 0x0 PUSH1 0x20 DUP3 ADD SWAP1 POP DUP2 DUP2 SUB PUSH1 0x0 DUP4 ADD MSTORE PUSH2 0x1D49 DUP2 PUSH2 0x1D0D JUMP JUMPDEST SWAP1 POP SWAP2 SWAP1 POP JUMP JUMPDEST PUSH32 0x5061796D656E7420616C72656164792072656365697665640000000000000000 PUSH1 0x0 DUP3 ADD MSTORE POP JUMP JUMPDEST PUSH1 0x0 PUSH2 0x1D86 PUSH1 0x18 DUP4 PUSH2 0x16A9 JUMP JUMPDEST SWAP2 POP PUSH2 0x1D91 DUP3 PUSH2 0x1D50 JUMP JUMPDEST PUSH1 0x20 DUP3 ADD SWAP1 POP SWAP2 SWAP1 POP JUMP JUMPDEST PUSH1 0x0 PUSH1 0x20 DUP3 ADD SWAP1 POP DUP2 DUP2 SUB PUSH1 0x0 DUP4 ADD MSTORE PUSH2 0x1DB5 DUP2 PUSH2 0x1D79 JUMP JUMPDEST SWAP1 POP SWAP2 SWAP1 POP JUMP JUMPDEST PUSH32 0x5265656E7472616E637947756172643A207265656E7472616E742063616C6C00 PUSH1 0x0 DUP3 ADD MSTORE POP JUMP JUMPDEST PUSH1 0x0 PUSH2 0x1DF2 PUSH1 0x1F DUP4 PUSH2 0x16A9 JUMP JUMPDEST SWAP2 POP PUSH2 0x1DFD DUP3 PUSH2 0x1DBC JUMP JUMPDEST PUSH1 0x20 DUP3 ADD SWAP1 POP SWAP2 SWAP1 POP JUMP JUMPDEST PUSH1 0x0 PUSH1 0x20 DUP3 ADD SWAP1 POP DUP2 DUP2 SUB PUSH1 0x0 DUP4 ADD MSTORE PUSH2 0x1E21 DUP2 PUSH2 0x1DE5 JUMP JUMPDEST SWAP1 POP SWAP2 SWAP1 POP JUMP INVALID LOG2 PUSH5 0x6970667358 0x22 SLT KECCAK256 DUP4 JUMPDEST DUP12 PUSH20 0xFFC110C5375D173CC88EF7C6319E7D84B10EAA8E DUP9 0xC CALLCODE 0xA9 0xD6 0xEE DUP1 DUP11 PUSH5 0x736F6C6343 STOP ADDMOD EQ STOP CALLER "},"methodIdentifiers":{"activatePlan(uint256)":"d4ea9e62","activatePlanRaw(uint256,address)":"d8496dfc","admin()":"f851a440","checkUpkeep(bytes)":"6e04ff0d","createPlan(uint256,uint256,uint256)":"4aec7384","linkPlanToDirectPayment(uint256)":"bd6e7efb","pendingPlanId(address)":"42b0a672","performUpkeep(bytes)":"4585e33b","planCount()":"382d39bb","plans(uint256)":"b1620616","setAdmin(address)":"704b6c02"}}}}}