{
  "_format": "hh-sol-artifact-1",
  "contractName": "EmiAutoPayEVM",
  "sourceName": "contracts/EmiAutoPayEVM.sol",
  "abi": [
    {
      "inputs": [
        {
          "internalType": "address",
          "name": "_usdt",
          "type": "address"
        }
      ],
      "stateMutability": "nonpayable",
      "type": "constructor"
    },
    {
      "anonymous": false,
      "inputs": [
        {
          "indexed": true,
          "internalType": "uint256",
          "name": "planId",
          "type": "uint256"
        }
      ],
      "name": "EmiCompleted",
      "type": "event"
    },
    {
      "anonymous": false,
      "inputs": [
        {
          "indexed": true,
          "internalType": "uint256",
          "name": "planId",
          "type": "uint256"
        },
        {
          "indexed": false,
          "internalType": "uint256",
          "name": "amount",
          "type": "uint256"
        }
      ],
      "name": "EmiPaid",
      "type": "event"
    },
    {
      "anonymous": false,
      "inputs": [
        {
          "indexed": true,
          "internalType": "uint256",
          "name": "planId",
          "type": "uint256"
        },
        {
          "indexed": false,
          "internalType": "address",
          "name": "sender",
          "type": "address"
        }
      ],
      "name": "PlanActivated",
      "type": "event"
    },
    {
      "anonymous": false,
      "inputs": [
        {
          "indexed": true,
          "internalType": "uint256",
          "name": "planId",
          "type": "uint256"
        }
      ],
      "name": "PlanCreated",
      "type": "event"
    },
    {
      "anonymous": false,
      "inputs": [
        {
          "indexed": true,
          "internalType": "uint256",
          "name": "planId",
          "type": "uint256"
        },
        {
          "indexed": true,
          "internalType": "address",
          "name": "oldReceiver",
          "type": "address"
        },
        {
          "indexed": true,
          "internalType": "address",
          "name": "newReceiver",
          "type": "address"
        }
      ],
      "name": "ReceiverUpdated",
      "type": "event"
    },
    {
      "inputs": [],
      "name": "PERMIT2",
      "outputs": [
        {
          "internalType": "address",
          "name": "",
          "type": "address"
        }
      ],
      "stateMutability": "view",
      "type": "function"
    },
    {
      "inputs": [],
      "name": "USDT",
      "outputs": [
        {
          "internalType": "address",
          "name": "",
          "type": "address"
        }
      ],
      "stateMutability": "view",
      "type": "function"
    },
    {
      "inputs": [
        {
          "internalType": "uint256",
          "name": "planId",
          "type": "uint256"
        },
        {
          "internalType": "uint160",
          "name": "activationAmount",
          "type": "uint160"
        },
        {
          "components": [
            {
              "components": [
                {
                  "internalType": "address",
                  "name": "token",
                  "type": "address"
                },
                {
                  "internalType": "uint160",
                  "name": "amount",
                  "type": "uint160"
                },
                {
                  "internalType": "uint48",
                  "name": "expiration",
                  "type": "uint48"
                },
                {
                  "internalType": "uint48",
                  "name": "nonce",
                  "type": "uint48"
                }
              ],
              "internalType": "struct PermitDetails",
              "name": "details",
              "type": "tuple"
            },
            {
              "internalType": "address",
              "name": "spender",
              "type": "address"
            },
            {
              "internalType": "uint256",
              "name": "sigDeadline",
              "type": "uint256"
            }
          ],
          "internalType": "struct PermitSingle",
          "name": "permit",
          "type": "tuple"
        },
        {
          "internalType": "bytes",
          "name": "signature",
          "type": "bytes"
        }
      ],
      "name": "activatePlanWithPermit2AndPay",
      "outputs": [],
      "stateMutability": "nonpayable",
      "type": "function"
    },
    {
      "inputs": [
        {
          "internalType": "bytes",
          "name": "",
          "type": "bytes"
        }
      ],
      "name": "checkUpkeep",
      "outputs": [
        {
          "internalType": "bool",
          "name": "upkeepNeeded",
          "type": "bool"
        },
        {
          "internalType": "bytes",
          "name": "performData",
          "type": "bytes"
        }
      ],
      "stateMutability": "view",
      "type": "function"
    },
    {
      "inputs": [
        {
          "internalType": "uint256",
          "name": "emi",
          "type": "uint256"
        },
        {
          "internalType": "uint256",
          "name": "interval",
          "type": "uint256"
        },
        {
          "internalType": "uint256",
          "name": "total",
          "type": "uint256"
        }
      ],
      "name": "createPlan",
      "outputs": [],
      "stateMutability": "nonpayable",
      "type": "function"
    },
    {
      "inputs": [
        {
          "internalType": "bytes",
          "name": "data",
          "type": "bytes"
        }
      ],
      "name": "performUpkeep",
      "outputs": [],
      "stateMutability": "nonpayable",
      "type": "function"
    },
    {
      "inputs": [],
      "name": "planCount",
      "outputs": [
        {
          "internalType": "uint256",
          "name": "",
          "type": "uint256"
        }
      ],
      "stateMutability": "view",
      "type": "function"
    },
    {
      "inputs": [
        {
          "internalType": "uint256",
          "name": "",
          "type": "uint256"
        }
      ],
      "name": "plans",
      "outputs": [
        {
          "internalType": "address",
          "name": "sender",
          "type": "address"
        },
        {
          "internalType": "address",
          "name": "receiver",
          "type": "address"
        },
        {
          "internalType": "uint256",
          "name": "emi",
          "type": "uint256"
        },
        {
          "internalType": "uint256",
          "name": "interval",
          "type": "uint256"
        },
        {
          "internalType": "uint256",
          "name": "total",
          "type": "uint256"
        },
        {
          "internalType": "uint256",
          "name": "paid",
          "type": "uint256"
        },
        {
          "internalType": "uint256",
          "name": "nextPay",
          "type": "uint256"
        },
        {
          "internalType": "bool",
          "name": "active",
          "type": "bool"
        }
      ],
      "stateMutability": "view",
      "type": "function"
    },
    {
      "inputs": [
        {
          "internalType": "uint256",
          "name": "planId",
          "type": "uint256"
        },
        {
          "internalType": "address",
          "name": "newReceiver",
          "type": "address"
        }
      ],
      "name": "updateReceiver",
      "outputs": [],
      "stateMutability": "nonpayable",
      "type": "function"
    }
  ],
  "bytecode": "0x60a06040523480156200001157600080fd5b506040516200211e3803806200211e833981810160405281019062000037919062000156565b6001600081905550600073ffffffffffffffffffffffffffffffffffffffff168173ffffffffffffffffffffffffffffffffffffffff1603620000b1576040517f08c379a0000000000000000000000000000000000000000000000000000000008152600401620000a890620001e9565b60405180910390fd5b8073ffffffffffffffffffffffffffffffffffffffff1660808173ffffffffffffffffffffffffffffffffffffffff1681525050506200020b565b600080fd5b600073ffffffffffffffffffffffffffffffffffffffff82169050919050565b60006200011e82620000f1565b9050919050565b620001308162000111565b81146200013c57600080fd5b50565b600081519050620001508162000125565b92915050565b6000602082840312156200016f576200016e620000ec565b5b60006200017f848285016200013f565b91505092915050565b600082825260208201905092915050565b7f496e76616c696420555344540000000000000000000000000000000000000000600082015250565b6000620001d1600c8362000188565b9150620001de8262000199565b602082019050919050565b600060208201905081810360008301526200020481620001c2565b9050919050565b608051611ee26200023c600039600081816103480152818161059f015281816107c40152610fc50152611ee26000f3fe608060405234801561001057600080fd5b50600436106100935760003560e01c80634c6ec871116100665780634c6ec8711461010a5780636afdd850146101265780636e04ff0d14610144578063b162061614610175578063c54e44eb146101ac57610093565b8063382d39bb1461009857806342b132f1146100b65780634585e33b146100d25780634aec7384146100ee575b600080fd5b6100a06101ca565b6040516100ad9190611059565b60405180910390f35b6100d060048036038101906100cb919061117f565b6101d0565b005b6100ec60048036038101906100e79190611209565b6106c5565b005b61010860048036038101906101039190611256565b610914565b005b610124600480360381019061011f91906112e7565b610b8e565b005b61012e610e56565b60405161013b9190611336565b60405180910390f35b61015e60048036038101906101599190611209565b610e69565b60405161016c9291906113fc565b60405180910390f35b61018f600480360381019061018a919061142c565b610f2e565b6040516101a3989796959493929190611459565b60405180910390f35b6101b4610fc3565b6040516101c19190611336565b60405180910390f35b60015481565b6101d8610fe7565b6000600260008781526020019081526020016000209050600073ffffffffffffffffffffffffffffffffffffffff168160010160009054906101000a900473ffffffffffffffffffffffffffffffffffffffff1673ffffffffffffffffffffffffffffffffffffffff1603610282576040517f08c379a000000000000000000000000000000000000000000000000000000000815260040161027990611534565b60405180910390fd5b8060070160009054906101000a900460ff16156102d4576040517f08c379a00000000000000000000000000000000000000000000000000000000081526004016102cb906115a0565b60405180910390fd5b80600401548460000160200160208101906102ef91906115c0565b73ffffffffffffffffffffffffffffffffffffffff161015610346576040517f08c379a000000000000000000000000000000000000000000000000000000000815260040161033d90611639565b60405180910390fd5b7f000000000000000000000000000000000000000000000000000000000000000073ffffffffffffffffffffffffffffffffffffffff168460000160000160208101906103939190611659565b73ffffffffffffffffffffffffffffffffffffffff16146103e9576040517f08c379a00000000000000000000000000000000000000000000000000000000081526004016103e0906116d2565b60405180910390fd5b3073ffffffffffffffffffffffffffffffffffffffff168460800160208101906104139190611659565b73ffffffffffffffffffffffffffffffffffffffff1614610469576040517f08c379a00000000000000000000000000000000000000000000000000000000081526004016104609061173e565b60405180910390fd5b338160000160006101000a81548173ffffffffffffffffffffffffffffffffffffffff021916908373ffffffffffffffffffffffffffffffffffffffff1602179055506e22d473030f116ddee9f6b43ac78ba373ffffffffffffffffffffffffffffffffffffffff16632b67b570338686866040518563ffffffff1660e01b81526004016104fa949392919061194a565b600060405180830381600087803b15801561051457600080fd5b505af1158015610528573d6000803e3d6000fd5b5050505060008573ffffffffffffffffffffffffffffffffffffffff161115610648576e22d473030f116ddee9f6b43ac78ba373ffffffffffffffffffffffffffffffffffffffff166336c78516338360010160009054906101000a900473ffffffffffffffffffffffffffffffffffffffff16887f00000000000000000000000000000000000000000000000000000000000000006040518563ffffffff1660e01b81526004016105dd949392919061199a565b600060405180830381600087803b1580156105f757600080fd5b505af115801561060b573d6000803e3d6000fd5b50505050857f06e59a6ee972bbd5f5b1932131f47641231aa73d1b0d32bd72cea9471babf7428660405161063f9190611a1a565b60405180910390a25b60018160070160006101000a81548160ff0219169083151502179055508060030154426106759190611a64565b8160060181905550857f1f07c729fc76534d72c9e3ad0a792bf34de515a8aabc1a61bd40c2a2bd72ad88336040516106ad9190611336565b60405180910390a2506106be611036565b5050505050565b6106cd610fe7565b600082828101906106de919061142c565b905060006002600083815260200190815260200160002090508060070160009054906101000a900460ff16610748576040517f08c379a000000000000000000000000000000000000000000000000000000000815260040161073f90611ae4565b60405180910390fd5b6e22d473030f116ddee9f6b43ac78ba373ffffffffffffffffffffffffffffffffffffffff166336c785168260000160009054906101000a900473ffffffffffffffffffffffffffffffffffffffff168360010160009054906101000a900473ffffffffffffffffffffffffffffffffffffffff1684600201547f00000000000000000000000000000000000000000000000000000000000000006040518563ffffffff1660e01b8152600401610802949392919061199a565b600060405180830381600087803b15801561081c57600080fd5b505af1158015610830573d6000803e3d6000fd5b50505050806002015481600501600082825461084c9190611a64565b9250508190555080600401548160050154106108b15760008160070160006101000a81548160ff021916908315150217905550817f5417900f2b30001c152939c30dea707712a1b6254728bc12c5bf0137cb36e9a060405160405180910390a2610906565b8060030154426108c19190611a64565b8160060181905550817f06e59a6ee972bbd5f5b1932131f47641231aa73d1b0d32bd72cea9471babf74282600201546040516108fd9190611059565b60405180910390a25b5050610910611036565b5050565b60008311610957576040517f08c379a000000000000000000000000000000000000000000000000000000000815260040161094e90611b50565b60405180910390fd5b603c82101561099b576040517f08c379a000000000000000000000000000000000000000000000000000000000815260040161099290611bbc565b60405180910390fd5b828110156109de576040517f08c379a00000000000000000000000000000000000000000000000000000000081526004016109d590611c28565b60405180910390fd5b600160008154809291906109f190611c48565b9190505550604051806101000160405280600073ffffffffffffffffffffffffffffffffffffffff1681526020013373ffffffffffffffffffffffffffffffffffffffff16815260200184815260200183815260200182815260200160008152602001600081526020016000151581525060026000600154815260200190815260200160002060008201518160000160006101000a81548173ffffffffffffffffffffffffffffffffffffffff021916908373ffffffffffffffffffffffffffffffffffffffff16021790555060208201518160010160006101000a81548173ffffffffffffffffffffffffffffffffffffffff021916908373ffffffffffffffffffffffffffffffffffffffff16021790555060408201518160020155606082015181600301556080820151816004015560a0820151816005015560c0820151816006015560e08201518160070160006101000a81548160ff0219169083151502179055509050506001547f9dfd4372898f1ab4b7aab4735c5b8c07f64b72ef6f72e0da892265459fc1b86160405160405180910390a2505050565b60006002600084815260200190815260200160002090508060070160009054906101000a900460ff16610bf6576040517f08c379a0000000000000000000000000000000000000000000000000000000008152600401610bed90611cdc565b60405180910390fd5b8060010160009054906101000a900473ffffffffffffffffffffffffffffffffffffffff1673ffffffffffffffffffffffffffffffffffffffff163373ffffffffffffffffffffffffffffffffffffffff1614610c88576040517f08c379a0000000000000000000000000000000000000000000000000000000008152600401610c7f90611d48565b60405180910390fd5b600073ffffffffffffffffffffffffffffffffffffffff168273ffffffffffffffffffffffffffffffffffffffff1603610cf7576040517f08c379a0000000000000000000000000000000000000000000000000000000008152600401610cee90611db4565b60405180910390fd5b8060010160009054906101000a900473ffffffffffffffffffffffffffffffffffffffff1673ffffffffffffffffffffffffffffffffffffffff168273ffffffffffffffffffffffffffffffffffffffff1603610d89576040517f08c379a0000000000000000000000000000000000000000000000000000000008152600401610d8090611e20565b60405180910390fd5b60008160010160009054906101000a900473ffffffffffffffffffffffffffffffffffffffff169050828260010160006101000a81548173ffffffffffffffffffffffffffffffffffffffff021916908373ffffffffffffffffffffffffffffffffffffffff1602179055508273ffffffffffffffffffffffffffffffffffffffff168173ffffffffffffffffffffffffffffffffffffffff16857fa61d7b1eae34e89744b59e11899c644c1829b7dbac39f0dd73c510e16c77f3dd60405160405180910390a450505050565b6e22d473030f116ddee9f6b43ac78ba381565b600060606000600190505b6001548111610f0f5760006002600083815260200190815260200160002090508060070160009054906101000a900460ff168015610eb9575080600401548160050154105b8015610ec9575080600601544210155b15610efb57600182604051602001610ee19190611059565b604051602081830303815290604052935093505050610f27565b508080610f0790611c48565b915050610e74565b50600060405180602001604052806000815250915091505b9250929050565b60026020528060005260406000206000915090508060000160009054906101000a900473ffffffffffffffffffffffffffffffffffffffff16908060010160009054906101000a900473ffffffffffffffffffffffffffffffffffffffff16908060020154908060030154908060040154908060050154908060060154908060070160009054906101000a900460ff16905088565b7f000000000000000000000000000000000000000000000000000000000000000081565b60026000540361102c576040517f08c379a000000000000000000000000000000000000000000000000000000000815260040161102390611e8c565b60405180910390fd5b6002600081905550565b6001600081905550565b6000819050919050565b61105381611040565b82525050565b600060208201905061106e600083018461104a565b92915050565b600080fd5b600080fd5b61108781611040565b811461109257600080fd5b50565b6000813590506110a48161107e565b92915050565b600073ffffffffffffffffffffffffffffffffffffffff82169050919050565b6110d3816110aa565b81146110de57600080fd5b50565b6000813590506110f0816110ca565b92915050565b600080fd5b600060c08284031215611111576111106110f6565b5b81905092915050565b600080fd5b600080fd5b600080fd5b60008083601f84011261113f5761113e61111a565b5b8235905067ffffffffffffffff81111561115c5761115b61111f565b5b60208301915083600182028301111561117857611177611124565b5b9250929050565b6000806000806000610120868803121561119c5761119b611074565b5b60006111aa88828901611095565b95505060206111bb888289016110e1565b94505060406111cc888289016110fb565b93505061010086013567ffffffffffffffff8111156111ee576111ed611079565b5b6111fa88828901611129565b92509250509295509295909350565b600080602083850312156112205761121f611074565b5b600083013567ffffffffffffffff81111561123e5761123d611079565b5b61124a85828601611129565b92509250509250929050565b60008060006060848603121561126f5761126e611074565b5b600061127d86828701611095565b935050602061128e86828701611095565b925050604061129f86828701611095565b9150509250925092565b60006112b4826110aa565b9050919050565b6112c4816112a9565b81146112cf57600080fd5b50565b6000813590506112e1816112bb565b92915050565b600080604083850312156112fe576112fd611074565b5b600061130c85828601611095565b925050602061131d858286016112d2565b9150509250929050565b611330816112a9565b82525050565b600060208201905061134b6000830184611327565b92915050565b60008115159050919050565b61136681611351565b82525050565b600081519050919050565b600082825260208201905092915050565b60005b838110156113a657808201518184015260208101905061138b565b60008484015250505050565b6000601f19601f8301169050919050565b60006113ce8261136c565b6113d88185611377565b93506113e8818560208601611388565b6113f1816113b2565b840191505092915050565b6000604082019050611411600083018561135d565b818103602083015261142381846113c3565b90509392505050565b60006020828403121561144257611441611074565b5b600061145084828501611095565b91505092915050565b60006101008201905061146f600083018b611327565b61147c602083018a611327565b611489604083018961104a565b611496606083018861104a565b6114a3608083018761104a565b6114b060a083018661104a565b6114bd60c083018561104a565b6114ca60e083018461135d565b9998505050505050505050565b600082825260208201905092915050565b7f496e76616c696420706c616e0000000000000000000000000000000000000000600082015250565b600061151e600c836114d7565b9150611529826114e8565b602082019050919050565b6000602082019050818103600083015261154d81611511565b9050919050565b7f416c726561647920616374697665000000000000000000000000000000000000600082015250565b600061158a600e836114d7565b915061159582611554565b602082019050919050565b600060208201905081810360008301526115b98161157d565b9050919050565b6000602082840312156115d6576115d5611074565b5b60006115e4848285016110e1565b91505092915050565b7f5065726d697420616d6f756e74203c20746f74616c20454d4900000000000000600082015250565b60006116236019836114d7565b915061162e826115ed565b602082019050919050565b6000602082019050818103600083015261165281611616565b9050919050565b60006020828403121561166f5761166e611074565b5b600061167d848285016112d2565b91505092915050565b7f55534454206f6e6c790000000000000000000000000000000000000000000000600082015250565b60006116bc6009836114d7565b91506116c782611686565b602082019050919050565b600060208201905081810360008301526116eb816116af565b9050919050565b7f426164207370656e646572000000000000000000000000000000000000000000600082015250565b6000611728600b836114d7565b9150611733826116f2565b602082019050919050565b600060208201905081810360008301526117578161171b565b9050919050565b600082905092915050565b600061177860208401846112d2565b905092915050565b611789816112a9565b82525050565b600061179e60208401846110e1565b905092915050565b6117af816110aa565b82525050565b600065ffffffffffff82169050919050565b6117d0816117b5565b81146117db57600080fd5b50565b6000813590506117ed816117c7565b92915050565b600061180260208401846117de565b905092915050565b611813816117b5565b82525050565b6080820161182a6000830183611769565b6118376000850182611780565b50611845602083018361178f565b61185260208501826117a6565b5061186060408301836117f3565b61186d604085018261180a565b5061187b60608301836117f3565b611888606085018261180a565b50505050565b600061189d6020840184611095565b905092915050565b6118ae81611040565b82525050565b60c082016118c5600083018361175e565b6118d26000850182611819565b506118e06080830183611769565b6118ed6080850182611780565b506118fb60a083018361188e565b61190860a08501826118a5565b50505050565b82818337600083830152505050565b60006119298385611377565b935061193683858461190e565b61193f836113b2565b840190509392505050565b6000610100820190506119606000830187611327565b61196d60208301866118b4565b81810360e083015261198081848661191d565b905095945050505050565b611994816110aa565b82525050565b60006080820190506119af6000830187611327565b6119bc6020830186611327565b6119c9604083018561198b565b6119d66060830184611327565b95945050505050565b6000819050919050565b6000611a046119ff6119fa846110aa565b6119df565b611040565b9050919050565b611a14816119e9565b82525050565b6000602082019050611a2f6000830184611a0b565b92915050565b7f4e487b7100000000000000000000000000000000000000000000000000000000600052601160045260246000fd5b6000611a6f82611040565b9150611a7a83611040565b9250828201905080821115611a9257611a91611a35565b5b92915050565b7f496e616374697665000000000000000000000000000000000000000000000000600082015250565b6000611ace6008836114d7565b9150611ad982611a98565b602082019050919050565b60006020820190508181036000830152611afd81611ac1565b9050919050565b7f496e76616c696420454d49000000000000000000000000000000000000000000600082015250565b6000611b3a600b836114d7565b9150611b4582611b04565b602082019050919050565b60006020820190508181036000830152611b6981611b2d565b9050919050565b7f4d696e2036307300000000000000000000000000000000000000000000000000600082015250565b6000611ba66007836114d7565b9150611bb182611b70565b602082019050919050565b60006020820190508181036000830152611bd581611b99565b9050919050565b7f546f74616c203c20454d49000000000000000000000000000000000000000000600082015250565b6000611c12600b836114d7565b9150611c1d82611bdc565b602082019050919050565b60006020820190508181036000830152611c4181611c05565b9050919050565b6000611c5382611040565b91507fffffffffffffffffffffffffffffffffffffffffffffffffffffffffffffffff8203611c8557611c84611a35565b5b600182019050919050565b7f506c616e206e6f74206163746976650000000000000000000000000000000000600082015250565b6000611cc6600f836114d7565b9150611cd182611c90565b602082019050919050565b60006020820190508181036000830152611cf581611cb9565b9050919050565b7f4f6e6c792072656365697665722063616e207570646174650000000000000000600082015250565b6000611d326018836114d7565b9150611d3d82611cfc565b602082019050919050565b60006020820190508181036000830152611d6181611d25565b9050919050565b7f496e76616c696420616464726573730000000000000000000000000000000000600082015250565b6000611d9e600f836114d7565b9150611da982611d68565b602082019050919050565b60006020820190508181036000830152611dcd81611d91565b9050919050565b7f53616d6520726563656976657200000000000000000000000000000000000000600082015250565b6000611e0a600d836114d7565b9150611e1582611dd4565b602082019050919050565b60006020820190508181036000830152611e3981611dfd565b9050919050565b7f5265656e7472616e637947756172643a207265656e7472616e742063616c6c00600082015250565b6000611e76601f836114d7565b9150611e8182611e40565b602082019050919050565b60006020820190508181036000830152611ea581611e69565b905091905056fea264697066735822122006351b729aa13b660f22c4231d8d70e8d0e2ca2048c2721925daf145b77ffb6f64736f6c63430008140033",
  "linkReferences": {},
  "deployedLinkReferences": {}
}