{
  "_format": "hh-sol-artifact-1",
  "contractName": "EmiAutoPayETH",
  "sourceName": "contracts/EmiAutoPayEVM.sol",
  "abi": [
    {
      "anonymous": false,
      "inputs": [
        {
          "indexed": true,
          "internalType": "uint256",
          "name": "planId",
          "type": "uint256"
        }
      ],
      "name": "EmiCompleted",
      "type": "event"
    },
    {
      "anonymous": false,
      "inputs": [
        {
          "indexed": true,
          "internalType": "uint256",
          "name": "planId",
          "type": "uint256"
        },
        {
          "indexed": false,
          "internalType": "uint256",
          "name": "amount",
          "type": "uint256"
        }
      ],
      "name": "EmiPaid",
      "type": "event"
    },
    {
      "anonymous": false,
      "inputs": [
        {
          "indexed": true,
          "internalType": "uint256",
          "name": "planId",
          "type": "uint256"
        },
        {
          "indexed": false,
          "internalType": "address",
          "name": "sender",
          "type": "address"
        }
      ],
      "name": "PlanActivated",
      "type": "event"
    },
    {
      "anonymous": false,
      "inputs": [
        {
          "indexed": true,
          "internalType": "uint256",
          "name": "planId",
          "type": "uint256"
        }
      ],
      "name": "PlanCreated",
      "type": "event"
    },
    {
      "inputs": [
        {
          "internalType": "uint256",
          "name": "planId",
          "type": "uint256"
        }
      ],
      "name": "activatePlan",
      "outputs": [],
      "stateMutability": "payable",
      "type": "function"
    },
    {
      "inputs": [
        {
          "internalType": "bytes",
          "name": "",
          "type": "bytes"
        }
      ],
      "name": "checkUpkeep",
      "outputs": [
        {
          "internalType": "bool",
          "name": "upkeepNeeded",
          "type": "bool"
        },
        {
          "internalType": "bytes",
          "name": "performData",
          "type": "bytes"
        }
      ],
      "stateMutability": "view",
      "type": "function"
    },
    {
      "inputs": [
        {
          "internalType": "uint256",
          "name": "emi",
          "type": "uint256"
        },
        {
          "internalType": "uint256",
          "name": "interval",
          "type": "uint256"
        },
        {
          "internalType": "uint256",
          "name": "total",
          "type": "uint256"
        }
      ],
      "name": "createPlan",
      "outputs": [],
      "stateMutability": "nonpayable",
      "type": "function"
    },
    {
      "inputs": [
        {
          "internalType": "bytes",
          "name": "data",
          "type": "bytes"
        }
      ],
      "name": "performUpkeep",
      "outputs": [],
      "stateMutability": "nonpayable",
      "type": "function"
    },
    {
      "inputs": [],
      "name": "planCount",
      "outputs": [
        {
          "internalType": "uint256",
          "name": "",
          "type": "uint256"
        }
      ],
      "stateMutability": "view",
      "type": "function"
    },
    {
      "inputs": [
        {
          "internalType": "uint256",
          "name": "",
          "type": "uint256"
        }
      ],
      "name": "plans",
      "outputs": [
        {
          "internalType": "address payable",
          "name": "sender",
          "type": "address"
        },
        {
          "internalType": "address payable",
          "name": "receiver",
          "type": "address"
        },
        {
          "internalType": "uint256",
          "name": "emi",
          "type": "uint256"
        },
        {
          "internalType": "uint256",
          "name": "interval",
          "type": "uint256"
        },
        {
          "internalType": "uint256",
          "name": "total",
          "type": "uint256"
        },
        {
          "internalType": "uint256",
          "name": "paid",
          "type": "uint256"
        },
        {
          "internalType": "uint256",
          "name": "nextPay",
          "type": "uint256"
        },
        {
          "internalType": "bool",
          "name": "active",
          "type": "bool"
        }
      ],
      "stateMutability": "view",
      "type": "function"
    },
    {
      "stateMutability": "payable",
      "type": "receive"
    }
  ],
  "bytecode": "0x608060405234801561001057600080fd5b506001600081905550611358806100286000396000f3fe6080604052600436106100595760003560e01c8063382d39bb146100655780634585e33b146100905780634aec7384146100b95780636e04ff0d146100e2578063b162061614610120578063d4ea9e621461016457610060565b3661006057005b600080fd5b34801561007157600080fd5b5061007a610180565b6040516100879190610afb565b60405180910390f35b34801561009c57600080fd5b506100b760048036038101906100b29190610b85565b610186565b005b3480156100c557600080fd5b506100e060048036038101906100db9190610bfe565b6103cb565b005b3480156100ee57600080fd5b5061010960048036038101906101049190610b85565b610645565b604051610117929190610cfc565b60405180910390f35b34801561012c57600080fd5b5061014760048036038101906101429190610d2c565b61072f565b60405161015b989796959493929190610d9a565b60405180910390f35b61017e60048036038101906101799190610d2c565b6107c4565b005b60015481565b61018e610a89565b60008282905003156103bf57600082828101906101ab9190610d2c565b905060006002600083815260200190815260200160002090508060070160009054906101000a900460ff16610215576040517f08c379a000000000000000000000000000000000000000000000000000000000815260040161020c90610e75565b60405180910390fd5b60008160000160009054906101000a900473ffffffffffffffffffffffffffffffffffffffff1673ffffffffffffffffffffffffffffffffffffffff16826002015460405161026390610ec6565b60006040518083038185875af1925050503d80600081146102a0576040519150601f19603f3d011682016040523d82523d6000602084013e6102a5565b606091505b50509050806102e9576040517f08c379a00000000000000000000000000000000000000000000000000000000081526004016102e090610f27565b60405180910390fd5b81600201548260050160008282546103019190610f76565b9250508190555081600401548260050154106103665760008260070160006101000a81548160ff021916908315150217905550827f5417900f2b30001c152939c30dea707712a1b6254728bc12c5bf0137cb36e9a060405160405180910390a26103bb565b8160030154426103769190610f76565b8260060181905550827f06e59a6ee972bbd5f5b1932131f47641231aa73d1b0d32bd72cea9471babf74283600201546040516103b29190610afb565b60405180910390a25b5050505b6103c7610ad8565b5050565b6000831161040e576040517f08c379a000000000000000000000000000000000000000000000000000000000815260040161040590610ff6565b60405180910390fd5b603c821015610452576040517f08c379a000000000000000000000000000000000000000000000000000000000815260040161044990611062565b60405180910390fd5b82811015610495576040517f08c379a000000000000000000000000000000000000000000000000000000000815260040161048c906110ce565b60405180910390fd5b600160008154809291906104a8906110ee565b9190505550604051806101000160405280600073ffffffffffffffffffffffffffffffffffffffff1681526020013373ffffffffffffffffffffffffffffffffffffffff16815260200184815260200183815260200182815260200160008152602001600081526020016000151581525060026000600154815260200190815260200160002060008201518160000160006101000a81548173ffffffffffffffffffffffffffffffffffffffff021916908373ffffffffffffffffffffffffffffffffffffffff16021790555060208201518160010160006101000a81548173ffffffffffffffffffffffffffffffffffffffff021916908373ffffffffffffffffffffffffffffffffffffffff16021790555060408201518160020155606082015181600301556080820151816004015560a0820151816005015560c0820151816006015560e08201518160070160006101000a81548160ff0219169083151502179055509050506001547f9dfd4372898f1ab4b7aab4735c5b8c07f64b72ef6f72e0da892265459fc1b86160405160405180910390a2505050565b6000606060006001540361066e5760006040518060200160405280600081525091509150610728565b6000600190505b60015481116107105760006002600083815260200190815260200160002090508060070160009054906101000a900460ff1680156106ba575080600401548160050154105b80156106ca575080600601544210155b156106fc576001826040516020016106e29190610afb565b604051602081830303815290604052935093505050610728565b508080610708906110ee565b915050610675565b50600060405180602001604052806000815250915091505b9250929050565b60026020528060005260406000206000915090508060000160009054906101000a900473ffffffffffffffffffffffffffffffffffffffff16908060010160009054906101000a900473ffffffffffffffffffffffffffffffffffffffff16908060020154908060030154908060040154908060050154908060060154908060070160009054906101000a900460ff16905088565b6107cc610a89565b6000600260008381526020019081526020016000209050600073ffffffffffffffffffffffffffffffffffffffff168160010160009054906101000a900473ffffffffffffffffffffffffffffffffffffffff1673ffffffffffffffffffffffffffffffffffffffff1603610876576040517f08c379a000000000000000000000000000000000000000000000000000000000815260040161086d90611182565b60405180910390fd5b8060070160009054906101000a900460ff16156108c8576040517f08c379a00000000000000000000000000000000000000000000000000000000081526004016108bf906111ee565b60405180910390fd5b806002015434101561090f576040517f08c379a00000000000000000000000000000000000000000000000000000000081526004016109069061125a565b60405180910390fd5b338160000160006101000a81548173ffffffffffffffffffffffffffffffffffffffff021916908373ffffffffffffffffffffffffffffffffffffffff160217905550348160050160008282546109669190610f76565b925050819055508060010160009054906101000a900473ffffffffffffffffffffffffffffffffffffffff1673ffffffffffffffffffffffffffffffffffffffff166108fc349081150290604051600060405180830381858888f193505050501580156109d7573d6000803e3d6000fd5b50817f06e59a6ee972bbd5f5b1932131f47641231aa73d1b0d32bd72cea9471babf74234604051610a089190610afb565b60405180910390a260018160070160006101000a81548160ff021916908315150217905550806003015442610a3d9190610f76565b8160060181905550817f1f07c729fc76534d72c9e3ad0a792bf34de515a8aabc1a61bd40c2a2bd72ad8833604051610a75919061129b565b60405180910390a250610a86610ad8565b50565b600260005403610ace576040517f08c379a0000000000000000000000000000000000000000000000000000000008152600401610ac590611302565b60405180910390fd5b6002600081905550565b6001600081905550565b6000819050919050565b610af581610ae2565b82525050565b6000602082019050610b106000830184610aec565b92915050565b600080fd5b600080fd5b600080fd5b600080fd5b600080fd5b60008083601f840112610b4557610b44610b20565b5b8235905067ffffffffffffffff811115610b6257610b61610b25565b5b602083019150836001820283011115610b7e57610b7d610b2a565b5b9250929050565b60008060208385031215610b9c57610b9b610b16565b5b600083013567ffffffffffffffff811115610bba57610bb9610b1b565b5b610bc685828601610b2f565b92509250509250929050565b610bdb81610ae2565b8114610be657600080fd5b50565b600081359050610bf881610bd2565b92915050565b600080600060608486031215610c1757610c16610b16565b5b6000610c2586828701610be9565b9350506020610c3686828701610be9565b9250506040610c4786828701610be9565b9150509250925092565b60008115159050919050565b610c6681610c51565b82525050565b600081519050919050565b600082825260208201905092915050565b60005b83811015610ca6578082015181840152602081019050610c8b565b60008484015250505050565b6000601f19601f8301169050919050565b6000610cce82610c6c565b610cd88185610c77565b9350610ce8818560208601610c88565b610cf181610cb2565b840191505092915050565b6000604082019050610d116000830185610c5d565b8181036020830152610d238184610cc3565b90509392505050565b600060208284031215610d4257610d41610b16565b5b6000610d5084828501610be9565b91505092915050565b600073ffffffffffffffffffffffffffffffffffffffff82169050919050565b6000610d8482610d59565b9050919050565b610d9481610d79565b82525050565b600061010082019050610db0600083018b610d8b565b610dbd602083018a610d8b565b610dca6040830189610aec565b610dd76060830188610aec565b610de46080830187610aec565b610df160a0830186610aec565b610dfe60c0830185610aec565b610e0b60e0830184610c5d565b9998505050505050505050565b600082825260208201905092915050565b7f496e616374697665000000000000000000000000000000000000000000000000600082015250565b6000610e5f600883610e18565b9150610e6a82610e29565b602082019050919050565b60006020820190508181036000830152610e8e81610e52565b9050919050565b600081905092915050565b50565b6000610eb0600083610e95565b9150610ebb82610ea0565b600082019050919050565b6000610ed182610ea3565b9150819050919050565b7f455448207472616e73666572206661696c656400000000000000000000000000600082015250565b6000610f11601383610e18565b9150610f1c82610edb565b602082019050919050565b60006020820190508181036000830152610f4081610f04565b9050919050565b7f4e487b7100000000000000000000000000000000000000000000000000000000600052601160045260246000fd5b6000610f8182610ae2565b9150610f8c83610ae2565b9250828201905080821115610fa457610fa3610f47565b5b92915050565b7f496e76616c696420454d49000000000000000000000000000000000000000000600082015250565b6000610fe0600b83610e18565b9150610feb82610faa565b602082019050919050565b6000602082019050818103600083015261100f81610fd3565b9050919050565b7f4d696e2036307300000000000000000000000000000000000000000000000000600082015250565b600061104c600783610e18565b915061105782611016565b602082019050919050565b6000602082019050818103600083015261107b8161103f565b9050919050565b7f546f74616c203c20454d49000000000000000000000000000000000000000000600082015250565b60006110b8600b83610e18565b91506110c382611082565b602082019050919050565b600060208201905081810360008301526110e7816110ab565b9050919050565b60006110f982610ae2565b91507fffffffffffffffffffffffffffffffffffffffffffffffffffffffffffffffff820361112b5761112a610f47565b5b600182019050919050565b7f496e76616c696420706c616e0000000000000000000000000000000000000000600082015250565b600061116c600c83610e18565b915061117782611136565b602082019050919050565b6000602082019050818103600083015261119b8161115f565b9050919050565b7f416c726561647920616374697665000000000000000000000000000000000000600082015250565b60006111d8600e83610e18565b91506111e3826111a2565b602082019050919050565b60006020820190508181036000830152611207816111cb565b9050919050565b7f53656e64206174206c65617374203120454d4900000000000000000000000000600082015250565b6000611244601383610e18565b915061124f8261120e565b602082019050919050565b6000602082019050818103600083015261127381611237565b9050919050565b600061128582610d59565b9050919050565b6112958161127a565b82525050565b60006020820190506112b0600083018461128c565b92915050565b7f5265656e7472616e637947756172643a207265656e7472616e742063616c6c00600082015250565b60006112ec601f83610e18565b91506112f7826112b6565b602082019050919050565b6000602082019050818103600083015261131b816112df565b905091905056fea26469706673582212209e0d46fa6bc2cf734482b3e6883303703b2b4fe3734644f82e10c11d7d58049364736f6c63430008140033",
  "linkReferences": {},
  "deployedLinkReferences": {}
}