{
  "_format": "hh-sol-artifact-1",
  "contractName": "EmiAutoPayRaw",
  "sourceName": "contracts/EmiAutoPayEVM.sol",
  "abi": [
    {
      "inputs": [
        {
          "internalType": "address",
          "name": "_usdt",
          "type": "address"
        }
      ],
      "stateMutability": "nonpayable",
      "type": "constructor"
    },
    {
      "anonymous": false,
      "inputs": [
        {
          "indexed": true,
          "internalType": "uint256",
          "name": "planId",
          "type": "uint256"
        }
      ],
      "name": "EmiCompleted",
      "type": "event"
    },
    {
      "anonymous": false,
      "inputs": [
        {
          "indexed": true,
          "internalType": "uint256",
          "name": "planId",
          "type": "uint256"
        },
        {
          "indexed": false,
          "internalType": "uint256",
          "name": "amount",
          "type": "uint256"
        }
      ],
      "name": "EmiPaid",
      "type": "event"
    },
    {
      "anonymous": false,
      "inputs": [
        {
          "indexed": true,
          "internalType": "uint256",
          "name": "planId",
          "type": "uint256"
        },
        {
          "indexed": false,
          "internalType": "address",
          "name": "sender",
          "type": "address"
        }
      ],
      "name": "PlanActivated",
      "type": "event"
    },
    {
      "anonymous": false,
      "inputs": [
        {
          "indexed": true,
          "internalType": "uint256",
          "name": "planId",
          "type": "uint256"
        }
      ],
      "name": "PlanCreated",
      "type": "event"
    },
    {
      "inputs": [],
      "name": "USDT",
      "outputs": [
        {
          "internalType": "address",
          "name": "",
          "type": "address"
        }
      ],
      "stateMutability": "view",
      "type": "function"
    },
    {
      "inputs": [
        {
          "internalType": "uint256",
          "name": "planId",
          "type": "uint256"
        },
        {
          "internalType": "uint256",
          "name": "activationAmount",
          "type": "uint256"
        }
      ],
      "name": "activatePlan",
      "outputs": [],
      "stateMutability": "nonpayable",
      "type": "function"
    },
    {
      "inputs": [
        {
          "internalType": "bytes",
          "name": "",
          "type": "bytes"
        }
      ],
      "name": "checkUpkeep",
      "outputs": [
        {
          "internalType": "bool",
          "name": "upkeepNeeded",
          "type": "bool"
        },
        {
          "internalType": "bytes",
          "name": "performData",
          "type": "bytes"
        }
      ],
      "stateMutability": "view",
      "type": "function"
    },
    {
      "inputs": [
        {
          "internalType": "uint256",
          "name": "emi",
          "type": "uint256"
        },
        {
          "internalType": "uint256",
          "name": "interval",
          "type": "uint256"
        },
        {
          "internalType": "uint256",
          "name": "total",
          "type": "uint256"
        }
      ],
      "name": "createPlan",
      "outputs": [],
      "stateMutability": "nonpayable",
      "type": "function"
    },
    {
      "inputs": [
        {
          "internalType": "bytes",
          "name": "data",
          "type": "bytes"
        }
      ],
      "name": "performUpkeep",
      "outputs": [],
      "stateMutability": "nonpayable",
      "type": "function"
    },
    {
      "inputs": [],
      "name": "planCount",
      "outputs": [
        {
          "internalType": "uint256",
          "name": "",
          "type": "uint256"
        }
      ],
      "stateMutability": "view",
      "type": "function"
    },
    {
      "inputs": [
        {
          "internalType": "uint256",
          "name": "",
          "type": "uint256"
        }
      ],
      "name": "plans",
      "outputs": [
        {
          "internalType": "address",
          "name": "sender",
          "type": "address"
        },
        {
          "internalType": "address",
          "name": "receiver",
          "type": "address"
        },
        {
          "internalType": "uint256",
          "name": "emi",
          "type": "uint256"
        },
        {
          "internalType": "uint256",
          "name": "interval",
          "type": "uint256"
        },
        {
          "internalType": "uint256",
          "name": "total",
          "type": "uint256"
        },
        {
          "internalType": "uint256",
          "name": "paid",
          "type": "uint256"
        },
        {
          "internalType": "uint256",
          "name": "nextPay",
          "type": "uint256"
        },
        {
          "internalType": "bool",
          "name": "active",
          "type": "bool"
        }
      ],
      "stateMutability": "view",
      "type": "function"
    }
  ],
  "bytecode": "0x60806040523480156200001157600080fd5b50604051620015c7380380620015c7833981810160405281019062000037919062000122565b6001600081905550600073ffffffffffffffffffffffffffffffffffffffff168173ffffffffffffffffffffffffffffffffffffffff1603620000b1576040517f08c379a0000000000000000000000000000000000000000000000000000000008152600401620000a890620001b5565b60405180910390fd5b50620001d7565b600080fd5b600073ffffffffffffffffffffffffffffffffffffffff82169050919050565b6000620000ea82620000bd565b9050919050565b620000fc81620000dd565b81146200010857600080fd5b50565b6000815190506200011c81620000f1565b92915050565b6000602082840312156200013b576200013a620000b8565b5b60006200014b848285016200010b565b91505092915050565b600082825260208201905092915050565b7f496e76616c696420555344540000000000000000000000000000000000000000600082015250565b60006200019d600c8362000154565b9150620001aa8262000165565b602082019050919050565b60006020820190508181036000830152620001d0816200018e565b9050919050565b6113e080620001e76000396000f3fe608060405234801561001057600080fd5b506004361061007d5760003560e01c80636e04ff0d1161005b5780636e04ff0d146100d8578063b162061614610109578063c54e44eb14610140578063cf16fd201461015e5761007d565b8063382d39bb146100825780634585e33b146100a05780634aec7384146100bc575b600080fd5b61008a61017a565b6040516100979190610b8c565b60405180910390f35b6100ba60048036038101906100b59190610c16565b610180565b005b6100d660048036038101906100d19190610c8f565b61035c565b005b6100f260048036038101906100ed9190610c16565b6105d6565b604051610100929190610d8d565b60405180910390f35b610123600480360381019061011e9190610dbd565b6106c0565b604051610137989796959493929190610e2b565b60405180910390f35b610148610755565b6040516101559190610ea9565b60405180910390f35b61017860048036038101906101739190610ec4565b61076d565b005b60015481565b6101886109cf565b600082829050031561035057600082828101906101a59190610dbd565b905060006002600083815260200190815260200160002090508060070160009054906101000a900460ff1661020f576040517f08c379a000000000000000000000000000000000000000000000000000000000815260040161020690610f61565b60405180910390fd5b61027b73dac17f958d2ee523a2206206994597c13d831ec78260000160009054906101000a900473ffffffffffffffffffffffffffffffffffffffff168360010160009054906101000a900473ffffffffffffffffffffffffffffffffffffffff168460020154610a1e565b80600201548160050160008282546102939190610fb0565b9250508190555080600401548160050154106102f85760008160070160006101000a81548160ff021916908315150217905550817f5417900f2b30001c152939c30dea707712a1b6254728bc12c5bf0137cb36e9a060405160405180910390a261034d565b8060030154426103089190610fb0565b8160060181905550817f06e59a6ee972bbd5f5b1932131f47641231aa73d1b0d32bd72cea9471babf74282600201546040516103449190610b8c565b60405180910390a25b50505b610358610b69565b5050565b6000831161039f576040517f08c379a000000000000000000000000000000000000000000000000000000000815260040161039690611030565b60405180910390fd5b603c8210156103e3576040517f08c379a00000000000000000000000000000000000000000000000000000000081526004016103da9061109c565b60405180910390fd5b82811015610426576040517f08c379a000000000000000000000000000000000000000000000000000000000815260040161041d90611108565b60405180910390fd5b6001600081548092919061043990611128565b9190505550604051806101000160405280600073ffffffffffffffffffffffffffffffffffffffff1681526020013373ffffffffffffffffffffffffffffffffffffffff16815260200184815260200183815260200182815260200160008152602001600081526020016000151581525060026000600154815260200190815260200160002060008201518160000160006101000a81548173ffffffffffffffffffffffffffffffffffffffff021916908373ffffffffffffffffffffffffffffffffffffffff16021790555060208201518160010160006101000a81548173ffffffffffffffffffffffffffffffffffffffff021916908373ffffffffffffffffffffffffffffffffffffffff16021790555060408201518160020155606082015181600301556080820151816004015560a0820151816005015560c0820151816006015560e08201518160070160006101000a81548160ff0219169083151502179055509050506001547f9dfd4372898f1ab4b7aab4735c5b8c07f64b72ef6f72e0da892265459fc1b86160405160405180910390a2505050565b600060606000600154036105ff57600060405180602001604052806000815250915091506106b9565b6000600190505b60015481116106a15760006002600083815260200190815260200160002090508060070160009054906101000a900460ff16801561064b575080600401548160050154105b801561065b575080600601544210155b1561068d576001826040516020016106739190610b8c565b6040516020818303038152906040529350935050506106b9565b50808061069990611128565b915050610606565b50600060405180602001604052806000815250915091505b9250929050565b60026020528060005260406000206000915090508060000160009054906101000a900473ffffffffffffffffffffffffffffffffffffffff16908060010160009054906101000a900473ffffffffffffffffffffffffffffffffffffffff16908060020154908060030154908060040154908060050154908060060154908060070160009054906101000a900460ff16905088565b73dac17f958d2ee523a2206206994597c13d831ec781565b6107756109cf565b6000600260008481526020019081526020016000209050600073ffffffffffffffffffffffffffffffffffffffff168160010160009054906101000a900473ffffffffffffffffffffffffffffffffffffffff1673ffffffffffffffffffffffffffffffffffffffff160361081f576040517f08c379a0000000000000000000000000000000000000000000000000000000008152600401610816906111bc565b60405180910390fd5b8060070160009054906101000a900460ff1615610871576040517f08c379a000000000000000000000000000000000000000000000000000000000815260040161086890611228565b60405180910390fd5b338160000160006101000a81548173ffffffffffffffffffffffffffffffffffffffff021916908373ffffffffffffffffffffffffffffffffffffffff16021790555060008211156109555761090173dac17f958d2ee523a2206206994597c13d831ec7338360010160009054906101000a900473ffffffffffffffffffffffffffffffffffffffff1685610a1e565b818160050160008282546109159190610fb0565b92505081905550827f06e59a6ee972bbd5f5b1932131f47641231aa73d1b0d32bd72cea9471babf7428360405161094c9190610b8c565b60405180910390a25b60018160070160006101000a81548160ff0219169083151502179055508060030154426109829190610fb0565b8160060181905550827f1f07c729fc76534d72c9e3ad0a792bf34de515a8aabc1a61bd40c2a2bd72ad88336040516109ba9190610ea9565b60405180910390a2506109cb610b69565b5050565b600260005403610a14576040517f08c379a0000000000000000000000000000000000000000000000000000000008152600401610a0b90611294565b60405180910390fd5b6002600081905550565b6000838383604051602401610a35939291906112b4565b6040516020818303038152906040527f23b872dd000000000000000000000000000000000000000000000000000000007bffffffffffffffffffffffffffffffffffffffffffffffffffffffff19166020820180517bffffffffffffffffffffffffffffffffffffffffffffffffffffffff8381831617835250505050905060008573ffffffffffffffffffffffffffffffffffffffff1682604051610adb9190611327565b6000604051808303816000865af19150503d8060008114610b18576040519150601f19603f3d011682016040523d82523d6000602084013e610b1d565b606091505b5050905080610b61576040517f08c379a0000000000000000000000000000000000000000000000000000000008152600401610b589061138a565b60405180910390fd5b505050505050565b6001600081905550565b6000819050919050565b610b8681610b73565b82525050565b6000602082019050610ba16000830184610b7d565b92915050565b600080fd5b600080fd5b600080fd5b600080fd5b600080fd5b60008083601f840112610bd657610bd5610bb1565b5b8235905067ffffffffffffffff811115610bf357610bf2610bb6565b5b602083019150836001820283011115610c0f57610c0e610bbb565b5b9250929050565b60008060208385031215610c2d57610c2c610ba7565b5b600083013567ffffffffffffffff811115610c4b57610c4a610bac565b5b610c5785828601610bc0565b92509250509250929050565b610c6c81610b73565b8114610c7757600080fd5b50565b600081359050610c8981610c63565b92915050565b600080600060608486031215610ca857610ca7610ba7565b5b6000610cb686828701610c7a565b9350506020610cc786828701610c7a565b9250506040610cd886828701610c7a565b9150509250925092565b60008115159050919050565b610cf781610ce2565b82525050565b600081519050919050565b600082825260208201905092915050565b60005b83811015610d37578082015181840152602081019050610d1c565b60008484015250505050565b6000601f19601f8301169050919050565b6000610d5f82610cfd565b610d698185610d08565b9350610d79818560208601610d19565b610d8281610d43565b840191505092915050565b6000604082019050610da26000830185610cee565b8181036020830152610db48184610d54565b90509392505050565b600060208284031215610dd357610dd2610ba7565b5b6000610de184828501610c7a565b91505092915050565b600073ffffffffffffffffffffffffffffffffffffffff82169050919050565b6000610e1582610dea565b9050919050565b610e2581610e0a565b82525050565b600061010082019050610e41600083018b610e1c565b610e4e602083018a610e1c565b610e5b6040830189610b7d565b610e686060830188610b7d565b610e756080830187610b7d565b610e8260a0830186610b7d565b610e8f60c0830185610b7d565b610e9c60e0830184610cee565b9998505050505050505050565b6000602082019050610ebe6000830184610e1c565b92915050565b60008060408385031215610edb57610eda610ba7565b5b6000610ee985828601610c7a565b9250506020610efa85828601610c7a565b9150509250929050565b600082825260208201905092915050565b7f496e616374697665000000000000000000000000000000000000000000000000600082015250565b6000610f4b600883610f04565b9150610f5682610f15565b602082019050919050565b60006020820190508181036000830152610f7a81610f3e565b9050919050565b7f4e487b7100000000000000000000000000000000000000000000000000000000600052601160045260246000fd5b6000610fbb82610b73565b9150610fc683610b73565b9250828201905080821115610fde57610fdd610f81565b5b92915050565b7f496e76616c696420454d49000000000000000000000000000000000000000000600082015250565b600061101a600b83610f04565b915061102582610fe4565b602082019050919050565b600060208201905081810360008301526110498161100d565b9050919050565b7f4d696e2036307300000000000000000000000000000000000000000000000000600082015250565b6000611086600783610f04565b915061109182611050565b602082019050919050565b600060208201905081810360008301526110b581611079565b9050919050565b7f546f74616c203c20454d49000000000000000000000000000000000000000000600082015250565b60006110f2600b83610f04565b91506110fd826110bc565b602082019050919050565b60006020820190508181036000830152611121816110e5565b9050919050565b600061113382610b73565b91507fffffffffffffffffffffffffffffffffffffffffffffffffffffffffffffffff820361116557611164610f81565b5b600182019050919050565b7f496e76616c696420706c616e0000000000000000000000000000000000000000600082015250565b60006111a6600c83610f04565b91506111b182611170565b602082019050919050565b600060208201905081810360008301526111d581611199565b9050919050565b7f416c726561647920616374697665000000000000000000000000000000000000600082015250565b6000611212600e83610f04565b915061121d826111dc565b602082019050919050565b6000602082019050818103600083015261124181611205565b9050919050565b7f5265656e7472616e637947756172643a207265656e7472616e742063616c6c00600082015250565b600061127e601f83610f04565b915061128982611248565b602082019050919050565b600060208201905081810360008301526112ad81611271565b9050919050565b60006060820190506112c96000830186610e1c565b6112d66020830185610e1c565b6112e36040830184610b7d565b949350505050565b600081905092915050565b600061130182610cfd565b61130b81856112eb565b935061131b818560208601610d19565b80840191505092915050565b600061133382846112f6565b915081905092915050565b7f526177207472616e73666572206661696c656400000000000000000000000000600082015250565b6000611374601383610f04565b915061137f8261133e565b602082019050919050565b600060208201905081810360008301526113a381611367565b905091905056fea26469706673582212201c5951c8562e1bd45ee7f3d2e2b22bb5f245072cb6e99e4579f04e07d8b9c3c964736f6c63430008140033",
  "linkReferences": {},
  "deployedLinkReferences": {}
}