{
  "_format": "hh-sol-artifact-1",
  "contractName": "EmiAutoPayEVM",
  "sourceName": "contracts/EmiAutoPayEVM.sol",
  "abi": [
    {
      "inputs": [
        {
          "internalType": "address",
          "name": "_usdt",
          "type": "address"
        }
      ],
      "stateMutability": "nonpayable",
      "type": "constructor"
    },
    {
      "anonymous": false,
      "inputs": [
        {
          "indexed": true,
          "internalType": "uint256",
          "name": "planId",
          "type": "uint256"
        }
      ],
      "name": "EmiCompleted",
      "type": "event"
    },
    {
      "anonymous": false,
      "inputs": [
        {
          "indexed": true,
          "internalType": "uint256",
          "name": "planId",
          "type": "uint256"
        },
        {
          "indexed": false,
          "internalType": "uint256",
          "name": "amount",
          "type": "uint256"
        }
      ],
      "name": "EmiPaid",
      "type": "event"
    },
    {
      "anonymous": false,
      "inputs": [
        {
          "indexed": true,
          "internalType": "uint256",
          "name": "planId",
          "type": "uint256"
        },
        {
          "indexed": false,
          "internalType": "address",
          "name": "sender",
          "type": "address"
        }
      ],
      "name": "PlanActivated",
      "type": "event"
    },
    {
      "anonymous": false,
      "inputs": [
        {
          "indexed": true,
          "internalType": "uint256",
          "name": "planId",
          "type": "uint256"
        }
      ],
      "name": "PlanCreated",
      "type": "event"
    },
    {
      "anonymous": false,
      "inputs": [
        {
          "indexed": true,
          "internalType": "uint256",
          "name": "planId",
          "type": "uint256"
        },
        {
          "indexed": true,
          "internalType": "address",
          "name": "oldReceiver",
          "type": "address"
        },
        {
          "indexed": true,
          "internalType": "address",
          "name": "newReceiver",
          "type": "address"
        }
      ],
      "name": "ReceiverUpdated",
      "type": "event"
    },
    {
      "inputs": [],
      "name": "PERMIT2",
      "outputs": [
        {
          "internalType": "address",
          "name": "",
          "type": "address"
        }
      ],
      "stateMutability": "view",
      "type": "function"
    },
    {
      "inputs": [],
      "name": "USDT",
      "outputs": [
        {
          "internalType": "address",
          "name": "",
          "type": "address"
        }
      ],
      "stateMutability": "view",
      "type": "function"
    },
    {
      "inputs": [
        {
          "internalType": "uint256",
          "name": "planId",
          "type": "uint256"
        },
        {
          "internalType": "uint160",
          "name": "activationAmount",
          "type": "uint160"
        },
        {
          "components": [
            {
              "components": [
                {
                  "internalType": "address",
                  "name": "token",
                  "type": "address"
                },
                {
                  "internalType": "uint160",
                  "name": "amount",
                  "type": "uint160"
                },
                {
                  "internalType": "uint48",
                  "name": "expiration",
                  "type": "uint48"
                },
                {
                  "internalType": "uint48",
                  "name": "nonce",
                  "type": "uint48"
                }
              ],
              "internalType": "struct PermitDetails",
              "name": "details",
              "type": "tuple"
            },
            {
              "internalType": "address",
              "name": "spender",
              "type": "address"
            },
            {
              "internalType": "uint256",
              "name": "sigDeadline",
              "type": "uint256"
            }
          ],
          "internalType": "struct PermitSingle",
          "name": "permit",
          "type": "tuple"
        },
        {
          "internalType": "bytes",
          "name": "signature",
          "type": "bytes"
        }
      ],
      "name": "activatePlanWithPermit2AndPay",
      "outputs": [],
      "stateMutability": "nonpayable",
      "type": "function"
    },
    {
      "inputs": [
        {
          "internalType": "bytes",
          "name": "",
          "type": "bytes"
        }
      ],
      "name": "checkUpkeep",
      "outputs": [
        {
          "internalType": "bool",
          "name": "upkeepNeeded",
          "type": "bool"
        },
        {
          "internalType": "bytes",
          "name": "performData",
          "type": "bytes"
        }
      ],
      "stateMutability": "view",
      "type": "function"
    },
    {
      "inputs": [
        {
          "internalType": "uint256",
          "name": "emi",
          "type": "uint256"
        },
        {
          "internalType": "uint256",
          "name": "interval",
          "type": "uint256"
        },
        {
          "internalType": "uint256",
          "name": "total",
          "type": "uint256"
        }
      ],
      "name": "createPlan",
      "outputs": [],
      "stateMutability": "nonpayable",
      "type": "function"
    },
    {
      "inputs": [
        {
          "internalType": "bytes",
          "name": "data",
          "type": "bytes"
        }
      ],
      "name": "performUpkeep",
      "outputs": [],
      "stateMutability": "nonpayable",
      "type": "function"
    },
    {
      "inputs": [],
      "name": "planCount",
      "outputs": [
        {
          "internalType": "uint256",
          "name": "",
          "type": "uint256"
        }
      ],
      "stateMutability": "view",
      "type": "function"
    },
    {
      "inputs": [
        {
          "internalType": "uint256",
          "name": "",
          "type": "uint256"
        }
      ],
      "name": "plans",
      "outputs": [
        {
          "internalType": "address",
          "name": "sender",
          "type": "address"
        },
        {
          "internalType": "address",
          "name": "receiver",
          "type": "address"
        },
        {
          "internalType": "uint256",
          "name": "emi",
          "type": "uint256"
        },
        {
          "internalType": "uint256",
          "name": "interval",
          "type": "uint256"
        },
        {
          "internalType": "uint256",
          "name": "total",
          "type": "uint256"
        },
        {
          "internalType": "uint256",
          "name": "paid",
          "type": "uint256"
        },
        {
          "internalType": "uint256",
          "name": "nextPay",
          "type": "uint256"
        },
        {
          "internalType": "bool",
          "name": "active",
          "type": "bool"
        }
      ],
      "stateMutability": "view",
      "type": "function"
    }
  ],
  "bytecode": "0x60a06040523480156200001157600080fd5b5060405162001c9c38038062001c9c833981810160405281019062000037919062000156565b6001600081905550600073ffffffffffffffffffffffffffffffffffffffff168173ffffffffffffffffffffffffffffffffffffffff1603620000b1576040517f08c379a0000000000000000000000000000000000000000000000000000000008152600401620000a890620001e9565b60405180910390fd5b8073ffffffffffffffffffffffffffffffffffffffff1660808173ffffffffffffffffffffffffffffffffffffffff1681525050506200020b565b600080fd5b600073ffffffffffffffffffffffffffffffffffffffff82169050919050565b60006200011e82620000f1565b9050919050565b620001308162000111565b81146200013c57600080fd5b50565b600081519050620001508162000125565b92915050565b6000602082840312156200016f576200016e620000ec565b5b60006200017f848285016200013f565b91505092915050565b600082825260208201905092915050565b7f496e76616c696420555344540000000000000000000000000000000000000000600082015250565b6000620001d1600c8362000188565b9150620001de8262000199565b602082019050919050565b600060208201905081810360008301526200020481620001c2565b9050919050565b608051611a606200023c6000396000818161032101528181610578015281816107d40152610d330152611a606000f3fe608060405234801561001057600080fd5b50600436106100885760003560e01c80636afdd8501161005b5780636afdd850146100ff5780636e04ff0d1461011d578063b16206161461014e578063c54e44eb1461018557610088565b8063382d39bb1461008d57806342b132f1146100ab5780634585e33b146100c75780634aec7384146100e3575b600080fd5b6100956101a3565b6040516100a29190610dc7565b60405180910390f35b6100c560048036038101906100c09190610eed565b6101a9565b005b6100e160048036038101906100dc9190610f77565b61069e565b005b6100fd60048036038101906100f89190610fc4565b610925565b005b610107610b9f565b6040516101149190611038565b60405180910390f35b61013760048036038101906101329190610f77565b610bb2565b6040516101459291906110fe565b60405180910390f35b6101686004803603810190610163919061112e565b610c9c565b60405161017c98979695949392919061115b565b60405180910390f35b61018d610d31565b60405161019a9190611038565b60405180910390f35b60015481565b6101b1610d55565b6000600260008781526020019081526020016000209050600073ffffffffffffffffffffffffffffffffffffffff168160010160009054906101000a900473ffffffffffffffffffffffffffffffffffffffff1673ffffffffffffffffffffffffffffffffffffffff160361025b576040517f08c379a000000000000000000000000000000000000000000000000000000000815260040161025290611236565b60405180910390fd5b8060070160009054906101000a900460ff16156102ad576040517f08c379a00000000000000000000000000000000000000000000000000000000081526004016102a4906112a2565b60405180910390fd5b80600401548460000160200160208101906102c891906112c2565b73ffffffffffffffffffffffffffffffffffffffff16101561031f576040517f08c379a00000000000000000000000000000000000000000000000000000000081526004016103169061133b565b60405180910390fd5b7f000000000000000000000000000000000000000000000000000000000000000073ffffffffffffffffffffffffffffffffffffffff1684600001600001602081019061036c9190611387565b73ffffffffffffffffffffffffffffffffffffffff16146103c2576040517f08c379a00000000000000000000000000000000000000000000000000000000081526004016103b990611400565b60405180910390fd5b3073ffffffffffffffffffffffffffffffffffffffff168460800160208101906103ec9190611387565b73ffffffffffffffffffffffffffffffffffffffff1614610442576040517f08c379a00000000000000000000000000000000000000000000000000000000081526004016104399061146c565b60405180910390fd5b338160000160006101000a81548173ffffffffffffffffffffffffffffffffffffffff021916908373ffffffffffffffffffffffffffffffffffffffff1602179055506e22d473030f116ddee9f6b43ac78ba373ffffffffffffffffffffffffffffffffffffffff16632b67b570338686866040518563ffffffff1660e01b81526004016104d39493929190611678565b600060405180830381600087803b1580156104ed57600080fd5b505af1158015610501573d6000803e3d6000fd5b5050505060008573ffffffffffffffffffffffffffffffffffffffff161115610621576e22d473030f116ddee9f6b43ac78ba373ffffffffffffffffffffffffffffffffffffffff166336c78516338360010160009054906101000a900473ffffffffffffffffffffffffffffffffffffffff16887f00000000000000000000000000000000000000000000000000000000000000006040518563ffffffff1660e01b81526004016105b694939291906116c8565b600060405180830381600087803b1580156105d057600080fd5b505af11580156105e4573d6000803e3d6000fd5b50505050857f06e59a6ee972bbd5f5b1932131f47641231aa73d1b0d32bd72cea9471babf742866040516106189190611748565b60405180910390a25b60018160070160006101000a81548160ff02191690831515021790555080600301544261064e9190611792565b8160060181905550857f1f07c729fc76534d72c9e3ad0a792bf34de515a8aabc1a61bd40c2a2bd72ad88336040516106869190611038565b60405180910390a250610697610da4565b5050505050565b6106a6610d55565b600082829050031561091957600082828101906106c3919061112e565b9050600081036106d35750610919565b60006002600083815260200190815260200160002090508060070160009054906101000a900460ff16610707575050610919565b8060070160009054906101000a900460ff16610758576040517f08c379a000000000000000000000000000000000000000000000000000000000815260040161074f90611812565b60405180910390fd5b6e22d473030f116ddee9f6b43ac78ba373ffffffffffffffffffffffffffffffffffffffff166336c785168260000160009054906101000a900473ffffffffffffffffffffffffffffffffffffffff168360010160009054906101000a900473ffffffffffffffffffffffffffffffffffffffff1684600201547f00000000000000000000000000000000000000000000000000000000000000006040518563ffffffff1660e01b815260040161081294939291906116c8565b600060405180830381600087803b15801561082c57600080fd5b505af1158015610840573d6000803e3d6000fd5b50505050806002015481600501600082825461085c9190611792565b9250508190555080600401548160050154106108c15760008160070160006101000a81548160ff021916908315150217905550817f5417900f2b30001c152939c30dea707712a1b6254728bc12c5bf0137cb36e9a060405160405180910390a2610916565b8060030154426108d19190611792565b8160060181905550817f06e59a6ee972bbd5f5b1932131f47641231aa73d1b0d32bd72cea9471babf742826002015460405161090d9190610dc7565b60405180910390a25b50505b610921610da4565b5050565b60008311610968576040517f08c379a000000000000000000000000000000000000000000000000000000000815260040161095f9061187e565b60405180910390fd5b603c8210156109ac576040517f08c379a00000000000000000000000000000000000000000000000000000000081526004016109a3906118ea565b60405180910390fd5b828110156109ef576040517f08c379a00000000000000000000000000000000000000000000000000000000081526004016109e690611956565b60405180910390fd5b60016000815480929190610a0290611976565b9190505550604051806101000160405280600073ffffffffffffffffffffffffffffffffffffffff1681526020013373ffffffffffffffffffffffffffffffffffffffff16815260200184815260200183815260200182815260200160008152602001600081526020016000151581525060026000600154815260200190815260200160002060008201518160000160006101000a81548173ffffffffffffffffffffffffffffffffffffffff021916908373ffffffffffffffffffffffffffffffffffffffff16021790555060208201518160010160006101000a81548173ffffffffffffffffffffffffffffffffffffffff021916908373ffffffffffffffffffffffffffffffffffffffff16021790555060408201518160020155606082015181600301556080820151816004015560a0820151816005015560c0820151816006015560e08201518160070160006101000a81548160ff0219169083151502179055509050506001547f9dfd4372898f1ab4b7aab4735c5b8c07f64b72ef6f72e0da892265459fc1b86160405160405180910390a2505050565b6e22d473030f116ddee9f6b43ac78ba381565b60006060600060015403610bdb5760006040518060200160405280600081525091509150610c95565b6000600190505b6001548111610c7d5760006002600083815260200190815260200160002090508060070160009054906101000a900460ff168015610c27575080600401548160050154105b8015610c37575080600601544210155b15610c6957600182604051602001610c4f9190610dc7565b604051602081830303815290604052935093505050610c95565b508080610c7590611976565b915050610be2565b50600060405180602001604052806000815250915091505b9250929050565b60026020528060005260406000206000915090508060000160009054906101000a900473ffffffffffffffffffffffffffffffffffffffff16908060010160009054906101000a900473ffffffffffffffffffffffffffffffffffffffff16908060020154908060030154908060040154908060050154908060060154908060070160009054906101000a900460ff16905088565b7f000000000000000000000000000000000000000000000000000000000000000081565b600260005403610d9a576040517f08c379a0000000000000000000000000000000000000000000000000000000008152600401610d9190611a0a565b60405180910390fd5b6002600081905550565b6001600081905550565b6000819050919050565b610dc181610dae565b82525050565b6000602082019050610ddc6000830184610db8565b92915050565b600080fd5b600080fd5b610df581610dae565b8114610e0057600080fd5b50565b600081359050610e1281610dec565b92915050565b600073ffffffffffffffffffffffffffffffffffffffff82169050919050565b610e4181610e18565b8114610e4c57600080fd5b50565b600081359050610e5e81610e38565b92915050565b600080fd5b600060c08284031215610e7f57610e7e610e64565b5b81905092915050565b600080fd5b600080fd5b600080fd5b60008083601f840112610ead57610eac610e88565b5b8235905067ffffffffffffffff811115610eca57610ec9610e8d565b5b602083019150836001820283011115610ee657610ee5610e92565b5b9250929050565b60008060008060006101208688031215610f0a57610f09610de2565b5b6000610f1888828901610e03565b9550506020610f2988828901610e4f565b9450506040610f3a88828901610e69565b93505061010086013567ffffffffffffffff811115610f5c57610f5b610de7565b5b610f6888828901610e97565b92509250509295509295909350565b60008060208385031215610f8e57610f8d610de2565b5b600083013567ffffffffffffffff811115610fac57610fab610de7565b5b610fb885828601610e97565b92509250509250929050565b600080600060608486031215610fdd57610fdc610de2565b5b6000610feb86828701610e03565b9350506020610ffc86828701610e03565b925050604061100d86828701610e03565b9150509250925092565b600061102282610e18565b9050919050565b61103281611017565b82525050565b600060208201905061104d6000830184611029565b92915050565b60008115159050919050565b61106881611053565b82525050565b600081519050919050565b600082825260208201905092915050565b60005b838110156110a857808201518184015260208101905061108d565b60008484015250505050565b6000601f19601f8301169050919050565b60006110d08261106e565b6110da8185611079565b93506110ea81856020860161108a565b6110f3816110b4565b840191505092915050565b6000604082019050611113600083018561105f565b818103602083015261112581846110c5565b90509392505050565b60006020828403121561114457611143610de2565b5b600061115284828501610e03565b91505092915050565b600061010082019050611171600083018b611029565b61117e602083018a611029565b61118b6040830189610db8565b6111986060830188610db8565b6111a56080830187610db8565b6111b260a0830186610db8565b6111bf60c0830185610db8565b6111cc60e083018461105f565b9998505050505050505050565b600082825260208201905092915050565b7f496e76616c696420706c616e0000000000000000000000000000000000000000600082015250565b6000611220600c836111d9565b915061122b826111ea565b602082019050919050565b6000602082019050818103600083015261124f81611213565b9050919050565b7f416c726561647920616374697665000000000000000000000000000000000000600082015250565b600061128c600e836111d9565b915061129782611256565b602082019050919050565b600060208201905081810360008301526112bb8161127f565b9050919050565b6000602082840312156112d8576112d7610de2565b5b60006112e684828501610e4f565b91505092915050565b7f5065726d697420616d6f756e74203c20746f74616c20454d4900000000000000600082015250565b60006113256019836111d9565b9150611330826112ef565b602082019050919050565b6000602082019050818103600083015261135481611318565b9050919050565b61136481611017565b811461136f57600080fd5b50565b6000813590506113818161135b565b92915050565b60006020828403121561139d5761139c610de2565b5b60006113ab84828501611372565b91505092915050565b7f55534454206f6e6c790000000000000000000000000000000000000000000000600082015250565b60006113ea6009836111d9565b91506113f5826113b4565b602082019050919050565b60006020820190508181036000830152611419816113dd565b9050919050565b7f426164207370656e646572000000000000000000000000000000000000000000600082015250565b6000611456600b836111d9565b915061146182611420565b602082019050919050565b6000602082019050818103600083015261148581611449565b9050919050565b600082905092915050565b60006114a66020840184611372565b905092915050565b6114b781611017565b82525050565b60006114cc6020840184610e4f565b905092915050565b6114dd81610e18565b82525050565b600065ffffffffffff82169050919050565b6114fe816114e3565b811461150957600080fd5b50565b60008135905061151b816114f5565b92915050565b6000611530602084018461150c565b905092915050565b611541816114e3565b82525050565b608082016115586000830183611497565b61156560008501826114ae565b5061157360208301836114bd565b61158060208501826114d4565b5061158e6040830183611521565b61159b6040850182611538565b506115a96060830183611521565b6115b66060850182611538565b50505050565b60006115cb6020840184610e03565b905092915050565b6115dc81610dae565b82525050565b60c082016115f3600083018361148c565b6116006000850182611547565b5061160e6080830183611497565b61161b60808501826114ae565b5061162960a08301836115bc565b61163660a08501826115d3565b50505050565b82818337600083830152505050565b60006116578385611079565b935061166483858461163c565b61166d836110b4565b840190509392505050565b60006101008201905061168e6000830187611029565b61169b60208301866115e2565b81810360e08301526116ae81848661164b565b905095945050505050565b6116c281610e18565b82525050565b60006080820190506116dd6000830187611029565b6116ea6020830186611029565b6116f760408301856116b9565b6117046060830184611029565b95945050505050565b6000819050919050565b600061173261172d61172884610e18565b61170d565b610dae565b9050919050565b61174281611717565b82525050565b600060208201905061175d6000830184611739565b92915050565b7f4e487b7100000000000000000000000000000000000000000000000000000000600052601160045260246000fd5b600061179d82610dae565b91506117a883610dae565b92508282019050808211156117c0576117bf611763565b5b92915050565b7f496e616374697665000000000000000000000000000000000000000000000000600082015250565b60006117fc6008836111d9565b9150611807826117c6565b602082019050919050565b6000602082019050818103600083015261182b816117ef565b9050919050565b7f496e76616c696420454d49000000000000000000000000000000000000000000600082015250565b6000611868600b836111d9565b915061187382611832565b602082019050919050565b600060208201905081810360008301526118978161185b565b9050919050565b7f4d696e2036307300000000000000000000000000000000000000000000000000600082015250565b60006118d46007836111d9565b91506118df8261189e565b602082019050919050565b60006020820190508181036000830152611903816118c7565b9050919050565b7f546f74616c203c20454d49000000000000000000000000000000000000000000600082015250565b6000611940600b836111d9565b915061194b8261190a565b602082019050919050565b6000602082019050818103600083015261196f81611933565b9050919050565b600061198182610dae565b91507fffffffffffffffffffffffffffffffffffffffffffffffffffffffffffffffff82036119b3576119b2611763565b5b600182019050919050565b7f5265656e7472616e637947756172643a207265656e7472616e742063616c6c00600082015250565b60006119f4601f836111d9565b91506119ff826119be565b602082019050919050565b60006020820190508181036000830152611a23816119e7565b905091905056fea26469706673582212208ddee55bba3c0b48790dac7799ad044b7f92bfd8ad6b64794779839fc1b6726a64736f6c63430008140033",
  "linkReferences": {},
  "deployedLinkReferences": {}
}