{
  "_format": "hh-sol-artifact-1",
  "contractName": "EmiAutoPayEVM",
  "sourceName": "contracts/EmiAutoPayEVM.sol",
  "abi": [
    {
      "inputs": [],
      "stateMutability": "nonpayable",
      "type": "constructor"
    },
    {
      "anonymous": false,
      "inputs": [
        {
          "indexed": true,
          "internalType": "uint256",
          "name": "planId",
          "type": "uint256"
        },
        {
          "indexed": true,
          "internalType": "address",
          "name": "receiver",
          "type": "address"
        },
        {
          "indexed": true,
          "internalType": "address",
          "name": "sender",
          "type": "address"
        },
        {
          "indexed": false,
          "internalType": "uint256",
          "name": "amount",
          "type": "uint256"
        },
        {
          "indexed": false,
          "internalType": "uint256",
          "name": "timestamp",
          "type": "uint256"
        }
      ],
      "name": "DirectPaymentReceived",
      "type": "event"
    },
    {
      "anonymous": false,
      "inputs": [
        {
          "indexed": true,
          "internalType": "uint256",
          "name": "planId",
          "type": "uint256"
        }
      ],
      "name": "EmiCompleted",
      "type": "event"
    },
    {
      "anonymous": false,
      "inputs": [
        {
          "indexed": true,
          "internalType": "uint256",
          "name": "planId",
          "type": "uint256"
        },
        {
          "indexed": false,
          "internalType": "uint256",
          "name": "amount",
          "type": "uint256"
        }
      ],
      "name": "EmiPaid",
      "type": "event"
    },
    {
      "anonymous": false,
      "inputs": [
        {
          "indexed": true,
          "internalType": "uint256",
          "name": "planId",
          "type": "uint256"
        },
        {
          "indexed": true,
          "internalType": "address",
          "name": "sender",
          "type": "address"
        },
        {
          "indexed": false,
          "internalType": "uint256",
          "name": "amount",
          "type": "uint256"
        }
      ],
      "name": "PaymentReceived",
      "type": "event"
    },
    {
      "anonymous": false,
      "inputs": [
        {
          "indexed": true,
          "internalType": "uint256",
          "name": "planId",
          "type": "uint256"
        },
        {
          "indexed": true,
          "internalType": "address",
          "name": "sender",
          "type": "address"
        }
      ],
      "name": "PlanActivated",
      "type": "event"
    },
    {
      "anonymous": false,
      "inputs": [
        {
          "indexed": true,
          "internalType": "uint256",
          "name": "planId",
          "type": "uint256"
        }
      ],
      "name": "PlanCreated",
      "type": "event"
    },
    {
      "anonymous": false,
      "inputs": [
        {
          "indexed": true,
          "internalType": "uint256",
          "name": "planId",
          "type": "uint256"
        },
        {
          "indexed": true,
          "internalType": "address",
          "name": "receiver",
          "type": "address"
        }
      ],
      "name": "PlanLinked",
      "type": "event"
    },
    {
      "inputs": [
        {
          "internalType": "uint256",
          "name": "planId",
          "type": "uint256"
        }
      ],
      "name": "activatePlan",
      "outputs": [],
      "stateMutability": "payable",
      "type": "function"
    },
    {
      "inputs": [
        {
          "internalType": "uint256",
          "name": "planId",
          "type": "uint256"
        },
        {
          "internalType": "address",
          "name": "sender",
          "type": "address"
        }
      ],
      "name": "activatePlanRaw",
      "outputs": [],
      "stateMutability": "nonpayable",
      "type": "function"
    },
    {
      "inputs": [],
      "name": "admin",
      "outputs": [
        {
          "internalType": "address",
          "name": "",
          "type": "address"
        }
      ],
      "stateMutability": "view",
      "type": "function"
    },
    {
      "inputs": [
        {
          "internalType": "uint256",
          "name": "planId",
          "type": "uint256"
        }
      ],
      "name": "collectPayment",
      "outputs": [],
      "stateMutability": "nonpayable",
      "type": "function"
    },
    {
      "inputs": [
        {
          "internalType": "uint256",
          "name": "emi",
          "type": "uint256"
        },
        {
          "internalType": "uint256",
          "name": "interval",
          "type": "uint256"
        },
        {
          "internalType": "uint256",
          "name": "total",
          "type": "uint256"
        }
      ],
      "name": "createPlan",
      "outputs": [],
      "stateMutability": "nonpayable",
      "type": "function"
    },
    {
      "inputs": [
        {
          "internalType": "uint256",
          "name": "planId",
          "type": "uint256"
        }
      ],
      "name": "linkPlanToDirectPayment",
      "outputs": [],
      "stateMutability": "nonpayable",
      "type": "function"
    },
    {
      "inputs": [
        {
          "internalType": "address",
          "name": "",
          "type": "address"
        }
      ],
      "name": "pendingPlanId",
      "outputs": [
        {
          "internalType": "uint256",
          "name": "",
          "type": "uint256"
        }
      ],
      "stateMutability": "view",
      "type": "function"
    },
    {
      "inputs": [],
      "name": "planCount",
      "outputs": [
        {
          "internalType": "uint256",
          "name": "",
          "type": "uint256"
        }
      ],
      "stateMutability": "view",
      "type": "function"
    },
    {
      "inputs": [
        {
          "internalType": "uint256",
          "name": "",
          "type": "uint256"
        }
      ],
      "name": "plans",
      "outputs": [
        {
          "internalType": "address payable",
          "name": "sender",
          "type": "address"
        },
        {
          "internalType": "address payable",
          "name": "receiver",
          "type": "address"
        },
        {
          "internalType": "uint256",
          "name": "emi",
          "type": "uint256"
        },
        {
          "internalType": "uint256",
          "name": "interval",
          "type": "uint256"
        },
        {
          "internalType": "uint256",
          "name": "total",
          "type": "uint256"
        },
        {
          "internalType": "uint256",
          "name": "paid",
          "type": "uint256"
        },
        {
          "internalType": "uint256",
          "name": "nextPay",
          "type": "uint256"
        },
        {
          "internalType": "bool",
          "name": "active",
          "type": "bool"
        },
        {
          "internalType": "bool",
          "name": "paymentReceived",
          "type": "bool"
        }
      ],
      "stateMutability": "view",
      "type": "function"
    },
    {
      "inputs": [
        {
          "internalType": "address",
          "name": "newAdmin",
          "type": "address"
        }
      ],
      "name": "setAdmin",
      "outputs": [],
      "stateMutability": "nonpayable",
      "type": "function"
    }
  ],
  "bytecode": "0x608060405234801561001057600080fd5b50600160008190555033600460006101000a81548173ffffffffffffffffffffffffffffffffffffffff021916908373ffffffffffffffffffffffffffffffffffffffff160217905550611d8b806100696000396000f3fe6080604052600436106100915760003560e01c8063b162061611610059578063b162061614610179578063bd6e7efb146101be578063d4ea9e62146101e7578063d8496dfc14610203578063f851a4401461022c57610091565b8063382d39bb1461009657806342b0a672146100c15780634795ac60146100fe5780634aec738414610127578063704b6c0214610150575b600080fd5b3480156100a257600080fd5b506100ab610257565b6040516100b89190611274565b60405180910390f35b3480156100cd57600080fd5b506100e860048036038101906100e391906112f2565b61025d565b6040516100f59190611274565b60405180910390f35b34801561010a57600080fd5b506101256004803603810190610120919061134b565b610275565b005b34801561013357600080fd5b5061014e60048036038101906101499190611378565b6105b9565b005b34801561015c57600080fd5b50610177600480360381019061017291906112f2565b61085d565b005b34801561018557600080fd5b506101a0600480360381019061019b919061134b565b610931565b6040516101b599989796959493929190611407565b60405180910390f35b3480156101ca57600080fd5b506101e560048036038101906101e0919061134b565b6109d9565b005b61020160048036038101906101fc919061134b565b610bb1565b005b34801561020f57600080fd5b5061022a60048036038101906102259190611494565b610f0e565b005b34801561023857600080fd5b506102416111dc565b60405161024e91906114e3565b60405180910390f35b60015481565b60036020528060005260406000206000915090505481565b600460009054906101000a900473ffffffffffffffffffffffffffffffffffffffff1673ffffffffffffffffffffffffffffffffffffffff163373ffffffffffffffffffffffffffffffffffffffff1614610305576040517f08c379a00000000000000000000000000000000000000000000000000000000081526004016102fc9061155b565b60405180910390fd5b61030d611202565b60006002600083815260200190815260200160002090508060070160009054906101000a900460ff16610375576040517f08c379a000000000000000000000000000000000000000000000000000000000815260040161036c906115c7565b60405180910390fd5b80600601544210156103bc576040517f08c379a00000000000000000000000000000000000000000000000000000000081526004016103b390611633565b60405180910390fd5b8060040154816005015410610406576040517f08c379a00000000000000000000000000000000000000000000000000000000081526004016103fd9061169f565b60405180910390fd5b60008160000160009054906101000a900473ffffffffffffffffffffffffffffffffffffffff1673ffffffffffffffffffffffffffffffffffffffff168260020154604051610454906116f0565b60006040518083038185875af1925050503d8060008114610491576040519150601f19603f3d011682016040523d82523d6000602084013e610496565b606091505b50509050806104da576040517f08c379a00000000000000000000000000000000000000000000000000000000081526004016104d190611751565b60405180910390fd5b81600201548260050160008282546104f291906117a0565b9250508190555081600401548260050154106105575760008260070160006101000a81548160ff021916908315150217905550827f5417900f2b30001c152939c30dea707712a1b6254728bc12c5bf0137cb36e9a060405160405180910390a26105ac565b81600301544261056791906117a0565b8260060181905550827f06e59a6ee972bbd5f5b1932131f47641231aa73d1b0d32bd72cea9471babf74283600201546040516105a39190611274565b60405180910390a25b50506105b6611251565b50565b600083116105fc576040517f08c379a00000000000000000000000000000000000000000000000000000000081526004016105f390611820565b60405180910390fd5b603c821015610640576040517f08c379a00000000000000000000000000000000000000000000000000000000081526004016106379061188c565b60405180910390fd5b82811015610683576040517f08c379a000000000000000000000000000000000000000000000000000000000815260040161067a906118f8565b60405180910390fd5b6001600081548092919061069690611918565b9190505550604051806101200160405280600073ffffffffffffffffffffffffffffffffffffffff1681526020013373ffffffffffffffffffffffffffffffffffffffff16815260200184815260200183815260200182815260200160008152602001600081526020016000151581526020016000151581525060026000600154815260200190815260200160002060008201518160000160006101000a81548173ffffffffffffffffffffffffffffffffffffffff021916908373ffffffffffffffffffffffffffffffffffffffff16021790555060208201518160010160006101000a81548173ffffffffffffffffffffffffffffffffffffffff021916908373ffffffffffffffffffffffffffffffffffffffff16021790555060408201518160020155606082015181600301556080820151816004015560a0820151816005015560c0820151816006015560e08201518160070160006101000a81548160ff0219169083151502179055506101008201518160070160016101000a81548160ff0219169083151502179055509050506001547f9dfd4372898f1ab4b7aab4735c5b8c07f64b72ef6f72e0da892265459fc1b86160405160405180910390a2505050565b600460009054906101000a900473ffffffffffffffffffffffffffffffffffffffff1673ffffffffffffffffffffffffffffffffffffffff163373ffffffffffffffffffffffffffffffffffffffff16146108ed576040517f08c379a00000000000000000000000000000000000000000000000000000000081526004016108e49061155b565b60405180910390fd5b80600460006101000a81548173ffffffffffffffffffffffffffffffffffffffff021916908373ffffffffffffffffffffffffffffffffffffffff16021790555050565b60026020528060005260406000206000915090508060000160009054906101000a900473ffffffffffffffffffffffffffffffffffffffff16908060010160009054906101000a900473ffffffffffffffffffffffffffffffffffffffff16908060020154908060030154908060040154908060050154908060060154908060070160009054906101000a900460ff16908060070160019054906101000a900460ff16905089565b6000811180156109eb57506001548111155b610a2a576040517f08c379a0000000000000000000000000000000000000000000000000000000008152600401610a21906119ac565b60405180910390fd5b60006002600083815260200190815260200160002090503373ffffffffffffffffffffffffffffffffffffffff168160010160009054906101000a900473ffffffffffffffffffffffffffffffffffffffff1673ffffffffffffffffffffffffffffffffffffffff1614610ad3576040517f08c379a0000000000000000000000000000000000000000000000000000000008152600401610aca90611a18565b60405180910390fd5b8060070160009054906101000a900460ff1615610b25576040517f08c379a0000000000000000000000000000000000000000000000000000000008152600401610b1c90611a84565b60405180910390fd5b81600360003373ffffffffffffffffffffffffffffffffffffffff1673ffffffffffffffffffffffffffffffffffffffff168152602001908152602001600020819055503373ffffffffffffffffffffffffffffffffffffffff16827fa71688517b80a169255911c539e70f1889f59db8a23c03d4ffc131fea52c0ffa60405160405180910390a35050565b610bb9611202565b6000600260008381526020019081526020016000209050600073ffffffffffffffffffffffffffffffffffffffff168160010160009054906101000a900473ffffffffffffffffffffffffffffffffffffffff1673ffffffffffffffffffffffffffffffffffffffff1603610c63576040517f08c379a0000000000000000000000000000000000000000000000000000000008152600401610c5a90611af0565b60405180910390fd5b8060070160009054906101000a900460ff1615610cb5576040517f08c379a0000000000000000000000000000000000000000000000000000000008152600401610cac90611b5c565b60405180910390fd5b8060020154341015610cfc576040517f08c379a0000000000000000000000000000000000000000000000000000000008152600401610cf390611bc8565b60405180910390fd5b338160000160006101000a81548173ffffffffffffffffffffffffffffffffffffffff021916908373ffffffffffffffffffffffffffffffffffffffff16021790555034816005016000828254610d5391906117a0565b925050819055508060010160009054906101000a900473ffffffffffffffffffffffffffffffffffffffff1673ffffffffffffffffffffffffffffffffffffffff166108fc349081150290604051600060405180830381858888f19350505050158015610dc4573d6000803e3d6000fd5b50817f06e59a6ee972bbd5f5b1932131f47641231aa73d1b0d32bd72cea9471babf74234604051610df59190611274565b60405180910390a23373ffffffffffffffffffffffffffffffffffffffff168160010160009054906101000a900473ffffffffffffffffffffffffffffffffffffffff1673ffffffffffffffffffffffffffffffffffffffff16837f2fbdbbf9b90aaa1fb6d3e1a7d5019d062ce9f89bc527a0c839b1806d0445e85f3442604051610e81929190611be8565b60405180910390a460018160070160006101000a81548160ff021916908315150217905550806003015442610eb691906117a0565b81600601819055503373ffffffffffffffffffffffffffffffffffffffff16827f1f07c729fc76534d72c9e3ad0a792bf34de515a8aabc1a61bd40c2a2bd72ad8860405160405180910390a350610f0b611251565b50565b600460009054906101000a900473ffffffffffffffffffffffffffffffffffffffff1673ffffffffffffffffffffffffffffffffffffffff163373ffffffffffffffffffffffffffffffffffffffff1614610f9e576040517f08c379a0000000000000000000000000000000000000000000000000000000008152600401610f959061155b565b60405180910390fd5b600060026000848152602001908152602001600020905082600360008360010160009054906101000a900473ffffffffffffffffffffffffffffffffffffffff1673ffffffffffffffffffffffffffffffffffffffff1673ffffffffffffffffffffffffffffffffffffffff168152602001908152602001600020541461105a576040517f08c379a000000000000000000000000000000000000000000000000000000000815260040161105190611c5d565b60405180910390fd5b8060070160009054906101000a900460ff16156110ac576040517f08c379a00000000000000000000000000000000000000000000000000000000081526004016110a390611b5c565b60405180910390fd5b8060070160019054906101000a900460ff16156110fe576040517f08c379a00000000000000000000000000000000000000000000000000000000081526004016110f590611cc9565b60405180910390fd5b818160000160006101000a81548173ffffffffffffffffffffffffffffffffffffffff021916908373ffffffffffffffffffffffffffffffffffffffff16021790555060018160070160016101000a81548160ff02191690831515021790555060018160070160006101000a81548160ff02191690831515021790555080600301544261118b91906117a0565b81600601819055508173ffffffffffffffffffffffffffffffffffffffff16837f1f07c729fc76534d72c9e3ad0a792bf34de515a8aabc1a61bd40c2a2bd72ad8860405160405180910390a3505050565b600460009054906101000a900473ffffffffffffffffffffffffffffffffffffffff1681565b600260005403611247576040517f08c379a000000000000000000000000000000000000000000000000000000000815260040161123e90611d35565b60405180910390fd5b6002600081905550565b6001600081905550565b6000819050919050565b61126e8161125b565b82525050565b60006020820190506112896000830184611265565b92915050565b600080fd5b600073ffffffffffffffffffffffffffffffffffffffff82169050919050565b60006112bf82611294565b9050919050565b6112cf816112b4565b81146112da57600080fd5b50565b6000813590506112ec816112c6565b92915050565b6000602082840312156113085761130761128f565b5b6000611316848285016112dd565b91505092915050565b6113288161125b565b811461133357600080fd5b50565b6000813590506113458161131f565b92915050565b6000602082840312156113615761136061128f565b5b600061136f84828501611336565b91505092915050565b6000806000606084860312156113915761139061128f565b5b600061139f86828701611336565b93505060206113b086828701611336565b92505060406113c186828701611336565b9150509250925092565b60006113d682611294565b9050919050565b6113e6816113cb565b82525050565b60008115159050919050565b611401816113ec565b82525050565b60006101208201905061141d600083018c6113dd565b61142a602083018b6113dd565b611437604083018a611265565b6114446060830189611265565b6114516080830188611265565b61145e60a0830187611265565b61146b60c0830186611265565b61147860e08301856113f8565b6114866101008301846113f8565b9a9950505050505050505050565b600080604083850312156114ab576114aa61128f565b5b60006114b985828601611336565b92505060206114ca858286016112dd565b9150509250929050565b6114dd816112b4565b82525050565b60006020820190506114f860008301846114d4565b92915050565b600082825260208201905092915050565b7f4f6e6c792061646d696e00000000000000000000000000000000000000000000600082015250565b6000611545600a836114fe565b91506115508261150f565b602082019050919050565b6000602082019050818103600083015261157481611538565b9050919050565b7f506c616e206e6f74206163746976650000000000000000000000000000000000600082015250565b60006115b1600f836114fe565b91506115bc8261157b565b602082019050919050565b600060208201905081810360008301526115e0816115a4565b9050919050565b7f4e6f742064756520796574000000000000000000000000000000000000000000600082015250565b600061161d600b836114fe565b9150611628826115e7565b602082019050919050565b6000602082019050818103600083015261164c81611610565b9050919050565b7f506c616e20636f6d706c65746564000000000000000000000000000000000000600082015250565b6000611689600e836114fe565b915061169482611653565b602082019050919050565b600060208201905081810360008301526116b88161167c565b9050919050565b600081905092915050565b50565b60006116da6000836116bf565b91506116e5826116ca565b600082019050919050565b60006116fb826116cd565b9150819050919050565b7f455448207472616e73666572206661696c656400000000000000000000000000600082015250565b600061173b6013836114fe565b915061174682611705565b602082019050919050565b6000602082019050818103600083015261176a8161172e565b9050919050565b7f4e487b7100000000000000000000000000000000000000000000000000000000600052601160045260246000fd5b60006117ab8261125b565b91506117b68361125b565b92508282019050808211156117ce576117cd611771565b5b92915050565b7f496e76616c696420454d49000000000000000000000000000000000000000000600082015250565b600061180a600b836114fe565b9150611815826117d4565b602082019050919050565b60006020820190508181036000830152611839816117fd565b9050919050565b7f4d696e2036307300000000000000000000000000000000000000000000000000600082015250565b60006118766007836114fe565b915061188182611840565b602082019050919050565b600060208201905081810360008301526118a581611869565b9050919050565b7f546f74616c203c20454d49000000000000000000000000000000000000000000600082015250565b60006118e2600b836114fe565b91506118ed826118ac565b602082019050919050565b60006020820190508181036000830152611911816118d5565b9050919050565b60006119238261125b565b91507fffffffffffffffffffffffffffffffffffffffffffffffffffffffffffffffff820361195557611954611771565b5b600182019050919050565b7f496e76616c696420706c616e2049440000000000000000000000000000000000600082015250565b6000611996600f836114fe565b91506119a182611960565b602082019050919050565b600060208201905081810360008301526119c581611989565b9050919050565b7f4e6f7420796f757220706c616e00000000000000000000000000000000000000600082015250565b6000611a02600d836114fe565b9150611a0d826119cc565b602082019050919050565b60006020820190508181036000830152611a31816119f5565b9050919050565b7f506c616e20616c72656164792061637469766500000000000000000000000000600082015250565b6000611a6e6013836114fe565b9150611a7982611a38565b602082019050919050565b60006020820190508181036000830152611a9d81611a61565b9050919050565b7f496e76616c696420706c616e0000000000000000000000000000000000000000600082015250565b6000611ada600c836114fe565b9150611ae582611aa4565b602082019050919050565b60006020820190508181036000830152611b0981611acd565b9050919050565b7f416c726561647920616374697665000000000000000000000000000000000000600082015250565b6000611b46600e836114fe565b9150611b5182611b10565b602082019050919050565b60006020820190508181036000830152611b7581611b39565b9050919050565b7f53656e64206174206c65617374203120454d4900000000000000000000000000600082015250565b6000611bb26013836114fe565b9150611bbd82611b7c565b602082019050919050565b60006020820190508181036000830152611be181611ba5565b9050919050565b6000604082019050611bfd6000830185611265565b611c0a6020830184611265565b9392505050565b7f506c616e206e6f74206c696e6b65640000000000000000000000000000000000600082015250565b6000611c47600f836114fe565b9150611c5282611c11565b602082019050919050565b60006020820190508181036000830152611c7681611c3a565b9050919050565b7f5061796d656e7420616c72656164792072656365697665640000000000000000600082015250565b6000611cb36018836114fe565b9150611cbe82611c7d565b602082019050919050565b60006020820190508181036000830152611ce281611ca6565b9050919050565b7f5265656e7472616e637947756172643a207265656e7472616e742063616c6c00600082015250565b6000611d1f601f836114fe565b9150611d2a82611ce9565b602082019050919050565b60006020820190508181036000830152611d4e81611d12565b905091905056fea2646970667358221220f4f814857bd54a02e78db59e0ff72c83a5fca81faef1ebfdbf65bbf4a18719c664736f6c63430008140033",
  "linkReferences": {},
  "deployedLinkReferences": {}
}