{
  "_format": "hh-sol-artifact-1",
  "contractName": "EmiAutoPayEVM",
  "sourceName": "contracts/EmiAutoPayEVM.sol",
  "abi": [
    {
      "inputs": [],
      "stateMutability": "nonpayable",
      "type": "constructor"
    },
    {
      "anonymous": false,
      "inputs": [
        {
          "indexed": true,
          "internalType": "uint256",
          "name": "planId",
          "type": "uint256"
        },
        {
          "indexed": true,
          "internalType": "address",
          "name": "receiver",
          "type": "address"
        },
        {
          "indexed": true,
          "internalType": "address",
          "name": "sender",
          "type": "address"
        },
        {
          "indexed": false,
          "internalType": "uint256",
          "name": "amount",
          "type": "uint256"
        },
        {
          "indexed": false,
          "internalType": "uint256",
          "name": "timestamp",
          "type": "uint256"
        }
      ],
      "name": "DirectPaymentReceived",
      "type": "event"
    },
    {
      "anonymous": false,
      "inputs": [
        {
          "indexed": true,
          "internalType": "uint256",
          "name": "planId",
          "type": "uint256"
        }
      ],
      "name": "EmiCompleted",
      "type": "event"
    },
    {
      "anonymous": false,
      "inputs": [
        {
          "indexed": true,
          "internalType": "uint256",
          "name": "planId",
          "type": "uint256"
        },
        {
          "indexed": false,
          "internalType": "uint256",
          "name": "amount",
          "type": "uint256"
        }
      ],
      "name": "EmiPaid",
      "type": "event"
    },
    {
      "anonymous": false,
      "inputs": [
        {
          "indexed": true,
          "internalType": "uint256",
          "name": "planId",
          "type": "uint256"
        },
        {
          "indexed": true,
          "internalType": "address",
          "name": "sender",
          "type": "address"
        },
        {
          "indexed": false,
          "internalType": "uint256",
          "name": "amount",
          "type": "uint256"
        }
      ],
      "name": "PaymentReceived",
      "type": "event"
    },
    {
      "anonymous": false,
      "inputs": [
        {
          "indexed": true,
          "internalType": "uint256",
          "name": "planId",
          "type": "uint256"
        },
        {
          "indexed": true,
          "internalType": "address",
          "name": "sender",
          "type": "address"
        }
      ],
      "name": "PlanActivated",
      "type": "event"
    },
    {
      "anonymous": false,
      "inputs": [
        {
          "indexed": true,
          "internalType": "uint256",
          "name": "planId",
          "type": "uint256"
        }
      ],
      "name": "PlanCreated",
      "type": "event"
    },
    {
      "anonymous": false,
      "inputs": [
        {
          "indexed": true,
          "internalType": "uint256",
          "name": "planId",
          "type": "uint256"
        },
        {
          "indexed": true,
          "internalType": "address",
          "name": "receiver",
          "type": "address"
        }
      ],
      "name": "PlanLinked",
      "type": "event"
    },
    {
      "inputs": [
        {
          "internalType": "uint256",
          "name": "planId",
          "type": "uint256"
        }
      ],
      "name": "activatePlan",
      "outputs": [],
      "stateMutability": "payable",
      "type": "function"
    },
    {
      "inputs": [
        {
          "internalType": "uint256",
          "name": "planId",
          "type": "uint256"
        },
        {
          "internalType": "address",
          "name": "sender",
          "type": "address"
        }
      ],
      "name": "activatePlanRaw",
      "outputs": [],
      "stateMutability": "nonpayable",
      "type": "function"
    },
    {
      "inputs": [],
      "name": "admin",
      "outputs": [
        {
          "internalType": "address",
          "name": "",
          "type": "address"
        }
      ],
      "stateMutability": "view",
      "type": "function"
    },
    {
      "inputs": [
        {
          "internalType": "bytes",
          "name": "",
          "type": "bytes"
        }
      ],
      "name": "checkUpkeep",
      "outputs": [
        {
          "internalType": "bool",
          "name": "upkeepNeeded",
          "type": "bool"
        },
        {
          "internalType": "bytes",
          "name": "performData",
          "type": "bytes"
        }
      ],
      "stateMutability": "view",
      "type": "function"
    },
    {
      "inputs": [
        {
          "internalType": "uint256",
          "name": "emi",
          "type": "uint256"
        },
        {
          "internalType": "uint256",
          "name": "interval",
          "type": "uint256"
        },
        {
          "internalType": "uint256",
          "name": "total",
          "type": "uint256"
        }
      ],
      "name": "createPlan",
      "outputs": [],
      "stateMutability": "nonpayable",
      "type": "function"
    },
    {
      "inputs": [
        {
          "internalType": "uint256",
          "name": "planId",
          "type": "uint256"
        }
      ],
      "name": "linkPlanToDirectPayment",
      "outputs": [],
      "stateMutability": "nonpayable",
      "type": "function"
    },
    {
      "inputs": [
        {
          "internalType": "address",
          "name": "",
          "type": "address"
        }
      ],
      "name": "pendingPlanId",
      "outputs": [
        {
          "internalType": "uint256",
          "name": "",
          "type": "uint256"
        }
      ],
      "stateMutability": "view",
      "type": "function"
    },
    {
      "inputs": [
        {
          "internalType": "bytes",
          "name": "data",
          "type": "bytes"
        }
      ],
      "name": "performUpkeep",
      "outputs": [],
      "stateMutability": "nonpayable",
      "type": "function"
    },
    {
      "inputs": [],
      "name": "planCount",
      "outputs": [
        {
          "internalType": "uint256",
          "name": "",
          "type": "uint256"
        }
      ],
      "stateMutability": "view",
      "type": "function"
    },
    {
      "inputs": [
        {
          "internalType": "uint256",
          "name": "",
          "type": "uint256"
        }
      ],
      "name": "plans",
      "outputs": [
        {
          "internalType": "address payable",
          "name": "sender",
          "type": "address"
        },
        {
          "internalType": "address payable",
          "name": "receiver",
          "type": "address"
        },
        {
          "internalType": "uint256",
          "name": "emi",
          "type": "uint256"
        },
        {
          "internalType": "uint256",
          "name": "interval",
          "type": "uint256"
        },
        {
          "internalType": "uint256",
          "name": "total",
          "type": "uint256"
        },
        {
          "internalType": "uint256",
          "name": "paid",
          "type": "uint256"
        },
        {
          "internalType": "uint256",
          "name": "nextPay",
          "type": "uint256"
        },
        {
          "internalType": "bool",
          "name": "active",
          "type": "bool"
        },
        {
          "internalType": "bool",
          "name": "paymentReceived",
          "type": "bool"
        }
      ],
      "stateMutability": "view",
      "type": "function"
    },
    {
      "inputs": [
        {
          "internalType": "address",
          "name": "newAdmin",
          "type": "address"
        }
      ],
      "name": "setAdmin",
      "outputs": [],
      "stateMutability": "nonpayable",
      "type": "function"
    }
  ],
  "bytecode": "0x608060405234801561001057600080fd5b50600160008190555033600460006101000a81548173ffffffffffffffffffffffffffffffffffffffff021916908373ffffffffffffffffffffffffffffffffffffffff160217905550611e5e806100696000396000f3fe60806040526004361061009c5760003560e01c8063704b6c0211610064578063704b6c0214610199578063b1620616146101c2578063bd6e7efb14610207578063d4ea9e6214610230578063d8496dfc1461024c578063f851a440146102755761009c565b8063382d39bb146100a157806342b0a672146100cc5780634585e33b146101095780634aec7384146101325780636e04ff0d1461015b575b600080fd5b3480156100ad57600080fd5b506100b66102a0565b6040516100c391906112a8565b60405180910390f35b3480156100d857600080fd5b506100f360048036038101906100ee919061132b565b6102a6565b60405161010091906112a8565b60405180910390f35b34801561011557600080fd5b50610130600480360381019061012b91906113bd565b6102be565b005b34801561013e57600080fd5b5061015960048036038101906101549190611436565b610503565b005b34801561016757600080fd5b50610182600480360381019061017d91906113bd565b6107a7565b604051610190929190611534565b60405180910390f35b3480156101a557600080fd5b506101c060048036038101906101bb919061132b565b610891565b005b3480156101ce57600080fd5b506101e960048036038101906101e49190611564565b610965565b6040516101fe999897969594939291906115b2565b60405180910390f35b34801561021357600080fd5b5061022e60048036038101906102299190611564565b610a0d565b005b61024a60048036038101906102459190611564565b610be5565b005b34801561025857600080fd5b50610273600480360381019061026e919061163f565b610f42565b005b34801561028157600080fd5b5061028a611210565b604051610297919061168e565b60405180910390f35b60015481565b60036020528060005260406000206000915090505481565b6102c6611236565b60008282905003156104f757600082828101906102e39190611564565b905060006002600083815260200190815260200160002090508060070160009054906101000a900460ff1661034d576040517f08c379a000000000000000000000000000000000000000000000000000000000815260040161034490611706565b60405180910390fd5b60008160000160009054906101000a900473ffffffffffffffffffffffffffffffffffffffff1673ffffffffffffffffffffffffffffffffffffffff16826002015460405161039b90611757565b60006040518083038185875af1925050503d80600081146103d8576040519150601f19603f3d011682016040523d82523d6000602084013e6103dd565b606091505b5050905080610421576040517f08c379a0000000000000000000000000000000000000000000000000000000008152600401610418906117b8565b60405180910390fd5b81600201548260050160008282546104399190611807565b92505081905550816004015482600501541061049e5760008260070160006101000a81548160ff021916908315150217905550827f5417900f2b30001c152939c30dea707712a1b6254728bc12c5bf0137cb36e9a060405160405180910390a26104f3565b8160030154426104ae9190611807565b8260060181905550827f06e59a6ee972bbd5f5b1932131f47641231aa73d1b0d32bd72cea9471babf74283600201546040516104ea91906112a8565b60405180910390a25b5050505b6104ff611285565b5050565b60008311610546576040517f08c379a000000000000000000000000000000000000000000000000000000000815260040161053d90611887565b60405180910390fd5b603c82101561058a576040517f08c379a0000000000000000000000000000000000000000000000000000000008152600401610581906118f3565b60405180910390fd5b828110156105cd576040517f08c379a00000000000000000000000000000000000000000000000000000000081526004016105c49061195f565b60405180910390fd5b600160008154809291906105e09061197f565b9190505550604051806101200160405280600073ffffffffffffffffffffffffffffffffffffffff1681526020013373ffffffffffffffffffffffffffffffffffffffff16815260200184815260200183815260200182815260200160008152602001600081526020016000151581526020016000151581525060026000600154815260200190815260200160002060008201518160000160006101000a81548173ffffffffffffffffffffffffffffffffffffffff021916908373ffffffffffffffffffffffffffffffffffffffff16021790555060208201518160010160006101000a81548173ffffffffffffffffffffffffffffffffffffffff021916908373ffffffffffffffffffffffffffffffffffffffff16021790555060408201518160020155606082015181600301556080820151816004015560a0820151816005015560c0820151816006015560e08201518160070160006101000a81548160ff0219169083151502179055506101008201518160070160016101000a81548160ff0219169083151502179055509050506001547f9dfd4372898f1ab4b7aab4735c5b8c07f64b72ef6f72e0da892265459fc1b86160405160405180910390a2505050565b600060606000600154036107d0576000604051806020016040528060008152509150915061088a565b6000600190505b60015481116108725760006002600083815260200190815260200160002090508060070160009054906101000a900460ff16801561081c575080600401548160050154105b801561082c575080600601544210155b1561085e5760018260405160200161084491906112a8565b60405160208183030381529060405293509350505061088a565b50808061086a9061197f565b9150506107d7565b50600060405180602001604052806000815250915091505b9250929050565b600460009054906101000a900473ffffffffffffffffffffffffffffffffffffffff1673ffffffffffffffffffffffffffffffffffffffff163373ffffffffffffffffffffffffffffffffffffffff1614610921576040517f08c379a000000000000000000000000000000000000000000000000000000000815260040161091890611a13565b60405180910390fd5b80600460006101000a81548173ffffffffffffffffffffffffffffffffffffffff021916908373ffffffffffffffffffffffffffffffffffffffff16021790555050565b60026020528060005260406000206000915090508060000160009054906101000a900473ffffffffffffffffffffffffffffffffffffffff16908060010160009054906101000a900473ffffffffffffffffffffffffffffffffffffffff16908060020154908060030154908060040154908060050154908060060154908060070160009054906101000a900460ff16908060070160019054906101000a900460ff16905089565b600081118015610a1f57506001548111155b610a5e576040517f08c379a0000000000000000000000000000000000000000000000000000000008152600401610a5590611a7f565b60405180910390fd5b60006002600083815260200190815260200160002090503373ffffffffffffffffffffffffffffffffffffffff168160010160009054906101000a900473ffffffffffffffffffffffffffffffffffffffff1673ffffffffffffffffffffffffffffffffffffffff1614610b07576040517f08c379a0000000000000000000000000000000000000000000000000000000008152600401610afe90611aeb565b60405180910390fd5b8060070160009054906101000a900460ff1615610b59576040517f08c379a0000000000000000000000000000000000000000000000000000000008152600401610b5090611b57565b60405180910390fd5b81600360003373ffffffffffffffffffffffffffffffffffffffff1673ffffffffffffffffffffffffffffffffffffffff168152602001908152602001600020819055503373ffffffffffffffffffffffffffffffffffffffff16827fa71688517b80a169255911c539e70f1889f59db8a23c03d4ffc131fea52c0ffa60405160405180910390a35050565b610bed611236565b6000600260008381526020019081526020016000209050600073ffffffffffffffffffffffffffffffffffffffff168160010160009054906101000a900473ffffffffffffffffffffffffffffffffffffffff1673ffffffffffffffffffffffffffffffffffffffff1603610c97576040517f08c379a0000000000000000000000000000000000000000000000000000000008152600401610c8e90611bc3565b60405180910390fd5b8060070160009054906101000a900460ff1615610ce9576040517f08c379a0000000000000000000000000000000000000000000000000000000008152600401610ce090611c2f565b60405180910390fd5b8060020154341015610d30576040517f08c379a0000000000000000000000000000000000000000000000000000000008152600401610d2790611c9b565b60405180910390fd5b338160000160006101000a81548173ffffffffffffffffffffffffffffffffffffffff021916908373ffffffffffffffffffffffffffffffffffffffff16021790555034816005016000828254610d879190611807565b925050819055508060010160009054906101000a900473ffffffffffffffffffffffffffffffffffffffff1673ffffffffffffffffffffffffffffffffffffffff166108fc349081150290604051600060405180830381858888f19350505050158015610df8573d6000803e3d6000fd5b50817f06e59a6ee972bbd5f5b1932131f47641231aa73d1b0d32bd72cea9471babf74234604051610e2991906112a8565b60405180910390a23373ffffffffffffffffffffffffffffffffffffffff168160010160009054906101000a900473ffffffffffffffffffffffffffffffffffffffff1673ffffffffffffffffffffffffffffffffffffffff16837f2fbdbbf9b90aaa1fb6d3e1a7d5019d062ce9f89bc527a0c839b1806d0445e85f3442604051610eb5929190611cbb565b60405180910390a460018160070160006101000a81548160ff021916908315150217905550806003015442610eea9190611807565b81600601819055503373ffffffffffffffffffffffffffffffffffffffff16827f1f07c729fc76534d72c9e3ad0a792bf34de515a8aabc1a61bd40c2a2bd72ad8860405160405180910390a350610f3f611285565b50565b600460009054906101000a900473ffffffffffffffffffffffffffffffffffffffff1673ffffffffffffffffffffffffffffffffffffffff163373ffffffffffffffffffffffffffffffffffffffff1614610fd2576040517f08c379a0000000000000000000000000000000000000000000000000000000008152600401610fc990611a13565b60405180910390fd5b600060026000848152602001908152602001600020905082600360008360010160009054906101000a900473ffffffffffffffffffffffffffffffffffffffff1673ffffffffffffffffffffffffffffffffffffffff1673ffffffffffffffffffffffffffffffffffffffff168152602001908152602001600020541461108e576040517f08c379a000000000000000000000000000000000000000000000000000000000815260040161108590611d30565b60405180910390fd5b8060070160009054906101000a900460ff16156110e0576040517f08c379a00000000000000000000000000000000000000000000000000000000081526004016110d790611c2f565b60405180910390fd5b8060070160019054906101000a900460ff1615611132576040517f08c379a000000000000000000000000000000000000000000000000000000000815260040161112990611d9c565b60405180910390fd5b818160000160006101000a81548173ffffffffffffffffffffffffffffffffffffffff021916908373ffffffffffffffffffffffffffffffffffffffff16021790555060018160070160016101000a81548160ff02191690831515021790555060018160070160006101000a81548160ff0219169083151502179055508060030154426111bf9190611807565b81600601819055508173ffffffffffffffffffffffffffffffffffffffff16837f1f07c729fc76534d72c9e3ad0a792bf34de515a8aabc1a61bd40c2a2bd72ad8860405160405180910390a3505050565b600460009054906101000a900473ffffffffffffffffffffffffffffffffffffffff1681565b60026000540361127b576040517f08c379a000000000000000000000000000000000000000000000000000000000815260040161127290611e08565b60405180910390fd5b6002600081905550565b6001600081905550565b6000819050919050565b6112a28161128f565b82525050565b60006020820190506112bd6000830184611299565b92915050565b600080fd5b600080fd5b600073ffffffffffffffffffffffffffffffffffffffff82169050919050565b60006112f8826112cd565b9050919050565b611308816112ed565b811461131357600080fd5b50565b600081359050611325816112ff565b92915050565b600060208284031215611341576113406112c3565b5b600061134f84828501611316565b91505092915050565b600080fd5b600080fd5b600080fd5b60008083601f84011261137d5761137c611358565b5b8235905067ffffffffffffffff81111561139a5761139961135d565b5b6020830191508360018202830111156113b6576113b5611362565b5b9250929050565b600080602083850312156113d4576113d36112c3565b5b600083013567ffffffffffffffff8111156113f2576113f16112c8565b5b6113fe85828601611367565b92509250509250929050565b6114138161128f565b811461141e57600080fd5b50565b6000813590506114308161140a565b92915050565b60008060006060848603121561144f5761144e6112c3565b5b600061145d86828701611421565b935050602061146e86828701611421565b925050604061147f86828701611421565b9150509250925092565b60008115159050919050565b61149e81611489565b82525050565b600081519050919050565b600082825260208201905092915050565b60005b838110156114de5780820151818401526020810190506114c3565b60008484015250505050565b6000601f19601f8301169050919050565b6000611506826114a4565b61151081856114af565b93506115208185602086016114c0565b611529816114ea565b840191505092915050565b60006040820190506115496000830185611495565b818103602083015261155b81846114fb565b90509392505050565b60006020828403121561157a576115796112c3565b5b600061158884828501611421565b91505092915050565b600061159c826112cd565b9050919050565b6115ac81611591565b82525050565b6000610120820190506115c8600083018c6115a3565b6115d5602083018b6115a3565b6115e2604083018a611299565b6115ef6060830189611299565b6115fc6080830188611299565b61160960a0830187611299565b61161660c0830186611299565b61162360e0830185611495565b611631610100830184611495565b9a9950505050505050505050565b60008060408385031215611656576116556112c3565b5b600061166485828601611421565b925050602061167585828601611316565b9150509250929050565b611688816112ed565b82525050565b60006020820190506116a3600083018461167f565b92915050565b600082825260208201905092915050565b7f496e616374697665000000000000000000000000000000000000000000000000600082015250565b60006116f06008836116a9565b91506116fb826116ba565b602082019050919050565b6000602082019050818103600083015261171f816116e3565b9050919050565b600081905092915050565b50565b6000611741600083611726565b915061174c82611731565b600082019050919050565b600061176282611734565b9150819050919050565b7f455448207472616e73666572206661696c656400000000000000000000000000600082015250565b60006117a26013836116a9565b91506117ad8261176c565b602082019050919050565b600060208201905081810360008301526117d181611795565b9050919050565b7f4e487b7100000000000000000000000000000000000000000000000000000000600052601160045260246000fd5b60006118128261128f565b915061181d8361128f565b9250828201905080821115611835576118346117d8565b5b92915050565b7f496e76616c696420454d49000000000000000000000000000000000000000000600082015250565b6000611871600b836116a9565b915061187c8261183b565b602082019050919050565b600060208201905081810360008301526118a081611864565b9050919050565b7f4d696e2036307300000000000000000000000000000000000000000000000000600082015250565b60006118dd6007836116a9565b91506118e8826118a7565b602082019050919050565b6000602082019050818103600083015261190c816118d0565b9050919050565b7f546f74616c203c20454d49000000000000000000000000000000000000000000600082015250565b6000611949600b836116a9565b915061195482611913565b602082019050919050565b600060208201905081810360008301526119788161193c565b9050919050565b600061198a8261128f565b91507fffffffffffffffffffffffffffffffffffffffffffffffffffffffffffffffff82036119bc576119bb6117d8565b5b600182019050919050565b7f4f6e6c792061646d696e00000000000000000000000000000000000000000000600082015250565b60006119fd600a836116a9565b9150611a08826119c7565b602082019050919050565b60006020820190508181036000830152611a2c816119f0565b9050919050565b7f496e76616c696420706c616e2049440000000000000000000000000000000000600082015250565b6000611a69600f836116a9565b9150611a7482611a33565b602082019050919050565b60006020820190508181036000830152611a9881611a5c565b9050919050565b7f4e6f7420796f757220706c616e00000000000000000000000000000000000000600082015250565b6000611ad5600d836116a9565b9150611ae082611a9f565b602082019050919050565b60006020820190508181036000830152611b0481611ac8565b9050919050565b7f506c616e20616c72656164792061637469766500000000000000000000000000600082015250565b6000611b416013836116a9565b9150611b4c82611b0b565b602082019050919050565b60006020820190508181036000830152611b7081611b34565b9050919050565b7f496e76616c696420706c616e0000000000000000000000000000000000000000600082015250565b6000611bad600c836116a9565b9150611bb882611b77565b602082019050919050565b60006020820190508181036000830152611bdc81611ba0565b9050919050565b7f416c726561647920616374697665000000000000000000000000000000000000600082015250565b6000611c19600e836116a9565b9150611c2482611be3565b602082019050919050565b60006020820190508181036000830152611c4881611c0c565b9050919050565b7f53656e64206174206c65617374203120454d4900000000000000000000000000600082015250565b6000611c856013836116a9565b9150611c9082611c4f565b602082019050919050565b60006020820190508181036000830152611cb481611c78565b9050919050565b6000604082019050611cd06000830185611299565b611cdd6020830184611299565b9392505050565b7f506c616e206e6f74206c696e6b65640000000000000000000000000000000000600082015250565b6000611d1a600f836116a9565b9150611d2582611ce4565b602082019050919050565b60006020820190508181036000830152611d4981611d0d565b9050919050565b7f5061796d656e7420616c72656164792072656365697665640000000000000000600082015250565b6000611d866018836116a9565b9150611d9182611d50565b602082019050919050565b60006020820190508181036000830152611db581611d79565b9050919050565b7f5265656e7472616e637947756172643a207265656e7472616e742063616c6c00600082015250565b6000611df2601f836116a9565b9150611dfd82611dbc565b602082019050919050565b60006020820190508181036000830152611e2181611de5565b905091905056fea2646970667358221220835b8b73ffc110c5375d173cc88ef7c6319e7d84b10eaa8e880cf2a9d6ee808a64736f6c63430008140033",
  "linkReferences": {},
  "deployedLinkReferences": {}
}