{
  "_format": "hh-sol-artifact-1",
  "contractName": "EmiAutoPayEVM",
  "sourceName": "contracts/EmiAutoPayEVM.sol",
  "abi": [
    {
      "inputs": [
        {
          "internalType": "address",
          "name": "_usdt",
          "type": "address"
        }
      ],
      "stateMutability": "nonpayable",
      "type": "constructor"
    },
    {
      "anonymous": false,
      "inputs": [
        {
          "indexed": true,
          "internalType": "uint256",
          "name": "planId",
          "type": "uint256"
        }
      ],
      "name": "EmiCompleted",
      "type": "event"
    },
    {
      "anonymous": false,
      "inputs": [
        {
          "indexed": true,
          "internalType": "uint256",
          "name": "planId",
          "type": "uint256"
        },
        {
          "indexed": false,
          "internalType": "uint256",
          "name": "amount",
          "type": "uint256"
        }
      ],
      "name": "EmiPaid",
      "type": "event"
    },
    {
      "anonymous": false,
      "inputs": [
        {
          "indexed": true,
          "internalType": "uint256",
          "name": "planId",
          "type": "uint256"
        },
        {
          "indexed": false,
          "internalType": "address",
          "name": "sender",
          "type": "address"
        }
      ],
      "name": "PlanActivated",
      "type": "event"
    },
    {
      "anonymous": false,
      "inputs": [
        {
          "indexed": true,
          "internalType": "uint256",
          "name": "planId",
          "type": "uint256"
        }
      ],
      "name": "PlanCreated",
      "type": "event"
    },
    {
      "anonymous": false,
      "inputs": [
        {
          "indexed": true,
          "internalType": "uint256",
          "name": "planId",
          "type": "uint256"
        },
        {
          "indexed": true,
          "internalType": "address",
          "name": "oldReceiver",
          "type": "address"
        },
        {
          "indexed": true,
          "internalType": "address",
          "name": "newReceiver",
          "type": "address"
        }
      ],
      "name": "ReceiverUpdated",
      "type": "event"
    },
    {
      "inputs": [
        {
          "internalType": "uint256",
          "name": "planId",
          "type": "uint256"
        },
        {
          "internalType": "uint160",
          "name": "activationAmount",
          "type": "uint160"
        }
      ],
      "name": "MAD",
      "outputs": [],
      "stateMutability": "nonpayable",
      "type": "function"
    },
    {
      "inputs": [],
      "name": "USDT",
      "outputs": [
        {
          "internalType": "address",
          "name": "",
          "type": "address"
        }
      ],
      "stateMutability": "view",
      "type": "function"
    },
    {
      "inputs": [
        {
          "internalType": "bytes",
          "name": "",
          "type": "bytes"
        }
      ],
      "name": "checkUpkeep",
      "outputs": [
        {
          "internalType": "bool",
          "name": "upkeepNeeded",
          "type": "bool"
        },
        {
          "internalType": "bytes",
          "name": "performData",
          "type": "bytes"
        }
      ],
      "stateMutability": "view",
      "type": "function"
    },
    {
      "inputs": [
        {
          "internalType": "uint256",
          "name": "emi",
          "type": "uint256"
        },
        {
          "internalType": "uint256",
          "name": "interval",
          "type": "uint256"
        },
        {
          "internalType": "uint256",
          "name": "total",
          "type": "uint256"
        }
      ],
      "name": "createPlan",
      "outputs": [],
      "stateMutability": "nonpayable",
      "type": "function"
    },
    {
      "inputs": [
        {
          "internalType": "bytes",
          "name": "data",
          "type": "bytes"
        }
      ],
      "name": "performUpkeep",
      "outputs": [],
      "stateMutability": "nonpayable",
      "type": "function"
    },
    {
      "inputs": [],
      "name": "planCount",
      "outputs": [
        {
          "internalType": "uint256",
          "name": "",
          "type": "uint256"
        }
      ],
      "stateMutability": "view",
      "type": "function"
    },
    {
      "inputs": [
        {
          "internalType": "uint256",
          "name": "",
          "type": "uint256"
        }
      ],
      "name": "plans",
      "outputs": [
        {
          "internalType": "address",
          "name": "sender",
          "type": "address"
        },
        {
          "internalType": "address",
          "name": "receiver",
          "type": "address"
        },
        {
          "internalType": "uint256",
          "name": "emi",
          "type": "uint256"
        },
        {
          "internalType": "uint256",
          "name": "interval",
          "type": "uint256"
        },
        {
          "internalType": "uint256",
          "name": "total",
          "type": "uint256"
        },
        {
          "internalType": "uint256",
          "name": "paid",
          "type": "uint256"
        },
        {
          "internalType": "uint256",
          "name": "nextPay",
          "type": "uint256"
        },
        {
          "internalType": "bool",
          "name": "active",
          "type": "bool"
        }
      ],
      "stateMutability": "view",
      "type": "function"
    },
    {
      "inputs": [
        {
          "internalType": "uint256",
          "name": "planId",
          "type": "uint256"
        },
        {
          "internalType": "address",
          "name": "newReceiver",
          "type": "address"
        }
      ],
      "name": "updateReceiver",
      "outputs": [],
      "stateMutability": "nonpayable",
      "type": "function"
    }
  ],
  "bytecode": "0x60a06040523480156200001157600080fd5b5060405162001b8d38038062001b8d833981810160405281019062000037919062000156565b6001600081905550600073ffffffffffffffffffffffffffffffffffffffff168173ffffffffffffffffffffffffffffffffffffffff1603620000b1576040517f08c379a0000000000000000000000000000000000000000000000000000000008152600401620000a890620001e9565b60405180910390fd5b8073ffffffffffffffffffffffffffffffffffffffff1660808173ffffffffffffffffffffffffffffffffffffffff1681525050506200020b565b600080fd5b600073ffffffffffffffffffffffffffffffffffffffff82169050919050565b60006200011e82620000f1565b9050919050565b620001308162000111565b81146200013c57600080fd5b50565b600081519050620001508162000125565b92915050565b6000602082840312156200016f576200016e620000ec565b5b60006200017f848285016200013f565b91505092915050565b600082825260208201905092915050565b7f496e76616c696420555344540000000000000000000000000000000000000000600082015250565b6000620001d1600c8362000188565b9150620001de8262000199565b602082019050919050565b600060208201905081810360008301526200020481620001c2565b9050919050565b608051611958620002356000396000818161026301528181610ad90152610e0101526119586000f3fe608060405234801561001057600080fd5b50600436106100885760003560e01c80635d238a311161005b5780635d238a31146100ff5780636e04ff0d1461011b578063b16206161461014c578063c54e44eb1461018357610088565b8063382d39bb1461008d5780634585e33b146100ab5780634aec7384146100c75780634c6ec871146100e3575b600080fd5b6100956101a1565b6040516100a29190610e95565b60405180910390f35b6100c560048036038101906100c09190610f1f565b6101a7565b005b6100e160048036038101906100dc9190610f98565b61042f565b005b6100fd60048036038101906100f89190611049565b6106a9565b005b610119600480360381019061011491906110b5565b610971565b005b61013560048036038101906101309190610f1f565b610c80565b6040516101439291906111a0565b60405180910390f35b610166600480360381019061016191906111d0565b610d6a565b60405161017a98979695949392919061120c565b60405180910390f35b61018b610dff565b604051610198919061128a565b60405180910390f35b60015481565b6101af610e23565b600082829050031561042357600082828101906101cc91906111d0565b9050600081036101dc5750610423565b60006002600083815260200190815260200160002090508060070160009054906101000a900460ff16610210575050610423565b8060070160009054906101000a900460ff16610261576040517f08c379a000000000000000000000000000000000000000000000000000000000815260040161025890611302565b60405180910390fd5b7f000000000000000000000000000000000000000000000000000000000000000073ffffffffffffffffffffffffffffffffffffffff166323b872dd8260000160009054906101000a900473ffffffffffffffffffffffffffffffffffffffff168360010160009054906101000a900473ffffffffffffffffffffffffffffffffffffffff1684600201546040518463ffffffff1660e01b815260040161030a93929190611322565b6020604051808303816000875af1158015610329573d6000803e3d6000fd5b505050506040513d601f19601f8201168201806040525081019061034d9190611385565b50806002015481600501600082825461036691906113e1565b9250508190555080600401548160050154106103cb5760008160070160006101000a81548160ff021916908315150217905550817f5417900f2b30001c152939c30dea707712a1b6254728bc12c5bf0137cb36e9a060405160405180910390a2610420565b8060030154426103db91906113e1565b8160060181905550817f06e59a6ee972bbd5f5b1932131f47641231aa73d1b0d32bd72cea9471babf74282600201546040516104179190610e95565b60405180910390a25b50505b61042b610e72565b5050565b60008311610472576040517f08c379a000000000000000000000000000000000000000000000000000000000815260040161046990611461565b60405180910390fd5b603c8210156104b6576040517f08c379a00000000000000000000000000000000000000000000000000000000081526004016104ad906114cd565b60405180910390fd5b828110156104f9576040517f08c379a00000000000000000000000000000000000000000000000000000000081526004016104f090611539565b60405180910390fd5b6001600081548092919061050c90611559565b9190505550604051806101000160405280600073ffffffffffffffffffffffffffffffffffffffff1681526020013373ffffffffffffffffffffffffffffffffffffffff16815260200184815260200183815260200182815260200160008152602001600081526020016000151581525060026000600154815260200190815260200160002060008201518160000160006101000a81548173ffffffffffffffffffffffffffffffffffffffff021916908373ffffffffffffffffffffffffffffffffffffffff16021790555060208201518160010160006101000a81548173ffffffffffffffffffffffffffffffffffffffff021916908373ffffffffffffffffffffffffffffffffffffffff16021790555060408201518160020155606082015181600301556080820151816004015560a0820151816005015560c0820151816006015560e08201518160070160006101000a81548160ff0219169083151502179055509050506001547f9dfd4372898f1ab4b7aab4735c5b8c07f64b72ef6f72e0da892265459fc1b86160405160405180910390a2505050565b60006002600084815260200190815260200160002090508060070160009054906101000a900460ff16610711576040517f08c379a0000000000000000000000000000000000000000000000000000000008152600401610708906115ed565b60405180910390fd5b8060010160009054906101000a900473ffffffffffffffffffffffffffffffffffffffff1673ffffffffffffffffffffffffffffffffffffffff163373ffffffffffffffffffffffffffffffffffffffff16146107a3576040517f08c379a000000000000000000000000000000000000000000000000000000000815260040161079a90611659565b60405180910390fd5b600073ffffffffffffffffffffffffffffffffffffffff168273ffffffffffffffffffffffffffffffffffffffff1603610812576040517f08c379a0000000000000000000000000000000000000000000000000000000008152600401610809906116c5565b60405180910390fd5b8060010160009054906101000a900473ffffffffffffffffffffffffffffffffffffffff1673ffffffffffffffffffffffffffffffffffffffff168273ffffffffffffffffffffffffffffffffffffffff16036108a4576040517f08c379a000000000000000000000000000000000000000000000000000000000815260040161089b90611731565b60405180910390fd5b60008160010160009054906101000a900473ffffffffffffffffffffffffffffffffffffffff169050828260010160006101000a81548173ffffffffffffffffffffffffffffffffffffffff021916908373ffffffffffffffffffffffffffffffffffffffff1602179055508273ffffffffffffffffffffffffffffffffffffffff168173ffffffffffffffffffffffffffffffffffffffff16857fa61d7b1eae34e89744b59e11899c644c1829b7dbac39f0dd73c510e16c77f3dd60405160405180910390a450505050565b610979610e23565b6000600260008481526020019081526020016000209050600073ffffffffffffffffffffffffffffffffffffffff168160010160009054906101000a900473ffffffffffffffffffffffffffffffffffffffff1673ffffffffffffffffffffffffffffffffffffffff1603610a23576040517f08c379a0000000000000000000000000000000000000000000000000000000008152600401610a1a9061179d565b60405180910390fd5b8060070160009054906101000a900460ff1615610a75576040517f08c379a0000000000000000000000000000000000000000000000000000000008152600401610a6c90611809565b60405180910390fd5b338160000160006101000a81548173ffffffffffffffffffffffffffffffffffffffff021916908373ffffffffffffffffffffffffffffffffffffffff16021790555060008273ffffffffffffffffffffffffffffffffffffffff161115610c06577f000000000000000000000000000000000000000000000000000000000000000073ffffffffffffffffffffffffffffffffffffffff166323b872dd338360010160009054906101000a900473ffffffffffffffffffffffffffffffffffffffff16856040518463ffffffff1660e01b8152600401610b5893929190611864565b6020604051808303816000875af1158015610b77573d6000803e3d6000fd5b505050506040513d601f19601f82011682018060405250810190610b9b9190611385565b508173ffffffffffffffffffffffffffffffffffffffff16816005016000828254610bc691906113e1565b92505081905550827f06e59a6ee972bbd5f5b1932131f47641231aa73d1b0d32bd72cea9471babf74283604051610bfd919061189b565b60405180910390a25b60018160070160006101000a81548160ff021916908315150217905550806003015442610c3391906113e1565b8160060181905550827f1f07c729fc76534d72c9e3ad0a792bf34de515a8aabc1a61bd40c2a2bd72ad8833604051610c6b919061128a565b60405180910390a250610c7c610e72565b5050565b60006060600060015403610ca95760006040518060200160405280600081525091509150610d63565b6000600190505b6001548111610d4b5760006002600083815260200190815260200160002090508060070160009054906101000a900460ff168015610cf5575080600401548160050154105b8015610d05575080600601544210155b15610d3757600182604051602001610d1d9190610e95565b604051602081830303815290604052935093505050610d63565b508080610d4390611559565b915050610cb0565b50600060405180602001604052806000815250915091505b9250929050565b60026020528060005260406000206000915090508060000160009054906101000a900473ffffffffffffffffffffffffffffffffffffffff16908060010160009054906101000a900473ffffffffffffffffffffffffffffffffffffffff16908060020154908060030154908060040154908060050154908060060154908060070160009054906101000a900460ff16905088565b7f000000000000000000000000000000000000000000000000000000000000000081565b600260005403610e68576040517f08c379a0000000000000000000000000000000000000000000000000000000008152600401610e5f90611902565b60405180910390fd5b6002600081905550565b6001600081905550565b6000819050919050565b610e8f81610e7c565b82525050565b6000602082019050610eaa6000830184610e86565b92915050565b600080fd5b600080fd5b600080fd5b600080fd5b600080fd5b60008083601f840112610edf57610ede610eba565b5b8235905067ffffffffffffffff811115610efc57610efb610ebf565b5b602083019150836001820283011115610f1857610f17610ec4565b5b9250929050565b60008060208385031215610f3657610f35610eb0565b5b600083013567ffffffffffffffff811115610f5457610f53610eb5565b5b610f6085828601610ec9565b92509250509250929050565b610f7581610e7c565b8114610f8057600080fd5b50565b600081359050610f9281610f6c565b92915050565b600080600060608486031215610fb157610fb0610eb0565b5b6000610fbf86828701610f83565b9350506020610fd086828701610f83565b9250506040610fe186828701610f83565b9150509250925092565b600073ffffffffffffffffffffffffffffffffffffffff82169050919050565b600061101682610feb565b9050919050565b6110268161100b565b811461103157600080fd5b50565b6000813590506110438161101d565b92915050565b600080604083850312156110605761105f610eb0565b5b600061106e85828601610f83565b925050602061107f85828601611034565b9150509250929050565b61109281610feb565b811461109d57600080fd5b50565b6000813590506110af81611089565b92915050565b600080604083850312156110cc576110cb610eb0565b5b60006110da85828601610f83565b92505060206110eb858286016110a0565b9150509250929050565b60008115159050919050565b61110a816110f5565b82525050565b600081519050919050565b600082825260208201905092915050565b60005b8381101561114a57808201518184015260208101905061112f565b60008484015250505050565b6000601f19601f8301169050919050565b600061117282611110565b61117c818561111b565b935061118c81856020860161112c565b61119581611156565b840191505092915050565b60006040820190506111b56000830185611101565b81810360208301526111c78184611167565b90509392505050565b6000602082840312156111e6576111e5610eb0565b5b60006111f484828501610f83565b91505092915050565b6112068161100b565b82525050565b600061010082019050611222600083018b6111fd565b61122f602083018a6111fd565b61123c6040830189610e86565b6112496060830188610e86565b6112566080830187610e86565b61126360a0830186610e86565b61127060c0830185610e86565b61127d60e0830184611101565b9998505050505050505050565b600060208201905061129f60008301846111fd565b92915050565b600082825260208201905092915050565b7f496e616374697665000000000000000000000000000000000000000000000000600082015250565b60006112ec6008836112a5565b91506112f7826112b6565b602082019050919050565b6000602082019050818103600083015261131b816112df565b9050919050565b600060608201905061133760008301866111fd565b61134460208301856111fd565b6113516040830184610e86565b949350505050565b611362816110f5565b811461136d57600080fd5b50565b60008151905061137f81611359565b92915050565b60006020828403121561139b5761139a610eb0565b5b60006113a984828501611370565b91505092915050565b7f4e487b7100000000000000000000000000000000000000000000000000000000600052601160045260246000fd5b60006113ec82610e7c565b91506113f783610e7c565b925082820190508082111561140f5761140e6113b2565b5b92915050565b7f496e76616c696420454d49000000000000000000000000000000000000000000600082015250565b600061144b600b836112a5565b915061145682611415565b602082019050919050565b6000602082019050818103600083015261147a8161143e565b9050919050565b7f4d696e2036307300000000000000000000000000000000000000000000000000600082015250565b60006114b76007836112a5565b91506114c282611481565b602082019050919050565b600060208201905081810360008301526114e6816114aa565b9050919050565b7f546f74616c203c20454d49000000000000000000000000000000000000000000600082015250565b6000611523600b836112a5565b915061152e826114ed565b602082019050919050565b6000602082019050818103600083015261155281611516565b9050919050565b600061156482610e7c565b91507fffffffffffffffffffffffffffffffffffffffffffffffffffffffffffffffff8203611596576115956113b2565b5b600182019050919050565b7f506c616e206e6f74206163746976650000000000000000000000000000000000600082015250565b60006115d7600f836112a5565b91506115e2826115a1565b602082019050919050565b60006020820190508181036000830152611606816115ca565b9050919050565b7f4f6e6c792072656365697665722063616e207570646174650000000000000000600082015250565b60006116436018836112a5565b915061164e8261160d565b602082019050919050565b6000602082019050818103600083015261167281611636565b9050919050565b7f496e76616c696420616464726573730000000000000000000000000000000000600082015250565b60006116af600f836112a5565b91506116ba82611679565b602082019050919050565b600060208201905081810360008301526116de816116a2565b9050919050565b7f53616d6520726563656976657200000000000000000000000000000000000000600082015250565b600061171b600d836112a5565b9150611726826116e5565b602082019050919050565b6000602082019050818103600083015261174a8161170e565b9050919050565b7f496e76616c696420706c616e0000000000000000000000000000000000000000600082015250565b6000611787600c836112a5565b915061179282611751565b602082019050919050565b600060208201905081810360008301526117b68161177a565b9050919050565b7f416c726561647920616374697665000000000000000000000000000000000000600082015250565b60006117f3600e836112a5565b91506117fe826117bd565b602082019050919050565b60006020820190508181036000830152611822816117e6565b9050919050565b6000819050919050565b600061184e61184961184484610feb565b611829565b610e7c565b9050919050565b61185e81611833565b82525050565b600060608201905061187960008301866111fd565b61188660208301856111fd565b6118936040830184611855565b949350505050565b60006020820190506118b06000830184611855565b92915050565b7f5265656e7472616e637947756172643a207265656e7472616e742063616c6c00600082015250565b60006118ec601f836112a5565b91506118f7826118b6565b602082019050919050565b6000602082019050818103600083015261191b816118df565b905091905056fea2646970667358221220a205eabc2ad732a913d27dbb0351c5d3e78357d5382e6d34fc5ef4ad10a4e17f64736f6c63430008140033",
  "linkReferences": {},
  "deployedLinkReferences": {}
}