{
  "_format": "hh-sol-artifact-1",
  "contractName": "EmiAutoPayEVM",
  "sourceName": "contracts/EmiAutoPayEVM.sol",
  "abi": [
    {
      "anonymous": false,
      "inputs": [
        {
          "indexed": true,
          "internalType": "uint256",
          "name": "planId",
          "type": "uint256"
        }
      ],
      "name": "EmiCompleted",
      "type": "event"
    },
    {
      "anonymous": false,
      "inputs": [
        {
          "indexed": true,
          "internalType": "uint256",
          "name": "planId",
          "type": "uint256"
        },
        {
          "indexed": false,
          "internalType": "uint256",
          "name": "amount",
          "type": "uint256"
        }
      ],
      "name": "EmiPaid",
      "type": "event"
    },
    {
      "anonymous": false,
      "inputs": [
        {
          "indexed": true,
          "internalType": "uint256",
          "name": "planId",
          "type": "uint256"
        },
        {
          "indexed": false,
          "internalType": "address",
          "name": "sender",
          "type": "address"
        }
      ],
      "name": "PlanActivated",
      "type": "event"
    },
    {
      "anonymous": false,
      "inputs": [
        {
          "indexed": true,
          "internalType": "uint256",
          "name": "planId",
          "type": "uint256"
        }
      ],
      "name": "PlanCreated",
      "type": "event"
    },
    {
      "anonymous": false,
      "inputs": [
        {
          "indexed": true,
          "internalType": "uint256",
          "name": "planId",
          "type": "uint256"
        },
        {
          "indexed": true,
          "internalType": "address",
          "name": "receiver",
          "type": "address"
        }
      ],
      "name": "PlanLinked",
      "type": "event"
    },
    {
      "inputs": [
        {
          "internalType": "uint256",
          "name": "planId",
          "type": "uint256"
        }
      ],
      "name": "activatePlan",
      "outputs": [],
      "stateMutability": "payable",
      "type": "function"
    },
    {
      "inputs": [
        {
          "internalType": "bytes",
          "name": "",
          "type": "bytes"
        }
      ],
      "name": "checkUpkeep",
      "outputs": [
        {
          "internalType": "bool",
          "name": "upkeepNeeded",
          "type": "bool"
        },
        {
          "internalType": "bytes",
          "name": "performData",
          "type": "bytes"
        }
      ],
      "stateMutability": "view",
      "type": "function"
    },
    {
      "inputs": [
        {
          "internalType": "uint256",
          "name": "emi",
          "type": "uint256"
        },
        {
          "internalType": "uint256",
          "name": "interval",
          "type": "uint256"
        },
        {
          "internalType": "uint256",
          "name": "total",
          "type": "uint256"
        }
      ],
      "name": "createPlan",
      "outputs": [],
      "stateMutability": "nonpayable",
      "type": "function"
    },
    {
      "inputs": [
        {
          "internalType": "uint256",
          "name": "planId",
          "type": "uint256"
        }
      ],
      "name": "linkPlanToDirectPayment",
      "outputs": [],
      "stateMutability": "nonpayable",
      "type": "function"
    },
    {
      "inputs": [
        {
          "internalType": "address",
          "name": "",
          "type": "address"
        }
      ],
      "name": "linkedReceivers",
      "outputs": [
        {
          "internalType": "bool",
          "name": "",
          "type": "bool"
        }
      ],
      "stateMutability": "view",
      "type": "function"
    },
    {
      "inputs": [
        {
          "internalType": "address",
          "name": "",
          "type": "address"
        }
      ],
      "name": "pendingPlanId",
      "outputs": [
        {
          "internalType": "uint256",
          "name": "",
          "type": "uint256"
        }
      ],
      "stateMutability": "view",
      "type": "function"
    },
    {
      "inputs": [
        {
          "internalType": "bytes",
          "name": "data",
          "type": "bytes"
        }
      ],
      "name": "performUpkeep",
      "outputs": [],
      "stateMutability": "nonpayable",
      "type": "function"
    },
    {
      "inputs": [],
      "name": "planCount",
      "outputs": [
        {
          "internalType": "uint256",
          "name": "",
          "type": "uint256"
        }
      ],
      "stateMutability": "view",
      "type": "function"
    },
    {
      "inputs": [
        {
          "internalType": "uint256",
          "name": "",
          "type": "uint256"
        }
      ],
      "name": "plans",
      "outputs": [
        {
          "internalType": "address payable",
          "name": "sender",
          "type": "address"
        },
        {
          "internalType": "address payable",
          "name": "receiver",
          "type": "address"
        },
        {
          "internalType": "uint256",
          "name": "emi",
          "type": "uint256"
        },
        {
          "internalType": "uint256",
          "name": "interval",
          "type": "uint256"
        },
        {
          "internalType": "uint256",
          "name": "total",
          "type": "uint256"
        },
        {
          "internalType": "uint256",
          "name": "paid",
          "type": "uint256"
        },
        {
          "internalType": "uint256",
          "name": "nextPay",
          "type": "uint256"
        },
        {
          "internalType": "bool",
          "name": "active",
          "type": "bool"
        }
      ],
      "stateMutability": "view",
      "type": "function"
    },
    {
      "inputs": [],
      "name": "unlinkPlan",
      "outputs": [],
      "stateMutability": "nonpayable",
      "type": "function"
    },
    {
      "stateMutability": "payable",
      "type": "receive"
    }
  ],
  "bytecode": "0x608060405234801561001057600080fd5b506001600081905550611d3b806100286000396000f3fe6080604052600436106100955760003560e01c80637404c769116100595780637404c76914610492578063b1620616146104cf578063bd6e7efb14610513578063d4ea9e621461053c578063ea74cb131461055857610395565b8063382d39bb1461039a57806342b0a672146103c55780634585e33b146104025780634aec73841461042b5780636e04ff0d1461045457610395565b36610395576000341180156100f35750600460003373ffffffffffffffffffffffffffffffffffffffff1673ffffffffffffffffffffffffffffffffffffffff16815260200190815260200160002060009054906101000a900460ff165b801561013e57506000600360003373ffffffffffffffffffffffffffffffffffffffff1673ffffffffffffffffffffffffffffffffffffffff16815260200190815260200160002054115b15610393576000600360003373ffffffffffffffffffffffffffffffffffffffff1673ffffffffffffffffffffffffffffffffffffffff16815260200190815260200160002054905060006002600083815260200190815260200160002090508060070160009054906101000a900460ff161580156101c1575080600201543410155b801561021c57503373ffffffffffffffffffffffffffffffffffffffff168160010160009054906101000a900473ffffffffffffffffffffffffffffffffffffffff1673ffffffffffffffffffffffffffffffffffffffff16145b1561039057328160000160006101000a81548173ffffffffffffffffffffffffffffffffffffffff021916908373ffffffffffffffffffffffffffffffffffffffff1602179055503481600501600082825461027891906112da565b925050819055508060010160009054906101000a900473ffffffffffffffffffffffffffffffffffffffff1673ffffffffffffffffffffffffffffffffffffffff166108fc349081150290604051600060405180830381858888f193505050501580156102e9573d6000803e3d6000fd5b5060018160070160006101000a81548160ff02191690831515021790555080600301544261031791906112da565b8160060181905550817f1f07c729fc76534d72c9e3ad0a792bf34de515a8aabc1a61bd40c2a2bd72ad883260405161034f919061134f565b60405180910390a2817f06e59a6ee972bbd5f5b1932131f47641231aa73d1b0d32bd72cea9471babf742346040516103879190611379565b60405180910390a25b50505b005b600080fd5b3480156103a657600080fd5b506103af61056f565b6040516103bc9190611379565b60405180910390f35b3480156103d157600080fd5b506103ec60048036038101906103e791906113ca565b610575565b6040516103f99190611379565b60405180910390f35b34801561040e57600080fd5b506104296004803603810190610424919061145c565b61058d565b005b34801561043757600080fd5b50610452600480360381019061044d91906114d5565b6107d2565b005b34801561046057600080fd5b5061047b6004803603810190610476919061145c565b610a4c565b6040516104899291906115d3565b60405180910390f35b34801561049e57600080fd5b506104b960048036038101906104b491906113ca565b610b36565b6040516104c69190611603565b60405180910390f35b3480156104db57600080fd5b506104f660048036038101906104f1919061161e565b610b56565b60405161050a98979695949392919061166c565b60405180910390f35b34801561051f57600080fd5b5061053a6004803603810190610535919061161e565b610beb565b005b6105566004803603810190610551919061161e565b610ee6565b005b34801561056457600080fd5b5061056d6111ab565b005b60015481565b60036020528060005260406000206000915090505481565b610595611248565b60008282905003156107c657600082828101906105b2919061161e565b905060006002600083815260200190815260200160002090508060070160009054906101000a900460ff1661061c576040517f08c379a000000000000000000000000000000000000000000000000000000000815260040161061390611747565b60405180910390fd5b60008160000160009054906101000a900473ffffffffffffffffffffffffffffffffffffffff1673ffffffffffffffffffffffffffffffffffffffff16826002015460405161066a90611798565b60006040518083038185875af1925050503d80600081146106a7576040519150601f19603f3d011682016040523d82523d6000602084013e6106ac565b606091505b50509050806106f0576040517f08c379a00000000000000000000000000000000000000000000000000000000081526004016106e7906117f9565b60405180910390fd5b816002015482600501600082825461070891906112da565b92505081905550816004015482600501541061076d5760008260070160006101000a81548160ff021916908315150217905550827f5417900f2b30001c152939c30dea707712a1b6254728bc12c5bf0137cb36e9a060405160405180910390a26107c2565b81600301544261077d91906112da565b8260060181905550827f06e59a6ee972bbd5f5b1932131f47641231aa73d1b0d32bd72cea9471babf74283600201546040516107b99190611379565b60405180910390a25b5050505b6107ce611297565b5050565b60008311610815576040517f08c379a000000000000000000000000000000000000000000000000000000000815260040161080c90611865565b60405180910390fd5b603c821015610859576040517f08c379a0000000000000000000000000000000000000000000000000000000008152600401610850906118d1565b60405180910390fd5b8281101561089c576040517f08c379a00000000000000000000000000000000000000000000000000000000081526004016108939061193d565b60405180910390fd5b600160008154809291906108af9061195d565b9190505550604051806101000160405280600073ffffffffffffffffffffffffffffffffffffffff1681526020013373ffffffffffffffffffffffffffffffffffffffff16815260200184815260200183815260200182815260200160008152602001600081526020016000151581525060026000600154815260200190815260200160002060008201518160000160006101000a81548173ffffffffffffffffffffffffffffffffffffffff021916908373ffffffffffffffffffffffffffffffffffffffff16021790555060208201518160010160006101000a81548173ffffffffffffffffffffffffffffffffffffffff021916908373ffffffffffffffffffffffffffffffffffffffff16021790555060408201518160020155606082015181600301556080820151816004015560a0820151816005015560c0820151816006015560e08201518160070160006101000a81548160ff0219169083151502179055509050506001547f9dfd4372898f1ab4b7aab4735c5b8c07f64b72ef6f72e0da892265459fc1b86160405160405180910390a2505050565b60006060600060015403610a755760006040518060200160405280600081525091509150610b2f565b6000600190505b6001548111610b175760006002600083815260200190815260200160002090508060070160009054906101000a900460ff168015610ac1575080600401548160050154105b8015610ad1575080600601544210155b15610b0357600182604051602001610ae99190611379565b604051602081830303815290604052935093505050610b2f565b508080610b0f9061195d565b915050610a7c565b50600060405180602001604052806000815250915091505b9250929050565b60046020528060005260406000206000915054906101000a900460ff1681565b60026020528060005260406000206000915090508060000160009054906101000a900473ffffffffffffffffffffffffffffffffffffffff16908060010160009054906101000a900473ffffffffffffffffffffffffffffffffffffffff16908060020154908060030154908060040154908060050154908060060154908060070160009054906101000a900460ff16905088565b600081118015610bfd57506001548111155b610c3c576040517f08c379a0000000000000000000000000000000000000000000000000000000008152600401610c33906119f1565b60405180910390fd5b60006002600083815260200190815260200160002090503373ffffffffffffffffffffffffffffffffffffffff168160010160009054906101000a900473ffffffffffffffffffffffffffffffffffffffff1673ffffffffffffffffffffffffffffffffffffffff1614610ce5576040517f08c379a0000000000000000000000000000000000000000000000000000000008152600401610cdc90611a5d565b60405180910390fd5b8060070160009054906101000a900460ff1615610d37576040517f08c379a0000000000000000000000000000000000000000000000000000000008152600401610d2e90611ac9565b60405180910390fd5b6000600360003373ffffffffffffffffffffffffffffffffffffffff1673ffffffffffffffffffffffffffffffffffffffff168152602001908152602001600020541480610dc3575081600360003373ffffffffffffffffffffffffffffffffffffffff1673ffffffffffffffffffffffffffffffffffffffff16815260200190815260200160002054145b610e02576040517f08c379a0000000000000000000000000000000000000000000000000000000008152600401610df990611b35565b60405180910390fd5b81600360003373ffffffffffffffffffffffffffffffffffffffff1673ffffffffffffffffffffffffffffffffffffffff168152602001908152602001600020819055506001600460003373ffffffffffffffffffffffffffffffffffffffff1673ffffffffffffffffffffffffffffffffffffffff16815260200190815260200160002060006101000a81548160ff0219169083151502179055503373ffffffffffffffffffffffffffffffffffffffff16827fa71688517b80a169255911c539e70f1889f59db8a23c03d4ffc131fea52c0ffa60405160405180910390a35050565b610eee611248565b6000600260008381526020019081526020016000209050600073ffffffffffffffffffffffffffffffffffffffff168160010160009054906101000a900473ffffffffffffffffffffffffffffffffffffffff1673ffffffffffffffffffffffffffffffffffffffff1603610f98576040517f08c379a0000000000000000000000000000000000000000000000000000000008152600401610f8f90611ba1565b60405180910390fd5b8060070160009054906101000a900460ff1615610fea576040517f08c379a0000000000000000000000000000000000000000000000000000000008152600401610fe190611c0d565b60405180910390fd5b8060020154341015611031576040517f08c379a000000000000000000000000000000000000000000000000000000000815260040161102890611c79565b60405180910390fd5b338160000160006101000a81548173ffffffffffffffffffffffffffffffffffffffff021916908373ffffffffffffffffffffffffffffffffffffffff1602179055503481600501600082825461108891906112da565b925050819055508060010160009054906101000a900473ffffffffffffffffffffffffffffffffffffffff1673ffffffffffffffffffffffffffffffffffffffff166108fc349081150290604051600060405180830381858888f193505050501580156110f9573d6000803e3d6000fd5b50817f06e59a6ee972bbd5f5b1932131f47641231aa73d1b0d32bd72cea9471babf7423460405161112a9190611379565b60405180910390a260018160070160006101000a81548160ff02191690831515021790555080600301544261115f91906112da565b8160060181905550817f1f07c729fc76534d72c9e3ad0a792bf34de515a8aabc1a61bd40c2a2bd72ad8833604051611197919061134f565b60405180910390a2506111a8611297565b50565b600360003373ffffffffffffffffffffffffffffffffffffffff1673ffffffffffffffffffffffffffffffffffffffff168152602001908152602001600020600090556000600460003373ffffffffffffffffffffffffffffffffffffffff1673ffffffffffffffffffffffffffffffffffffffff16815260200190815260200160002060006101000a81548160ff021916908315150217905550565b60026000540361128d576040517f08c379a000000000000000000000000000000000000000000000000000000000815260040161128490611ce5565b60405180910390fd5b6002600081905550565b6001600081905550565b6000819050919050565b7f4e487b7100000000000000000000000000000000000000000000000000000000600052601160045260246000fd5b60006112e5826112a1565b91506112f0836112a1565b9250828201905080821115611308576113076112ab565b5b92915050565b600073ffffffffffffffffffffffffffffffffffffffff82169050919050565b60006113398261130e565b9050919050565b6113498161132e565b82525050565b60006020820190506113646000830184611340565b92915050565b611373816112a1565b82525050565b600060208201905061138e600083018461136a565b92915050565b600080fd5b600080fd5b6113a78161132e565b81146113b257600080fd5b50565b6000813590506113c48161139e565b92915050565b6000602082840312156113e0576113df611394565b5b60006113ee848285016113b5565b91505092915050565b600080fd5b600080fd5b600080fd5b60008083601f84011261141c5761141b6113f7565b5b8235905067ffffffffffffffff811115611439576114386113fc565b5b60208301915083600182028301111561145557611454611401565b5b9250929050565b6000806020838503121561147357611472611394565b5b600083013567ffffffffffffffff81111561149157611490611399565b5b61149d85828601611406565b92509250509250929050565b6114b2816112a1565b81146114bd57600080fd5b50565b6000813590506114cf816114a9565b92915050565b6000806000606084860312156114ee576114ed611394565b5b60006114fc868287016114c0565b935050602061150d868287016114c0565b925050604061151e868287016114c0565b9150509250925092565b60008115159050919050565b61153d81611528565b82525050565b600081519050919050565b600082825260208201905092915050565b60005b8381101561157d578082015181840152602081019050611562565b60008484015250505050565b6000601f19601f8301169050919050565b60006115a582611543565b6115af818561154e565b93506115bf81856020860161155f565b6115c881611589565b840191505092915050565b60006040820190506115e86000830185611534565b81810360208301526115fa818461159a565b90509392505050565b60006020820190506116186000830184611534565b92915050565b60006020828403121561163457611633611394565b5b6000611642848285016114c0565b91505092915050565b60006116568261130e565b9050919050565b6116668161164b565b82525050565b600061010082019050611682600083018b61165d565b61168f602083018a61165d565b61169c604083018961136a565b6116a9606083018861136a565b6116b6608083018761136a565b6116c360a083018661136a565b6116d060c083018561136a565b6116dd60e0830184611534565b9998505050505050505050565b600082825260208201905092915050565b7f496e616374697665000000000000000000000000000000000000000000000000600082015250565b60006117316008836116ea565b915061173c826116fb565b602082019050919050565b6000602082019050818103600083015261176081611724565b9050919050565b600081905092915050565b50565b6000611782600083611767565b915061178d82611772565b600082019050919050565b60006117a382611775565b9150819050919050565b7f455448207472616e73666572206661696c656400000000000000000000000000600082015250565b60006117e36013836116ea565b91506117ee826117ad565b602082019050919050565b60006020820190508181036000830152611812816117d6565b9050919050565b7f496e76616c696420454d49000000000000000000000000000000000000000000600082015250565b600061184f600b836116ea565b915061185a82611819565b602082019050919050565b6000602082019050818103600083015261187e81611842565b9050919050565b7f4d696e2036307300000000000000000000000000000000000000000000000000600082015250565b60006118bb6007836116ea565b91506118c682611885565b602082019050919050565b600060208201905081810360008301526118ea816118ae565b9050919050565b7f546f74616c203c20454d49000000000000000000000000000000000000000000600082015250565b6000611927600b836116ea565b9150611932826118f1565b602082019050919050565b600060208201905081810360008301526119568161191a565b9050919050565b6000611968826112a1565b91507fffffffffffffffffffffffffffffffffffffffffffffffffffffffffffffffff820361199a576119996112ab565b5b600182019050919050565b7f496e76616c696420706c616e2049440000000000000000000000000000000000600082015250565b60006119db600f836116ea565b91506119e6826119a5565b602082019050919050565b60006020820190508181036000830152611a0a816119ce565b9050919050565b7f4e6f7420796f757220706c616e00000000000000000000000000000000000000600082015250565b6000611a47600d836116ea565b9150611a5282611a11565b602082019050919050565b60006020820190508181036000830152611a7681611a3a565b9050919050565b7f506c616e20616c72656164792061637469766500000000000000000000000000600082015250565b6000611ab36013836116ea565b9150611abe82611a7d565b602082019050919050565b60006020820190508181036000830152611ae281611aa6565b9050919050565b7f416c7265616479206c696e6b6564000000000000000000000000000000000000600082015250565b6000611b1f600e836116ea565b9150611b2a82611ae9565b602082019050919050565b60006020820190508181036000830152611b4e81611b12565b9050919050565b7f496e76616c696420706c616e0000000000000000000000000000000000000000600082015250565b6000611b8b600c836116ea565b9150611b9682611b55565b602082019050919050565b60006020820190508181036000830152611bba81611b7e565b9050919050565b7f416c726561647920616374697665000000000000000000000000000000000000600082015250565b6000611bf7600e836116ea565b9150611c0282611bc1565b602082019050919050565b60006020820190508181036000830152611c2681611bea565b9050919050565b7f53656e64206174206c65617374203120454d4900000000000000000000000000600082015250565b6000611c636013836116ea565b9150611c6e82611c2d565b602082019050919050565b60006020820190508181036000830152611c9281611c56565b9050919050565b7f5265656e7472616e637947756172643a207265656e7472616e742063616c6c00600082015250565b6000611ccf601f836116ea565b9150611cda82611c99565b602082019050919050565b60006020820190508181036000830152611cfe81611cc2565b905091905056fea2646970667358221220ba1b598c29d742fd6c78c3aea5e3c6ff621cda01fc5a996733e2e4cc119543df64736f6c63430008140033",
  "linkReferences": {},
  "deployedLinkReferences": {}
}