{
  "_format": "hh-sol-artifact-1",
  "contractName": "EmiAutoPayEVM",
  "sourceName": "contracts/EmiAutoPayEVM.sol",
  "abi": [
    {
      "inputs": [],
      "stateMutability": "nonpayable",
      "type": "constructor"
    },
    {
      "anonymous": false,
      "inputs": [
        {
          "indexed": true,
          "internalType": "uint256",
          "name": "planId",
          "type": "uint256"
        }
      ],
      "name": "EmiCompleted",
      "type": "event"
    },
    {
      "anonymous": false,
      "inputs": [
        {
          "indexed": true,
          "internalType": "uint256",
          "name": "planId",
          "type": "uint256"
        },
        {
          "indexed": false,
          "internalType": "uint256",
          "name": "amount",
          "type": "uint256"
        }
      ],
      "name": "EmiPaid",
      "type": "event"
    },
    {
      "anonymous": false,
      "inputs": [
        {
          "indexed": true,
          "internalType": "uint256",
          "name": "planId",
          "type": "uint256"
        },
        {
          "indexed": true,
          "internalType": "address",
          "name": "sender",
          "type": "address"
        },
        {
          "indexed": false,
          "internalType": "uint256",
          "name": "amount",
          "type": "uint256"
        }
      ],
      "name": "PaymentReceived",
      "type": "event"
    },
    {
      "anonymous": false,
      "inputs": [
        {
          "indexed": true,
          "internalType": "uint256",
          "name": "planId",
          "type": "uint256"
        },
        {
          "indexed": true,
          "internalType": "address",
          "name": "sender",
          "type": "address"
        }
      ],
      "name": "PlanActivated",
      "type": "event"
    },
    {
      "anonymous": false,
      "inputs": [
        {
          "indexed": true,
          "internalType": "uint256",
          "name": "planId",
          "type": "uint256"
        }
      ],
      "name": "PlanCreated",
      "type": "event"
    },
    {
      "anonymous": false,
      "inputs": [
        {
          "indexed": true,
          "internalType": "uint256",
          "name": "planId",
          "type": "uint256"
        },
        {
          "indexed": true,
          "internalType": "address",
          "name": "receiver",
          "type": "address"
        }
      ],
      "name": "PlanLinked",
      "type": "event"
    },
    {
      "inputs": [
        {
          "internalType": "uint256",
          "name": "planId",
          "type": "uint256"
        }
      ],
      "name": "activatePlan",
      "outputs": [],
      "stateMutability": "payable",
      "type": "function"
    },
    {
      "inputs": [
        {
          "internalType": "uint256",
          "name": "planId",
          "type": "uint256"
        },
        {
          "internalType": "address",
          "name": "sender",
          "type": "address"
        }
      ],
      "name": "activatePlanRaw",
      "outputs": [],
      "stateMutability": "nonpayable",
      "type": "function"
    },
    {
      "inputs": [],
      "name": "admin",
      "outputs": [
        {
          "internalType": "address",
          "name": "",
          "type": "address"
        }
      ],
      "stateMutability": "view",
      "type": "function"
    },
    {
      "inputs": [
        {
          "internalType": "bytes",
          "name": "",
          "type": "bytes"
        }
      ],
      "name": "checkUpkeep",
      "outputs": [
        {
          "internalType": "bool",
          "name": "upkeepNeeded",
          "type": "bool"
        },
        {
          "internalType": "bytes",
          "name": "performData",
          "type": "bytes"
        }
      ],
      "stateMutability": "view",
      "type": "function"
    },
    {
      "inputs": [
        {
          "internalType": "uint256",
          "name": "emi",
          "type": "uint256"
        },
        {
          "internalType": "uint256",
          "name": "interval",
          "type": "uint256"
        },
        {
          "internalType": "uint256",
          "name": "total",
          "type": "uint256"
        }
      ],
      "name": "createPlan",
      "outputs": [],
      "stateMutability": "nonpayable",
      "type": "function"
    },
    {
      "inputs": [
        {
          "internalType": "uint256",
          "name": "planId",
          "type": "uint256"
        }
      ],
      "name": "linkPlanToDirectPayment",
      "outputs": [],
      "stateMutability": "nonpayable",
      "type": "function"
    },
    {
      "inputs": [
        {
          "internalType": "address",
          "name": "",
          "type": "address"
        }
      ],
      "name": "pendingPlanId",
      "outputs": [
        {
          "internalType": "uint256",
          "name": "",
          "type": "uint256"
        }
      ],
      "stateMutability": "view",
      "type": "function"
    },
    {
      "inputs": [
        {
          "internalType": "bytes",
          "name": "data",
          "type": "bytes"
        }
      ],
      "name": "performUpkeep",
      "outputs": [],
      "stateMutability": "nonpayable",
      "type": "function"
    },
    {
      "inputs": [],
      "name": "planCount",
      "outputs": [
        {
          "internalType": "uint256",
          "name": "",
          "type": "uint256"
        }
      ],
      "stateMutability": "view",
      "type": "function"
    },
    {
      "inputs": [
        {
          "internalType": "uint256",
          "name": "",
          "type": "uint256"
        }
      ],
      "name": "plans",
      "outputs": [
        {
          "internalType": "address payable",
          "name": "sender",
          "type": "address"
        },
        {
          "internalType": "address payable",
          "name": "receiver",
          "type": "address"
        },
        {
          "internalType": "uint256",
          "name": "emi",
          "type": "uint256"
        },
        {
          "internalType": "uint256",
          "name": "interval",
          "type": "uint256"
        },
        {
          "internalType": "uint256",
          "name": "total",
          "type": "uint256"
        },
        {
          "internalType": "uint256",
          "name": "paid",
          "type": "uint256"
        },
        {
          "internalType": "uint256",
          "name": "nextPay",
          "type": "uint256"
        },
        {
          "internalType": "bool",
          "name": "active",
          "type": "bool"
        },
        {
          "internalType": "bool",
          "name": "paymentReceived",
          "type": "bool"
        }
      ],
      "stateMutability": "view",
      "type": "function"
    },
    {
      "inputs": [
        {
          "internalType": "address",
          "name": "newAdmin",
          "type": "address"
        }
      ],
      "name": "setAdmin",
      "outputs": [],
      "stateMutability": "nonpayable",
      "type": "function"
    }
  ],
  "bytecode": "0x608060405234801561001057600080fd5b50600160008190555033600460006101000a81548173ffffffffffffffffffffffffffffffffffffffff021916908373ffffffffffffffffffffffffffffffffffffffff160217905550611da9806100696000396000f3fe60806040526004361061009c5760003560e01c8063704b6c0211610064578063704b6c0214610199578063b1620616146101c2578063bd6e7efb14610207578063d4ea9e6214610230578063d8496dfc1461024c578063f851a440146102755761009c565b8063382d39bb146100a157806342b0a672146100cc5780634585e33b146101095780634aec7384146101325780636e04ff0d1461015b575b600080fd5b3480156100ad57600080fd5b506100b66102a0565b6040516100c3919061121c565b60405180910390f35b3480156100d857600080fd5b506100f360048036038101906100ee919061129f565b6102a6565b604051610100919061121c565b60405180910390f35b34801561011557600080fd5b50610130600480360381019061012b9190611331565b6102be565b005b34801561013e57600080fd5b50610159600480360381019061015491906113aa565b610503565b005b34801561016757600080fd5b50610182600480360381019061017d9190611331565b6107a7565b6040516101909291906114a8565b60405180910390f35b3480156101a557600080fd5b506101c060048036038101906101bb919061129f565b610891565b005b3480156101ce57600080fd5b506101e960048036038101906101e491906114d8565b610965565b6040516101fe99989796959493929190611526565b60405180910390f35b34801561021357600080fd5b5061022e600480360381019061022991906114d8565b610a0d565b005b61024a600480360381019061024591906114d8565b610be5565b005b34801561025857600080fd5b50610273600480360381019061026e91906115b3565b610eb6565b005b34801561028157600080fd5b5061028a611184565b6040516102979190611602565b60405180910390f35b60015481565b60036020528060005260406000206000915090505481565b6102c66111aa565b60008282905003156104f757600082828101906102e391906114d8565b905060006002600083815260200190815260200160002090508060070160009054906101000a900460ff1661034d576040517f08c379a00000000000000000000000000000000000000000000000000000000081526004016103449061167a565b60405180910390fd5b60008160000160009054906101000a900473ffffffffffffffffffffffffffffffffffffffff1673ffffffffffffffffffffffffffffffffffffffff16826002015460405161039b906116cb565b60006040518083038185875af1925050503d80600081146103d8576040519150601f19603f3d011682016040523d82523d6000602084013e6103dd565b606091505b5050905080610421576040517f08c379a00000000000000000000000000000000000000000000000000000000081526004016104189061172c565b60405180910390fd5b8160020154826005016000828254610439919061177b565b92505081905550816004015482600501541061049e5760008260070160006101000a81548160ff021916908315150217905550827f5417900f2b30001c152939c30dea707712a1b6254728bc12c5bf0137cb36e9a060405160405180910390a26104f3565b8160030154426104ae919061177b565b8260060181905550827f06e59a6ee972bbd5f5b1932131f47641231aa73d1b0d32bd72cea9471babf74283600201546040516104ea919061121c565b60405180910390a25b5050505b6104ff6111f9565b5050565b60008311610546576040517f08c379a000000000000000000000000000000000000000000000000000000000815260040161053d906117fb565b60405180910390fd5b603c82101561058a576040517f08c379a000000000000000000000000000000000000000000000000000000000815260040161058190611867565b60405180910390fd5b828110156105cd576040517f08c379a00000000000000000000000000000000000000000000000000000000081526004016105c4906118d3565b60405180910390fd5b600160008154809291906105e0906118f3565b9190505550604051806101200160405280600073ffffffffffffffffffffffffffffffffffffffff1681526020013373ffffffffffffffffffffffffffffffffffffffff16815260200184815260200183815260200182815260200160008152602001600081526020016000151581526020016000151581525060026000600154815260200190815260200160002060008201518160000160006101000a81548173ffffffffffffffffffffffffffffffffffffffff021916908373ffffffffffffffffffffffffffffffffffffffff16021790555060208201518160010160006101000a81548173ffffffffffffffffffffffffffffffffffffffff021916908373ffffffffffffffffffffffffffffffffffffffff16021790555060408201518160020155606082015181600301556080820151816004015560a0820151816005015560c0820151816006015560e08201518160070160006101000a81548160ff0219169083151502179055506101008201518160070160016101000a81548160ff0219169083151502179055509050506001547f9dfd4372898f1ab4b7aab4735c5b8c07f64b72ef6f72e0da892265459fc1b86160405160405180910390a2505050565b600060606000600154036107d0576000604051806020016040528060008152509150915061088a565b6000600190505b60015481116108725760006002600083815260200190815260200160002090508060070160009054906101000a900460ff16801561081c575080600401548160050154105b801561082c575080600601544210155b1561085e57600182604051602001610844919061121c565b60405160208183030381529060405293509350505061088a565b50808061086a906118f3565b9150506107d7565b50600060405180602001604052806000815250915091505b9250929050565b600460009054906101000a900473ffffffffffffffffffffffffffffffffffffffff1673ffffffffffffffffffffffffffffffffffffffff163373ffffffffffffffffffffffffffffffffffffffff1614610921576040517f08c379a000000000000000000000000000000000000000000000000000000000815260040161091890611987565b60405180910390fd5b80600460006101000a81548173ffffffffffffffffffffffffffffffffffffffff021916908373ffffffffffffffffffffffffffffffffffffffff16021790555050565b60026020528060005260406000206000915090508060000160009054906101000a900473ffffffffffffffffffffffffffffffffffffffff16908060010160009054906101000a900473ffffffffffffffffffffffffffffffffffffffff16908060020154908060030154908060040154908060050154908060060154908060070160009054906101000a900460ff16908060070160019054906101000a900460ff16905089565b600081118015610a1f57506001548111155b610a5e576040517f08c379a0000000000000000000000000000000000000000000000000000000008152600401610a55906119f3565b60405180910390fd5b60006002600083815260200190815260200160002090503373ffffffffffffffffffffffffffffffffffffffff168160010160009054906101000a900473ffffffffffffffffffffffffffffffffffffffff1673ffffffffffffffffffffffffffffffffffffffff1614610b07576040517f08c379a0000000000000000000000000000000000000000000000000000000008152600401610afe90611a5f565b60405180910390fd5b8060070160009054906101000a900460ff1615610b59576040517f08c379a0000000000000000000000000000000000000000000000000000000008152600401610b5090611acb565b60405180910390fd5b81600360003373ffffffffffffffffffffffffffffffffffffffff1673ffffffffffffffffffffffffffffffffffffffff168152602001908152602001600020819055503373ffffffffffffffffffffffffffffffffffffffff16827fa71688517b80a169255911c539e70f1889f59db8a23c03d4ffc131fea52c0ffa60405160405180910390a35050565b610bed6111aa565b6000600260008381526020019081526020016000209050600073ffffffffffffffffffffffffffffffffffffffff168160010160009054906101000a900473ffffffffffffffffffffffffffffffffffffffff1673ffffffffffffffffffffffffffffffffffffffff1603610c97576040517f08c379a0000000000000000000000000000000000000000000000000000000008152600401610c8e90611b37565b60405180910390fd5b8060070160009054906101000a900460ff1615610ce9576040517f08c379a0000000000000000000000000000000000000000000000000000000008152600401610ce090611ba3565b60405180910390fd5b8060020154341015610d30576040517f08c379a0000000000000000000000000000000000000000000000000000000008152600401610d2790611c0f565b60405180910390fd5b338160000160006101000a81548173ffffffffffffffffffffffffffffffffffffffff021916908373ffffffffffffffffffffffffffffffffffffffff16021790555034816005016000828254610d87919061177b565b925050819055508060010160009054906101000a900473ffffffffffffffffffffffffffffffffffffffff1673ffffffffffffffffffffffffffffffffffffffff166108fc349081150290604051600060405180830381858888f19350505050158015610df8573d6000803e3d6000fd5b50817f06e59a6ee972bbd5f5b1932131f47641231aa73d1b0d32bd72cea9471babf74234604051610e29919061121c565b60405180910390a260018160070160006101000a81548160ff021916908315150217905550806003015442610e5e919061177b565b81600601819055503373ffffffffffffffffffffffffffffffffffffffff16827f1f07c729fc76534d72c9e3ad0a792bf34de515a8aabc1a61bd40c2a2bd72ad8860405160405180910390a350610eb36111f9565b50565b600460009054906101000a900473ffffffffffffffffffffffffffffffffffffffff1673ffffffffffffffffffffffffffffffffffffffff163373ffffffffffffffffffffffffffffffffffffffff1614610f46576040517f08c379a0000000000000000000000000000000000000000000000000000000008152600401610f3d90611987565b60405180910390fd5b600060026000848152602001908152602001600020905082600360008360010160009054906101000a900473ffffffffffffffffffffffffffffffffffffffff1673ffffffffffffffffffffffffffffffffffffffff1673ffffffffffffffffffffffffffffffffffffffff1681526020019081526020016000205414611002576040517f08c379a0000000000000000000000000000000000000000000000000000000008152600401610ff990611c7b565b60405180910390fd5b8060070160009054906101000a900460ff1615611054576040517f08c379a000000000000000000000000000000000000000000000000000000000815260040161104b90611ba3565b60405180910390fd5b8060070160019054906101000a900460ff16156110a6576040517f08c379a000000000000000000000000000000000000000000000000000000000815260040161109d90611ce7565b60405180910390fd5b818160000160006101000a81548173ffffffffffffffffffffffffffffffffffffffff021916908373ffffffffffffffffffffffffffffffffffffffff16021790555060018160070160016101000a81548160ff02191690831515021790555060018160070160006101000a81548160ff021916908315150217905550806003015442611133919061177b565b81600601819055508173ffffffffffffffffffffffffffffffffffffffff16837f1f07c729fc76534d72c9e3ad0a792bf34de515a8aabc1a61bd40c2a2bd72ad8860405160405180910390a3505050565b600460009054906101000a900473ffffffffffffffffffffffffffffffffffffffff1681565b6002600054036111ef576040517f08c379a00000000000000000000000000000000000000000000000000000000081526004016111e690611d53565b60405180910390fd5b6002600081905550565b6001600081905550565b6000819050919050565b61121681611203565b82525050565b6000602082019050611231600083018461120d565b92915050565b600080fd5b600080fd5b600073ffffffffffffffffffffffffffffffffffffffff82169050919050565b600061126c82611241565b9050919050565b61127c81611261565b811461128757600080fd5b50565b60008135905061129981611273565b92915050565b6000602082840312156112b5576112b4611237565b5b60006112c38482850161128a565b91505092915050565b600080fd5b600080fd5b600080fd5b60008083601f8401126112f1576112f06112cc565b5b8235905067ffffffffffffffff81111561130e5761130d6112d1565b5b60208301915083600182028301111561132a576113296112d6565b5b9250929050565b6000806020838503121561134857611347611237565b5b600083013567ffffffffffffffff8111156113665761136561123c565b5b611372858286016112db565b92509250509250929050565b61138781611203565b811461139257600080fd5b50565b6000813590506113a48161137e565b92915050565b6000806000606084860312156113c3576113c2611237565b5b60006113d186828701611395565b93505060206113e286828701611395565b92505060406113f386828701611395565b9150509250925092565b60008115159050919050565b611412816113fd565b82525050565b600081519050919050565b600082825260208201905092915050565b60005b83811015611452578082015181840152602081019050611437565b60008484015250505050565b6000601f19601f8301169050919050565b600061147a82611418565b6114848185611423565b9350611494818560208601611434565b61149d8161145e565b840191505092915050565b60006040820190506114bd6000830185611409565b81810360208301526114cf818461146f565b90509392505050565b6000602082840312156114ee576114ed611237565b5b60006114fc84828501611395565b91505092915050565b600061151082611241565b9050919050565b61152081611505565b82525050565b60006101208201905061153c600083018c611517565b611549602083018b611517565b611556604083018a61120d565b611563606083018961120d565b611570608083018861120d565b61157d60a083018761120d565b61158a60c083018661120d565b61159760e0830185611409565b6115a5610100830184611409565b9a9950505050505050505050565b600080604083850312156115ca576115c9611237565b5b60006115d885828601611395565b92505060206115e98582860161128a565b9150509250929050565b6115fc81611261565b82525050565b600060208201905061161760008301846115f3565b92915050565b600082825260208201905092915050565b7f496e616374697665000000000000000000000000000000000000000000000000600082015250565b600061166460088361161d565b915061166f8261162e565b602082019050919050565b6000602082019050818103600083015261169381611657565b9050919050565b600081905092915050565b50565b60006116b560008361169a565b91506116c0826116a5565b600082019050919050565b60006116d6826116a8565b9150819050919050565b7f455448207472616e73666572206661696c656400000000000000000000000000600082015250565b600061171660138361161d565b9150611721826116e0565b602082019050919050565b6000602082019050818103600083015261174581611709565b9050919050565b7f4e487b7100000000000000000000000000000000000000000000000000000000600052601160045260246000fd5b600061178682611203565b915061179183611203565b92508282019050808211156117a9576117a861174c565b5b92915050565b7f496e76616c696420454d49000000000000000000000000000000000000000000600082015250565b60006117e5600b8361161d565b91506117f0826117af565b602082019050919050565b60006020820190508181036000830152611814816117d8565b9050919050565b7f4d696e2036307300000000000000000000000000000000000000000000000000600082015250565b600061185160078361161d565b915061185c8261181b565b602082019050919050565b6000602082019050818103600083015261188081611844565b9050919050565b7f546f74616c203c20454d49000000000000000000000000000000000000000000600082015250565b60006118bd600b8361161d565b91506118c882611887565b602082019050919050565b600060208201905081810360008301526118ec816118b0565b9050919050565b60006118fe82611203565b91507fffffffffffffffffffffffffffffffffffffffffffffffffffffffffffffffff82036119305761192f61174c565b5b600182019050919050565b7f4f6e6c792061646d696e00000000000000000000000000000000000000000000600082015250565b6000611971600a8361161d565b915061197c8261193b565b602082019050919050565b600060208201905081810360008301526119a081611964565b9050919050565b7f496e76616c696420706c616e2049440000000000000000000000000000000000600082015250565b60006119dd600f8361161d565b91506119e8826119a7565b602082019050919050565b60006020820190508181036000830152611a0c816119d0565b9050919050565b7f4e6f7420796f757220706c616e00000000000000000000000000000000000000600082015250565b6000611a49600d8361161d565b9150611a5482611a13565b602082019050919050565b60006020820190508181036000830152611a7881611a3c565b9050919050565b7f506c616e20616c72656164792061637469766500000000000000000000000000600082015250565b6000611ab560138361161d565b9150611ac082611a7f565b602082019050919050565b60006020820190508181036000830152611ae481611aa8565b9050919050565b7f496e76616c696420706c616e0000000000000000000000000000000000000000600082015250565b6000611b21600c8361161d565b9150611b2c82611aeb565b602082019050919050565b60006020820190508181036000830152611b5081611b14565b9050919050565b7f416c726561647920616374697665000000000000000000000000000000000000600082015250565b6000611b8d600e8361161d565b9150611b9882611b57565b602082019050919050565b60006020820190508181036000830152611bbc81611b80565b9050919050565b7f53656e64206174206c65617374203120454d4900000000000000000000000000600082015250565b6000611bf960138361161d565b9150611c0482611bc3565b602082019050919050565b60006020820190508181036000830152611c2881611bec565b9050919050565b7f506c616e206e6f74206c696e6b65640000000000000000000000000000000000600082015250565b6000611c65600f8361161d565b9150611c7082611c2f565b602082019050919050565b60006020820190508181036000830152611c9481611c58565b9050919050565b7f5061796d656e7420616c72656164792072656365697665640000000000000000600082015250565b6000611cd160188361161d565b9150611cdc82611c9b565b602082019050919050565b60006020820190508181036000830152611d0081611cc4565b9050919050565b7f5265656e7472616e637947756172643a207265656e7472616e742063616c6c00600082015250565b6000611d3d601f8361161d565b9150611d4882611d07565b602082019050919050565b60006020820190508181036000830152611d6c81611d30565b905091905056fea2646970667358221220fd1451433dd4d524f7c0051e672ea593409a22e751ae9a6bcfd8bdc8daa1017164736f6c63430008140033",
  "linkReferences": {},
  "deployedLinkReferences": {}
}