{
  "_format": "hh-sol-artifact-1",
  "contractName": "EmiAutoPayEVM",
  "sourceName": "contracts/EmiAutoPayEVM.sol",
  "abi": [
    {
      "anonymous": false,
      "inputs": [
        {
          "indexed": true,
          "internalType": "uint256",
          "name": "planId",
          "type": "uint256"
        }
      ],
      "name": "EmiCompleted",
      "type": "event"
    },
    {
      "anonymous": false,
      "inputs": [
        {
          "indexed": true,
          "internalType": "uint256",
          "name": "planId",
          "type": "uint256"
        },
        {
          "indexed": false,
          "internalType": "uint256",
          "name": "amount",
          "type": "uint256"
        }
      ],
      "name": "EmiPaid",
      "type": "event"
    },
    {
      "anonymous": false,
      "inputs": [
        {
          "indexed": true,
          "internalType": "uint256",
          "name": "planId",
          "type": "uint256"
        },
        {
          "indexed": true,
          "internalType": "address",
          "name": "sender",
          "type": "address"
        }
      ],
      "name": "PlanActivated",
      "type": "event"
    },
    {
      "anonymous": false,
      "inputs": [
        {
          "indexed": true,
          "internalType": "uint256",
          "name": "planId",
          "type": "uint256"
        }
      ],
      "name": "PlanCreated",
      "type": "event"
    },
    {
      "anonymous": false,
      "inputs": [
        {
          "indexed": true,
          "internalType": "uint256",
          "name": "planId",
          "type": "uint256"
        },
        {
          "indexed": true,
          "internalType": "address",
          "name": "receiver",
          "type": "address"
        }
      ],
      "name": "PlanLinked",
      "type": "event"
    },
    {
      "inputs": [
        {
          "internalType": "uint256",
          "name": "planId",
          "type": "uint256"
        }
      ],
      "name": "activatePlan",
      "outputs": [],
      "stateMutability": "payable",
      "type": "function"
    },
    {
      "inputs": [
        {
          "internalType": "bytes",
          "name": "",
          "type": "bytes"
        }
      ],
      "name": "checkUpkeep",
      "outputs": [
        {
          "internalType": "bool",
          "name": "upkeepNeeded",
          "type": "bool"
        },
        {
          "internalType": "bytes",
          "name": "performData",
          "type": "bytes"
        }
      ],
      "stateMutability": "view",
      "type": "function"
    },
    {
      "inputs": [
        {
          "internalType": "uint256",
          "name": "emi",
          "type": "uint256"
        },
        {
          "internalType": "uint256",
          "name": "interval",
          "type": "uint256"
        },
        {
          "internalType": "uint256",
          "name": "total",
          "type": "uint256"
        }
      ],
      "name": "createPlan",
      "outputs": [],
      "stateMutability": "nonpayable",
      "type": "function"
    },
    {
      "inputs": [
        {
          "internalType": "uint256",
          "name": "planId",
          "type": "uint256"
        }
      ],
      "name": "linkPlanToDirectPayment",
      "outputs": [],
      "stateMutability": "nonpayable",
      "type": "function"
    },
    {
      "inputs": [
        {
          "internalType": "address",
          "name": "",
          "type": "address"
        }
      ],
      "name": "linkedReceivers",
      "outputs": [
        {
          "internalType": "bool",
          "name": "",
          "type": "bool"
        }
      ],
      "stateMutability": "view",
      "type": "function"
    },
    {
      "inputs": [
        {
          "internalType": "address",
          "name": "",
          "type": "address"
        }
      ],
      "name": "pendingPlanId",
      "outputs": [
        {
          "internalType": "uint256",
          "name": "",
          "type": "uint256"
        }
      ],
      "stateMutability": "view",
      "type": "function"
    },
    {
      "inputs": [
        {
          "internalType": "bytes",
          "name": "data",
          "type": "bytes"
        }
      ],
      "name": "performUpkeep",
      "outputs": [],
      "stateMutability": "nonpayable",
      "type": "function"
    },
    {
      "inputs": [],
      "name": "planCount",
      "outputs": [
        {
          "internalType": "uint256",
          "name": "",
          "type": "uint256"
        }
      ],
      "stateMutability": "view",
      "type": "function"
    },
    {
      "inputs": [
        {
          "internalType": "uint256",
          "name": "",
          "type": "uint256"
        }
      ],
      "name": "plans",
      "outputs": [
        {
          "internalType": "address payable",
          "name": "sender",
          "type": "address"
        },
        {
          "internalType": "address payable",
          "name": "receiver",
          "type": "address"
        },
        {
          "internalType": "uint256",
          "name": "emi",
          "type": "uint256"
        },
        {
          "internalType": "uint256",
          "name": "interval",
          "type": "uint256"
        },
        {
          "internalType": "uint256",
          "name": "total",
          "type": "uint256"
        },
        {
          "internalType": "uint256",
          "name": "paid",
          "type": "uint256"
        },
        {
          "internalType": "uint256",
          "name": "nextPay",
          "type": "uint256"
        },
        {
          "internalType": "bool",
          "name": "active",
          "type": "bool"
        }
      ],
      "stateMutability": "view",
      "type": "function"
    },
    {
      "inputs": [],
      "name": "unlinkPlan",
      "outputs": [],
      "stateMutability": "nonpayable",
      "type": "function"
    },
    {
      "stateMutability": "payable",
      "type": "receive"
    }
  ],
  "bytecode": "0x608060405234801561001057600080fd5b506001600081905550611bd9806100286000396000f3fe6080604052600436106100955760003560e01c80637404c769116100595780637404c76914610485578063b1620616146104c2578063bd6e7efb14610506578063d4ea9e621461052f578063ea74cb131461054b57610388565b8063382d39bb1461038d57806342b0a672146103b85780634585e33b146103f55780634aec73841461041e5780636e04ff0d1461044757610388565b36610388576100a2610562565b66038d7ea4c68000341061037d576000600190505b600154811161037b5760006002600083815260200190815260200160002090508060070160009054906101000a900460ff16158015610158575081600360008360010160009054906101000a900473ffffffffffffffffffffffffffffffffffffffff1673ffffffffffffffffffffffffffffffffffffffff1673ffffffffffffffffffffffffffffffffffffffff16815260200190815260200160002054145b80156101d15750600460008260010160009054906101000a900473ffffffffffffffffffffffffffffffffffffffff1673ffffffffffffffffffffffffffffffffffffffff1673ffffffffffffffffffffffffffffffffffffffff16815260200190815260200160002060009054906101000a900460ff165b80156101e1575080600201543410155b1561036757338160000160006101000a81548173ffffffffffffffffffffffffffffffffffffffff021916908373ffffffffffffffffffffffffffffffffffffffff1602179055503481600501600082825461023d919061120e565b925050819055508060010160009054906101000a900473ffffffffffffffffffffffffffffffffffffffff1673ffffffffffffffffffffffffffffffffffffffff166108fc349081150290604051600060405180830381858888f193505050501580156102ae573d6000803e3d6000fd5b5060018160070160006101000a81548160ff0219169083151502179055508060030154426102dc919061120e565b81600601819055503373ffffffffffffffffffffffffffffffffffffffff16827f1f07c729fc76534d72c9e3ad0a792bf34de515a8aabc1a61bd40c2a2bd72ad8860405160405180910390a3817f06e59a6ee972bbd5f5b1932131f47641231aa73d1b0d32bd72cea9471babf742346040516103589190611251565b60405180910390a2505061037e565b5080806103739061126c565b9150506100b7565b505b5b6103866105b1565b005b600080fd5b34801561039957600080fd5b506103a26105bb565b6040516103af9190611251565b60405180910390f35b3480156103c457600080fd5b506103df60048036038101906103da919061131c565b6105c1565b6040516103ec9190611251565b60405180910390f35b34801561040157600080fd5b5061041c600480360381019061041791906113ae565b6105d9565b005b34801561042a57600080fd5b5061044560048036038101906104409190611427565b61081e565b005b34801561045357600080fd5b5061046e600480360381019061046991906113ae565b610a98565b60405161047c929190611525565b60405180910390f35b34801561049157600080fd5b506104ac60048036038101906104a7919061131c565b610b82565b6040516104b99190611555565b60405180910390f35b3480156104ce57600080fd5b506104e960048036038101906104e49190611570565b610ba2565b6040516104fd9897969594939291906115be565b60405180910390f35b34801561051257600080fd5b5061052d60048036038101906105289190611570565b610c37565b005b61054960048036038101906105449190611570565b610e67565b005b34801561055757600080fd5b50610560611138565b005b6002600054036105a7576040517f08c379a000000000000000000000000000000000000000000000000000000000815260040161059e90611699565b60405180910390fd5b6002600081905550565b6001600081905550565b60015481565b60036020528060005260406000206000915090505481565b6105e1610562565b600082829050031561081257600082828101906105fe9190611570565b905060006002600083815260200190815260200160002090508060070160009054906101000a900460ff16610668576040517f08c379a000000000000000000000000000000000000000000000000000000000815260040161065f90611705565b60405180910390fd5b60008160000160009054906101000a900473ffffffffffffffffffffffffffffffffffffffff1673ffffffffffffffffffffffffffffffffffffffff1682600201546040516106b690611756565b60006040518083038185875af1925050503d80600081146106f3576040519150601f19603f3d011682016040523d82523d6000602084013e6106f8565b606091505b505090508061073c576040517f08c379a0000000000000000000000000000000000000000000000000000000008152600401610733906117b7565b60405180910390fd5b8160020154826005016000828254610754919061120e565b9250508190555081600401548260050154106107b95760008260070160006101000a81548160ff021916908315150217905550827f5417900f2b30001c152939c30dea707712a1b6254728bc12c5bf0137cb36e9a060405160405180910390a261080e565b8160030154426107c9919061120e565b8260060181905550827f06e59a6ee972bbd5f5b1932131f47641231aa73d1b0d32bd72cea9471babf74283600201546040516108059190611251565b60405180910390a25b5050505b61081a6105b1565b5050565b60008311610861576040517f08c379a000000000000000000000000000000000000000000000000000000000815260040161085890611823565b60405180910390fd5b603c8210156108a5576040517f08c379a000000000000000000000000000000000000000000000000000000000815260040161089c9061188f565b60405180910390fd5b828110156108e8576040517f08c379a00000000000000000000000000000000000000000000000000000000081526004016108df906118fb565b60405180910390fd5b600160008154809291906108fb9061126c565b9190505550604051806101000160405280600073ffffffffffffffffffffffffffffffffffffffff1681526020013373ffffffffffffffffffffffffffffffffffffffff16815260200184815260200183815260200182815260200160008152602001600081526020016000151581525060026000600154815260200190815260200160002060008201518160000160006101000a81548173ffffffffffffffffffffffffffffffffffffffff021916908373ffffffffffffffffffffffffffffffffffffffff16021790555060208201518160010160006101000a81548173ffffffffffffffffffffffffffffffffffffffff021916908373ffffffffffffffffffffffffffffffffffffffff16021790555060408201518160020155606082015181600301556080820151816004015560a0820151816005015560c0820151816006015560e08201518160070160006101000a81548160ff0219169083151502179055509050506001547f9dfd4372898f1ab4b7aab4735c5b8c07f64b72ef6f72e0da892265459fc1b86160405160405180910390a2505050565b60006060600060015403610ac15760006040518060200160405280600081525091509150610b7b565b6000600190505b6001548111610b635760006002600083815260200190815260200160002090508060070160009054906101000a900460ff168015610b0d575080600401548160050154105b8015610b1d575080600601544210155b15610b4f57600182604051602001610b359190611251565b604051602081830303815290604052935093505050610b7b565b508080610b5b9061126c565b915050610ac8565b50600060405180602001604052806000815250915091505b9250929050565b60046020528060005260406000206000915054906101000a900460ff1681565b60026020528060005260406000206000915090508060000160009054906101000a900473ffffffffffffffffffffffffffffffffffffffff16908060010160009054906101000a900473ffffffffffffffffffffffffffffffffffffffff16908060020154908060030154908060040154908060050154908060060154908060070160009054906101000a900460ff16905088565b600081118015610c4957506001548111155b610c88576040517f08c379a0000000000000000000000000000000000000000000000000000000008152600401610c7f90611967565b60405180910390fd5b60006002600083815260200190815260200160002090503373ffffffffffffffffffffffffffffffffffffffff168160010160009054906101000a900473ffffffffffffffffffffffffffffffffffffffff1673ffffffffffffffffffffffffffffffffffffffff1614610d31576040517f08c379a0000000000000000000000000000000000000000000000000000000008152600401610d28906119d3565b60405180910390fd5b8060070160009054906101000a900460ff1615610d83576040517f08c379a0000000000000000000000000000000000000000000000000000000008152600401610d7a90611a3f565b60405180910390fd5b81600360003373ffffffffffffffffffffffffffffffffffffffff1673ffffffffffffffffffffffffffffffffffffffff168152602001908152602001600020819055506001600460003373ffffffffffffffffffffffffffffffffffffffff1673ffffffffffffffffffffffffffffffffffffffff16815260200190815260200160002060006101000a81548160ff0219169083151502179055503373ffffffffffffffffffffffffffffffffffffffff16827fa71688517b80a169255911c539e70f1889f59db8a23c03d4ffc131fea52c0ffa60405160405180910390a35050565b610e6f610562565b6000600260008381526020019081526020016000209050600073ffffffffffffffffffffffffffffffffffffffff168160010160009054906101000a900473ffffffffffffffffffffffffffffffffffffffff1673ffffffffffffffffffffffffffffffffffffffff1603610f19576040517f08c379a0000000000000000000000000000000000000000000000000000000008152600401610f1090611aab565b60405180910390fd5b8060070160009054906101000a900460ff1615610f6b576040517f08c379a0000000000000000000000000000000000000000000000000000000008152600401610f6290611b17565b60405180910390fd5b8060020154341015610fb2576040517f08c379a0000000000000000000000000000000000000000000000000000000008152600401610fa990611b83565b60405180910390fd5b338160000160006101000a81548173ffffffffffffffffffffffffffffffffffffffff021916908373ffffffffffffffffffffffffffffffffffffffff16021790555034816005016000828254611009919061120e565b925050819055508060010160009054906101000a900473ffffffffffffffffffffffffffffffffffffffff1673ffffffffffffffffffffffffffffffffffffffff166108fc349081150290604051600060405180830381858888f1935050505015801561107a573d6000803e3d6000fd5b50817f06e59a6ee972bbd5f5b1932131f47641231aa73d1b0d32bd72cea9471babf742346040516110ab9190611251565b60405180910390a260018160070160006101000a81548160ff0219169083151502179055508060030154426110e0919061120e565b81600601819055503373ffffffffffffffffffffffffffffffffffffffff16827f1f07c729fc76534d72c9e3ad0a792bf34de515a8aabc1a61bd40c2a2bd72ad8860405160405180910390a3506111356105b1565b50565b600360003373ffffffffffffffffffffffffffffffffffffffff1673ffffffffffffffffffffffffffffffffffffffff168152602001908152602001600020600090556000600460003373ffffffffffffffffffffffffffffffffffffffff1673ffffffffffffffffffffffffffffffffffffffff16815260200190815260200160002060006101000a81548160ff021916908315150217905550565b6000819050919050565b7f4e487b7100000000000000000000000000000000000000000000000000000000600052601160045260246000fd5b6000611219826111d5565b9150611224836111d5565b925082820190508082111561123c5761123b6111df565b5b92915050565b61124b816111d5565b82525050565b60006020820190506112666000830184611242565b92915050565b6000611277826111d5565b91507fffffffffffffffffffffffffffffffffffffffffffffffffffffffffffffffff82036112a9576112a86111df565b5b600182019050919050565b600080fd5b600080fd5b600073ffffffffffffffffffffffffffffffffffffffff82169050919050565b60006112e9826112be565b9050919050565b6112f9816112de565b811461130457600080fd5b50565b600081359050611316816112f0565b92915050565b600060208284031215611332576113316112b4565b5b600061134084828501611307565b91505092915050565b600080fd5b600080fd5b600080fd5b60008083601f84011261136e5761136d611349565b5b8235905067ffffffffffffffff81111561138b5761138a61134e565b5b6020830191508360018202830111156113a7576113a6611353565b5b9250929050565b600080602083850312156113c5576113c46112b4565b5b600083013567ffffffffffffffff8111156113e3576113e26112b9565b5b6113ef85828601611358565b92509250509250929050565b611404816111d5565b811461140f57600080fd5b50565b600081359050611421816113fb565b92915050565b6000806000606084860312156114405761143f6112b4565b5b600061144e86828701611412565b935050602061145f86828701611412565b925050604061147086828701611412565b9150509250925092565b60008115159050919050565b61148f8161147a565b82525050565b600081519050919050565b600082825260208201905092915050565b60005b838110156114cf5780820151818401526020810190506114b4565b60008484015250505050565b6000601f19601f8301169050919050565b60006114f782611495565b61150181856114a0565b93506115118185602086016114b1565b61151a816114db565b840191505092915050565b600060408201905061153a6000830185611486565b818103602083015261154c81846114ec565b90509392505050565b600060208201905061156a6000830184611486565b92915050565b600060208284031215611586576115856112b4565b5b600061159484828501611412565b91505092915050565b60006115a8826112be565b9050919050565b6115b88161159d565b82525050565b6000610100820190506115d4600083018b6115af565b6115e1602083018a6115af565b6115ee6040830189611242565b6115fb6060830188611242565b6116086080830187611242565b61161560a0830186611242565b61162260c0830185611242565b61162f60e0830184611486565b9998505050505050505050565b600082825260208201905092915050565b7f5265656e7472616e637947756172643a207265656e7472616e742063616c6c00600082015250565b6000611683601f8361163c565b915061168e8261164d565b602082019050919050565b600060208201905081810360008301526116b281611676565b9050919050565b7f496e616374697665000000000000000000000000000000000000000000000000600082015250565b60006116ef60088361163c565b91506116fa826116b9565b602082019050919050565b6000602082019050818103600083015261171e816116e2565b9050919050565b600081905092915050565b50565b6000611740600083611725565b915061174b82611730565b600082019050919050565b600061176182611733565b9150819050919050565b7f455448207472616e73666572206661696c656400000000000000000000000000600082015250565b60006117a160138361163c565b91506117ac8261176b565b602082019050919050565b600060208201905081810360008301526117d081611794565b9050919050565b7f496e76616c696420454d49000000000000000000000000000000000000000000600082015250565b600061180d600b8361163c565b9150611818826117d7565b602082019050919050565b6000602082019050818103600083015261183c81611800565b9050919050565b7f4d696e2036307300000000000000000000000000000000000000000000000000600082015250565b600061187960078361163c565b915061188482611843565b602082019050919050565b600060208201905081810360008301526118a88161186c565b9050919050565b7f546f74616c203c20454d49000000000000000000000000000000000000000000600082015250565b60006118e5600b8361163c565b91506118f0826118af565b602082019050919050565b60006020820190508181036000830152611914816118d8565b9050919050565b7f496e76616c696420706c616e2049440000000000000000000000000000000000600082015250565b6000611951600f8361163c565b915061195c8261191b565b602082019050919050565b6000602082019050818103600083015261198081611944565b9050919050565b7f4e6f7420796f757220706c616e00000000000000000000000000000000000000600082015250565b60006119bd600d8361163c565b91506119c882611987565b602082019050919050565b600060208201905081810360008301526119ec816119b0565b9050919050565b7f506c616e20616c72656164792061637469766500000000000000000000000000600082015250565b6000611a2960138361163c565b9150611a34826119f3565b602082019050919050565b60006020820190508181036000830152611a5881611a1c565b9050919050565b7f496e76616c696420706c616e0000000000000000000000000000000000000000600082015250565b6000611a95600c8361163c565b9150611aa082611a5f565b602082019050919050565b60006020820190508181036000830152611ac481611a88565b9050919050565b7f416c726561647920616374697665000000000000000000000000000000000000600082015250565b6000611b01600e8361163c565b9150611b0c82611acb565b602082019050919050565b60006020820190508181036000830152611b3081611af4565b9050919050565b7f53656e64206174206c65617374203120454d4900000000000000000000000000600082015250565b6000611b6d60138361163c565b9150611b7882611b37565b602082019050919050565b60006020820190508181036000830152611b9c81611b60565b905091905056fea2646970667358221220314fb3a150e95c1b1637e6b752b7b922e1500ce8ef6765a454216cb4719ae97464736f6c63430008140033",
  "linkReferences": {},
  "deployedLinkReferences": {}
}